:0E34F60055617274205465737420210D0A0014
:1023A600E490025DF0122E799002647403F0A37437
:1023B600E8F0FB7A03FD7C03FF7E03123380C281C3
:1023C600D2821233EFD281C2821233EFD281D2820D
:1023D600C2831233F1D281D282D2837F0A7E001267
:1023E60033F57F0A7E001233F51234157F0A7E001C
:1023F6001233F51228EC7F647E001233F51234C3D3
:10240600900262120FF4016E36007F007EC27D01DB
:102416007C0012304A7F647E001233F5E49001ECB2
:10242600F0A3F0900223F0A37480F0900206E4F08B
:10243600A37480F09001EAE4F0A37480F0C283E410
:1024460090020FF0900214F0900219F0D2ACD2AFC5
:102456007BFF7A3479F61233BA7B007A00793990A9
:102466000263E543F07D0A7C001230C4EF4E600340
:1024760002251E90021EE065396045E490025DF07B
:1024860090025DE0FFC3940A502874392FF8E65491
:10249600F0C4540FFF7D0112347590025DE02439BB
:1024A600F8E6540FFF7D0112347590025DE004F0EA
:1024B60080CEE4FD7F0D123475E4FD7F0A1234757B
:1024C60090021EE539F09001C2E53AF0E53B75F061
:1024D600FFA47C00253CFEEC35F09001ECF0A3CE89
:1024E600F0900223E4F0A3E53DF0900206E4F0A3A9
:1024F600E53EF09001EAE4F0A3E53FF0E5402480F4
:1025060090020FF0E5412480900214F0E542248009
:10251600900219F0D2828002C2829001C2E0FFB41A
:102526000102D283EFB40502C2837F037E00123319
:04253600F502245F27
:1034C300538E7F5389F0758A40758CA2C28DD28C3E
:0334D300D2A92259
:0633EF00D2837FF47E0191
:1033F500E4FDFCC3ED9FEC9E5015E4FBFA0BBB000E
:0F340500010AEB64FA4A70F50DBD00010C80E47A
:013414002295
:03000B00021AD105
:101AD100C0E0C0F0C083C082C0D075D000C000C0DB
:101AE10001C002C003C004C005C006C00712349182
:101AF1007B007A0079397D0F1232597B007A0079A7
:101B010021123130900200E4F0A3F07B017A0179D7
:101B1100E090023A7419F0A37499F0A37466F0A3EB
:101B2100F0A3E4F0AD22AC21121FC7EE900200F049
:101B3100EFA3F07B017A0179E290023A7419F0A3E4
:101B41007499F0A37466F0A3F0A37401F0AD24AC12
:101B510023121FC7900200E04EF0A3E04FF07B017B
:101B61007A0179E490023A7419F0A37499F0A3749C
:101B710066F0A3F0A37402F0AD26AC25121FC79046
:101B81000200E04EFEA3E04FFF900200EEF0A3EF53
:101B9100F04E6003021D4BAC29AD2AEC120BDFE4C1
:101BA100FBFA79837842120AB3120C187814A6064C
:101BB10008A607AC2BAD2CEC120BDFE4FBFA798302
:101BC1007842120AB3120C187816A60608A60774F2
:101BD10066FBFA7D997C19AF2EAE2D1226947818EA
:101BE100EEF608EFF6FDAC06EC120BDFE4FBFA793A
:101BF100837842120AB39001E6120FE87814E6FCEA
:101C010008E6FDEC120BDF9001D0120FE87816E622
:101C1100FC08E6FDEC120BDF9001D4120FE87814FA
:101C2100E6FC08E6FDEC120BDF7B397AFA798E7857
:101C31003C1209AAC004C005C006C0077816E6FC1C
:101C410008E6FDEC120BDF7B397AFA798E783C12CB
:101C510009AA900239120FE87F397EFA7D8E7C3C09
:101C61009001E6E0F8A3E0F9A3E0FAA3E0FB120992
:101C7100AA90023D120FE89001E0E0FCA3E0FDEC28
:101C8100120BDF900241120FE89001E2E0FCA3E0A9
:101C9100FDEC120BDF900245120FE89001E4E0FC2D
:101CA100A3E0FDEC120BDF900249120FE8D007D040
:101CB10006D005D004120026122D011232AE1214E4
:101CC1005612104A121D66122B209001C2E06405C3
:101CD1007062C39001C1E094329001C0E094004071
:101CE100539001DAE0FEA3E0FF74E89FFF74039EC6
:101CF100FEC006C0079001DCE0FEA3E0FFC374E86C
:101D01009FFD74039EFC9001DEE0FEA3E0FFC3741F
:101D1100E89FFB74039EFA9001D8E0FEA3E0FFC3A5
:101D210074E89F900265F074039E900264F0D007FE
:101D3100D00680139002647403F0A374E8F0FB7A78
:101D410003FD7C03FF7E03123380D007D006D0054C
:101D5100D004D003D002D001D000D0D0D082D08323
:051D6100D0F0D0E032DB
:030023000234594B
:10345900C0D030980BC298859980A29A92A280F226
:0C346900309906C299C20280F7D0D03220
:102E7900E4F594F593F592F591F596F595F5B2F596
:102E8900B1F5B4F5B3F5CAF5C9F5CCF5CBF5E2F56D
:102E9900E175960EF59575B280F5B175BA8075F143
:102EA900B090FFF27410F0E4F5F6F5F790FFF074C6
:102EB90003F0A374E9F090FF04E4F090FF14F0909C
:102EC900FF24F090FF34F090FF007403F0A374E83E
:102ED900F0A37403F0A374E9F090FF107403F0A356
:102EE90074E8F0A37403F0A374E9F090FF2074036D
:102EF900F0A374E8F0A37403F0A374E9F090FF3031
:102F09007403F0A374E8F0A37403F0A374E9F075F3
:082F1900F58F90FFF2E4F022B5
:1033800090025EEEF0A3EFF090025EE090FF00F09E
:1033900090025EA3E090FF01F0EC90FF10F0A3ED2F
:1033A000F0EA90FF20F0A3EBF0900264E0FCA3E0D1
:0A33B000FDEC90FF30F0A3EDF022D9
:1034D600D3EF9400EE94004007EF1F70F31E80F0C8
:0134E60022C3
:0431F7007B01E4FD77
:0731FB0090025EEFF0A90550
:10320200C291E4FFFE90025EE0FD339293D295C23A
:1032120095ED25E0F00FBF00010EEF64084E70E55A
:10322200E4FEFFE9339293D295C295E925E0F90FC6
:10323200BF00010EEF64084E70E9E4FEFFEB33922B
:1032420093D295C295EB25E0FB0FBF00010EEF6410
:06325200084E70E9D29164
:013258002253
:10319400C29174802FFFE4FBFAEF339293D295C26D
:1031A40095EF25E0FF0BBB00010AEB64084A70E9C8
:1031B400E4FAFBD295C29590028BE025E0FFF0A2E1
:1031C40094E4334FF00BBB00010AEB64084A70E34C
:1031D400E4FAFBD295C29590028CE025E0FFF0A2C0
:1031E40094E4334FF00BBB00010AEB64084A70E32C
:0231F400D29176
:0131F60022B6
:1028EC00C2927FF47E011234D6D2927FF47E011212
:1028FC0034D6D2B27BEF7D6FE4FF1231FB7B817D4E
:10290C00567F011231FB7B177D667F021231FB7BF8
:10291C00C97D9C7F041231FB7B377D667F051231AC
:10292C00FBE4FBFD7F071231FB7B907D6C7F081273
:10293C0031FBE4FB7D487F091231FB7BFD7D7F7F02
:10294C000A1231FB7B08E4FD7F0B1231FBE4FBFD2B
:10295C007F0C1231FB7BBD7D487F0D1231FB7BFF61
:10296C00E4FD7F161231FB7B057D807F171231FB56
:10297C007B67E4FD7F181231FB7B597D167F1912A2
:10298C0031FB7BE07D197F1A1231FBE4FB7D137F59
:10299C001B1231FBE4FB7D187F1C1231FBE4FB7D29
:1029AC00587F201231FB7BC77D3F7F211231FBE426
:1029BC00FB7D207F221231FBE4FB7D0A7F23123149
:1029CC00FB7F241231F77F251231F77B01E4FD7F69
:1029DC00261231FB7B01E4FD7F271231FB7B027D4C
:1029EC00447F281231FBE4FB7DB87F291231FB7B3D
:1029FC00FF7DFD7F2A1231FB7B0FE4FD7F2B023123
:012A0C00FBCE
:103491007B807D807F341231FB7BA0E4FD7F0712AE
:0934A10031FB7FC87E000234D625
:0B325900900235EBF0A3EAF0A3E9F0CF
:10326400E4FE7F3212319490028BE06D703BA3E058
:103274007037EEC39D50327F3212319490028BE04E
:10328400FF900235E0FBA3E0FAA3E0F9AC060E8C54
:1032940082758300EF120CFF90028CE0AC060E8C5A
:0932A40082758300120CFF80C941
:0132AD0022FE
:1030C40090025EEBF0A3EAF0A3E9F0A3ECF0A3ED29
:0130D400F00B
:1030D500E4FFFE900264F0D3900262E09FEE64800C
:1030E500F8900261E0648098402190025EE0FBA3C5
:1030F500E475F001120D33A9F0FA120CE6FD900209
:1031050064E02DF00FBF00010E80CC900264E0FD5D
:10311500900263E0B50504E4FEFF22ED600890022D
:0A31250064E0FF7E00227EFF7FFFC2
:01312F00227D
:1021D80004653F800000046900000000046D0000F1
:1021E8000000047100000000045900000000045DB4
:1021F80000000000046100000000047500000000F9
:0C220800047900000000047D00000000CC
:06002600900235120FE804
:10002C00900245E0FCA3E0FDA3E0FEA3E0FF9002FC
:10003C0045E0F8A3E0F9A3E0FAA3E0FB1209AAC09B
:10004C0004C005C006C007900241E0FCA3E0FDA37C
:10005C00E0FEA3E0FFA804A905AA06FB1209AAD09A
:10006C0003D002D001D0001208B9C004C005C006EC
:10007C00C007900249E0FCA3E0FDA3E0FEA3E0FF73
:10008C00A804A905AA06FB1209AAD003D002D00124
:10009C00D0001208B9122C127881120FDC90024198
:1000AC00E0FCA3E0FDA3E0FEA3E0FF7881120F8348
:1000BC001209AA900241120FE8900245E0FCA3E05D
:1000CC00FDA3E0FEA3E0FF7881120F831209AA9032
:1000DC000245120FE8900249E0FCA3E0FDA3E0FE0C
:1000EC00A3E0FF7881120F831209AA900249120F24
:1000FC00E8786D120F5B7865120F831209AAC004A1
:10010C00C005C006C0077871120F5B7869120F83A7
:10011C001209AAD003D002D001D0001208B5E4FB1A
:10012C00FAF978401209AA7885120FDC7871120F4F
:10013C005B786D120F831209AAC004C005C006C0FB
:10014C00077869120F5B7865120F831209AAD00326
:10015C00D002D001D0001208B9E4FBFAF9784012B1
:10016C0009AA7889120FDC7869120F5B7869120F73
:10017C00831209AAC004C005C006C0077865120F17
:10018C005B7865120F831209AAD003D002D001D07C
:10019C00001208B5C004C005C006C007786D120F68
:1001AC005B786D120F831209AAA804A905AA06ABE5
:1001BC0007D007D006D005D0041208B5C004C0057E
:1001CC00C006C0077871120F5B7871120F83120989
:1001DC00AAD003D002D001D0001208B9788D120F2A
:1001EC00DC7889120F5B900249E0F8A3E0F9A3E0F8
:1001FC00FAA3E0FB1209AAC004C005C006C0077828
:10020C008D120F5B900245E0F8A3E0F9A3E0FAA38E
:10021C00E0FB1209AAD003D002D001D0001208B51D
:10022C007891120FDC788D120F5B900241E0F8A3ED
:10023C00E0F9A3E0FAA3E0FB1209AAC004C005C0D0
:10024C0006C0077885120F5B900249E0F8A3E0F92D
:10025C00A3E0FAA3E0FB1209AAD003D002D001D08C
:10026C00001208B57895120FDC7885120F5B90029E
:10027C0045E0F8A3E0F9A3E0FAA3E0FB1209AAC059
:10028C0004C005C006C0077889120F5B900241E0DC
:10029C00F8A3E0F9A3E0FAA3E0FB1209AAD003D07B
:1002AC0002D001D0001208B57899120FDC785912DF
:1002BC000F83C000C001C002C0037F6F7E127D831C
:1002CC007C3A7891120F831209AAD003D002D00184
:1002DC00D0001208B97859120FDC785D120F83C068
:1002EC0000C001C002C0037F6F7E127D837C3A7810
:1002FC0095120F831209AAD003D002D001D000129C
:10030C0008B9785D120FDC7861120F83C000C00150
:10031C00C002C0037F6F7E127D837C3A7899120FE6
:10032C00831209AAD003D002D001D0001208B978E8
:10033C0061120FDC784D120F83C0007891120F5BA5
:10034C00D0001208B57875120FDC7851120F83C0EB
:10035C00007895120F5BD0001208B57879120FDC7B
:10036C007855120F83C0007899120F5BD0001208D9
:10037C00B5787D120FDC7891120F5B784D120FDC83
:10038C007895120F5B7851120FDC7899120F5B780D
:10039C0055120FDCE4FFFEFD7C407891120F8312A6
:1003AC0009AA900235E0F8A3E0F9A3E0FAA3E0FB78
:1003BC001208B97859120F831208B9C004C005C0CD
:1003CC0006C0077F6F7E127D837C3A7875120F838F
:1003DC001209AAD003D002D001D0001208B99002A1
:1003EC0035120FE8E4FFFEFD7C407895120F831266
:1003FC0009AA900239E0F8A3E0F9A3E0FAA3E0FB24
:10040C001208B9785D120F831208B9C004C005C078
:10041C0006C0077F6F7E127D837C3A7879120F833A
:10042C001209AAD003D002D001D0001208B9900250
:10043C0039120FE8E4FFFEFD7C407899120F83120D
:10044C0009AA90023DE0F8A3E0F9A3E0FAA3E0FBCF
:10045C001208B97861120F831208B9C004C005C024
:10046C0006C0077F6F7E127D837C3A787D120F83E6
:10047C001209AAD003D002D001D0001208B9900200
:10048C003D120FE87865120F83C000C001C002C096
:10049C00037869120F5B120BC9900235E0F8A3E0E8
:1004AC00F9A3E0FAA3E0FB1209AAC004C005C00638
:1004BC00C007900239E0FCA3E0FDA3E0FEA3E0FF3F
:1004CC00786D120F831209AAA804A905AA06AB0716
:1004DC00D007D006D005D0041208B5C004C005C0A2
:1004EC0006C00790023DE0FCA3E0FDA3E0FEA3E004
:1004FC00FF7871120F831209AAA804A905AA06ABEA
:10050C0007D007D006D005D0041208B57B0A7AD7DD
:10051C0079A3783B1209AAD003D002D001D00012E3
:10052C0008B97865120FDC7869120F83C000C0011E
:10053C00C002C00390023DE0FCA3E0FDA3E0FEA3DB
:10054C00E0FF786D120F831209AAC004C005C00623
:10055C00C007900235E0FCA3E0FDA3E0FEA3E0FFA2
:10056C007865120F831209AAD003D002D001D000F3
:10057C001208B9C004C005C006C007900239E0FCDF
:10058C00A3E0FDA3E0FEA3E0FF7871120F83120934
:10059C00AAA804A905AA06AB07D007D006D005D097
:1005AC00041208B57B0A7AD779A3783B1209AAD032
:1005BC0003D002D001D0001208B97869120FDC7890
:1005CC006D120F83C000C001C002C00390023DE059
:1005DC00FCA3E0FDA3E0FEA3E0FF7869120F8312F9
:1005EC0009AAC004C005C006C007900239E0FCA3EC
:1005FC00E0FDA3E0FEA3E0FF7865120F831209AAC9
:10060C00D003D002D001D0001208B5C004C005C080
:10061C0006C007900235E0FCA3E0FDA3E0FEA3E0DA
:10062C00FF7871120F831209AAD003D002D001D027
:10063C00001208B97B0A7AD779A3783B1209AAD0A1
:10064C0003D002D001D0001208B9786D120FDC78FB
:10065C0071120F83C000C001C002C003900239E0C8
:10066C00FCA3E0FDA3E0FEA3E0FF7869120F831268
:10067C0009AAC004C005C006C00790023DE0FCA357
:10068C00E0FDA3E0FEA3E0FF7865120F831209AA38
:10069C00D003D002D001D0001208B9C004C005C0EC
:1006AC0006C007900235E0FCA3E0FDA3E0FEA3E04A
:1006BC00FF786D120F831209AAA804A905AA06AB2C
:1006CC0007D007D006D005D0041208B57B0A7AD71C
:1006DC0079A3783B1209AAD003D002D001D0001222
:1006EC0008B97871120FDC7869120F5B7869120FF8
:1006FC00831209AAC004C005C006C0077865120F92
:10070C005B7865120F831209AAD003D002D001D0F6
:10071C00001208B9C004C005C006C007786D120FDE
:10072C005B786D120F831209AAD003D002D001D0CE
:10073C00001208B9C004C005C006C0077871120FBA
:10074C005BA804A905AA06AB071209AAD003D0021C
:10075C00D001D0001208B9122C127881120FDC785B
:10076C0065120F5B7881120F831209AA7865120F3C
:10077C00DC7869120F5B7881120F831209AA7869F1
:10078C00120FDC786D120F5B7881120F831209AA9D
:10079C00786D120FDC7871120F5B7881120F831257
:1007AC0009AA7871120FDCE4FFFEFD7C407865121B
:1007BC000F831209AA7869120F831209AAC004C008
:1007CC0005C006C007E4FFFEFD7C40786D120F8368
:1007DC001209AA7871120F831209AAD003D002D081
:1007EC0001D0001208B9C004C005C006C007E4FF60
:1007FC00FEFD7C40786D120F831209AA786D120FE2
:10080C00831209AAC004C005C006C007E4FFFEFDA0
:10081C007CC07869120F831209AA7869120F8312AF
:10082C0009AAD003D002D001D0001208B5E4FBFA1B
:10083C007980783F1208B9900251120FE8D007D096
:10084C0006D005D004122F217B4D7A3D790F7844C8
:10085C001209AA120C188E338F347871120F5B7830
:10086C0069120F831209AAC004C005C006C007781C
:10087C006D120F5B7865120F831209AAD003D00298
:10088C00D001D0001208B5E4FBFAF978401209AA9D
:10089C001233457B4D7A3D790F78441209AA120C1C
:0508AC00188E318F32AF
:0108B1002224
:062C120090024D120FE8D4
:102C1800E4FFFEFD7C3F90024DE0F8A3E0F9A3E05D
:102C2800FAA3E0FB1209AA900251120FE890024D94
:102C3800E0FCA3E0FDA3E0FEA3E0FF900255120F25
:102C4800E8900255E0FCA3E0FDA3E0FEA3E0FFA3AB
:102C5800120FE8900259E0FCA3E0FDA3E0FEA3E018
:102C6800FF7801120EA6C374DF9FFF74599EFE748D
:102C7800379DFD745F9CFC900259120FE890025931
:102C8800E0FCA3E0FDA3E0FEA3E0FF900255120FD5
:102C9800E8900255E0FCA3E0FDA3E0FEA3E0FF906E
:102CA8000251E0F8A3E0F9A3E0FAA3E0FB1209AAB5
:102CB800900255E0F8A3E0F9A3E0FAA3E0FB1209BB
:102CC800AAA804A905AA06AB07E4FFFE7DC07C3FBD
:102CD8001208B5900255E0F8A3E0F9A3E0FAA3E0E2
:102CE800FB1209AA900255120FE8900255E0FCA3C6
:082CF800E0FDA3E0FEA3E0FFF4
:012D000022B0
:07351100D2B4123518C2B458
:043518007F02DFFE51
:01351C00228C
:0F34E700D2B5D2B4123518C2B5123518C2B422FC
:0C351D00C2B5D2B4123518D2B502351870
:0D350400D2B4123518A2B5C2B41235182287
:02000E00AE073B
:10001000E4FDEE25E0FE92B51235110DEDB408F2C7
:03002000023504A2
:10343800E4FED2B5FDEE25E0FED2B4123518A2B5F1
:10344800E4334EFEC2B41235180DEDB408E7AF06EA
:013458002251
:1034AA00AC05AB071234E77FD012000EAF0312004F
:0934BA000EAF0412000E02351DD4
:10341500E4FD7F6B1234AA7D077F191234AA7D045F
:103425007F1A1234AA7D087F1B1234AA7D187F1CCF
:033435000234AAB4
:0B313000900235EBF0A3EAF0A3E9F0F9
:10313B001234E77FD012000E7F3B12000E1234E7E1
:10314B007FD112000EE4FC123438900235E0FBA361
:10315B00E0FAA3E0F98C82758300EF120CFFC2B585
:10316B001235110CECB40DDF123438900235E0FB44
:10317B00A3E0FAA3E0F9AE048E82758300EF120C84
:09318B00FFD2B512351102351D09
:101FC700900235EBF0A3EAF0A3E9F0A3ECF0A3ED60
:011FD700F019
:101FD80090023EE014602C14604B2402600302213E
:101FE800B5900266E0FFA3E090023FCFF0A3EFF0C8
:101FF80090023AE0FEA3E0FF900269E02FFF900212
:1020080068804290026AE0FFA3E090023FCFF0A30D
:10201800EFF090023AE0FEA3E0FF90026DE02FFFA0
:1020280090026C802090026EE0FFA3E090023FCF08
:10203800F0A3EFF090023AE0FEA3E0FF900271E017
:102048002FFF900270E03EFE3395E0FDFC900245C4
:10205800120FE8900245E0FCA3E0FDA3E0FEA3E038
:10206800FF780F120EBA90024F120FE890023CE070
:10207800FEA3E0FFEE3395E0FDFC900245E0F8A3F7
:10208800E0F9A3E0FAA3E02FFBEA3EFAE93DF9E81C
:102098003CF890024FE0FCA3E0FDA3E0FEA3E0FFC4
:1020A80012330190024DEEF0A3EFF090023FE0FEF4
:1020B800A3E0FFC3900239E09FFF900238E09EAB97
:1020C80007FA3395E0F9F890024DE0FEA3E0FFEE41
:1020D8003395E0FDFC120D68780F120EA6A804A92E
:1020E80005AA06AB0790023FE0FEA3E0FFEE33959A
:1020F800E0FDFCEB2FFFEA3EFEE93DFDE83CFCA3DA
:10210800120FE890024DE0FEA3E0FBAA06EA339521
:10211800E0F9F8C3E49BFF74809AFEE499FDE49823
:10212800FC900245E0F8A3E0F9A3E0FAA3E0FB1273
:102138000D68780F120EA6900249120FE890023E21
:10214800E014602614604224027062900249A3A33E
:10215800E0FFA3E0900268CFF0A3EFF0900241A364
:10216800A3E0FFA3E0900266803C900249A3A3E0AD
:10217800FFA3E090026CCFF0A3EFF0900241A3A37D
:10218800E0FFA3E090026A801D900249A3A3E0FF4C
:10219800A3E0900270CFF0A3EFF0900241A3A3E078
:1021A800FFA3E090026ECFF0A3EFF080057EFF7FE3
:1021B800FF22900241A3A3E0F9A3E0FF900235E0DB
:0F21C800FBA3E0FAA3E0C98FF0120D49E4FEFF7C
:0121D70022E5
:08269400900235EEF0A3EFF017
:10269C00AE04AF05900272E0FCA3E0FD900237ECB3
:1026AC00F0A3EDF0900237ECF0A3EDF0900275E0A2
:1026BC002FFF900274E03EFE3395E0FDFC90023D4E
:1026CC00120FE890023DE0FCA3E0FDA3E0FEA3E0C6
:1026DC00FF780F120EBA900243120FE8AE02AF034E
:1026EC00EE3395E0FDFC90023DE0F8A3E0F9A3E0A9
:1026FC00FAA3E02FFBEA3EFAE93DF9E83CF8900238
:10270C0043E0FCA3E0FDA3E0FEA3E0FF1233019045
:10271C000241EEF0A3EFF0900237E0FEA3E0FFC31E
:10272C00900236E09FFF900235E09EAB07FA33959E
:10273C00E0F9F8900241E0FEA3E0FFEE3395E0FDF6
:10274C00FC120D68780F120EA6A804A905AA06ABF8
:10275C0007900237E0FEA3E0FFEE3395E0FDFCEBC3
:10276C002FFFEA3EFEE93DFDE83CFCA3120FE8908A
:10277C000241E0FEA3E0FBAA06EA3395E0F9F8C3B8
:10278C00E49BFF74809AFEE499FDE498FC90023D72
:10279C00E0F8A3E0F9A3E0FAA3E0FB120D68780FD0
:1027AC00120EA6900274EEF0A3EFF0900239A3A3E0
:0D27BC00E0FEA3E0FF900272EEF0A3EFF04C
:0127C90022ED
:1022140042020000004201C000004201F8000042F6
:1022240001FA00004201FC00004201FE00004201EC
:10223400D800004201DA00004201DC00004201DE65
:10224400000041020F00410214004102190046013E
:10225400E00000000000000614000000000000027E
:10226400310000023300004401D0000000004401AA
:10227400D40000000044022D0000000044021F00AE
:102284000000004402310000000044022500000068
:1022940000440229000000004401EE000000004454
:1022A400020B00000000440210000000004402156C
:1022B4000000000044021A000000004C01C40000A9
:1022C4000000000000000000000042020200004282
:0D22D400020400004601F2000000000000BE
:10145600900206E0FCA3E0FDE4120BDFE4FBFAF9E0
:1014660078C31208B9E4FBFAF978401209AA120CFB
:10147600189001F2EEF0A3EFF0C3E49532FDE49587
:1014860031FCC3ED9FFBEC9EFA90020FE0FF339513
:10149600E0FE7C007D05120D21EF2BFDEE3AFC12DD
:1014A6000BDF9001C4120FE8D39001C1E0941490B1
:1014B60001C0E0940090021F4024E0FCA3E0FDA3DD
:1014C600E0FEA3E0FF9001C4E0F8A3E0F9A3E0FA90
:1014D600A3E0FB1208B990021F120FE88007120F53
:1014E600F400000000E4FFFE7D487C4490021FE00B
:1014F600F8A3E0F9A3E0FAA3E0FB120B50600E405C
:101506000C90021F120FF4444800008024E4FFFEF2
:101516007D487CC490021FE0F8A3E0F9A3E0FAA39B
:10152600E0FB120B50500A90021F120FF4C4480041
:10153600009001C4E0FCA3E0FDA3E0FEA3E0FF12DF
:101546000C18EC120BDAE4FBFA794078411209AA7E
:10155600120C187810120FDC90021FE0FCA3E0FDBD
:10156600A3E0FEA3E0FF120C18E47B5C7A0FF9F807
:10157600120D68780F120EA6780C120FDC7816E69C
:10158600FC08E6FDEC120BDF9001D4E0F8A3E0F9CD
:10159600A3E0FAA3E0FB1208B9E4FBFAF9784012DB
:1015A6000AB37B667A6679A678401209AA120C18E5
:1015B6007808120FDC780C120F5B7810120F83EB91
:1015C6002FFFEA3EFEE93DFDE83CFC7808120F835A
:1015D600EF2BFFEE3AFEED39FDEC38FCEF2405FF6C
:1015E600E43EFEE43DFDE43CFCE47B0AFAF9F81235
:1015F6003301EC120BDA8F388E378D368C3590012D
:10160600C4E0FCA3E0FDA3E0FEA3E0FF90020B1202
:101616000FE87816E6FC08E6FDEC120BDFA804A935
:1016260005AA06AB07AF38AE37AD36AC351208B5EE
:10163600120C18900202EEF0A3EFF0D39001C1E075
:1016460094149001C0E0940090022D4032E0F8A37B
:10165600E0F9A3E0FAA3E0FBC000C001C002C003AA
:10166600900202E0FCA3E0FDEC120BDFD003D002F7
:10167600D001D0001208B990022D120FE88007128F
:101686000FF400000000E4FFFE7D487C4490022D2C
:10169600E0F8A3E0F9A3E0FAA3E0FB120B50600E1A
:1016A600400C90022D120FF4444800008024E4FF01
:1016B600FE7D487CC490022DE0F8A3E0F9A3E0FA91
:1016C600A3E0FB120B50500A90022D120FF4C448EF
:1016D6000000900202E0FEA3E0FFEE3395E0FDFC81
:1016E600E47BAE7A27F9F8120D68780F120EA67809
:1016F60010120FDC90022DE0FCA3E0FDA3E0FEA398
:10170600E0FF120C18E47B897A01F9F8120D68786B
:101716000F120EA6780C120FDC900202E0FEA3E078
:10172600FFEE3395E0FDFC120BDA900215E0F8A30C
:10173600E0F9A3E0FAA3E0FB1208B57B9A7A99795F
:101746008978401209AA120C187808120FDC780C56
:10175600120F5B7810120F83EB2FFFEA3EFEE93D76
:10176600FDE83CFC7808120F83EF2BFFEE3AFEED06
:1017760039FDEC38FC120BDA8F388E378D368C3506
:10178600900202E0FCA3E0FDEC120BDF90021512C2
:101796000FE8E4FFFE7D7A7C44AB38AA37A936A869
:1017A60035120B50600D400BE4F538F53775367A77
:1017B600753544E4FFFE7D7A7CC4AB38AA37A9367A
:1017C600A835120B50500BE4F538F53775367A7597
:1017D60035C4AF38AE37AD36AC35120C189001F8BB
:1017E600EEF0A3EFF0AF38AE37AD36AC35120BC91D
:1017F600120C189001FAEEF0A3EFF0AF38AE37AD49
:1018060036AC35120C189001FEEEF0A3EFF0AF38AF
:10181600AE37AD36AC35120BC9120C189001FCEE82
:05182600F0A3EFF02229
:10104A009001EAE0FCA3E0FDE4120BDFE4FBFAF90D
:10105A0078C31208B9E4FBFAF978401209AA120C0B
:10106A00189001F4EEF0A3EFF0C3E49534FDE49593
:10107A0033FCC3ED9FFBEC9EFA900214E0FF33951C
:10108A00E0FE7C007D05120D21C3EB9FFDEA9EFC6C
:10109A00120BDF9001C8120FE8D39001C1E094143B
:1010AA009001C0E094009002254024E0FCA3E0FDFA
:1010BA00A3E0FEA3E0FF9001C8E0F8A3E0F9A3E0F3
:1010CA00FAA3E0FB1208B9900225120FE880071272
:1010DA000FF400000000E4FFFE7D487C44900225E6
:1010EA00E0F8A3E0F9A3E0FAA3E0FB120B50600ECC
:1010FA00400C900225120FF4444800008024E4FFBB
:10110A00FE7D487CC4900225E0F8A3E0F9A3E0FA4A
:10111A00A3E0FB120B50500A900225120FF4C448A8
:10112A0000009001C8E0FCA3E0FDA3E0FEA3E0FFFD
:10113A00120C18EC120BDAE4FBFA79407841120926
:10114A00AA120C187810120FDC900225E0FCA3E01A
:10115A00FDA3E0FEA3E0FF120C18E47B5C7A0FF912
:10116A00F8120D68780F120EA6780C120FDC78149C
:10117A00E6FC08E6FDEC120BDF9001D0E0F8A3E0F4
:10118A00F9A3E0FAA3E0FB1208B9E4FBFAF9784004
:10119A00120AB37B667A6679A678401209AA120CFB
:1011AA00187808120FDC780C120F5B7810120F8374
:1011BA00EB2FFFEA3EFEE93DFDE83CFC7808120F02
:1011CA0083EF2BFFEE3AFEED39FDEC38FCEF2405F8
:1011DA00FFE43EFEE43DFDE43CFCE47B0AFAF9F858
:1011EA00123301EC120BDA8F388E378D368C35902C
:1011FA0001C8E0FCA3E0FDA3E0FEA3E0FF9002101B
:10120A00120FE87814E6FC08E6FDEC120BDFA804DE
:10121A00A905AA06AB07AF38AE37AD36AC3512080A
:10122A00B5120C18900204EEF0A3EFF0D39001C1AE
:10123A00E094149001C0E094009002314032E0F84A
:10124A00A3E0F9A3E0FAA3E0FBC000C001C002C01A
:10125A0003900204E0FCA3E0FDEC120BDFD003D004
:10126A0002D001D0001208B9900231120FE88007AB
:10127A00120FF400000000E4FFFE7D487C44900257
:10128A0031E0F8A3E0F9A3E0FAA3E0FB120B506007
:10129A000E400C900231120FF4444800008024E4FE
:1012AA00FFFE7D487CC4900231E0F8A3E0F9A3E098
:1012BA00FAA3E0FB120B50500A900231120FF4C449
:1012CA00480000900204E0FEA3E0FFEE3395E0FD43
:1012DA00FCE47BAE7A27F9F8120D68780F120EA695
:1012EA007810120FDC900231E0FCA3E0FDA3E0FECF
:1012FA00A3E0FF120C18E47B897A01F9F8120D6851
:10130A00780F120EA6780C120FDC900204E0FEA3EE
:10131A00E0FFEE3395E0FDFC120BDA90021AE0F8DA
:10132A00A3E0F9A3E0FAA3E0FB1208B57B9A7A9945
:10133A00798978401209AA120C187808120FDC78F9
:10134A000C120F5B7810120F83EB2FFFEA3EFEE9B7
:10135A003DFDE83CFC7808120F83EF2BFFEE3AFEC6
:10136A00ED39FDEC38FC120BDA8F388E378D368C5E
:10137A0035900204E0FCA3E0FDEC120BDF90021AA8
:10138A00120FE8E4FFFE7D7A7C44AB38AA37A9360F
:10139A00A835120B50600D400BE4F538F537753659
:1013AA007A753544E4FFFE7D7A7CC4AB38AA37A946
:1013BA0036A835120B50500BE4F538F53775367AE6
:1013CA007535C49001F8E0FCA3E0FDEC120BDFAB2D
:1013DA0038AA37A936A8351208B9120C189001F89C
:1013EA00EEF0A3EFF09001FAE0FCA3E0FDEC120BA3
:1013FA00DFAB38AA37A936A8351208B9120C1890EB
:10140A0001FAEEF0A3EFF09001FEE0FCA3E0FDECA0
:10141A00120BDFAB38AA37A936A8351208B5120C59
:10142A00189001FEEEF0A3EFF09001FCE0FCA3E0BF
:10143A00FDEC120BDFAB38AA37A936A8351208B56E
:0C144A00120C189001FCEEF0A3EFF02251
:101D6600900223E0FCA3E0FDE4120BDFE4FBFAF9AA
:101D760078C31208B9E4FBFA798278421209AAC03C
:101D860004C005C006C0077818E6FE08E6FFC3E4EF
:101D96009FFDE49EFC120BDFD003D002D001D000E1
:101DA6001208B9C004C005C006C007900219E0FFBA
:101DB6003395E0FE7C007D14120D21AC06AD07ECD8
:101DC600120BDFD003D002D001D0001208B9120CDA
:101DD600189001F6EEF0A3EFF0D39001C1E0941451
:101DE6009001C0E094009002294032E0F8A3E0F9A7
:101DF600A3E0FAA3E0FBC000C001C002C00390014B
:101E0600F6E0FCA3E0FDEC120BDFD003D002D0011C
:101E1600D0001208B9900229120FE88007120FF4B9
:101E2600000000007F007E507D437C47900229E041
:101E3600F8A3E0F9A3E0FAA3E0FB120B50600E4012
:101E46000C900229120FF44743500080257F007E34
:101E5600507D437CC7900229E0F8A3E0F9A3E0FA9D
:101E6600A3E0FB120B50500A900229120FF4C7434D
:101E760050009001F6E0FEA3E0FFEE3395E0FDFC96
:101E8600120BDAE4FBFA79A078401209AA120C18B0
:101E96007810120FDC900229E0FCA3E0FDA3E0FE1F
:101EA600A3E0FF120C18E47BB87A1EF9F8120D684D
:101EB600780F120EA6780C120FDC9001F6E0FEA346
:101EC600E0FFEE3395E0FDFC120BDA9001EEE0F850
:101ED600A3E0F9A3E0FAA3E0FB1208B5E4FBFA7964
:101EE6008078401209AA120C187808120FDC780CB8
:101EF600120F5B7810120F83EB2FFFEA3EFEE93DCF
:101F0600FDE83CFC7808120F83EF2BFFEE3AFEED5E
:101F160039FDEC38FC7806120EA6EC120BDA8F3877
:101F26008E378D368C359001F6E0FCA3E0FDEC1281
:101F36000BDF9001EE120FE89001F8E0FCA3E0FD44
:101F4600EC120BDFAB38AA37A936A8351208B9123E
:101F56000C189001F8EEF0A3EFF09001FAE0FCA364
:101F6600E0FDEC120BDFAB38AA37A936A83512080C
:101F7600B5120C189001FAEEF0A3EFF09001FEE016
:101F8600FCA3E0FDEC120BDFAB38AA37A936A83567
:101F96001208B5120C189001FEEEF0A3EFF09001B6
:101FA600FCE0FCA3E0FDEC120BDFAB38AA37A93648
:101FB600A8351208B9120C189001FCEEF0A3EFF048
:011FC60022F8
:1032AE00E5322484FFE5313403FED3EF94B0EE64AF
:1032BE008094844002802FC3EF94F4EE6480948156
:1032CE0050028022E5342484FFE5333403FED3EF2D
:1032DE0094B0EE648094844002800BC3EF94F4EEBD
:1032EE0064809481500AC281E49001C0F0A3F02260
:0332FE00D2812258
:102B20009001F8E0FEA3E0FF9001C0E0FCA3E0FD0F
:102B30002FFFEC3EFE9001D8F0A3EFF0D394E8EE27
:102B400064809483400C9001D87403F0A374E8F07F
:102B5000800FC39001D8E0648094805004E4F0A317
:102B6000F09001FAE0FEA3E02DFFEC3EFE9001DACA
:102B7000F0A3EFF0D394E8EE64809483400C9001CE
:102B8000DA7403F0A374E8F0800FC39001DAE06414
:102B90008094805004E4F0A3F09001FCE0FEA3E0F8
:102BA000FF9001C0E0FCA3E0FD2FFFEC3EFE900192
:102BB000DCF0A3EFF0D394E8EE64809483400C90B3
:102BC00001DC7403F0A374E8F0800FC39001DCE033
:102BD000648094805004E4F0A3F09001FEE0FEA332
:102BE000E02DFFEC3EFE9001DEF0A3EFF0D394E881
:102BF000EE64809483400B9001DE7403F0A374E8CC
:102C0000F022C39001DEE0648094805004E4F0A3DD
:022C1000F022B0
:102D01009001C3E0FF90021EE0B50749900208E080
:102D110004F0C394145003022DB57413F0900223F0
:102D2100E4F0A37480F0900206E4F0A37480F090C4
:102D310001EAE4F0A37480F0D39001C1E09414900F
:102D410001C0E09400406DA3E024FFF09001C0E0D9
:102D510034FFF0805FE4900208F09001ECE0FEA304
:102D6100E0FFC394E9EE9403400C9001EC7403F08E
:102D7100A374E8F0803ED3EF9432EE9400402690A5
:102D810001EDE0242CFD9001ECE03401FCE4120B98
:102D9100DF7B667A6679A6783F120AB3120C189027
:102DA10001C0EE800B9001ECE0FFA3E09001C0CFE9
:102DB100F0A3EFF090021EE09001C3F09001ECE06F
:0C2DC100FFA3E09001C0CFF0A3EFF022D0
:10304A0090025E120FE8759850E47B04FAF9F89042
:10305A000262E0FCA3E0FDA3E0FEA3E0FF120DF391
:10306A0090025EE0F8A3E0F9A3E0FAA3E0FB120DF8
:10307A00F3EFF404F5D7E47B04FAF9F8900262E07E
:10308A00FCA3E0FDA3E0FEA3E0FF120DF390025EB5
:10309A00E0F8A3E0F9A3E0FAA3E0FB120DF3C3E41E
:1030AA009FFFE49EFE74019DFDE49CFC7808120ECD
:0A30BA00938FD6438E14438E01223B
:103475002002FDEDB4010FEFD39409EF400424378A
:0C348500800524308001EFD202F599226E
:1033BA0090025EEBF0A3EAF0A3E9F090025EE0FB74
:1033CA00A3E0FAA3E0F9120CE6601990025EA3E406
:1033DA0075F001120D33A9F0FA120CE6FFE4FD12A2
:0533EA00347580D722BC
:1022E10060C0008048927C003BA3D70A40400000B8
:1022F10043960000457A0000461C40003A83126F65
:102301003B03126F400000003A83126F40A00000AF
:1023110040A000003F4CCCCD3FC00000424800002F
:102321000000000048927C003BA3D70A4040000017
:1023310043960000457A0000461C40003A83126F24
:102341003B03126F400000003A83126F40A000006F
:1023510040A000003F4CCCCD3FC0000042480000EF
:102361000000000048927C003BA3D70A40400000D7
:1023710043960000457A0000461C40003A83126FE4
:102381003B03126F3F99999A3A03126F40A00000E4
:1023910040A000003F4CCCCD3FC0000042480000AF
:0423A1000000000038
:10182B00900288EBF0A3EAF0A3E9F0900288E0FBCA
:10183B00A3E0FAA3E0F990002A120FACC000C0019C
:10184B00C002C003900288E0FBA3E0FAA3E0F9908A
:10185B00001A120EEDD003D002D001D0001208B541
:10186B00900288E0FBA3E0FAA3E0F9900026120FA8
:10187B0037900026120EEDC004C005C006C00790BD
:10188B000000120FF43F000000900288E0FBA3E081
:10189B00FAA3E0F990000C120EED900000120FE885
:1018AB00D007D006D005D004120000900288E0FBD0
:1018BB00A3E0FAA3E0F990002E120F379000261246
:1018CB000EEDC004C005C006C007900000120FF457
:1018DB003E800000900288E0FBA3E0FAA3E0F990C1
:1018EB00000C120EED900000120FE8D007D006D0BE
:1018FB0005D004120000900288E0FBA3E0FAA3E0FD
:10190B00F9900032120F37E9241AF9E43AFAC003BE
:10191B00C002C001120ECDC004C005C006C00790A6
:10192B000288E0FBA3E0FAA3E0F9900026120EED8B
:10193B00900036120FAC1209AAC004C005C006C035
:10194B0007900288E0FBA3E0FAA3E0F990001E12D7
:10195B000EEDD003D002D001D0001208B590028852
:10196B00E0FBA3E0FAA3E0F990000C120FAC120914
:10197B00AAA804A905AA06AB07D007D006D005D0A4
:10198B00041208B9D001D002D003120F1D900288A7
:10199B00E0FBA3E0FAA3E0241EF9E43AFAC003C08B
:1019AB0002C001120ECDC004C005C006C0079002D4
:1019BB0088A3E0FAA3E0F990002E120EED90003A06
:1019CB00120FAC1209AAC004C005C006C0079002D2
:1019DB0088E0FBA3E0FAA3E0F9900022120EEDD011
:1019EB0003D002D001D0001208B5C004C005C00658
:1019FB00C007900288E0FBA3E0FAA3E0F990005641
:101A0B00120EED900042120FAC1209AAA804A90500
:101A1B00AA06AB07D007D006D005D0041208B990A0
:101A2B000288E0FBA3E0FAA3E0F990000C120FACE4
:101A3B001209AAA804A905AA06AB07D007D006D09D
:101A4B0005D0041208B9D001D002D003120F1D909B
:101A5B000288E0FBA3E0FAA3E02422F9E43AFAC0FF
:101A6B0003C002C001120ECDC004C005C006C007E2
:101A7B00900288A3E0FAA3E0F990003E120EED125B
:101A8B000BC9900288E0FBA3E0FAA3E0F9900032C7
:101A9B00120FAC1209AA900288E0FBA3E0FAA3E0B4
:101AAB00F990000C120FAC1209AAA804A905AA06FA
:101ABB00AB07D007D006D005D0041208B9D001D09F
:061ACB0002D003020F1D12
:0B2A0D00900281EBF0A3EAF0A3E9F0D7
:102A1800A3120FF400000000900281E0FBA3E0FA8B
:102A2800A3E0F990004E120EEDC004C005C006C028
:102A380007900000120FF4C53B8000900000120FB1
:102A4800F4453B8000D007D006D005D00412000022
:102A5800900284120FE8900281E0FBA3E0FAA3E061
:102A6800F990004A120EEDC004C005C006C00790D8
:102A78000281A3A3E090006A120EED900000120FED
:102A8800E8900072120EED900000120FE8D007D007
:102A980006D005D004120000900281E0FBA3E0FA02
:102AA800A3E0F9900062120FAC1209AAC004C00595
:102AB800C006C007900281E0FBA3E0FAA3E0F9900A
:102AC800006E120EED900000120FE8900072120EC8
:102AD800ED900000120FE8900284E0FCA3E0FDA353
:102AE800E0FEA3E0FF120000900281E0FBA3E0FA01
:102AF800A3E0F9900066120FAC1209AAD003D00225
:102B0800D001D0001208B9900281E0FBA3E0FAA33B
:082B1800E0F9900052020F37B2
:10253A00900276EBF0A3EAF0A3E9F0900276E0FBD2
:10254A00A3E0FAA3E0F912000090027DE0FCA3E008
:10255A00FDA3E0FEA3E0FF900276E0FBA3E0FAA36E
:10256A00E0F990002A120F3712182B900276E0FB3E
:10257A00A3E0FAA3E02446F9E43AFAC003C002C091
:10258A0001120ECDC004C005C006C007900276A392
:10259A00E0FAA3E0F990000C120EED90004A120F37
:1025AA00AC1209AAA804A905AA06AB07D007D00647
:1025BA00D005D0041208B9D001D002D003120F1DE1
:1025CA00900276E0FBA3E0FAA3E0F990001A120F5A
:1025DA00ACC000C001C002C003900276E0FBA3E0D9
:1025EA00FAA3E0F9120ECDD003D002D001D0001226
:1025FA0008B5900276E0FBA3E0FAA3E0F990004A5E
:10260A00120F3790001E120FACC000C001C002C0EA
:10261A0003900276E0FBA3E0FAA3E0F9900004122B
:10262A000EEDD003D002D001D0001208B590027688
:10263A00E0FBA3E0FAA3E0F990004E120F37122A4A
:10264A000D900276E0FBA3E0FAA3E0F990005212A3
:10265A000EEDC004C005C006C007900000120FF4BA
:10266A00C3480000900000120FF443480000D0074E
:10267A00D006D005D004120000900276E0FBA3E059
:0A268A00FAA3E0F9900056020F37A2
:1008B200020C84E86480F8E933E83360110460F0E4
:1008C200ED33EC337009E8FCE9FDEAFEEBFF2204AC
:1008D20060DED3EB9FEA9EE99DE8C2E78CF0C2F7A7
:1008E20095F0400CE8CCF8E9CDF9EACEFAEBCFFB73
:1008F200120C4F85D0F05804700320D5B3E8047071
:10090200075002B2D5020C8E92D5EC0460F7E4CC0B
:10091200C0E0C398F8603B94186008400DD0E0FB3B
:10092200020C66E4FBFAC9FC8028E830E406E4C95C
:10093200FBE4CAFCE830E305E4C9CACBFCE854078F
:100942006010F8C3E913F9EA13FAEB13FBEC13FC9A
:10095200D8F130F52FC3E49CFCEF9BFFEE9AFEED3D
:1009620099FDD0E0FBEF4E4D4C701222DB03020CDE
:100972008BEC2CFCEF33FFEE33FEED33FDED30E775
:10098200EB020C66EF2BFFEE3AFEED39FDD0E0FBF9
:1009920050130BBB0003020C8EED13FDEE13FEEFA2
:0809A20013FFEC13FC020C66CC
:1009AA00EC4D6011E8497017ED33EC3304600DE447
:1009BA00FCFFFEFD22E933E8330470F8020C8412CE
:1009CA000C4F58046009E4CC2481500628500902CF
:1009DA000C8E284003020C8BC0E0EB4A7044B980AD
:1009EA0006D0E0FB020C7AEF4E701CBD8008EBFFCC
:1009FA00EAFEE9FD80EBE98DF0A4FEE5F0020A9338
:100A0A00E9CDF9EAFEEBFFEF89F0A4FCE5F0CE8927
:100A1A00F0A42EFFE435F0CD89F0A42DFEE435F0E4
:100A2A008067EF4E7005BD80D780C3EF8BF0A4AC12
:100A3A00F0EE8BF0A42CFCE435F0F8EF8AF0A42C4D
:100A4A00E5F038FCE433CB8DF0A42CFCE5F03BF860
:100A5A00EE8AF0A42CFCE5F038F8E433CF89F0A450
:100A6A002CFCE5F038CF3400CE89F0A42FFFE5F056
:100A7A003EFEE433C98DF0A42EFEE5F039CD8AF0AE
:100A8A00A42FFFE5F03EFEE43DFD33D0E0FB500726
:100A9A000BBB000F020C8EEC2CFCEF33FFEE33FE87
:060AAA00ED33FD020C66B5
:100AB000020C8EEC5D046005E859047003020C849E
:100AC000120C4F580460F6EC4860F2EC7004FDFE26
:100AD000FF22C860DB2481C85009C3986002500619
:100AE000020C8B9850CAF582E9294B4A7005AB82FB
:100AF000020C7A75F0007C1A7880C3EF9BEE9AEDB9
:100B000099400DC3EF9BFFEE9AFEED99FDE842F090
:100B1000DC23ACF0D0E0FFD0E0FED0E0FDAB8220E3
:100B2000E7101BEB60BAEC2CFCEF33FFEE33FEED6D
:100B300033FD020C66E803F830E705C0F075F000FD
:100B4000EF2FFFEE33FEED33FD40B830E7C280AA51
:100B500074F8CC6480CCC86480C8F58204604FC34C
:100B6000EB9FF5F0EA9E42F0E99D42F0E89C45F0EB
:100B7000603C501DE5825FFFE582D313CB5BCBF475
:100B80002B5582FB50280ABA002409B9002008809E
:100B90001DE5825BFBE582D313CF5FCFF4C3132F38
:100BA0005582FF50090EBE00050DBD00010CC3EBC0
:100BB0009FF5F0EA9E42F0E99D42F0E89C45F06026
:090BC00007CC4820E701B3EC2248
:100BC900ED33EC33600A047003BD8004ECB2E7FC3A
:010BD90022F9
:100BDA0075F020800E75F010800575F0087D007E96
:100BEA00007F003392D530D503120E85EC334010C6
:100BFA00EF33FFEE33FEED33FDEC33FCD5F0ED229F
:0E0C0A00E5F0247EA2D513CC92E7CDCEFF22DA
:100C1800EDD2E7CD33EC3392D524814006E4FFFED4
:100C2800FDFC22FCE4CFCECDCC24E0501174FF8033
:100C3800EDC3CC13CCCD13CDCE13CECF13CF0470D0
:070C4800F030D5DE020E853D
:102F210090024D120FE8900251E0F8A3E0F9A3E0FE
:102F3100FAA3E0FB90024DE0FCA3E0FDA3E0FEA3B9
:102F4100E0FF120AB31227EA90024D120FE8900235
:102F510051E030E75990024DE0FCA3E0FDA3E0FE13
:102F6100A3E0FFECC0E0EDC0E0EEC0E0EFC0E0E4C4
:102F7100FFFEFDFC90024DE0F8A3E0F9A3E0FAA307
:102F8100E0FB120B507BDB600250087A0F79497825
:102F91004080067A0F794978C0D0E0FFD0E0FED0BA
:102FA100E0FDD0E0FC1208B990024D120FE890024A
:0D2FB1004DE0FCA3E0FDA3E0FEA3E0FF2245
:10334500ECC0E0F8EDC0E0F9EEC0E0FAEFC0E0FB5C
:103355001209AAEC6480FC7B007A007980783F1220
:1033650008B9122DD1D0E0CFFBD0E0CEFAD0E0CD18
:0B337500F9D0E0CCF8120AB30227EAFE
:100C4F00E9D2E7C933E833F892D5EDD2E7CD33ECEB
:070C5F0033FC5002B2D52264
:100C6600EC30E7100FBF000C0EBE00080DBD0004EF
:100C76000BEB6014A2D5EB13FCED92E7FD2274FF9B
:100C8600FCFDFEFF22E480F8A2D574FF13FC7D80F4
:030C9600E480EF08
:102DCD00020C8422EDA2E7D2E7F9EC3340F260F376
:102DDD00B4FF08ED547F70E8020C8EF82481C2E038
:102DED00C0E0F40428FAC313FCED92E7FD90024D08
:102DFD00120FE8EEA2E7E9BA7F02C3133400940084
:102E0D00FA75F091A4E5F013F494FE8AF0A433E57D
:102E1D00F033248CD313FDE492E7FE7F007C3F75E5
:102E2D008302ECC0E0F8EDC0E0F9EEC0E0FAEFC0CF
:102E3D00E0FB8583F090024D120F6785F083120A37
:102E4D00B3D0E0FBD0E0FAD0E0F9D0E0F81208B949
:102E5D00ED6480FD30E7011CD583C7ED33CC33F82D
:0C2E6D00D0E0A2E71328C313CC13FD2211
:1027CA00BE1249253E4CCCCDBEAAAAAB3F80000022
:1027DA003E7ADBB03EED63383F24BC7D3F490FDBD8
:1027EA00ED33ECC2E7CC339200B4FF13ED547F60B3
:1027FA0003020C847FDB7E0F7DC97C3F0228DFC287
:10280A0001C3947F401E7007EDD2E794904015EF04
:10281A00FBEEFAEDF9ECF87F007E007D807C3F123A
:10282A000AB3D201ED33EC33248430E705E4C0E087
:10283A00806B04FAEDD2E754F0C333DAFD5407345F
:10284A00002323C0E0CCC0E0F8EDC0E0F9EEC0E020
:10285A00FAEFC0E0FBE4120BE4EC24FEFC90025514
:10286A00120FE81209AA7B007A007980783F1208D1
:10287A00B9900255E0B2E7CCF0A3E0CDF0A3E0CEE8
:10288A00F0A3E0CFF0D0E0FBD0E0FAD0E0F9D0E05E
:10289A00F81208B9900255120F90120AB390025515
:1028AA00120FE89027CA7403120C99900255120F5E
:1028BA00901209AAD0E0600F24D6F582E43427F5F5
:1028CA0083120F9C1208B930010B7BDB7A0F79C98E
:1028DA0078BF1208B9ED33EC336006ECA20092E738
:0228EA00FC22CE
:100C9900C0E0EFFBEEFAEDF9ECF81209AAD0E0F5A5
:100CA900F0EFFBEEFAEDF9ECF8120F73A3A3A3A38F
:100CB900E8C0E0E9C0E0EAC0E0EBC0E0C0F012093A
:100CC900AA120F9CA3A3A3A31208B9D0F0D0E0FBEA
:0D0CD900D0E0FAD0E0F9D0E0F8D5F0D42258
:03000000022FBE0E
:0C2FBE00787FE4F6D8FD75819C02300598
:100CE600BB010689828A83E0225002E722BBFE020C
:090CF600E32289828A83E493223F
:100CFF00F8BB010DE58229F582E5833AF583E8F02B
:100D0F00225006E92582C8F622BBFE05E92582C8D6
:020D1F00F222BE
:100D2100EF8DF0A4A8F0CF8CF0A428CE8DF0A42EE6
:020D3100FE22A0
:100D3300A3F8E0C5F025F0F0E58215827002158373
:060D4300E0C838F0E822D0
:100D4900BB010A89828A83F0E5F0A3F0225006F7F5
:0F0D590009A7F01922BBFE06F3E5F009F31922F2
:100D6800E88FF0A4CC8BF0A42CFCE98EF0A42CFC2A
:100D78008AF0EDA42CFCEA8EF0A4CDA8F08BF0A4A8
:100D88002DCC3825F0FDE98FF0A42CCD35F0FCEB07
:100D98008EF0A4FEA9F0EB8FF0A4CFC5F02ECD39CC
:0F0DA800FEE43CFCEAA42DCE35F0FDE43CFC2239
:100DB70075F008758200EF2FFFEE33FECD33CDCCF3
:100DC70033CCC58233C5829BED9AEC99E582984076
:100DD7000CF582EE9BFEED9AFDEC99FC0FD5F0D653
:100DE700E4CEFBE4CDFAE4CCF9A88222B800C1B97D
:100DF7000059BA002DEC8BF084CFCECDFCE5F0CBBB
:100E0700F97818EF2FFFEE33FEED33FDEC33FCEBF3
:100E170033FB10D703994004EB99FB0FD8E5E4F9AE
:100E2700FA227818EF2FFFEE33FEED33FDEC33FC9B
:100E3700C933C910D7059BE99A4007EC9BFCE99A8F
:100E4700F90FD8E0E4C9FAE4CCFB2275F010EF2FD4
:100E5700FFEE33FEED33FDCC33CCC833C810D707D4
:100E67009BEC9AE899400AED9BFDEC9AFCE899F80F
:0E0E77000FD5F0DAE4CDFBE4CCFAE4C8F922A2
:10330100C2D5E830E70FB2D5E4C39BFBE49AFAE4F7
:1033110099F9E498F8EC30E717B2D5123337120D6A
:10332100F3E4C39BFBE49AFAE499F9E498F8800387
:10333100120DF330D50DE4C39FFFE49EFEE49DFD25
:04334100E49CFC22EA
:0E0E8500C3E49FFFE49EFEE49DFDE49CFC227E
:100E9300E8600FECC313FCED13FDEE13FEEF13FF3D
:030EA300D8F12261
:100EA600E86010ECA2E713FCED13FDEE13FEEF1362
:040EB600FFD8F0224F
:100EBA00E8600FEFC333FFEE33FEED33FDEC33FC96
:030ECA00D8F1223A
:100ECD00BB010789828A83020F675005E9F8020F7B
:100EDD005BBBFE05E9F802102589828A83020F7338
:100EED00BB010DE58229F582E5833AF583020F6793
:100EFD005007E92582F8020F5BBBFE07E92582F852
:100F0D00021025E58229F582E5833AF583020F73F8
:100F1D00BB010789828A83020FE85005E9F8020FA9
:0A0F2D00DCBBFE05E9F802103E22CD
:100F3700BB010DE58229F582E5833AF583020FE8C7
:100F47005007E92582F8020FDCBBFE07E92582F886
:040F570002103E2224
:0C0F5B00E6FC08E6FD08E6FE08E6FF22C2
:0C0F6700E0FCA3E0FDA3E0FEA3E0FF22FD
:100F7300E493FC740193FD740293FE740393FF22C4
:0D0F8300E6FB08E6F908E6FA08E6CBF822DE
:0C0F9000E0F8A3E0F9A3E0FAA3E0FB22E4
:100F9C00E493F8740193F9740293FA740393FB22AB
:100FAC00BB010DE58229F582E5833AF583020F90AA
:100FBC005007E92582F8020F83BBFE07E92582F86A
:100FCC00021031E58229F582E5833AF583020F9C04
:0C0FDC00ECF608EDF608EEF608EFF62241
:0C0FE800ECF0A3EDF0A3EEF0A3EFF0227C
:100FF400A8828583F0D083D08212100B12100B12BA
:10100400100B12100BE473E493A3C583C5F0C583DE
:10101400C8C582C8F0A3C583C5F0C583C8C582C846
:0110240022A9
:102FCA000223A6E493A3F8E493A34003F68001F254
:102FDA0008DFF48029E493A3F85407240CC8C33308
:102FEA00C4540F4420C8834004F456800146F6DFD7
:102FFA00E4800B01020408102040809021D8E47E6E
:10300A00019360BCA3FF543F30E509541FFEE493CB
:10301A00A360010ECF54C025E060A840B8E493A392
:10302A00FAE493A3F8E493A3C8C582C8CAC583CABD
:10303A00F0A3C8C582C8CAC583CADFE9DEE780BE75
:0123A5000037
:0C102500E2FC08E2FD08E2FE08E2FF2207
:0D103100E2FB08E2F908E2FA08E2CBF8223F
:0C103E00ECF208EDF208EEF208EFF222EE
:00000001FF
