:1025F0001228AA9000AE7403F0A374E8F0FB7A03EB
:10260000FD7C03FF7E03122CE4C281D282122D1EB8
:10261000D281C282122D1ED281D282C283122D207B
:10262000D281D282D2837F0A7E00122D247F0A7E3D
:1026300000122D24122D447F0A7E00122D24122414
:10264000CF7F647E00122D24122DCF7F647E001276
:102650002D24E4900072F0A3F090002DF0A374807C
:10266000F0900002E4F0A37480F0900070E4F0A316
:102670007480F0C283E4900034F0900039F0900050
:102680003EF0D2AF7B007A0079399000ADE543F09F
:102690007D0A7C00122A7BEF4E705890004BE53982
:1026A000F0900000E53AF0E53B75F0FFA47C0025D2
:1026B0003CFEEC35F0900072F0A3CEF090002DE4DB
:1026C000F0A3E53DF0900002E4F0A3E53EF09000B9
:1026D00070E4F0A3E53FF0E5402480900034F0E59D
:1026E000412480900039F0E542248090003EF0D2F1
:1026F000828002C282900000E0FFB40102D283EF28
:0F270000B40502C2837F037E00122D24022684BB
:102DCF00538E7F5389F0758A40758CA2C28DD28C39
:032DDF00D2A92254
:062D1E00D2837FF47E0168
:102D2400E4FDFCC3ED9FEC9E5015E4FBFA0BBB00E5
:0F2D3400010AEB64FA4A70F50DBD00010C80E452
:012D4300226D
:03000B0002000EE2
:10000E00C0E0C0F0C083C082C0D075D000C000C0B8
:10001E0001C002C003C004C005C006C007122D886F
:10002E007B007A0079397D0F122C107B007A0079D3
:10003E0021122AE77466FBFA7D997C19AF22AE2154
:10004E00121DA5900012EEF0A3EFF07466FBFA7D80
:10005E00997C19AF24AE23121EDB900014EEF0A390
:10006E00EFF07466FBFA7D997C19AF26AE2512204F
:10007E0011900018EEF0A3EFF0AC29AD2AEC121A95
:10008E004FE4FBFA79837842121923121A887814F6
:10009E00A60608A607AC2BAD2CEC121A4FE4FBFA01
:1000AE0079837842121923121A887816A60608A6A2
:1000BE00077466FBFA7D997C19AF2EAE2D1221477F
:1000CE007818EEF608EFF6FDAC06EC121A4FE4FBCC
:1000DE00FA79837842121923900021121C9A78140F
:1000EE00E6FC08E6FDEC121A4F90000A121C9A78F4
:1000FE0016E6FC08E6FDEC121A4F90000E121C9A42
:10010E007814E6FC08E6FDEC121A4F7B397AFA7980
:10011E008E783C12181AC004C005C006C0077816A7
:10012E00E6FC08E6FDEC121A4F7B397AFA798E78E6
:10013E003C12181A900084121C9A7F397EFA7D8E1A
:10014E007C3C900021E0F8A3E0F9A3E0FAA3E0FBE9
:10015E0012181A900088121C9A900012E0FCA3E06C
:10016E00FDEC121A4F90008C121C9A900014E0FCB9
:10017E00A3E0FDEC121A4F900090121C9A900018FA
:10018E00E0FCA3E0FDEC121A4F900094121C9AD0E2
:10019E0007D006D005D004120E96900020E0FF90F6
:1001AE00004BE0B50749900033E004F0C3941450BF
:1001BE000302025C7413F090002DE4F0A37480F03F
:1001CE00900002E4F0A37480F0900070E4F0A37449
:1001DE0080F0D3900048E09414900047E0940040E3
:1001EE006DA3E024FFF0900047E034FFF0805F90B5
:1001FE000033E4F0900072E0FEA3E0FFD394E9EE4A
:10020E009403400C9000727403F0A374E8F0803EE7
:10021E00D3EF9432EE94004026900073E0242CFD30
:10022E00900072E03401FCE4121A4F7B667A667914
:10023E00A6783F121923121A88900047EE800B9071
:10024E000072E0FFA3E0900047CFF0A3EFF0900024
:10025E004BE0900020F0900072E0FFA3E09000478A
:10026E00CFF0A3EFF0E5322484FFE5313403FED363
:10027E00EF94B0EE648094844002802FC3EF94F428
:10028E00EE6480948150028022E5342484FFE533AD
:10029E003403FED3EF94B0EE648094844002800B5E
:1002AE00C3EF94F4EE64809481500BC281900047AA
:1002BE00E4F0A3F08002D281900002E0FCA3E0FD06
:1002CE00E4121A4FE4FBFAF978C3121729E4FBFA89
:1002DE00F9784012181A121A88900004EEF0A3EF63
:1002EE00F0C3E49532FDE49531FCC3ED9FFBEC9E2B
:1002FE00FA900034E0FF3395E0FE7C007D05121B82
:10030E0091EF2BFDEE3AFC121A4F90002F121C9A11
:10031E00D3900048E09414900047E094009000645D
:10032E004024E0FCA3E0FDA3E0FEA3E0FF90002F3D
:10033E00E0F8A3E0F9A3E0FAA3E0FB12172990007E
:10034E0064121C9A8007121CA600000000E4FFFE37
:10035E007D487C44900064E0F8A3E0F9A3E0FAA3A2
:10036E00E0FB1219C0600E400C900064121CA644F3
:10037E004800008024E4FFFE7D487CC4900064E0C9
:10038E00F8A3E0F9A3E0FAA3E0FB1219C0500A901B
:10039E000064121CA6C448000090002FE0FCA3E0ED
:1003AE00FDA3E0FEA3E0FF121A88EC121A4AE4FB4A
:1003BE00FA7940784112181A121A887810121C8E87
:1003CE00900064E0FCA3E0FDA3E0FEA3E0FF121AA0
:1003DE0088E47B5C7A0FF9F8121BB9780F121C16A1
:1003EE00780C121C8E7816E6FC08E6FDEC121A4FFD
:1003FE0090000EE0F8A3E0F9A3E0FAA3E0FB1217D9
:10040E0029E4FBFAF978401219237B667A6679A6FD
:10041E00784012181A121A887808121C8E780C124C
:10042E001C3D7810121C65EB2FFFEA3EFEE93DFDE8
:10043E00E83CFC7808121C65EF2BFFEE3AFEED3916
:10044E00FDEC38FCEF2405FFE43EFEE43DFDE43C0C
:10045E00FCE47B0AFAF9F8122C65EC121A4A8F3872
:10046E008E378D368C3590002FE0FCA3E0FDA3E097
:10047E00FEA3E0FF900025121C9A7816E6FC08E613
:10048E00FDEC121A4FA804A905AA06AB07AF38AEA9
:10049E0037AD36AC35121725121A88900060EEF083
:1004AE00A3EFF0D3900048E09414900047E094003E
:1004BE0090003F4032E0F8A3E0F9A3E0FAA3E0FB9E
:1004CE00C000C001C002C003900060E0FCA3E0FDCC
:1004DE00EC121A4FD003D002D001D000121729907F
:1004EE00003F121C9A8007121CA600000000E4FFB9
:1004FE00FE7D487C4490003FE0F8A3E0F9A3E0FACB
:10050E00A3E0FB1219C0600E400C90003F121CA617
:10051E00444800008024E4FFFE7D487CC490003FE8
:10052E00E0F8A3E0F9A3E0FAA3E0FB1219C0500A29
:10053E0090003F121CA6C4480000900060E0FEA38D
:10054E00E0FFEE3395E0FDFCE47BAE7A27F9F8127E
:10055E001BB9780F121C167810121C8E90003FE0FB
:10056E00FCA3E0FDA3E0FEA3E0FF121A88E47B8962
:10057E007A01F9F8121BB9780F121C16780C121C9E
:10058E008E900060E0FEA3E0FFEE3395E0FDFC12DE
:10059E001A4A900057E0F8A3E0F9A3E0FAA3E0FBB3
:1005AE001217257B9A7A997989784012181A121A9D
:1005BE00887808121C8E780C121C3D7810121C655F
:1005CE00EB2FFFEA3EFEE93DFDE83CFC7808121CED
:1005DE0065EF2BFFEE3AFEED39FDEC38FC121A4AB0
:1005EE008F388E378D368C35900060E0FCA3E0FDA1
:1005FE00EC121A4F900057121C9AE4FFFE7D7A7C83
:10060E0044AB38AA37A936A8351219C0600E400C73
:10061E0075380075370075367A753544E4FFFE7D02
:10062E007A7CC4AB38AA37A936A8351219C0500C3B
:10063E0075380075370075367A7535C4AF38AE37F4
:10064E00AD36AC35121A88900049EEF0A3EFF0AF3C
:10065E0038AE37AD36AC35121A39121A8890004CB6
:10066E00EEF0A3EFF0AF38AE37AD36AC35121A88D8
:10067E00900050EEF0A3EFF0AF38AE37AD36AC359C
:10068E00121A39121A8890004EEEF0A3EFF0900075
:10069E0070E0FCA3E0FDE4121A4FE4FBFAF978C314
:1006AE00121729E4FBFAF9784012181A121A8890D8
:1006BE000006EEF0A3EFF0C3E49534FDE49533FCB1
:1006CE00C3ED9FFBEC9EFA900039E0FF3395E0FE00
:1006DE007C007D05121B91C3EB9FFDEA9EFC121A56
:1006EE004F900035121C9AD3900048E0941490005D
:1006FE0047E094009000684024E0FCA3E0FDA3E0F6
:10070E00FEA3E0FF900035E0F8A3E0F9A3E0FAA322
:10071E00E0FB121729900068121C9A8007121CA683
:10072E0000000000E4FFFE7D487C44900068E0F885
:10073E00A3E0F9A3E0FAA3E0FB1219C0600E400C8F
:10074E00900068121CA6444800008024E4FFFE7D41
:10075E00487CC4900068E0F8A3E0F9A3E0FAA3E0B7
:10076E00FB1219C0500A900068121CA6C448000063
:10077E00900035E0FCA3E0FDA3E0FEA3E0FF121A1B
:10078E0088EC121A4AE4FBFA7940784112181A12D0
:10079E001A887810121C8E900068E0FCA3E0FDA36E
:1007AE00E0FEA3E0FF121A88E47B5C7A0FF9F812E0
:1007BE001BB9780F121C16780C121C8E7814E6FCDE
:1007CE0008E6FDEC121A4F90000AE0F8A3E0F9A338
:1007DE00E0FAA3E0FB121729E4FBFAF978401219AC
:1007EE00237B667A6679A6784012181A121A8878D0
:1007FE0008121C8E780C121C3D7810121C65EB2F03
:10080E00FFEA3EFEE93DFDE83CFC7808121C65EF70
:10081E002BFFEE3AFEED39FDEC38FCEF2405FFE43C
:10082E003EFEE43DFDE43CFCE47B0AFAF9F8122CB2
:10083E0065EC121A4A8F388E378D368C359000350E
:10084E00E0FCA3E0FDA3E0FEA3E0FF900029121C54
:10085E009A7814E6FC08E6FDEC121A4FA804A905D6
:10086E00AA06AB07AF38AE37AD36AC351217251228
:10087E001A88900062EEF0A3EFF0D3900048E09457
:10088E0014900047E094009000434032E0F8A3E05B
:10089E00F9A3E0FAA3E0FBC000C001C002C00390C0
:1008AE000062E0FCA3E0FDEC121A4FD003D002D0A0
:1008BE0001D000121729900043121C9A8007121CB7
:1008CE00A600000000E4FFFE7D487C44900043E05B
:1008DE00F8A3E0F9A3E0FAA3E0FB1219C0600E4002
:1008EE000C900043121CA6444800008024E4FFFE36
:1008FE007D487CC4900043E0F8A3E0F9A3E0FAA39E
:10090E00E0FB1219C0500A900043121CA6C4480006
:10091E0000900062E0FEA3E0FFEE3395E0FDFCE404
:10092E007BAE7A27F9F8121BB9780F121C167810C5
:10093E00121C8E900043E0FCA3E0FDA3E0FEA3E0BA
:10094E00FF121A88E47B897A01F9F8121BB9780F25
:10095E00121C16780C121C8E900062E0FEA3E0FFB3
:10096E00EE3395E0FDFC121A4A90005BE0F8A3E02E
:10097E00F9A3E0FAA3E0FB1217257B9A7A997989FD
:10098E00784012181A121A887808121C8E780C12D7
:10099E001C3D7810121C65EB2FFFEA3EFEE93DFD73
:1009AE00E83CFC7808121C65EF2BFFEE3AFEED39A1
:1009BE00FDEC38FC121A4A8F388E378D368C3590F6
:1009CE000062E0FCA3E0FDEC121A4F90005B121CDB
:1009DE009AE4FFFE7D7A7C44AB38AA37A936A83557
:1009EE001219C0600E400C75380075370075367AD6
:1009FE00753544E4FFFE7D7A7CC4AB38AA37A93640
:100A0E00A8351219C0500C75380075370075367A36
:100A1E007535C4900049E0FCA3E0FDEC121A4FAB13
:100A2E0038AA37A936A835121729121A8890004904
:100A3E00EEF0A3EFF090004CE0FCA3E0FDEC121AF8
:100A4E004FAB38AA37A936A835121729121A889033
:100A5E00004CEEF0A3EFF0900050E0FCA3E0FDECB4
:100A6E00121A4FAB38AA37A936A835121725121A03
:100A7E0088900050EEF0A3EFF090004EE0FCA3E063
:100A8E00FDEC121A4FAB38AA37A936A83512172526
:100A9E00121A8890004EEEF0A3EFF090002DE0FCBD
:100AAE00A3E0FDE4121A4FE4FBFAF978C3121729FA
:100ABE00E4FBFA7982784212181AC004C005C00607
:100ACE00C0077818E6FE08E6FFC3E49FFDE49EFC2F
:100ADE00121A4FD003D002D001D000121729C00431
:100AEE00C005C006C00790003EE0FF3395E0FE7CD7
:100AFE00007D14121B91AC06AD07EC121A4FD003F9
:100B0E00D002D001D000121729121A88900008EED8
:100B1E00F0A3EFF0D3900048E09414900047E094D7
:100B2E000090006C4032E0F8A3E0F9A3E0FAA3E0F5
:100B3E00FBC000C001C002C003900008E0FCA3E0AF
:100B4E00FDEC121A4FD003D002D001D0001217299B
:100B5E0090006C121C9A8007121CA6000000007FE9
:100B6E00007E507D437C4790006CE0F8A3E0F9A333
:100B7E00E0FAA3E0FB1219C0600E400C90006C125C
:100B8E001CA64743500080257F007E507D437CC7C6
:100B9E0090006CE0F8A3E0F9A3E0FAA3E0FB1219D1
:100BAE00C0500A90006C121CA6C74350009000085B
:100BBE00E0FEA3E0FFEE3395E0FDFC121A4AE4FBE3
:100BCE00FA79A0784012181A121A887810121C8E10
:100BDE0090006CE0FCA3E0FDA3E0FEA3E0FF121A80
:100BEE0088E47BB87A1EF9F8121BB9780F121C161E
:100BFE00780C121C8E900008E0FEA3E0FFEE3395F9
:100C0E00E0FDFC121A4A900052E0F8A3E0F9A3E0CE
:100C1E00FAA3E0FB121725E4FBFA7980784012184C
:100C2E001A121A887808121C8E780C121C3D781035
:100C3E00121C65EB2FFFEA3EFEE93DFDE83CFC7819
:100C4E0008121C65EF2BFFEE3AFEED39FDEC38FC79
:100C5E007806121C16EC121A4A8F388E378D368C87
:100C6E0035900008E0FCA3E0FDEC121A4F90005204
:100C7E00121C9A900049E0FCA3E0FDEC121A4FAB57
:100C8E0038AA37A936A835121729121A88900049A2
:100C9E00EEF0A3EFF090004CE0FCA3E0FDEC121A96
:100CAE004FAB38AA37A936A835121725121A8890D5
:100CBE00004CEEF0A3EFF0900050E0FCA3E0FDEC52
:100CCE00121A4FAB38AA37A936A835121725121AA1
:100CDE0088900050EEF0A3EFF090004EE0FCA3E001
:100CEE00FDEC121A4FAB38AA37A936A835121729C0
:100CFE00121A8890004EEEF0A3EFF0900049E0FE3D
:100D0E00A3E0FF900047E0FCA3E0FD2FFFEC3EFECA
:100D1E00900016F0A3EFF0D394E8EE648094834035
:100D2E000C9000167403F0A374E8F0800FC39000CB
:100D3E0016E0648094805004E4F0A3F090004CE040
:100D4E00FEA3E02DFFEC3EFE90001AF0A3EFF0D3D1
:100D5E0094E8EE64809483400C90001A7403F0A320
:100D6E0074E8F0800FC390001AE064809480500401
:100D7E00E4F0A3F090004EE0FEA3E0FF900047E009
:100D8E00FCA3E0FD2FFFEC3EFE90001CF0A3EFF065
:100D9E00D394E8EE64809483400C90001C7403F0AE
:100DAE00A374E8F0800FC390001CE0648094805020
:100DBE0004E4F0A3F0900050E0FEA3E02DFFEC3E23
:100DCE00FE90001EF0A3EFF0D394E8EE64809483BF
:100DDE00400C90001E7403F0A374E8F0800FC390D3
:100DEE00001EE0648094805004E4F0A3F0900000B4
:100DFE00E064057062C3900048E09432900047E0D2
:100E0E009400405390001AE0FEA3E0FF74E89FFFA9
:100E1E0074039EFEC006C00790001CE0FEA3E0FF18
:100E2E00C374E89FFD74039EFC90001EE0FEA3E0D9
:100E3E00FFC374E89FFB74039EFA900016E0FEA3B6
:100E4E00E0FFC374E89F9000AFF074039E9000AE75
:100E5E00F0D007D00680139000AE7403F0A374E8B0
:100E6E00F0FB7A03FD7C03FF7E03122CE4D007D047
:100E7E0006D005D004D003D002D001D000D0D0D0FF
:080E8E0082D083D0F0D0E032E5
:1028AA00E4F594F593F592F591F596F595F5B2F56B
:1028BA00B1F5B4F5B3F5CAF5C9F5CCF5CBF5E2F542
:1028CA00E175960EF59575B280F5B175BA8075F118
:1028DA00B090FFF27410F0E4F5F6F5F790FFF0749B
:1028EA0003F0A374E9F090FF04E4F090FF14F09071
:1028FA00FF24F090FF34F090FF007403F0A374E813
:10290A00F0A37403F0A374E9F090FF107403F0A32A
:10291A0074E8F0A37403F0A374E9F090FF20740341
:10292A00F0A374E8F0A37403F0A374E9F090FF3005
:10293A007403F0A374E8F0A37403F0A374E9F075C8
:08294A00F58F90FFF2E4F0228A
:102CE4009000A8EEF0A3EFF09000A8E090FF00F0B1
:102CF4009000A8A3E090FF01F0EC90FF10F0A3ED8A
:102D0400F0EA90FF20F0A3EBF09000AEE0FCA3E02B
:0A2D1400FDEC90FF30F0A3EDF0227B
:102DE200D3EF9400EE94004007EF1F70F31E80F0C3
:012DF20022BE
:042BAE007B01E4FDC6
:072BB2009000A8EFF0A90557
:102BB900C291E4FFFE9000A8E0FD339293D295C242
:102BC90095ED25E0F00FBF00010EEF64084E70E5AA
:102BD900E4FEFFE9339293D295C295E925E0F90F16
:102BE900BF00010EEF64084E70E9E4FEFFEB33927B
:102BF90093D295C295EB25E0FB0FBF00010EEF6460
:062C0900084E70E9D291B3
:012C0F0022A2
:102B4B00C29174802FFFE4FBFAEF339293D295C2BC
:102B5B0095EF25E0FF0BBB00010AEB64084A70E917
:102B6B00E4FAFBD295C2959000C0E025E0FFF0A2FD
:102B7B0094E4334FF00BBB00010AEB64084A70E39B
:102B8B00E4FAFBD295C2959000C1E025E0FFF0A2DC
:102B9B0094E4334FF00BBB00010AEB64084A70E37B
:022BAB00D291C5
:012BAD002205
:1024CF00C2927FF47E01122DE2D2927FF47E01122E
:1024DF002DE2D2B27BEF7D6FE4FF122BB27B817DB9
:1024EF00567F01122BB27B177D667F02122BB27BB8
:1024FF00C97D9C7F04122BB27B377D667F05122B23
:10250F00B2E4FBFD7F07122BB27B907D6C7F08122C
:10251F002BB2E4FB7D487F09122BB27BFD7D7F7FC1
:10252F000A122BB27B08E4FD7F0B122BB2E4FBFDEA
:10253F007F0C122BB27BBD7D487F0D122BB27BFF20
:10254F00E4FD7F16122BB27B057D807F17122BB215
:10255F007B67E4FD7F18122BB27B597D167F191212
:10256F002BB27BE07D197F1A122BB2E4FB7D137F18
:10257F001B122BB2E4FB7D187F1C122BB2E4FB7DE8
:10258F00587F20122BB27BC77D3F7F21122BB2E4E5
:10259F00FB7D207F22122BB2E4FB7D0A7F23122BBF
:1025AF00B27F24122BAE7F25122BAE7B01E4FD7F71
:1025BF0026122BB27B01E4FD7F27122BB27B027D0B
:1025CF00447F28122BB2E4FB7DB87F29122BB27BFC
:1025DF00FF7DFD7F2A122BB27B0FE4FD7F2B022B99
:0125EF00B239
:102D88007B807D807F34122BB27BA0E4FD7F07120D
:092D98002BB27FC87E00022DE27F
:0B2C1000900080EBF0A3EAF0A3E9F0D5
:102C1B00E4FE7F32122B4B9000C0E06D703BA3E0C3
:102C2B007037EEC39D50327F32122B4B9000C0E0B9
:102C3B00FF900080E0FBA3E0FAA3E0F9AC060E8C5A
:102C4B0082758300EF121B6F9000C1E0AC060E8CF7
:092C5B0082758300121B6F80C911
:012C6400224D
:102A7B009000A8EBF0A3EAF0A3E9F0A3ECF0A3ED30
:012A8B00F05A
:102A8C00E4FFFE9000AEF0D39000ACE09FEE6480CB
:102A9C00F89000ABE064809840219000A8E0FBA384
:102AAC00E475F001121BA3A9F0FA121B56FD90005D
:102ABC00AEE02DF00FBF00010E80CC9000AEE0FD1B
:102ACC009000ADE0B50504E4FEFF22ED6008900037
:0A2ADC00AEE0FF7E00227EFF7FFFC8
:012AE60022CD
:10227D0004653F800000046900000000046D00004B
:10228D000000047100000000045900000000045D0E
:10229D000000000004610000000004750000000053
:0C22AD00047900000000047D0000000027
:060E9600900080121C9A7E
:100E9C00900090E0FCA3E0FDA3E0FEA3E0FF900037
:100EAC0090E0F8A3E0F9A3E0FAA3E0FB12181AC053
:100EBC0004C005C006C00790008CE0FCA3E0FDA3B5
:100ECC00E0FEA3E0FFA804A905AA06FB12181AD09D
:100EDC0003D002D001D000121729C004C005C006EF
:100EEC00C007900094E0FCA3E0FDA3E0FEA3E0FFAC
:100EFC00A804A905AA06FB12181AD003D002D00127
:100F0C00D00012172912270F7881121C8E90008C9A
:100F1C00E0FCA3E0FDA3E0FEA3E0FF7881121C65DA
:100F2C0012181A90008C121C9A900090E0FCA3E00E
:100F3C00FDA3E0FEA3E0FF7881121C6512181A9045
:100F4C000090121C9A900094E0FCA3E0FDA3E0FE3C
:100F5C00A3E0FF7881121C6512181A900094121CE1
:100F6C009A786D121C3D7865121C6512181AC00413
:100F7C00C005C006C0077871121C3D7869121C654B
:100F8C0012181AD003D002D001D000121725E4FB9E
:100F9C00FAF9784012181A7885121C8E7871121C86
:100FAC003D786D121C6512181AC004C005C006C02D
:100FBC00077869121C3D7865121C6512181AD0034B
:100FCC00D002D001D000121729E4FBFAF9784012B4
:100FDC00181A7889121C8E7869121C3D7869121CBB
:100FEC006512181AC004C005C006C0077865121C2B
:100FFC003D7865121C6512181AD003D002D001D0AE
:10100C0000121725C004C005C006C007786D121C5D
:10101C003D786D121C6512181AA804A905AA06AB16
:10102C0007D007D006D005D004121725C004C00580
:10103C00C006C0077871121C3D7871121C6512181D
:10104C001AD003D002D001D000121729788D121CAF
:10105C008E7889121C3D900094E0F8A3E0F9A3E08F
:10106C00FAA3E0FB12181AC004C005C006C007782A
:10107C008D121C3D900090E0F8A3E0F9A3E0FAA3D8
:10108C00E0FB12181AD003D002D001D000121725A1
:10109C007891121C8E788D121C3D90008CE0F8A378
:1010AC00E0F9A3E0FAA3E0FB12181AC004C005C0D3
:1010BC0006C0077885121C3D900094E0F8A3E0F977
:1010CC00A3E0FAA3E0FB12181AD003D002D001D08F
:1010DC00001217257895121C8E7885121C3D9000F5
:1010EC0090E0F8A3E0F9A3E0FAA3E0FB12181AC011
:1010FC0004C005C006C0077889121C3D90008CE026
:10110C00F8A3E0F9A3E0FAA3E0FB12181AD003D07D
:10111C0002D001D0001217257899121C8E78591222
:10112C001C65C000C001C002C0037F6F7E127D83AE
:10113C007C3A7891121C6512181AD003D002D00197
:10114C00D0001217297859121C8E785D121C65C0BC
:10115C0000C001C002C0037F6F7E127D837C3A7891
:10116C0095121C6512181AD003D002D001D00012AF
:10117C001729785D121C8E7861121C65C000C001A5
:10118C00C002C0037F6F7E127D837C3A7899121C5B
:10119C006512181AD003D002D001D000121729788A
:1011AC0061121C8E784D121C65C0007891121C3D8A
:1011BC00D0001217257875121C8E7851121C65C040
:1011CC00007895121C3DD0001217257879121C8ED0
:1011DC007855121C65C0007899121C3DD00012176E
:1011EC0025787D121C8E7891121C3D784D121C8E28
:1011FC007895121C3D7851121C8E7899121C3D78F2
:10120C0055121C8EE4FFFEFD7C407891121C651279
:10121C00181A900080E0F8A3E0F9A3E0FAA3E0FB31
:10122C001217297859121C65121729C004C005C061
:10123C0006C0077F6F7E127D837C3A7875121C6521
:10124C0012181AD003D002D001D000121729900026
:10125C0080121C9AE4FFFEFD7C407895121C6512EE
:10126C00181A900084E0F8A3E0F9A3E0FAA3E0FBDD
:10127C00121729785D121C65121729C004C005C00D
:10128C0006C0077F6F7E127D837C3A7879121C65CD
:10129C0012181AD003D002D001D0001217299000D6
:1012AC0084121C9AE4FFFEFD7C407899121C651296
:1012BC00181A900088E0F8A3E0F9A3E0FAA3E0FB89
:1012CC001217297861121C65121729C004C005C0B9
:1012DC0006C0077F6F7E127D837C3A787D121C6579
:1012EC0012181AD003D002D001D000121729900086
:1012FC0088121C9A7865121C65C000C001C002C01F
:10130C00037869121C3D121A39900080E0F8A3E0B2
:10131C00F9A3E0FAA3E0FB12181AC004C005C0063A
:10132C00C007900084E0FCA3E0FDA3E0FEA3E0FF77
:10133C00786D121C6512181AA804A905AA06AB0729
:10134C00D007D006D005D004121725C004C005C0A4
:10135C0006C007900088E0FCA3E0FDA3E0FEA3E03C
:10136C00FF7871121C6512181AA804A905AA06ABFD
:10137C0007D007D006D005D0041217257B0A7AD7E0
:10138C0079A3783B12181AD003D002D001D00012E6
:10139C0017297865121C8E7869121C65C000C00173
:1013AC00C002C003900088E0FCA3E0FDA3E0FEA314
:1013BC00E0FF786D121C6512181AC004C005C00637
:1013CC00C007900080E0FCA3E0FDA3E0FEA3E0FFDB
:1013DC007865121C6512181AD003D002D001D00007
:1013EC00121729C004C005C006C007900084E0FC99
:1013FC00A3E0FDA3E0FEA3E0FF7871121C651218B8
:10140C001AA804A905AA06AB07D007D006D005D0A8
:10141C00041217257B0A7AD779A3783B12181AD0B5
:10142C0003D002D001D0001217297869121C8E78D3
:10143C006D121C65C000C001C002C003900088E0A2
:10144C00FCA3E0FDA3E0FEA3E0FF7869121C65128B
:10145C00181AC004C005C006C007900084E0FCA3A5
:10146C00E0FDA3E0FEA3E0FF7865121C6512181ADC
:10147C00D003D002D001D000121725C004C005C083
:10148C0006C007900080E0FCA3E0FDA3E0FEA3E013
:10149C00FF7871121C6512181AD003D002D001D03B
:1014AC00001217297B0A7AD779A3783B12181AD025
:1014BC0003D002D001D000121729786D121C8E783F
:1014CC0071121C65C000C001C002C003900084E012
:1014DC00FCA3E0FDA3E0FEA3E0FF7869121C6512FB
:1014EC00181AC004C005C006C007900088E0FCA311
:1014FC00E0FDA3E0FEA3E0FF7865121C6512181A4C
:10150C00D003D002D001D000121729C004C005C0EE
:10151C0006C007900080E0FCA3E0FDA3E0FEA3E082
:10152C00FF786D121C6512181AA804A905AA06AB3F
:10153C0007D007D006D005D0041217257B0A7AD71E
:10154C0079A3783B12181AD003D002D001D0001224
:10155C0017297871121C8E7869121C3D7869121C3F
:10156C006512181AC004C005C006C0077865121CA5
:10157C003D7865121C6512181AD003D002D001D028
:10158C0000121729C004C005C006C007786D121CD4
:10159C003D786D121C6512181AD003D002D001D000
:1015AC0000121729C004C005C006C0077871121CB0
:1015BC003DA804A905AA06AB0712181AD003D0023D
:1015CC00D001D00012172912270F7881121C8E78A7
:1015DC0065121C3D7881121C6512181A7865121C54
:1015EC008E7869121C3D7881121C6512181A786964
:1015FC00121C8E786D121C3D7881121C6512181A03
:10160C00786D121C8E7871121C3D7881121C65123B
:10161C00181A7871121C8EE4FFFEFD7C407865125E
:10162C001C6512181A7869121C6512181AC004C0AD
:10163C0005C006C007E4FFFEFD7C40786D121C65FA
:10164C0012181A7871121C6512181AD003D002D015
:10165C0001D000121729C004C005C006C007E4FF62
:10166C00FEFD7C40786D121C6512181A786D121CE8
:10167C006512181AC004C005C006C007E4FFFEFDC1
:10168C007CC07869121C6512181A7869121C6512D4
:10169C00181AD003D002D001D000121725E4FBFA9F
:1016AC007980783F12172990009C121C9AD007D091
:1016BC0006D005D0041229527B4D7A3D790F78441F
:1016CC0012181A121A888E338F347871121C3D78C6
:1016DC0069121C6512181AC004C005C006C0077830
:1016EC006D121C3D7865121C6512181AD003D002BD
:1016FC00D001D000121725E4FBFAF9784012181A21
:10170C00122CA97B4D7A3D790F784412181A121AB3
:05171C00888E318F32C0
:0117210022A5
:06270F00900098121C9AD4
:10271500E4FFFEFD7C3F900098E0F8A3E0F9A3E01C
:10272500FAA3E0FB12181A90009C121C9A900098CC
:10273500E0FCA3E0FDA3E0FEA3E0FF9000A0121CD7
:102745009A9000A0E0FCA3E0FDA3E0FEA3E0FFA3B8
:10275500121C9A9000A4E0FCA3E0FDA3E0FEA3E018
:10276500FF7801121C16C374DF9FFF74599EFE7417
:10277500379DFD745F9CFC9000A4121C9A9000A4E8
:10278500E0FCA3E0FDA3E0FEA3E0FF9000A0121C87
:102795009A9000A0E0FCA3E0FDA3E0FEA3E0FF907B
:1027A500009CE0F8A3E0F9A3E0FAA3E0FB12181AF5
:1027B5009000A0E0F8A3E0F9A3E0FAA3E0FB12186B
:1027C5001AA804A905AA06AB07E4FFFE7DC07C3F55
:1027D5001217259000A0E0F8A3E0F9A3E0FAA3E022
:1027E500FB12181A9000A0121C9A9000A0E0FCA3FE
:0827F500E0FDA3E0FEA3E0FFFC
:0127FD0022B9
:072E0F00D2B4122E16C2B46A
:042E16007F02DFFE5A
:012E1A002295
:0F2DF300D2B5D2B4122E16C2B5122E16C2B42209
:0C2E1B00C2B5D2B4122E16D2B5022E168B
:0D2E0200D2B4122E16A2B5C2B4122E1622A2
:022DBA00AE0762
:102DBC00E4FDEE25E0FE92B5122E0F0DEDB408F2F7
:032DCC00022E02D2
:102D6700E4FED2B5FDEE25E0FED2B4122E16A2B5D2
:102D7700E4334EFEC2B4122E160DEDB408E7AF06CB
:012D87002229
:102DA100AC05AB07122DF37FD0122DBAAF03122D54
:092DB100BAAF04122DBA022E1B68
:102D4400E4FD7F6B122DA17D077F19122DA17D0457
:102D54007F1A122DA17D087F1B122DA17D187F1CC7
:032D6400022DA19C
:0B2AE700900080EBF0A3EAF0A3E9F000
:102AF200122DF37FD0122DBA7F3B122DBA122DF375
:102B02007FD1122DBAE4FC122D67900080E0FBA366
:102B1200E0FAA3E0F98C82758300EF121B6FC2B555
:102B2200122E0F0CECB40DDF122D67900080E0FB2B
:102B3200A3E0FAA3E0F9AE048E82758300EF121BC4
:092B42006FD2B5122E0F022E1BFA
:081DA500900080EEF0A3EFF0C6
:101DAD00AE04AF059000B0E0FCA3E0FD900082EC26
:101DBD00F0A3EDF0900082ECF0A3EDF09000B3E015
:101DCD002FFF9000B2E03EFE3395E0FDFC900088C1
:101DDD00121C9A900088E0FCA3E0FDA3E0FEA3E0B6
:101DED00FF780F121C2A90008E121C9AAE02AF03C0
:101DFD00EE3395E0FDFC900088E0F8A3E0F9A3E058
:101E0D00FAA3E02FFBEA3EFAE93DF9E83CF8900031
:101E1D008EE0FCA3E0FDA3E0FEA3E0FF122C659095
:101E2D00008CEEF0A3EFF0900082E0FEA3E0FFC384
:101E3D00900081E09FFF900080E09EAB07FA339504
:101E4D00E0F9F890008CE0FEA3E0FFEE3395E0FDA5
:101E5D00FC121BB9780F121C16A804A905AA06AB13
:101E6D0007900082E0FEA3E0FFEE3395E0FDFCEB72
:101E7D002FFFEA3EFEE93DFDE83CFCA3121C9A90C3
:101E8D00008CE0FEA3E0FBAA06EA3395E0F9F8C367
:101E9D00E49BFF74809AFEE499FDE498FC90008821
:101EAD00E0F8A3E0F9A3E0FAA3E0FB121BB9780F69
:101EBD00121C169000B2EEF0A3EFF0900084A3A3D5
:0D1ECD00E0FEA3E0FF9000B0EEF0A3EFF008
:011EDA0022E5
:081EDB00900080EEF0A3EFF08F
:101EE300AE04AF059000B4E0FCA3E0FD900082ECEB
:101EF300F0A3EDF0900082ECF0A3EDF09000B7E0DA
:101F03002FFF9000B6E03EFE3395E0FDFC90008885
:101F1300121C9A900088E0FCA3E0FDA3E0FEA3E07E
:101F2300FF780F121C2A90008E121C9AAE02AF0388
:101F3300EE3395E0FDFC900088E0F8A3E0F9A3E020
:101F4300FAA3E02FFBEA3EFAE93DF9E83CF89000FA
:101F53008EE0FCA3E0FDA3E0FEA3E0FF122C65905E
:101F6300008CEEF0A3EFF0900082E0FEA3E0FFC34D
:101F7300900081E09FFF900080E09EAB07FA3395CD
:101F8300E0F9F890008CE0FEA3E0FFEE3395E0FD6E
:101F9300FC121BB9780F121C16A804A905AA06ABDC
:101FA30007900082E0FEA3E0FFEE3395E0FDFCEB3B
:101FB3002FFFEA3EFEE93DFDE83CFCA3121C9A908C
:101FC300008CE0FEA3E0FBAA06EA3395E0F9F8C330
:101FD300E49BFF74809AFEE499FDE498FC900088EA
:101FE300E0F8A3E0F9A3E0FAA3E0FB121BB9780F32
:101FF300121C169000B6EEF0A3EFF0900084A3A39A
:0D200300E0FEA3E0FF9000B4EEF0A3EFF0CC
:0120100022AD
:08201100900080EEF0A3EFF057
:10201900AE04AF059000B8E0FCA3E0FD900082ECAF
:10202900F0A3EDF0900082ECF0A3EDF09000BBE09E
:102039002FFF9000BAE03EFE3395E0FDFC9000884A
:10204900121C9A900088E0FCA3E0FDA3E0FEA3E047
:10205900FF780F121C2A90008E121C9AAE02AF0351
:10206900EE3395E0FDFC900088E0F8A3E0F9A3E0E9
:10207900FAA3E02FFBEA3EFAE93DF9E83CF89000C3
:102089008EE0FCA3E0FDA3E0FEA3E0FF122C659027
:10209900008CEEF0A3EFF0900082E0FEA3E0FFC316
:1020A900900081E09FFF900080E09EAB07FA339596
:1020B900E0F9F890008CE0FEA3E0FFEE3395E0FD37
:1020C900FC121BB9780F121C16A804A905AA06ABA5
:1020D90007900082E0FEA3E0FFEE3395E0FDFCEB04
:1020E9002FFFEA3EFEE93DFDE83CFCA3121C9A9055
:1020F900008CE0FEA3E0FBAA06EA3395E0F9F8C3F9
:10210900E49BFF74809AFEE499FDE498FC900088B2
:10211900E0F8A3E0F9A3E0FAA3E0FB121BB9780FFA
:10212900121C169000BAEEF0A3EFF0900084A3A35E
:0D213900E0FEA3E0FF9000B8EEF0A3EFF091
:012146002276
:08214700900080EEF0A3EFF020
:10214F00AE04AF059000BCE0FCA3E0FD900082EC74
:10215F00F0A3EDF0900082ECF0A3EDF09000BFE063
:10216F002FFF9000BEE03EFE3395E0FDFC9000880F
:10217F00121C9A900088E0FCA3E0FDA3E0FEA3E010
:10218F00FF780F121C2A90008E121C9AAE02AF031A
:10219F00EE3395E0FDFC900088E0F8A3E0F9A3E0B2
:1021AF00FAA3E02FFBEA3EFAE93DF9E83CF890008C
:1021BF008EE0FCA3E0FDA3E0FEA3E0FF122C6590F0
:1021CF00008CEEF0A3EFF0900082E0FEA3E0FFC3DF
:1021DF00900081E09FFF900080E09EAB07FA33955F
:1021EF00E0F9F890008CE0FEA3E0FFEE3395E0FD00
:1021FF00FC121BB9780F121C16A804A905AA06AB6E
:10220F0007900082E0FEA3E0FFEE3395E0FDFCEBCC
:10221F002FFFEA3EFEE93DFDE83CFCA3121C9A901D
:10222F00008CE0FEA3E0FBAA06EA3395E0F9F8C3C1
:10223F00E49BFF74809AFEE499FDE498FC9000887B
:10224F00E0F8A3E0F9A3E0FAA3E0FB121BB9780FC3
:10225F00121C169000BEEEF0A3EFF0900084A3A323
:0D226F00E0FEA3E0FF9000BCEEF0A3EFF056
:01227C00223F
:1022B9004200470000420049000042004C00004231
:1022C900004E00004200500000420016000042008B
:1022D9001A000042001C000042001E0000410034A8
:1022E900004100390041003E004400780000000030
:1022F9004400740000000044007C0000000042001B
:1023090012000042001400004200180000021600EA
:10231900000214000002180000023100000233001C
:102329000044000A0000000044000E0000000044C0
:10233900003F000000004400640000000044004326
:10234900000000004400680000000044006C000028
:102359000000440052000000004400250000000075
:102369004400290000000044005700000000440018
:102379005B0000000044002F00000000440035000D
:1023890000000044003A00000000420060000042E2
:102399000062000042000400004200060000420002
:0323A90008000029
:10172200021AF4E86480F8E933E83360110460F0E7
:10173200ED33EC337009E8FCE9FDEAFEEBFF22042D
:1017420060DED3EB9FEA9EE99DE8C2E78CF0C2F728
:1017520095F0400CE8CCF8E9CDF9EACEFAEBCFFBF4
:10176200121ABF85D0F05804700320D5B3E8047074
:10177200075002B2D5021AFE92D5EC0460F7E4CC0F
:10178200C0E0C398F8603B94186008400DD0E0FBBD
:10179200021AD6E4FBFAC9FC8028E830E406E4C960
:1017A200FBE4CAFCE830E305E4C9CACBFCE8540711
:1017B2006010F8C3E913F9EA13FAEB13FBEC13FC1C
:1017C200D8F130F52FC3E49CFCEF9BFFEE9AFEEDBF
:1017D20099FDD0E0FBEF4E4D4C701222DB03021A52
:1017E200FBEC2CFCEF33FFEE33FEED33FDED30E787
:1017F200EB021AD6EF2BFFEE3AFEED39FDD0E0FBFD
:1018020050130BBB0003021AFEED13FDEE13FEEFA5
:0818120013FFEC13FC021AD6CF
:10181A00EC4D6011E8497017ED33EC3304600DE4C8
:10182A00FCFFFEFD22E933E8330470F8021AF412D1
:10183A001ABF58046009E4CC2481500628500902D2
:10184A001AFE284003021AFBC0E0EB4A7044B98032
:10185A0006D0E0FB021AEAEF4E701CBD8008EBFFCF
:10186A00EAFEE9FD80EBE98DF0A4FEE5F00219033A
:10187A00E9CDF9EAFEEBFFEF89F0A4FCE5F0CE89A9
:10188A00F0A42EFFE435F0CD89F0A42DFEE435F066
:10189A008067EF4E7005BD80D780C3EF8BF0A4AC94
:1018AA00F0EE8BF0A42CFCE435F0F8EF8AF0A42CCF
:1018BA00E5F038FCE433CB8DF0A42CFCE5F03BF8E2
:1018CA00EE8AF0A42CFCE5F038F8E433CF89F0A4D2
:1018DA002CFCE5F038CF3400CE89F0A42FFFE5F0D8
:1018EA003EFEE433C98DF0A42EFEE5F039CD8AF030
:1018FA00A42FFFE5F03EFEE43DFD33D0E0FB5007A8
:10190A000BBB000F021AFEEC2CFCEF33FFEE33FE8A
:06191A00ED33FD021AD6B8
:10192000021AFEEC5D046005E859047003021AF423
:10193000121ABF580460F6EC4860F2EC7004FDFE29
:10194000FF22C860DB2481C85009C398600250069A
:10195000021AFB9850CAF582E9294B4A7005AB82FE
:10196000021AEA75F0007C1A7880C3EF9BEE9AEDBC
:1019700099400DC3EF9BFFEE9AFEED99FDE842F012
:10198000DC23ACF0D0E0FFD0E0FED0E0FDAB822065
:10199000E7101BEB60BAEC2CFCEF33FFEE33FEEDEF
:1019A00033FD021AD6E803F830E705C0F075F00001
:1019B000EF2FFFEE33FEED33FD40B830E7C280AAD3
:1019C00074F8CC6480CCC86480C8F58204604FC3CE
:1019D000EB9FF5F0EA9E42F0E99D42F0E89C45F06D
:1019E000603C501DE5825FFFE582D313CB5BCBF4F7
:1019F0002B5582FB50280ABA002409B90020088020
:101A00001DE5825BFBE582D313CF5FCFF4C3132FB9
:101A10005582FF50090EBE00050DBD00010CC3EB41
:101A20009FF5F0EA9E42F0E99D42F0E89C45F060A7
:091A300007CC4820E701B3EC22C9
:101A3900ED33EC33600A047003BD8004ECB2E7FCBB
:011A4900227A
:101A4A0075F020800E75F010800575F0087D007E17
:101A5A00007F003392D530D503121C08EC334010B6
:101A6A00EF33FFEE33FEED33FDEC33FCD5F0ED2220
:0E1A7A00E5F0247EA2D513CC92E7CDCEFF225C
:101A8800EDD2E7CD33EC3392D524814006E4FFFE56
:101A9800FDFC22FCE4CFCECDCC24E0501174FF80B5
:101AA800EDC3CC13CCCD13CDCE13CECF13CF047052
:071AB800F030D5DE021C082E
:10295200900098121C9A90009CE0F8A3E0F9A3E082
:10296200FAA3E0FB900098E0FCA3E0FDA3E0FEA345
:10297200E0FF1219231223CD900098121C9A9000A6
:102982009CE030E759900098E0FCA3E0FDA3E0FE54
:10299200A3E0FFECC0E0EDC0E0EEC0E0EFC0E0E499
:1029A200FFFEFDFC900098E0F8A3E0F9A3E0FAA393
:1029B200E0FB1219C07BDB600250087A0F7949787C
:1029C2004080067A0F794978C0D0E0FFD0E0FED08F
:1029D200E0FDD0E0FC121729900098121C9A90009A
:0D29E20098E0FCA3E0FDA3E0FEA3E0FF22CF
:102CA900ECC0E0F8EDC0E0F9EEC0E0FAEFC0E0FBFF
:102CB90012181AEC6480FC7B007A007980783F1244
:102CC9001729122802D0E0CFFBD0E0CEFAD0E0CD10
:0B2CD900F9D0E0CCF81219230223CD43
:101ABF00E9D2E7C933E833F892D5EDD2E7CD33EC6D
:071ACF0033FC5002B2D522E6
:101AD600EC30E7100FBF000C0EBE00080DBD000471
:101AE6000BEB6014A2D5EB13FCED92E7FD2274FF1D
:101AF600FCFDFEFF22E480F8A2D574FF13FC7D8076
:031B0600E480EF89
:1027FE00021AF422EDA2E7D2E7F9EC3340F260F3CD
:10280E00B4FF08ED547F70E8021AFEF82481C2E08E
:10281E00C0E0F40428FAC313FCED92E7FD90009893
:10282E00121C9AEEA2E7E9BA7F02C3133400940099
:10283E00FA75F091A4E5F013F494FE8AF0A433E552
:10284E00F033248CD313FDE492E7FE7F007C3F75BA
:10285E008302ECC0E0F8EDC0E0F9EEC0E0FAEFC0A4
:10286E00E0FB8583F0900098121C4985F0831219C5
:10287E0023D0E0FBD0E0FAD0E0F9D0E0F81217292F
:10288E00ED6480FD30E7011CD583C7ED33CC33F802
:0C289E00D0E0A2E71328C313CC13FD22E6
:1023AD00BE1249253E4CCCCDBEAAAAAB3F80000043
:1023BD003E7ADBB03EED63383F24BC7D3F490FDBF9
:1023CD00ED33ECC2E7CC339200B4FF13ED547F60D4
:1023DD0003021AF47FDB7E0F7DC97C3F0224C2C24B
:1023ED0001C3947F401E7007EDD2E794904015EF26
:1023FD00FBEEFAEDF9ECF87F007E007D807C3F125C
:10240D001923D201ED33EC33248430E705E4C0E029
:10241D00806B04FAEDD2E754F0C333DAFD54073480
:10242D00002323C0E0CCC0E0F8EDC0E0F9EEC0E041
:10243D00FAEFC0E0FBE4121A54EC24FEFC9000A06D
:10244D00121C9A12181A7B007A007980783F1217A5
:10245D00299000A0E0B2E7CCF0A3E0CDF0A3E0CE50
:10246D00F0A3E0CFF0D0E0FBD0E0FAD0E0F9D0E07F
:10247D00F81217299000A0121C721219239000A0B7
:10248D00121C9A9023AD7403121B099000A0121C0C
:10249D007212181AD0E0600F24B9F582E43423F5D6
:1024AD0083121C7E12172930010B7BDB7A0F79C941
:1024BD0078BF121729ED33EC336006ECA20092E7DA
:0224CD00FC22EF
:101B0900C0E0EFFBEEFAEDF9ECF812181AD0E0F5A7
:101B1900F0EFFBEEFAEDF9ECF8121C55A3A3A3A321
:101B2900E8C0E0E9C0E0EAC0E0EBC0E0C0F01218AC
:101B39001A121C7EA3A3A3A3121729D0F0D0E0FB8D
:0D1B4900D0E0FAD0E0F9D0E0F8D5F0D422D9
:030000000229EFE3
:0C29EF00787FE4F6D8FD75819C022A3642
:101B5600BB010689828A83E0225002E722BBFE028D
:091B6600E32289828A83E49322C0
:101B6F00F8BB010DE58229F582E5833AF583E8F0AC
:101B7F00225006E92582C8F622BBFE05E92582C858
:021B8F00F22240
:101B9100EF8DF0A4A8F0CF8CF0A428CE8DF0A42E68
:021BA100FE2222
:101BA300A3F8E0C5F025F0F0E582158270021583F5
:061BB300E0C838F0E82252
:101BB900E88FF0A4CC8BF0A42CFCE98EF0A42CFCCB
:101BC9008AF0EDA42CFCEA8EF0A4CDA8F08BF0A449
:101BD9002DCC3825F0FDE98FF0A42CCD35F0FCEBA8
:101BE9008EF0A4FEA9F0EB8FF0A4CFC5F02ECD396D
:0F1BF900FEE43CFCEAA42DCE35F0FDE43CFC22DA
:102C6500C2D5E830E70FB2D5E4C39BFBE49AFAE49A
:102C750099F9E498F8EC30E717B2D5122C9B121DA0
:102C850013E4C39BFBE49AFAE499F9E498F880030A
:102C9500121D1330D50DE4C39FFFE49EFEE49DFD98
:042CA500E49CFC228D
:0E1C0800C3E49FFFE49EFEE49DFDE49CFC22ED
:101C1600E86010ECA2E713FCED13FDEE13FEEF13E4
:041C2600FFD8F022D1
:101C2A00E8600FEFC333FFEE33FEED33FDEC33FC18
:031C3A00D8F122BC
:0C1C3D00E6FC08E6FD08E6FE08E6FF22D3
:0C1C4900E0FCA3E0FDA3E0FEA3E0FF220E
:101C5500E493FC740193FD740293FE740393FF22D5
:0D1C6500E6FB08E6F908E6FA08E6CBF822EF
:0C1C7200E0F8A3E0F9A3E0FAA3E0FB22F5
:101C7E00E493F8740193F9740293FA740393FB22BC
:0C1C8E00ECF608EDF608EEF608EFF62282
:0C1C9A00ECF0A3EDF0A3EEF0A3EFF022BD
:101CA600A8828583F0D083D082121CBD121CBD127F
:101CB6001CBD121CBDE473E493A3C583C5F0C583A4
:101CC600C8C582C8F0A3C583C5F0C583C8C582C888
:011CD60022EB
:1029FB000225F0E493A3F8E493A34003F68001F2DD
:102A0B0008DFF48029E493A3F85407240CC8C333DC
:102A1B00C4540F4420C8834004F456800146F6DFAB
:102A2B00E4800B010204081020408090227DE47E9C
:102A3B00019360BCA3FF543F30E509541FFEE493A0
:102A4B00A360010ECF54C025E060A840B8E493A367
:102A5B00FAE493A3F8E493A3C8C582C8CAC583CA92
:102A6B00F0A3C8C582C8CAC583CADFE9DEE780BE4A
:0123AC000030
:101CD70075F008758200EF2FFFEE33FECD33CDCCC4
:101CE70033CCC58233C5829BED9AEC99E582984047
:101CF7000CF582EE9BFEED9AFDEC99FC0FD5F0D624
:101D0700E4CEFBE4CDFAE4CCF9A88222B800C1B94D
:101D17000059BA002DEC8BF084CFCECDFCE5F0CB8B
:101D2700F97818EF2FFFEE33FEED33FDEC33FCEBC4
:101D370033FB10D703994004EB99FB0FD8E5E4F97F
:101D4700FA227818EF2FFFEE33FEED33FDEC33FC6C
:101D5700C933C910D7059BE99A4007EC9BFCE99A60
:101D6700F90FD8E0E4C9FAE4CCFB2275F010EF2FA5
:101D7700FFEE33FEED33FDCC33CCC833C810D707A5
:101D87009BEC9AE899400AED9BFDEC9AFCE899F8E0
:0E1D97000FD5F0DAE4CDFBE4CCFAE4C8F92273
:00000001FF
