:102E0900535443313546324B363053320D0A5561EE
:0C2E19007274205465737420210D0A00AF
:092ED7002002FDEFD202F5992260
:102D6C009000A7EBF0A3EAF0A3E9F09000A7E0FB3A
:102D7C00A3E0FAA3E0F9120CE660179000A7A3E415
:102D8C0075F001120D33A9F0FA120CE6FF122ED7D2
:032D9C0080D922B9
:102E930075985075D7CC75D6FF438E14438E012297
:1021DC001228A59000AD7403F0A374E8F0FB7A0309
:1021EC00FD7C03FF7E03122D32C281D282122D9F01
:1021FC00D281C282122D9FD281D282C283122DA192
:10220C00D281D282D2837F0A7E00122DA57F0A7ED4
:10221C0000122DA5122DC57F0A7E00122DA51224A9
:10222C002B7F647E00122DA5122E6F7F647E001210
:10223C002DA5122E93E4900024F0A3F0900061F0F1
:10224C00A37480F0900046E4F0A37480F090002218
:10225C00E4F0A37480F0C283E490004EF09000533D
:10226C00F0900058F0D2ACD2AF7BFF7A2E790912E5
:10227C002D6C7B007A0079399000ACE543F07D0A37
:10228C007C00122A76EF4E705890002FE539F090B2
:10229C000000E53AF0E53B75F0FFA47C00253CFE20
:1022AC00EC35F0900024F0A3CEF0900061E4F0A3A4
:1022BC00E53DF0900046E4F0A3E53EF0900022E40A
:1022CC00F0A3E53FF0E540248090004EF0E541247A
:1022DC0080900053F0E5422480900058F0D2828028
:1022EC0002C282900000E0FFB40102D283EFB40579
:0D22FC0002C2837F037E00122DA502227511
:102E6F00538E7F5389F0758A40758CA2C28DD28C98
:032E7F00D2A922B3
:062D9F00D2837FF47E01E7
:102DA500E4FDFCC3ED9FEC9E5015E4FBFA0BBB0064
:0F2DB500010AEB64FA4A70F50DBD00010C80E4D1
:012DC40022EC
:03000B0002197760
:10197700C0E0C0F0C083C082C0D075D000C000C036
:1019870001C002C003C004C005C006C007122E254F
:101997007B007A0079397D0F122C0B7B007A007956
:1019A70021122AE27466FBFA7D997C19AF22AE21D7
:1019B700121BD490000FEEF0A3EFF07466FBFA7DD4
:1019C700997C19AF24AE23121D0A900011EEF0A3E3
:1019D700EFF07466FBFA7D997C19AF26AE25121ECF
:1019E70040900015EEF0A3EFF0AC29AD2AEC120BF6
:1019F700DFE4FBFA79837842120AB3120C187814E1
:101A0700A60608A607AC2BAD2CEC120BDFE4FBFAFD
:101A170079837842120AB3120C187816A60608A61C
:101A2700077466FBFA7D997C19AF2EAE2D121F76CF
:101A37007818EEF608EFF6FDAC06EC120BDFE4FBC8
:101A4700FA79837842120AB390001E120E2A78148C
:101A5700E6FC08E6FDEC120BDF900007120E2A7871
:101A670016E6FC08E6FDEC120BDF90000B120E2ABF
:101A77007814E6FC08E6FDEC120BDF7B397AFA797D
:101A87008E783C1209AAC004C005C006C0077816A4
:101A9700E6FC08E6FDEC120BDF7B397AFA798E78E3
:101AA7003C1209AA900083120E2A7F397EFA7D8E96
:101AB7007C3C90001EE0F8A3E0F9A3E0FAA3E0FB6A
:101AC7001209AA900087120E2A90000FE0FCA3E0EB
:101AD700FDEC120BDF90008B120E2A900011E0FC38
:101AE700A3E0FDEC120BDF90008F120E2A90001579
:101AF700E0FCA3E0FDEC120BDF900093120E2AD05E
:101B070007D006D005D00412002612272D122C600C
:101B1700121341120F3512171612254C900000E0D0
:101B270064057062C390002CE0943290002BE0941F
:101B3700004053900017E0FEA3E0FF74E89FFF7496
:101B4700039EFEC006C007900019E0FEA3E0FFC396
:101B570074E89FFD74039EFC90001BE0FEA3E0FF6A
:101B6700C374E89FFB74039EFA900013E0FEA3E0A2
:101B7700FFC374E89F9000AEF074039E9000ADF031
:101B8700D007D00680139000AD7403F0A374E8F07B
:101B9700FB7A03FD7C03FF7E03122D329000AD74A8
:101BA70003F0A374E8F0FB7A03FD7C03FF7E0312C6
:101BB7002D32D007D006D005D004D003D002D001F3
:0D1BC700D000D0D0D082D083D0F0D0E0325A
:03002300022E5753
:102E5700C0D0309809C298859980A29A92A23099D9
:082E670004C299C202D0D0326E
:1028A500E4F594F593F592F591F596F595F5B2F570
:1028B500B1F5B4F5B3F5CAF5C9F5CCF5CBF5E2F547
:1028C500E175960EF59575B280F5B175BA8075F11D
:1028D500B090FFF27410F0E4F5F6F5F790FFF074A0
:1028E50003F0A374E9F090FF04E4F090FF14F09076
:1028F500FF24F090FF34F090FF007403F0A374E818
:10290500F0A37403F0A374E9F090FF107403F0A32F
:1029150074E8F0A37403F0A374E9F090FF20740346
:10292500F0A374E8F0A37403F0A374E9F090FF300A
:102935007403F0A374E8F0A37403F0A374E9F075CD
:08294500F58F90FFF2E4F0228F
:102D32009000A7EEF0A3EFF09000A7E090FF00F064
:102D42009000A7A3E090FF01F0EC90FF10F0A3ED3C
:102D5200F0EA90FF20F0A3EBF09000ADE0FCA3E0DE
:0A2D6200FDEC90FF30F0A3EDF0222D
:102E8200D3EF9400EE94004007EF1F70F31E80F022
:012E9200221D
:042BA9007B01E4FDCB
:072BAD009000A7EFF0A9055D
:102BB400C291E4FFFE9000A7E0FD339293D295C248
:102BC40095ED25E0F00FBF00010EEF64084E70E5AF
:102BD400E4FEFFE9339293D295C295E925E0F90F1B
:102BE400BF00010EEF64084E70E9E4FEFFEB339280
:102BF40093D295C295EB25E0FB0FBF00010EEF6465
:062C0400084E70E9D291B8
:012C0A0022A7
:102B4600C29174802FFFE4FBFAEF339293D295C2C1
:102B560095EF25E0FF0BBB00010AEB64084A70E91C
:102B6600E4FAFBD295C2959000BFE025E0FFF0A203
:102B760094E4334FF00BBB00010AEB64084A70E3A0
:102B8600E4FAFBD295C2959000C0E025E0FFF0A2E2
:102B960094E4334FF00BBB00010AEB64084A70E380
:022BA600D291CA
:012BA800220A
:10242B00C2927FF47E01122E82D2927FF47E011231
:10243B002E82D2B27BEF7D6FE4FF122BAD7B817DC1
:10244B00567F01122BAD7B177D667F02122BAD7B66
:10245B00C97D9C7F04122BAD7B377D667F05122BCC
:10246B00ADE4FBFD7F07122BAD7B907D6C7F0812DB
:10247B002BADE4FB7D487F09122BAD7BFD7D7F7F70
:10248B000A122BAD7B08E4FD7F0B122BADE4FBFD99
:10249B007F0C122BAD7BBD7D487F0D122BAD7BFFCF
:1024AB00E4FD7F16122BAD7B057D807F17122BADC4
:1024BB007B67E4FD7F18122BAD7B597D167F1912BC
:1024CB002BAD7BE07D197F1A122BADE4FB7D137FC7
:1024DB001B122BADE4FB7D187F1C122BADE4FB7D97
:1024EB00587F20122BAD7BC77D3F7F21122BADE494
:1024FB00FB7D207F22122BADE4FB7D0A7F23122B69
:10250B00AD7F24122BA97F25122BA97B01E4FD7F24
:10251B0026122BAD7B01E4FD7F27122BAD7B027DB9
:10252B00447F28122BADE4FB7DB87F29122BAD7BAA
:10253B00FF7DFD7F2A122BAD7B0FE4FD7F2B022B42
:01254B00ADE2
:102E25007B807D807F34122BAD7BA0E4FD7F071274
:092E35002BAD7FC87E00022E8245
:0B2C0B0090007FEBF0A3EAF0A3E9F0DB
:102C1600E4FE7F32122B469000BFE06D703BA3E0CE
:102C26007037EEC39D50327F32122B469000BFE0C4
:102C3600FF90007FE0FBA3E0FAA3E0F9AC060E8C60
:102C460082758300EF120CFF9000C0E0AC060E8C7C
:092C560082758300120CFF80C995
:012C5F002252
:102A76009000A7EBF0A3EAF0A3E9F0A3ECF0A3ED36
:012A8600F05F
:102A8700E4FFFE9000ADF0D39000ABE09FEE6480D2
:102A9700F89000AAE064809840219000A7E0FBA38B
:102AA700E475F001120D33A9F0FA120CE6FD90005F
:102AB700ADE02DF00FBF00010E80CC9000ADE0FD22
:102AC7009000ACE0B50504E4FEFF22ED600890003D
:0A2AD700ADE0FF7E00227EFF7FFFCE
:012AE10022D2
:1020AC0004653F800000046900000000046D00001E
:1020BC000000047100000000045900000000045DE1
:1020CC000000000004610000000004750000000026
:0C20DC00047900000000047D00000000FA
:0600260090007F120E2A7B
:10002C0090008FE0FCA3E0FDA3E0FEA3E0FF9000B6
:10003C008FE0F8A3E0F9A3E0FAA3E0FB1209AAC051
:10004C0004C005C006C00790008BE0FCA3E0FDA334
:10005C00E0FEA3E0FFA804A905AA06FB1209AAD09A
:10006C0003D002D001D0001208B9C004C005C006EC
:10007C00C007900093E0FCA3E0FDA3E0FEA3E0FF2B
:10008C00A804A905AA06FB1209AAD003D002D00124
:10009C00D0001208B912263E7881120E1E90008BE9
:1000AC00E0FCA3E0FDA3E0FEA3E0FF7881120DF5D8
:1000BC001209AA90008B120E2A90008FE0FCA3E08C
:1000CC00FDA3E0FEA3E0FF7881120DF51209AA90C2
:1000DC00008F120E2A900093E0FCA3E0FDA3E0FE3B
:1000EC00A3E0FF7881120DF51209AA900093120E6D
:1000FC002A786D120DCD7865120DF51209AAC0047F
:10010C00C005C006C0077871120DCD7869120DF5C7
:10011C001209AAD003D002D001D0001208B5E4FB1A
:10012C00FAF978401209AA7885120E1E7871120D10
:10013C00CD786D120DF51209AAC004C005C006C019
:10014C00077869120DCD7865120DF51209AAD00346
:10015C00D002D001D0001208B9E4FBFAF9784012B1
:10016C0009AA7889120E1E7869120DCD7869120DC4
:10017C00F51209AAC004C005C006C0077865120DA7
:10018C00CD7865120DF51209AAD003D002D001D09A
:10019C00001208B5C004C005C006C007786D120D6A
:1001AC00CD786D120DF51209AAA804A905AA06AB03
:1001BC0007D007D006D005D0041208B5C004C0057E
:1001CC00C006C0077871120DCD7871120DF51209A9
:1001DC00AAD003D002D001D0001208B9788D120E2B
:1001EC001E7889120DCD900093E0F8A3E0F9A3E0FE
:1001FC00FAA3E0FB1209AAC004C005C006C0077828
:10020C008D120DCD90008FE0F8A3E0F9A3E0FAA3D6
:10021C00E0FB1209AAD003D002D001D0001208B51D
:10022C007891120E1E788D120DCD90008BE0F8A3F4
:10023C00E0F9A3E0FAA3E0FB1209AAC004C005C0D0
:10024C0006C0077885120DCD900093E0F8A3E0F975
:10025C00A3E0FAA3E0FB1209AAD003D002D001D08C
:10026C00001208B57895120E1E7885120DCD9000EF
:10027C008FE0F8A3E0F9A3E0FAA3E0FB1209AAC00F
:10028C0004C005C006C0077889120DCD90008BE024
:10029C00F8A3E0F9A3E0FAA3E0FB1209AAD003D07B
:1002AC0002D001D0001208B57899120E1E7859129E
:1002BC000DF5C000C001C002C0037F6F7E127D83AC
:1002CC007C3A7891120DF51209AAD003D002D00114
:1002DC00D0001208B97859120E1E785D120DF5C0B7
:1002EC0000C001C002C0037F6F7E127D837C3A7810
:1002FC0095120DF51209AAD003D002D001D000122C
:10030C0008B9785D120E1E7861120DF5C000C0019F
:10031C00C002C0037F6F7E127D837C3A7899120DE8
:10032C00F51209AAD003D002D001D0001208B97876
:10033C0061120E1E784D120DF5C0007891120DCD84
:10034C00D0001208B57875120E1E7851120DF5C03A
:10035C00007895120DCDD0001208B57879120E1ECA
:10036C007855120DF5C0007899120DCDD0001208F9
:10037C00B5787D120E1E7891120DCD784D120E1E91
:10038C007895120DCD7851120E1E7899120DCD78EC
:10039C0055120E1EE4FFFEFD7C407891120DF512F5
:1003AC0009AA90007FE0F8A3E0F9A3E0FAA3E0FB30
:1003BC001208B97859120DF51208B9C004C005C05D
:1003CC0006C0077F6F7E127D837C3A7875120DF51F
:1003DC001209AAD003D002D001D0001208B99000A3
:1003EC007F120E2AE4FFFEFD7C407895120DF5126B
:1003FC0009AA900083E0F8A3E0F9A3E0FAA3E0FBDC
:10040C001208B9785D120DF51208B9C004C005C008
:10041C0006C0077F6F7E127D837C3A7879120DF5CA
:10042C001209AAD003D002D001D0001208B9900052
:10043C0083120E2AE4FFFEFD7C407899120DF51212
:10044C0009AA900087E0F8A3E0F9A3E0FAA3E0FB87
:10045C001208B97861120DF51208B9C004C005C0B4
:10046C0006C0077F6F7E127D837C3A787D120DF576
:10047C001209AAD003D002D001D0001208B9900002
:10048C0087120E2A7865120DF5C000C001C002C09B
:10049C00037869120DCD120BC990007FE0F8A3E030
:1004AC00F9A3E0FAA3E0FB1209AAC004C005C00638
:1004BC00C007900083E0FCA3E0FDA3E0FEA3E0FFF7
:1004CC00786D120DF51209AAA804A905AA06AB07A6
:1004DC00D007D006D005D0041208B5C004C005C0A2
:1004EC0006C007900087E0FCA3E0FDA3E0FEA3E0BC
:1004FC00FF7871120DF51209AAA804A905AA06AB7A
:10050C0007D007D006D005D0041208B57B0A7AD7DD
:10051C0079A3783B1209AAD003D002D001D00012E3
:10052C0008B97865120E1E7869120DF5C000C0016D
:10053C00C002C003900087E0FCA3E0FDA3E0FEA393
:10054C00E0FF786D120DF51209AAC004C005C006B3
:10055C00C00790007FE0FCA3E0FDA3E0FEA3E0FF5A
:10056C007865120DF51209AAD003D002D001D00083
:10057C001208B9C004C005C006C007900083E0FC97
:10058C00A3E0FDA3E0FEA3E0FF7871120DF51209C4
:10059C00AAA804A905AA06AB07D007D006D005D097
:1005AC00041208B57B0A7AD779A3783B1209AAD032
:1005BC0003D002D001D0001208B97869120E1E784F
:1005CC006D120DF5C000C001C002C003900087E0A1
:1005DC00FCA3E0FDA3E0FEA3E0FF7869120DF51289
:1005EC0009AAC004C005C006C007900083E0FCA3A4
:1005FC00E0FDA3E0FEA3E0FF7865120DF51209AA59
:10060C00D003D002D001D0001208B5C004C005C080
:10061C0006C00790007FE0FCA3E0FDA3E0FEA3E092
:10062C00FF7871120DF51209AAD003D002D001D0B7
:10063C00001208B97B0A7AD779A3783B1209AAD0A1
:10064C0003D002D001D0001208B9786D120E1E78BA
:10065C0071120DF5C000C001C002C003900083E010
:10066C00FCA3E0FDA3E0FEA3E0FF7869120DF512F8
:10067C0009AAC004C005C006C007900087E0FCA30F
:10068C00E0FDA3E0FEA3E0FF7865120DF51209AAC8
:10069C00D003D002D001D0001208B9C004C005C0EC
:1006AC0006C00790007FE0FCA3E0FDA3E0FEA3E002
:1006BC00FF786D120DF51209AAA804A905AA06ABBC
:1006CC0007D007D006D005D0041208B57B0A7AD71C
:1006DC0079A3783B1209AAD003D002D001D0001222
:1006EC0008B97871120E1E7869120DCD7869120D49
:1006FC00F51209AAC004C005C006C0077865120D22
:10070C00CD7865120DF51209AAD003D002D001D014
:10071C00001208B9C004C005C006C007786D120DE0
:10072C00CD786D120DF51209AAD003D002D001D0EC
:10073C00001208B9C004C005C006C0077871120DBC
:10074C00CDA804A905AA06AB071209AAD003D002AA
:10075C00D001D0001208B912263E7881120E1E78F4
:10076C0065120DCD7881120DF51209AA7865120E5D
:10077C001E7869120DCD7881120DF51209AA7869CF
:10078C00120E1E786D120DCD7881120DF51209AA7C
:10079C00786D120E1E7871120DCD7881120DF51236
:1007AC0009AA7871120E1EE4FFFEFD7C40786512DA
:1007BC000DF51209AA7869120DF51209AAC004C028
:1007CC0005C006C007E4FFFEFD7C40786D120DF5F8
:1007DC001209AA7871120DF51209AAD003D002D011
:1007EC0001D0001208B9C004C005C006C007E4FF60
:1007FC00FEFD7C40786D120DF51209AA786D120D74
:10080C00F51209AAC004C005C006C007E4FFFEFD2E
:10081C007CC07869120DF51209AA7869120DF512CF
:10082C0009AAD003D002D001D0001208B5E4FBFA1B
:10083C007980783F1208B990009B120E2AD007D00D
:10084C0006D005D00412294D7B4D7A3D790F7844A2
:10085C001209AA120C188E338F347871120DCD78C0
:10086C0069120DF51209AAC004C005C006C00778AC
:10087C006D120DCD7865120DF51209AAD003D002B8
:10088C00D001D0001208B5E4FBFAF978401209AA9D
:10089C00122CF77B4D7A3D790F78441209AA120C71
:0508AC00188E318F32AF
:0108B1002224
:06263E00900097120E2A25
:10264400E4FFFEFD7C3F900097E0F8A3E0F9A3E0EF
:10265400FAA3E0FB1209AA90009B120E2A9000979D
:10266400E0FCA3E0FDA3E0FEA3E0FF90009F120EB8
:102674002A90009FE0FCA3E0FDA3E0FEA3E0FFA3FB
:10268400120E2A9000A3E0FCA3E0FDA3E0FEA3E069
:10269400FF7801120DA6C374DF9FFF74599EFE7468
:1026A400379DFD745F9CFC9000A3120E2A9000A33A
:1026B400E0FCA3E0FDA3E0FEA3E0FF90009F120E68
:1026C4002A90009FE0FCA3E0FDA3E0FEA3E0FF90BE
:1026D400009BE0F8A3E0F9A3E0FAA3E0FB1209AA47
:1026E40090009FE0F8A3E0F9A3E0FAA3E0FB12094D
:1026F400AAA804A905AA06AB07E4FFFE7DC07C3F97
:102704001208B590009FE0F8A3E0F9A3E0FAA3E073
:10271400FB1209AA90009F120E2A90009FE0FCA3CE
:08272400E0FDA3E0FEA3E0FFCD
:01272C00228A
:072EBF00D2B4122EC6C2B40A
:042EC6007F02DFFEAA
:012ECA0022E5
:0F2EA300D2B5D2B4122EC6C2B5122EC6C2B422F8
:0C2ECB00C2B5D2B4122EC6D2B5022EC67B
:0D2EB200D2B4122EC6A2B5C2B4122EC62292
:02000E00AE073B
:10001000E4FDEE25E0FE92B5122EBF0DEDB408F220
:03002000022EB2FB
:102DE800E4FED2B5FDEE25E0FED2B4122EC6A2B5A1
:102DF800E4334EFEC2B4122EC60DEDB408E7AF069A
:012E080022A7
:102E3E00AC05AB07122EA37FD012000EAF0312000B
:092E4E000EAF0412000E022ECB9F
:102DC500E4FD7F6B122E3E7D077F19122E3E7D049A
:102DD5007F1A122E3E7D087F1B122E3E7D187F1C0A
:032DE500022E3E7D
:0B2AE20090007FEBF0A3EAF0A3E9F006
:102AED00122EA37FD012000E7F3B12000E122EA3CA
:102AFD007FD112000EE4FC122DE890007FE0FBA3C5
:102B0D00E0FAA3E0F98C82758300EF120CFFC2B5D9
:102B1D00122EBF0CECB40DDF122DE890007FE0FB00
:102B2D00A3E0FAA3E0F9AE048E82758300EF120CD8
:092B3D00FFD2B5122EBF022ECB0F
:081BD40090007FEEF0A3EFF09A
:101BDC00AE04AF059000AFE0FCA3E0FD900081ECFB
:101BEC00F0A3EDF0900081ECF0A3EDF09000B2E0EA
:101BFC002FFF9000B1E03EFE3395E0FDFC90008796
:101C0C00120E2A900087E0FCA3E0FDA3E0FEA3E007
:101C1C00FF780F120DBA90008D120E2AAE02AF0390
:101C2C00EE3395E0FDFC900087E0F8A3E0F9A3E02B
:101C3C00FAA3E02FFBEA3EFAE93DF9E83CF8900004
:101C4C008DE0FCA3E0FDA3E0FEA3E0FF122CB3901B
:101C5C00008BEEF0A3EFF0900081E0FEA3E0FFC359
:101C6C00900080E09FFF90007FE09EAB07FA3395D9
:101C7C00E0F9F890008BE0FEA3E0FFEE3395E0FD79
:101C8C00FC120D49780F120DA6A804A905AA06ABE3
:101C9C0007900081E0FEA3E0FFEE3395E0FDFCEB46
:101CAC002FFFEA3EFEE93DFDE83CFCA3120E2A9014
:101CBC00008BE0FEA3E0FBAA06EA3395E0F9F8C33B
:101CCC00E49BFF74809AFEE499FDE498FC900087F5
:101CDC00E0F8A3E0F9A3E0FAA3E0FB120D49780FBA
:101CEC00120DA69000B1EEF0A3EFF0900083A3A329
:0D1CFC00E0FEA3E0FF9000AFEEF0A3EFF0DC
:011D090022B7
:081D0A0090007FEEF0A3EFF062
:101D1200AE04AF059000B3E0FCA3E0FD900081ECBF
:101D2200F0A3EDF0900081ECF0A3EDF09000B6E0AE
:101D32002FFF9000B5E03EFE3395E0FDFC9000875A
:101D4200120E2A900087E0FCA3E0FDA3E0FEA3E0D0
:101D5200FF780F120DBA90008D120E2AAE02AF0359
:101D6200EE3395E0FDFC900087E0F8A3E0F9A3E0F4
:101D7200FAA3E02FFBEA3EFAE93DF9E83CF89000CD
:101D82008DE0FCA3E0FDA3E0FEA3E0FF122CB390E4
:101D9200008BEEF0A3EFF0900081E0FEA3E0FFC322
:101DA200900080E09FFF90007FE09EAB07FA3395A2
:101DB200E0F9F890008BE0FEA3E0FFEE3395E0FD42
:101DC200FC120D49780F120DA6A804A905AA06ABAC
:101DD20007900081E0FEA3E0FFEE3395E0FDFCEB0F
:101DE2002FFFEA3EFEE93DFDE83CFCA3120E2A90DD
:101DF200008BE0FEA3E0FBAA06EA3395E0F9F8C304
:101E0200E49BFF74809AFEE499FDE498FC900087BD
:101E1200E0F8A3E0F9A3E0FAA3E0FB120D49780F82
:101E2200120DA69000B5EEF0A3EFF0900083A3A3ED
:0D1E3200E0FEA3E0FF9000B3EEF0A3EFF0A0
:011E3F002280
:081E400090007FEEF0A3EFF02B
:101E4800AE04AF059000B7E0FCA3E0FD900081EC84
:101E5800F0A3EDF0900081ECF0A3EDF09000BAE073
:101E68002FFF9000B9E03EFE3395E0FDFC9000871F
:101E7800120E2A900087E0FCA3E0FDA3E0FEA3E099
:101E8800FF780F120DBA90008D120E2AAE02AF0322
:101E9800EE3395E0FDFC900087E0F8A3E0F9A3E0BD
:101EA800FAA3E02FFBEA3EFAE93DF9E83CF8900096
:101EB8008DE0FCA3E0FDA3E0FEA3E0FF122CB390AD
:101EC800008BEEF0A3EFF0900081E0FEA3E0FFC3EB
:101ED800900080E09FFF90007FE09EAB07FA33956B
:101EE800E0F9F890008BE0FEA3E0FFEE3395E0FD0B
:101EF800FC120D49780F120DA6A804A905AA06AB75
:101F080007900081E0FEA3E0FFEE3395E0FDFCEBD7
:101F18002FFFEA3EFEE93DFDE83CFCA3120E2A90A5
:101F2800008BE0FEA3E0FBAA06EA3395E0F9F8C3CC
:101F3800E49BFF74809AFEE499FDE498FC90008786
:101F4800E0F8A3E0F9A3E0FAA3E0FB120D49780F4B
:101F5800120DA69000B9EEF0A3EFF0900083A3A3B2
:0D1F6800E0FEA3E0FF9000B7EEF0A3EFF065
:011F75002249
:081F760090007FEEF0A3EFF0F4
:101F7E00AE04AF059000BBE0FCA3E0FD900081EC49
:101F8E00F0A3EDF0900081ECF0A3EDF09000BEE038
:101F9E002FFF9000BDE03EFE3395E0FDFC900087E4
:101FAE00120E2A900087E0FCA3E0FDA3E0FEA3E062
:101FBE00FF780F120DBA90008D120E2AAE02AF03EB
:101FCE00EE3395E0FDFC900087E0F8A3E0F9A3E086
:101FDE00FAA3E02FFBEA3EFAE93DF9E83CF890005F
:101FEE008DE0FCA3E0FDA3E0FEA3E0FF122CB39076
:101FFE00008BEEF0A3EFF0900081E0FEA3E0FFC3B4
:10200E00900080E09FFF90007FE09EAB07FA339533
:10201E00E0F9F890008BE0FEA3E0FFEE3395E0FDD3
:10202E00FC120D49780F120DA6A804A905AA06AB3D
:10203E0007900081E0FEA3E0FFEE3395E0FDFCEBA0
:10204E002FFFEA3EFEE93DFDE83CFCA3120E2A906E
:10205E00008BE0FEA3E0FBAA06EA3395E0F9F8C395
:10206E00E49BFF74809AFEE499FDE498FC9000874F
:10207E00E0F8A3E0F9A3E0FAA3E0FB120D49780F14
:10208E00120DA69000BDEEF0A3EFF0900083A3A377
:0D209E00E0FEA3E0FF9000BBEEF0A3EFF02A
:0120AB002212
:1020E80042002B000042002D000042003000004258
:1020F8000032000042003400004200130000420099
:10210800170000420019000042001B000041004E69
:1021180000410053004100580044007700000000CF
:102128004400730000000044007B000000004200EF
:102138000F000042001100004200150000021600C6
:1021480000021400000218000002310000023300EF
:10215800004400070000000044000B000000004499
:10216800006B0000000044005D0000000044006FA8
:102178000000000044006300000000440067000005
:1021880000004400270000000044004A000000004E
:1021980044004F00000000440054000000004400C8
:1021A80059000000004400360000000044003A00D6
:1021B8000000004400400000000042003E000042D1
:1021C80000440000420001000042000300004200F9
:0321D800050000FF
:10134100900046E0FCA3E0FDE4120BDFE4FBFAF9B8
:1013510078C31208B9E4FBFAF978401209AA120C11
:1013610018900001EEF0A3EFF0C3E49532FDE4958F
:1013710031FCC3ED9FFBEC9EFA90004EE0FF3395EC
:10138100E0FE7C007D05120D21EF2BFDEE3AFC12F3
:101391000BDF900036120E2AD390002CE0941490AB
:1013A100002BE0940090005D4024E0FCA3E0FDA34D
:1013B100E0FEA3E0FF900036E0F8A3E0F9A3E0FA35
:1013C100A3E0FB1208B990005D120E2A8007120EED
:1013D1003600000000E4FFFE7D487C4490005DE0A3
:1013E100F8A3E0F9A3E0FAA3E0FB120B50600E4072
:1013F1000C90005D120E36444800008024E4FFFE8C
:101401007D487CC490005DE0F8A3E0F9A3E0FAA375
:10141100E0FB120B50500A90005D120E36C44800DA
:1014210000900036E0FCA3E0FDA3E0FEA3E0FF1284
:101431000C18EC120BDAE4FBFA794078411209AA94
:10144100120C187810120E1E90005DE0FCA3E0FD56
:10145100A3E0FEA3E0FF120C18E47B5C7A0FF9F81D
:10146100120D49780F120DA6780C120E1E7816E691
:10147100FC08E6FDEC120BDF90000BE0F8A3E0F9AD
:10148100A3E0FAA3E0FB1208B9E4FBFAF9784012F1
:101491000AB37B667A6679A678401209AA120C18FB
:1014A1007808120E1E780C120DCD7810120DF5EB86
:1014B1002FFFEA3EFEE93DFDE83CFC7808120DF500
:1014C100EF2BFFEE3AFEED39FDEC38FCEF2405FF82
:1014D100E43EFEE43DFDE43CFCE47B0AFAF9F8124B
:1014E1002CB3EC120BDA8F388E378D368C35900099
:1014F10036E0FCA3E0FDA3E0FEA3E0FF90004A126A
:101501000E2A7816E6FC08E6FDEC120BDFA804A90A
:1015110005AA06AB07AF38AE37AD36AC351208B504
:10152100120C1890003EEEF0A3EFF0D390002CE0E7
:10153100941490002BE0940090006B4032E0F8A3EB
:10154100E0F9A3E0FAA3E0FBC000C001C002C003C0
:1015510090003EE0FCA3E0FDEC120BDFD003D002D3
:10156100D001D0001208B990006B120E2A80071228
:101571000E3600000000E4FFFE7D487C4490006BC5
:10158100E0F8A3E0F9A3E0FAA3E0FB120B50600E30
:10159100400C90006B120E36444800008024E4FF9A
:1015A100FE7D487CC490006BE0F8A3E0F9A3E0FA6B
:1015B100A3E0FB120B50500A90006B120E36C44888
:1015C100000090003EE0FEA3E0FFEE3395E0FDFC5D
:1015D100E47BAE7A27F9F8120D49780F120DA6783F
:1015E10010120E1E90006BE0FCA3E0FDA3E0FEA331
:1015F100E0FF120C18E47B897A01F9F8120D4978A1
:101601000F120DA6780C120E1E90003EE0FEA3E014
:10161100FFEE3395E0FDFC120BDA900054E0F8A3E5
:10162100E0F9A3E0FAA3E0FB1208B57B9A7A997975
:101631008978401209AA120C187808120E1E780C2B
:10164100120DCD7810120DF5EB2FFFEA3EFEE93DAC
:10165100FDE83CFC7808120DF5EF2BFFEE3AFEEDAC
:1016610039FDEC38FC120BDA8F388E378D368C351C
:1016710090003EE0FCA3E0FDEC120BDF9000541261
:101681000E2AE4FFFE7D7A7C44AB38AA37A936A83E
:1016910035120B50600D400BE4F538F53775367A8D
:1016A100753544E4FFFE7D7A7CC4AB38AA37A93690
:1016B100A835120B50500BE4F538F53775367A75AD
:1016C10035C4AF38AE37AD36AC35120C1890002D9D
:1016D100EEF0A3EFF0AF38AE37AD36AC35120BC933
:1016E100120C18900030EEF0A3EFF0AF38AE37AD2A
:1016F10036AC35120C18900034EEF0A3EFF0AF3891
:10170100AE37AD36AC35120BC9120C18900032EE63
:05171100F0A3EFF0223F
:100F3500900022E0FCA3E0FDE4120BDFE4FBFAF9EC
:100F450078C31208B9E4FBFAF978401209AA120C21
:100F550018900003EEF0A3EFF0C3E49534FDE4959B
:100F650033FCC3ED9FFBEC9EFA900053E0FF3395F5
:100F7500E0FE7C007D05120D21C3EB9FFDEA9EFC82
:100F8500120BDF90003A120E2AD390002CE0941435
:100F950090002BE094009000634024E0FCA3E0FD6A
:100FA500A3E0FEA3E0FF90003AE0F8A3E0F9A3E098
:100FB500FAA3E0FB1208B9900063120E2A8007120B
:100FC5000E3600000000E4FFFE7D487C449000637F
:100FD500E0F8A3E0F9A3E0FAA3E0FB120B50600EE2
:100FE500400C900063120E36444800008024E4FF54
:100FF500FE7D487CC4900063E0F8A3E0F9A3E0FA25
:10100500A3E0FB120B50500A900063120E36C44841
:10101500000090003AE0FCA3E0FDA3E0FEA3E0FFA2
:10102500120C18EC120BDAE4FBFA7940784112093C
:10103500AA120C187810120E1E900063E0FCA3E0B3
:10104500FDA3E0FEA3E0FF120C18E47B5C7A0FF928
:10105500F8120D49780F120DA6780C120E1E781491
:10106500E6FC08E6FDEC120BDF900007E0F8A3E0D4
:10107500F9A3E0FAA3E0FB1208B9E4FBFAF978401A
:10108500120AB37B667A6679A678401209AA120C11
:10109500187808120E1E780C120DCD7810120DF569
:1010A500EB2FFFEA3EFEE93DFDE83CFC7808120D1A
:1010B500F5EF2BFFEE3AFEED39FDEC38FCEF24059C
:1010C500FFE43EFEE43DFDE43CFCE47B0AFAF9F86E
:1010D500122CB3EC120BDA8F388E378D368C359097
:1010E500003AE0FCA3E0FDA3E0FEA3E0FF90004F83
:1010F500120E2A7814E6FC08E6FDEC120BDFA804B4
:10110500A905AA06AB07AF38AE37AD36AC35120820
:10111500B5120C18900044EEF0A3EFF0D390002C1C
:10112500E0941490002BE0940090006F4032E0F8BA
:10113500A3E0F9A3E0FAA3E0FBC000C001C002C030
:1011450003900044E0FCA3E0FDEC120BDFD003D0DC
:1011550002D001D0001208B990006F120E2A800744
:10116500120E3600000000E4FFFE7D487C4490002E
:101175006FE0F8A3E0F9A3E0FAA3E0FB120B5060DF
:101185000E400C90006F120E36444800008024E497
:10119500FFFE7D487CC490006FE0F8A3E0F9A3E072
:1011A500FAA3E0FB120B50500A90006F120E36C4E2
:1011B500480000900044E0FEA3E0FFEE3395E0FD1B
:1011C500FCE47BAE7A27F9F8120D49780F120DA6CB
:1011D5007810120E1E90006FE0FCA3E0FDA3E0FE68
:1011E500A3E0FF120C18E47B897A01F9F8120D4986
:1011F500780F120DA6780C120E1E900044E0FEA387
:10120500E0FFEE3395E0FDFC120BDA900059E0F8B3
:10121500A3E0F9A3E0FAA3E0FB1208B57B9A7A995B
:10122500798978401209AA120C187808120E1E78CE
:101235000C120DCD7810120DF5EB2FFFEA3EFEE9ED
:101245003DFDE83CFC7808120DF5EF2BFFEE3AFE6C
:10125500ED39FDEC38FC120BDA8F388E378D368C74
:1012650035900044E0FCA3E0FDEC120BDF90005943
:10127500120E2AE4FFFE7D7A7C44AB38AA37A936E4
:10128500A835120B50600D400BE4F538F53775366F
:101295007A753544E4FFFE7D7A7CC4AB38AA37A95C
:1012A50036A835120B50500BE4F538F53775367AFC
:1012B5007535C490002DE0FCA3E0FDEC120BDFAB0F
:1012C50038AA37A936A8351208B9120C1890002D7E
:1012D500EEF0A3EFF0900030E0FCA3E0FDEC120B84
:1012E500DFAB38AA37A936A8351208B9120C189001
:1012F5000030EEF0A3EFF0900034E0FCA3E0FDEC4D
:10130500120BDFAB38AA37A936A8351208B5120C6F
:1013150018900034EEF0A3EFF0900032E0FCA3E06B
:10132500FDEC120BDFAB38AA37A936A8351208B584
:0C133500120C18900032EEF0A3EFF02232
:10171600900061E0FCA3E0FDE4120BDFE4FBFAF9C4
:1017260078C31208B9E4FBFA798278421209AAC092
:1017360004C005C006C0077818E6FE08E6FFC3E445
:101746009FFDE49EFC120BDFD003D002D001D00037
:101756001208B9C004C005C006C007900058E0FFD3
:101766003395E0FE7C007D14120D21AC06AD07EC2E
:10177600120BDFD003D002D001D0001208B9120C30
:1017860018900005EEF0A3EFF0D390002CE094142F
:1017960090002BE094009000674032E0F8A3E0F957
:1017A600A3E0FAA3E0FBC000C001C002C0039000A2
:1017B60005E0FCA3E0FDEC120BDFD003D002D00164
:1017C600D0001208B9900067120E2A8007120E3652
:1017D600000000007F007E507D437C47900067E05C
:1017E600F8A3E0F9A3E0FAA3E0FB120B50600E4069
:1017F6000C900067120E364743500080257F007E0E
:10180600507D437CC7900067E0F8A3E0F9A3E0FAB7
:10181600A3E0FB120B50500A900067120E36C74326
:101826005000900005E0FEA3E0FFEE3395E0FDFCDE
:10183600120BDAE4FBFA79A078401209AA120C1806
:101846007810120E1E900067E0FCA3E0FDA3E0FEF8
:10185600A3E0FF120C18E47BB87A1EF9F8120D49C2
:10186600780F120DA6780C120E1E900005E0FEA34E
:10187600E0FFEE3395E0FDFC120BDA900027E0F86E
:10188600A3E0F9A3E0FAA3E0FB1208B5E4FBFA79BA
:101896008078401209AA120C187808120E1E780CCD
:1018A600120DCD7810120DF5EB2FFFEA3EFEE93D45
:1018B600FDE83CFC7808120DF5EF2BFFEE3AFEED45
:1018C60039FDEC38FC7806120DA6EC120BDA8F38CF
:1018D6008E378D368C35900005E0FCA3E0FDEC12CA
:1018E6000BDF900027120E2A90002DE0FCA3E0FDEE
:1018F600EC120BDFAB38AA37A936A8351208B91295
:101906000C1890002DEEF0A3EFF0900030E0FCA351
:10191600E0FDEC120BDFAB38AA37A936A835120862
:10192600B5120C18900030EEF0A3EFF0900034E002
:10193600FCA3E0FDEC120BDFAB38AA37A936A835BD
:101946001208B5120C18900034EEF0A3EFF09000D8
:1019560032E0FCA3E0FDEC120BDFAB38AA37A93668
:10196600A8351208B9120C18900032EEF0A3EFF069
:01197600224E
:102C6000E5322484FFE5313403FED3EF94B0EE6403
:102C70008094844002802FC3EF94F4EE64809481AA
:102C800050028022E5342484FFE5333403FED3EF81
:102C900094B0EE648094844002800BC3EF94F4EE11
:102CA00064809481500AC281E490002BF0A3F0224A
:032CB000D28122AC
:10254C0090002DE0FEA3E0FF90002BE0FCA3E0FD4B
:10255C002FFFEC3EFE900013F0A3EFF0D394E8EEC7
:10256C0064809483400C9000137403F0A374E8F01F
:10257C00800FC3900013E0648094805004E4F0A3B7
:10258C00F0900030E0FEA3E02DFFEC3EFE90001733
:10259C00F0A3EFF0D394E8EE64809483400C9000A9
:1025AC00177403F0A374E8F0800FC3900017E06475
:1025BC008094805004E4F0A3F0900032E0FEA3E09D
:1025CC00FF90002BE0FCA3E0FD2FFFEC3EFE900003
:1025DC0019F0A3EFF0D394E8EE64809483400C9050
:1025EC0000197403F0A374E8F0800FC3900019E095
:1025FC00648094805004E4F0A3F0900034E0FEA3D7
:10260C00E02DFFEC3EFE90001BF0A3EFF0D394E81E
:10261C00EE64809483400B90001B7403F0A374E869
:10262C00F022C390001BE0648094805004E4F0A37B
:02263C00F0228A
:10272D0090001DE0FF90002FE0B50749900026E0D6
:10273D0004F0C3941450030227E17413F090006168
:10274D00E4F0A37480F0900046E4F0A37480F09060
:10275D000022E4F0A37480F0D390002CE094149048
:10276D00002BE09400406DA3E024FFF090002BE0DF
:10277D0034FFF0805FE4900026F0900024E0FEA38B
:10278D00E0FFD394E9EE9403400C9000247403F021
:10279D00A374E8F0803ED3EF9432EE94004026907F
:1027AD000025E0242CFD900024E03401FCE4120B04
:1027BD00DF7B667A6679A6783F120AB3120C189001
:1027CD00002BEE800B900024E0FFA3E090002BCFB8
:1027DD00F0A3EFF090002FE090001DF0900024E0AA
:0C27ED00FFA3E090002BCFF0A3EFF02240
:1008B200020C84E86480F8E933E83360110460F0E4
:1008C200ED33EC337009E8FCE9FDEAFEEBFF2204AC
:1008D20060DED3EB9FEA9EE99DE8C2E78CF0C2F7A7
:1008E20095F0400CE8CCF8E9CDF9EACEFAEBCFFB73
:1008F200120C4F85D0F05804700320D5B3E8047071
:10090200075002B2D5020C8E92D5EC0460F7E4CC0B
:10091200C0E0C398F8603B94186008400DD0E0FB3B
:10092200020C66E4FBFAC9FC8028E830E406E4C95C
:10093200FBE4CAFCE830E305E4C9CACBFCE854078F
:100942006010F8C3E913F9EA13FAEB13FBEC13FC9A
:10095200D8F130F52FC3E49CFCEF9BFFEE9AFEED3D
:1009620099FDD0E0FBEF4E4D4C701222DB03020CDE
:100972008BEC2CFCEF33FFEE33FEED33FDED30E775
:10098200EB020C66EF2BFFEE3AFEED39FDD0E0FBF9
:1009920050130BBB0003020C8EED13FDEE13FEEFA2
:0809A20013FFEC13FC020C66CC
:1009AA00EC4D6011E8497017ED33EC3304600DE447
:1009BA00FCFFFEFD22E933E8330470F8020C8412CE
:1009CA000C4F58046009E4CC2481500628500902CF
:1009DA000C8E284003020C8BC0E0EB4A7044B980AD
:1009EA0006D0E0FB020C7AEF4E701CBD8008EBFFCC
:1009FA00EAFEE9FD80EBE98DF0A4FEE5F0020A9338
:100A0A00E9CDF9EAFEEBFFEF89F0A4FCE5F0CE8927
:100A1A00F0A42EFFE435F0CD89F0A42DFEE435F0E4
:100A2A008067EF4E7005BD80D780C3EF8BF0A4AC12
:100A3A00F0EE8BF0A42CFCE435F0F8EF8AF0A42C4D
:100A4A00E5F038FCE433CB8DF0A42CFCE5F03BF860
:100A5A00EE8AF0A42CFCE5F038F8E433CF89F0A450
:100A6A002CFCE5F038CF3400CE89F0A42FFFE5F056
:100A7A003EFEE433C98DF0A42EFEE5F039CD8AF0AE
:100A8A00A42FFFE5F03EFEE43DFD33D0E0FB500726
:100A9A000BBB000F020C8EEC2CFCEF33FFEE33FE87
:060AAA00ED33FD020C66B5
:100AB000020C8EEC5D046005E859047003020C849E
:100AC000120C4F580460F6EC4860F2EC7004FDFE26
:100AD000FF22C860DB2481C85009C3986002500619
:100AE000020C8B9850CAF582E9294B4A7005AB82FB
:100AF000020C7A75F0007C1A7880C3EF9BEE9AEDB9
:100B000099400DC3EF9BFFEE9AFEED99FDE842F090
:100B1000DC23ACF0D0E0FFD0E0FED0E0FDAB8220E3
:100B2000E7101BEB60BAEC2CFCEF33FFEE33FEED6D
:100B300033FD020C66E803F830E705C0F075F000FD
:100B4000EF2FFFEE33FEED33FD40B830E7C280AA51
:100B500074F8CC6480CCC86480C8F58204604FC34C
:100B6000EB9FF5F0EA9E42F0E99D42F0E89C45F0EB
:100B7000603C501DE5825FFFE582D313CB5BCBF475
:100B80002B5582FB50280ABA002409B9002008809E
:100B90001DE5825BFBE582D313CF5FCFF4C3132F38
:100BA0005582FF50090EBE00050DBD00010CC3EBC0
:100BB0009FF5F0EA9E42F0E99D42F0E89C45F06026
:090BC00007CC4820E701B3EC2248
:100BC900ED33EC33600A047003BD8004ECB2E7FC3A
:010BD90022F9
:100BDA0075F020800E75F010800575F0087D007E96
:100BEA00007F003392D530D503120D98EC334010B4
:100BFA00EF33FFEE33FEED33FDEC33FCD5F0ED229F
:0E0C0A00E5F0247EA2D513CC92E7CDCEFF22DA
:100C1800EDD2E7CD33EC3392D524814006E4FFFED4
:100C2800FDFC22FCE4CFCECDCC24E0501174FF8033
:100C3800EDC3CC13CCCD13CDCE13CECF13CF0470D0
:070C4800F030D5DE020D982B
:10294D00900097120E2A90009BE0F8A3E0F9A3E007
:10295D00FAA3E0FB900097E0FCA3E0FDA3E0FEA34B
:10296D00E0FF120AB3122329900097120E2A90004D
:10297D009BE030E759900097E0FCA3E0FDA3E0FE5B
:10298D00A3E0FFECC0E0EDC0E0EEC0E0EFC0E0E49E
:10299D00FFFEFDFC900097E0F8A3E0F9A3E0FAA399
:1029AD00E0FB120B507BDB600250087A0F794978FF
:1029BD004080067A0F794978C0D0E0FFD0E0FED094
:1029CD00E0FDD0E0FC1208B9900097120E2A90009D
:0D29DD0097E0FCA3E0FDA3E0FEA3E0FF22D5
:102CF700ECC0E0F8EDC0E0F9EEC0E0FAEFC0E0FBB1
:102D07001209AAEC6480FC7B007A007980783F1274
:102D170008B91227FDD0E0CFFBD0E0CEFAD0E0CD46
:0B2D2700F9D0E0CCF8120AB302232917
:100C4F00E9D2E7C933E833F892D5EDD2E7CD33ECEB
:070C5F0033FC5002B2D52264
:100C6600EC30E7100FBF000C0EBE00080DBD0004EF
:100C76000BEB6014A2D5EB13FCED92E7FD2274FF9B
:100C8600FCFDFEFF22E480F8A2D574FF13FC7D80F4
:030C9600E480EF08
:1027F900020C8422EDA2E7D2E7F9EC3340F260F350
:10280900B4FF08ED547F70E8020C8EF82481C2E011
:10281900C0E0F40428FAC313FCED92E7FD90009799
:10282900120E2AEEA2E7E9BA7F02C313340094001C
:10283900FA75F091A4E5F013F494FE8AF0A433E557
:10284900F033248CD313FDE492E7FE7F007C3F75BF
:102859008302ECC0E0F8EDC0E0F9EEC0E0FAEFC0A9
:10286900E0FB8583F0900097120DD985F083120A59
:10287900B3D0E0FBD0E0FAD0E0F9D0E0F81208B923
:10288900ED6480FD30E7011CD583C7ED33CC33F807
:0C289900D0E0A2E71328C313CC13FD22EB
:10230900BE1249253E4CCCCDBEAAAAAB3F800000E7
:102319003E7ADBB03EED63383F24BC7D3F490FDB9D
:10232900ED33ECC2E7CC339200B4FF13ED547F6078
:1023390003020C847FDB7E0F7DC97C3F02241EC211
:1023490001C3947F401E7007EDD2E794904015EFCA
:10235900FBEEFAEDF9ECF87F007E007D807C3F1200
:102369000AB3D201ED33EC33248430E705E4C0E04D
:10237900806B04FAEDD2E754F0C333DAFD54073425
:10238900002323C0E0CCC0E0F8EDC0E0F9EEC0E0E6
:10239900FAEFC0E0FBE4120BE4EC24FEFC90009F92
:1023A900120E2A1209AA7B007A007980783F120856
:1023B900B990009FE0B2E7CCF0A3E0CDF0A3E0CE66
:1023C900F0A3E0CFF0D0E0FBD0E0FAD0E0F9D0E024
:1023D900F81208B990009F120E02120AB390009FDA
:1023E900120E2A9023097403120C9990009F120E61
:1023F900021209AAD0E0600F2415F582E43423F50E
:1024090083120E0E1208B930010B7BDB7A0F79C9E2
:1024190078BF1208B9ED33EC336006ECA20092E7FD
:02242900FC2293
:100C9900C0E0EFFBEEFAEDF9ECF81209AAD0E0F5A5
:100CA900F0EFFBEEFAEDF9ECF8120DE5A3A3A3A31F
:100CB900E8C0E0E9C0E0EAC0E0EBC0E0C0F012093A
:100CC900AA120E0EA3A3A3A31208B9D0F0D0E0FB79
:0D0CD900D0E0FAD0E0F9D0E0F8D5F0D42258
:030000000229EAE8
:0C29EA00787FE4F6D8FD75819C022A314C
:100CE600BB010689828A83E0225002E722BBFE020C
:090CF600E32289828A83E493223F
:100CFF00F8BB010DE58229F582E5833AF583E8F02B
:100D0F00225006E92582C8F622BBFE05E92582C8D6
:020D1F00F222BE
:100D2100EF8DF0A4A8F0CF8CF0A428CE8DF0A42EE6
:020D3100FE22A0
:100D3300A3F8E0C5F025F0F0E58215827002158373
:060D4300E0C838F0E822D0
:100D4900E88FF0A4CC8BF0A42CFCE98EF0A42CFC49
:100D59008AF0EDA42CFCEA8EF0A4CDA8F08BF0A4C7
:100D69002DCC3825F0FDE98FF0A42CCD35F0FCEB26
:100D79008EF0A4FEA9F0EB8FF0A4CFC5F02ECD39EB
:0F0D8900FEE43CFCEAA42DCE35F0FDE43CFC2258
:102CB300C2D5E830E70FB2D5E4C39BFBE49AFAE44C
:102CC30099F9E498F8EC30E717B2D5122CE9120E13
:102CD300A3E4C39BFBE49AFAE499F9E498F880032C
:102CE300120EA330D50DE4C39FFFE49EFEE49DFDC9
:042CF300E49CFC223F
:0E0D9800C3E49FFFE49EFEE49DFDE49CFC226C
:100DA600E86010ECA2E713FCED13FDEE13FEEF1363
:040DB600FFD8F02250
:100DBA00E8600FEFC333FFEE33FEED33FDEC33FC97
:030DCA00D8F1223B
:0C0DCD00E6FC08E6FD08E6FE08E6FF2252
:0C0DD900E0FCA3E0FDA3E0FEA3E0FF228D
:100DE500E493FC740193FD740293FE740393FF2254
:0D0DF500E6FB08E6F908E6FA08E6CBF8226E
:0C0E0200E0F8A3E0F9A3E0FAA3E0FB2273
:100E0E00E493F8740193F9740293FA740393FB223A
:0C0E1E00ECF608EDF608EEF608EFF62200
:0C0E2A00ECF0A3EDF0A3EEF0A3EFF0223B
:100E3600A8828583F0D083D082120E4D120E4D12F9
:100E46000E4D120E4DE473E493A3C583C5F0C5831E
:100E5600C8C582C8F0A3C583C5F0C583C8C582C806
:010E66002269
:1029F6000221DCE493A3F8E493A34003F68001F2FA
:102A060008DFF48029E493A3F85407240CC8C333E1
:102A1600C4540F4420C8834004F456800146F6DFB0
:102A2600E4800B01020408102040809020ACE47E74
:102A3600019360BCA3FF543F30E509541FFEE493A5
:102A4600A360010ECF54C025E060A840B8E493A36C
:102A5600FAE493A3F8E493A3C8C582C8CAC583CA97
:102A6600F0A3C8C582C8CAC583CADFE9DEE780BE4F
:0121DB000003
:100E670075F008758200EF2FFFEE33FECD33CDCC42
:100E770033CCC58233C5829BED9AEC99E5829840C5
:100E87000CF582EE9BFEED9AFDEC99FC0FD5F0D6A2
:100E9700E4CEFBE4CDFAE4CCF9A88222B800C1B9CC
:100EA7000059BA002DEC8BF084CFCECDFCE5F0CB0A
:100EB700F97818EF2FFFEE33FEED33FDEC33FCEB43
:100EC70033FB10D703994004EB99FB0FD8E5E4F9FE
:100ED700FA227818EF2FFFEE33FEED33FDEC33FCEB
:100EE700C933C910D7059BE99A4007EC9BFCE99ADF
:100EF700F90FD8E0E4C9FAE4CCFB2275F010EF2F24
:100F0700FFEE33FEED33FDCC33CCC833C810D70723
:100F17009BEC9AE899400AED9BFDEC9AFCE899F85E
:0E0F27000FD5F0DAE4CDFBE4CCFAE4C8F922F1
:00000001FF
