:0E2F1B0055617274205465737420210D0A00F4
:1020EB001228EC9000AD7403F0A374E8F0FB7A03B4
:1020FB00FD7C03FF7E03122DC7C281D282122E34C8
:10210B00D281C282122E34D281D282C283122E3657
:10211B00D281D282D2837F0A7E00122E3A7F0A7E30
:10212B0000122E3A122E5A7F0A7E00122E3A1224D9
:10213B00727F647E00122E3A122EE87D007C367F71
:10214B00007EC2122CFA7F647E00122E3AE49000BD
:10215B0026F0A3F0900061F0A37480F0900044E4AB
:10216B00F0A37480F0900024E4F0A37480F0C28399
:10217B00E490004DF0900052F0900057F0D2ACD2AA
:10218B00AF7BFF7A2F791B122E017B007A007939F6
:10219B009000ACE543F07D0A7C00122ABDEF4E7037
:1021AB005890005CE539F0900002E53AF0E53B759C
:1021BB00F0FFA47C00253CFEEC35F0900026F0A34C
:1021CB00CEF0900061E4F0A3E53DF0900044E4F024
:1021DB00A3E53EF0900024E4F0A3E53FF0E54024B6
:1021EB008090004DF0E5412480900052F0E54224B0
:1021FB0080900057F0D2828002C282900002E0FFF2
:10220B00B40102D283EFB40502C2837F037E0012B6
:05221B002E3A0221959E
:102EE800538E7F5389F0758A40758CA2C28DD28C1F
:032EF800D2A9223A
:062E3400D2837FF47E0151
:102E3A00E4FDFCC3ED9FEC9E5015E4FBFA0BBB00CE
:0F2E4A00010AEB64FA4A70F50DBD00010C80E43B
:012E59002256
:03000B000219CC0B
:1019CC00C0E0C0F0C083C082C0D075D000C000C0E1
:1019DC0001C002C003C004C005C006C007122E9E81
:1019EC007B007A0079397D0F122C527B007A0079BA
:1019FC0021122B297466FBFA7D997C19AF22AE213A
:101A0C00121C13900012EEF0A3EFF07466FBFA7D3B
:101A1C00997C19AF24AE23121D49900014EEF0A34B
:101A2C00EFF07466FBFA7D997C19AF26AE25121E79
:101A3C007F900018EEF0A3EFF0AC29AD2AEC120B5E
:101A4C00DFE4FBFA79837842120AB3120C1878148B
:101A5C00A60608A607AC2BAD2CEC120BDFE4FBFAA8
:101A6C0079837842120AB3120C187816A60608A6C7
:101A7C00077466FBFA7D997C19AF2EAE2D121FB53B
:101A8C007818EEF608EFF6FDAC06EC120BDFE4FB73
:101A9C00FA79837842120AB3900020120E7F7814E0
:101AAC00E6FC08E6FDEC120BDF90000A120E7F78C4
:101ABC0016E6FC08E6FDEC120BDF90000E120E7F12
:101ACC007814E6FC08E6FDEC120BDF7B397AFA7928
:101ADC008E783C1209AAC004C005C006C00778164F
:101AEC00E6FC08E6FDEC120BDF7B397AFA798E788E
:101AFC003C1209AA900083120E7F7F397EFA7D8EEC
:101B0C007C3C900020E0F8A3E0F9A3E0FAA3E0FB12
:101B1C001209AA900087120E7F900012E0FCA3E03D
:101B2C00FDEC120BDF90008B120E7F900014E0FC8A
:101B3C00A3E0FDEC120BDF90008F120E7F900018CB
:101B4C00E0FCA3E0FDEC120BDF900093120E7FD0B3
:101B5C0007D006D005D004120026122774122CA729
:101B6C00121396120F8A12176B122593900002E033
:101B7C0064057062C3900001E09432900000E09420
:101B8C0000405390001AE0FEA3E0FF74E89FFF743E
:101B9C00039EFEC006C00790001CE0FEA3E0FFC33E
:101BAC0074E89FFD74039EFC90001EE0FEA3E0FF12
:101BBC00C374E89FFB74039EFA900016E0FEA3E04A
:101BCC00FFC374E89F9000AEF074039E9000ADF0DC
:101BDC00D007D00680139000AD7403F0A374E8F026
:101BEC00FB7A03FD7C03FF7E03122DC7D007D006C2
:101BFC00D005D004D003D002D001D000D0D0D082F8
:071C0C00D083D0F0D0E032DC
:03002300022ED0DA
:102ED000C0D0309809C298859980A29A92A2309960
:082EE00004C299C202D0D032F5
:1028EC00E4F594F593F592F591F596F595F5B2F529
:1028FC00B1F5B4F5B3F5CAF5C9F5CCF5CBF5E2F500
:10290C00E175960EF59575B280F5B175BA8075F1D5
:10291C00B090FFF27410F0E4F5F6F5F790FFF07458
:10292C0003F0A374E9F090FF04E4F090FF14F0902E
:10293C00FF24F090FF34F090FF007403F0A374E8D0
:10294C00F0A37403F0A374E9F090FF107403F0A3E8
:10295C0074E8F0A37403F0A374E9F090FF207403FF
:10296C00F0A374E8F0A37403F0A374E9F090FF30C3
:10297C007403F0A374E8F0A37403F0A374E9F07586
:08298C00F58F90FFF2E4F02248
:102DC7009000A7EEF0A3EFF09000A7E090FF00F0CF
:102DD7009000A7A3E090FF01F0EC90FF10F0A3EDA7
:102DE700F0EA90FF20F0A3EBF09000ADE0FCA3E049
:0A2DF700FDEC90FF30F0A3EDF02298
:102EFB00D3EF9400EE94004007EF1F70F31E80F0A9
:012F0B0022A3
:042BF0007B01E4FD84
:072BF4009000A7EFF0A90516
:102BFB00C291E4FFFE9000A7E0FD339293D295C201
:102C0B0095ED25E0F00FBF00010EEF64084E70E567
:102C1B00E4FEFFE9339293D295C295E925E0F90FD3
:102C2B00BF00010EEF64084E70E9E4FEFFEB339238
:102C3B0093D295C295EB25E0FB0FBF00010EEF641D
:062C4B00084E70E9D29171
:012C51002260
:102B8D00C29174802FFFE4FBFAEF339293D295C27A
:102B9D0095EF25E0FF0BBB00010AEB64084A70E9D5
:102BAD00E4FAFBD295C2959000BFE025E0FFF0A2BC
:102BBD0094E4334FF00BBB00010AEB64084A70E359
:102BCD00E4FAFBD295C2959000C0E025E0FFF0A29B
:102BDD0094E4334FF00BBB00010AEB64084A70E339
:022BED00D29183
:012BEF0022C3
:10247200C2927FF47E01122EFBD2927FF47E011271
:102482002EFBD2B27BEF7D6FE4FF122BF47B817DBA
:10249200567F01122BF47B177D667F02122BF47B91
:1024A200C97D9C7F04122BF47B377D667F05122B3E
:1024B200F4E4FBFD7F07122BF47B907D6C7F081206
:1024C2002BF4E4FB7D487F09122BF47BFD7D7F7F9B
:1024D2000A122BF47B08E4FD7F0B122BF4E4FBFDC4
:1024E2007F0C122BF47BBD7D487F0D122BF47BFFFA
:1024F200E4FD7F16122BF47B057D807F17122BF4EF
:102502007B67E4FD7F18122BF47B597D167F19122D
:102512002BF47BE07D197F1A122BF4E4FB7D137FF1
:102522001B122BF4E4FB7D187F1C122BF4E4FB7DC1
:10253200587F20122BF47BC77D3F7F21122BF4E4BE
:10254200FB7D207F22122BF4E4FB7D0A7F23122BDA
:10255200F47F24122BF07F25122BF07B01E4FD7F08
:1025620026122BF47B01E4FD7F27122BF47B027DE4
:10257200447F28122BF4E4FB7DB87F29122BF47BD5
:10258200FF7DFD7F2A122BF47B0FE4FD7F2B022BB4
:01259200F454
:102E9E007B807D807F34122BF47BA0E4FD7F0712B4
:092EAE002BF47FC87E00022EFB0C
:0B2C520090007FEBF0A3EAF0A3E9F094
:102C5D00E4FE7F32122B8D9000BFE06D703BA3E040
:102C6D007037EEC39D50327F32122B8D9000BFE036
:102C7D00FF90007FE0FBA3E0FAA3E0F9AC060E8C19
:102C8D0082758300EF120CFF9000C0E0AC060E8C35
:092C9D0082758300120CFF80C94E
:012CA600220B
:102ABD009000A7EBF0A3EAF0A3E9F0A3ECF0A3EDEF
:012ACD00F018
:102ACE00E4FFFE9000ADF0D39000ABE09FEE64808B
:102ADE00F89000AAE064809840219000A7E0FBA344
:102AEE00E475F001120D88A9F0FA120CE6FD9000C3
:102AFE00ADE02DF00FBF00010E80CC9000ADE0FDDB
:102B0E009000ACE0B50504E4FEFF22ED60089000F5
:0A2B1E00ADE0FF7E00227EFF7FFF86
:012B2800228A
:1022200004653F800000046900000000046D0000A8
:102230000000047100000000045900000000045D6B
:1022400000000000046100000000047500000000B0
:0C225000047900000000047D0000000084
:0600260090007F120E7F26
:10002C0090008FE0FCA3E0FDA3E0FEA3E0FF9000B6
:10003C008FE0F8A3E0F9A3E0FAA3E0FB1209AAC051
:10004C0004C005C006C00790008BE0FCA3E0FDA334
:10005C00E0FEA3E0FFA804A905AA06FB1209AAD09A
:10006C0003D002D001D0001208B9C004C005C006EC
:10007C00C007900093E0FCA3E0FDA3E0FEA3E0FF2B
:10008C00A804A905AA06FB1209AAD003D002D00124
:10009C00D0001208B91226857881120E7390008B4D
:1000AC00E0FCA3E0FDA3E0FEA3E0FF7881120E4A82
:1000BC001209AA90008B120E7F90008FE0FCA3E037
:1000CC00FDA3E0FEA3E0FF7881120E4A1209AA906C
:1000DC00008F120E7F900093E0FCA3E0FDA3E0FEE6
:1000EC00A3E0FF7881120E4A1209AA900093120E17
:1000FC007F786D120E227865120E4A1209AAC0047E
:10010C00C005C006C0077871120E227869120E4A1B
:10011C001209AAD003D002D001D0001208B5E4FB1A
:10012C00FAF978401209AA7885120E737871120EBA
:10013C0022786D120E4A1209AAC004C005C006C06E
:10014C00077869120E227865120E4A1209AAD0039A
:10015C00D002D001D0001208B9E4FBFAF9784012B1
:10016C0009AA7889120E737869120E227869120E18
:10017C004A1209AAC004C005C006C0077865120E51
:10018C00227865120E4A1209AAD003D002D001D0EF
:10019C00001208B5C004C005C006C007786D120E69
:1001AC0022786D120E4A1209AAA804A905AA06AB58
:1001BC0007D007D006D005D0041208B5C004C0057E
:1001CC00C006C0077871120E227871120E4A1209FD
:1001DC00AAD003D002D001D0001208B9788D120E2B
:1001EC00737889120E22900093E0F8A3E0F9A3E053
:1001FC00FAA3E0FB1209AAC004C005C006C0077828
:10020C008D120E2290008FE0F8A3E0F9A3E0FAA380
:10021C00E0FB1209AAD003D002D001D0001208B51D
:10022C007891120E73788D120E2290008BE0F8A349
:10023C00E0F9A3E0FAA3E0FB1209AAC004C005C0D0
:10024C0006C0077885120E22900093E0F8A3E0F91F
:10025C00A3E0FAA3E0FB1209AAD003D002D001D08C
:10026C00001208B57895120E737885120E22900044
:10027C008FE0F8A3E0F9A3E0FAA3E0FB1209AAC00F
:10028C0004C005C006C0077889120E2290008BE0CE
:10029C00F8A3E0F9A3E0FAA3E0FB1209AAD003D07B
:1002AC0002D001D0001208B57899120E7378591249
:1002BC000E4AC000C001C002C0037F6F7E127D8356
:1002CC007C3A7891120E4A1209AAD003D002D001BE
:1002DC00D0001208B97859120E73785D120E4AC00C
:1002EC0000C001C002C0037F6F7E127D837C3A7810
:1002FC0095120E4A1209AAD003D002D001D00012D6
:10030C0008B9785D120E737861120E4AC000C001F4
:10031C00C002C0037F6F7E127D837C3A7899120EE7
:10032C004A1209AAD003D002D001D0001208B97821
:10033C0061120E73784D120E4AC0007891120E2283
:10034C00D0001208B57875120E737851120E4AC08F
:10035C00007895120E22D0001208B57879120E731F
:10036C007855120E4AC0007899120E22D00012084D
:10037C00B5787D120E737891120E22784D120E7391
:10038C007895120E227851120E737899120E2278EB
:10039C0055120E73E4FFFEFD7C407891120E4A124A
:1003AC0009AA90007FE0F8A3E0F9A3E0FAA3E0FB30
:1003BC001208B97859120E4A1208B9C004C005C007
:1003CC0006C0077F6F7E127D837C3A7875120E4AC9
:1003DC001209AAD003D002D001D0001208B99000A3
:1003EC007F120E7FE4FFFEFD7C407895120E4A12C0
:1003FC0009AA900083E0F8A3E0F9A3E0FAA3E0FBDC
:10040C001208B9785D120E4A1208B9C004C005C0B2
:10041C0006C0077F6F7E127D837C3A7879120E4A74
:10042C001209AAD003D002D001D0001208B9900052
:10043C0083120E7FE4FFFEFD7C407899120E4A1267
:10044C0009AA900087E0F8A3E0F9A3E0FAA3E0FB87
:10045C001208B97861120E4A1208B9C004C005C05E
:10046C0006C0077F6F7E127D837C3A787D120E4A20
:10047C001209AAD003D002D001D0001208B9900002
:10048C0087120E7F7865120E4AC000C001C002C0F0
:10049C00037869120E22120BC990007FE0F8A3E0DA
:1004AC00F9A3E0FAA3E0FB1209AAC004C005C00638
:1004BC00C007900083E0FCA3E0FDA3E0FEA3E0FFF7
:1004CC00786D120E4A1209AAA804A905AA06AB0750
:1004DC00D007D006D005D0041208B5C004C005C0A2
:1004EC0006C007900087E0FCA3E0FDA3E0FEA3E0BC
:1004FC00FF7871120E4A1209AAA804A905AA06AB24
:10050C0007D007D006D005D0041208B57B0A7AD7DD
:10051C0079A3783B1209AAD003D002D001D00012E3
:10052C0008B97865120E737869120E4AC000C001C2
:10053C00C002C003900087E0FCA3E0FDA3E0FEA393
:10054C00E0FF786D120E4A1209AAC004C005C0065D
:10055C00C00790007FE0FCA3E0FDA3E0FEA3E0FF5A
:10056C007865120E4A1209AAD003D002D001D0002D
:10057C001208B9C004C005C006C007900083E0FC97
:10058C00A3E0FDA3E0FEA3E0FF7871120E4A12096E
:10059C00AAA804A905AA06AB07D007D006D005D097
:1005AC00041208B57B0A7AD779A3783B1209AAD032
:1005BC0003D002D001D0001208B97869120E7378FA
:1005CC006D120E4AC000C001C002C003900087E04B
:1005DC00FCA3E0FDA3E0FEA3E0FF7869120E4A1233
:1005EC0009AAC004C005C006C007900083E0FCA3A4
:1005FC00E0FDA3E0FEA3E0FF7865120E4A1209AA03
:10060C00D003D002D001D0001208B5C004C005C080
:10061C0006C00790007FE0FCA3E0FDA3E0FEA3E092
:10062C00FF7871120E4A1209AAD003D002D001D061
:10063C00001208B97B0A7AD779A3783B1209AAD0A1
:10064C0003D002D001D0001208B9786D120E737865
:10065C0071120E4AC000C001C002C003900083E0BA
:10066C00FCA3E0FDA3E0FEA3E0FF7869120E4A12A2
:10067C0009AAC004C005C006C007900087E0FCA30F
:10068C00E0FDA3E0FEA3E0FF7865120E4A1209AA72
:10069C00D003D002D001D0001208B9C004C005C0EC
:1006AC0006C00790007FE0FCA3E0FDA3E0FEA3E002
:1006BC00FF786D120E4A1209AAA804A905AA06AB66
:1006CC0007D007D006D005D0041208B57B0A7AD71C
:1006DC0079A3783B1209AAD003D002D001D0001222
:1006EC0008B97871120E737869120E227869120E9D
:1006FC004A1209AAC004C005C006C0077865120ECC
:10070C00227865120E4A1209AAD003D002D001D069
:10071C00001208B9C004C005C006C007786D120EDF
:10072C0022786D120E4A1209AAD003D002D001D041
:10073C00001208B9C004C005C006C0077871120EBB
:10074C0022A804A905AA06AB071209AAD003D00255
:10075C00D001D0001208B91226857881120E737858
:10076C0065120E227881120E4A1209AA7865120EB1
:10077C00737869120E227881120E4A1209AA7869CE
:10078C00120E73786D120E227881120E4A1209AA7B
:10079C00786D120E737871120E227881120E4A1235
:1007AC0009AA7871120E73E4FFFEFD7C4078651285
:1007BC000E4A1209AA7869120E4A1209AAC004C07C
:1007CC0005C006C007E4FFFEFD7C40786D120E4AA2
:1007DC001209AA7871120E4A1209AAD003D002D0BB
:1007EC0001D0001208B9C004C005C006C007E4FF60
:1007FC00FEFD7C40786D120E4A1209AA786D120E1D
:10080C004A1209AAC004C005C006C007E4FFFEFDD9
:10081C007CC07869120E4A1209AA7869120E4A1223
:10082C0009AAD003D002D001D0001208B5E4FBFA1B
:10083C007980783F1208B990009B120E7FD007D0B8
:10084C0006D005D0041229947B4D7A3D790F78445B
:10085C001209AA120C188E338F347871120E22786A
:10086C0069120E4A1209AAC004C005C006C0077856
:10087C006D120E227865120E4A1209AAD003D0020C
:10088C00D001D0001208B5E4FBFAF978401209AA9D
:10089C00122D8C7B4D7A3D790F78441209AA120CDB
:0508AC00188E318F32AF
:0108B1002224
:06268500900097120E7F89
:10268B00E4FFFEFD7C3F900097E0F8A3E0F9A3E0A8
:10269B00FAA3E0FB1209AA90009B120E7F90009701
:1026AB00E0FCA3E0FDA3E0FEA3E0FF90009F120E71
:1026BB007F90009FE0FCA3E0FDA3E0FEA3E0FFA35F
:1026CB00120E7F9000A3E0FCA3E0FDA3E0FEA3E0CD
:1026DB00FF7801120DFBC374DF9FFF74599EFE74CC
:1026EB00379DFD745F9CFC9000A3120E7F9000A39E
:1026FB00E0FCA3E0FDA3E0FEA3E0FF90009F120E21
:10270B007F90009FE0FCA3E0FDA3E0FEA3E0FF9021
:10271B00009BE0F8A3E0F9A3E0FAA3E0FB1209AAFF
:10272B0090009FE0F8A3E0F9A3E0FAA3E0FB120905
:10273B00AAA804A905AA06AB07E4FFFE7DC07C3F4F
:10274B001208B590009FE0F8A3E0F9A3E0FAA3E02C
:10275B00FB1209AA90009F120E7F90009FE0FCA332
:08276B00E0FDA3E0FEA3E0FF86
:012773002243
:072F3600D2B4122F3DC2B41A
:042F3D007F02DFFE32
:012F4100226D
:0F2F0C00D2B5D2B4122F3DC2B5122F3DC2B4229E
:0C2F4200C2B5D2B4122F3DD2B5022F3D13
:0D2F2900D2B4122F3DA2B5C2B4122F3D222A
:02000E00AE073B
:10001000E4FDEE25E0FE92B5122F360DEDB408F2A8
:03002000022F2983
:102E7D00E4FED2B5FDEE25E0FED2B4122F3DA2B593
:102E8D00E4334EFEC2B4122F3D0DEDB408E7AF068C
:012E9D002212
:102EB700AC05AB07122F0C7FD012000EAF03120028
:092EC7000EAF0412000E022F42AE
:102E5A00E4FD7F6B122EB77D077F19122EB77D0412
:102E6A007F1A122EB77D087F1B122EB77D187F1C82
:032E7A00022EB76E
:0B2B290090007FEBF0A3EAF0A3E9F0BE
:102B3400122F0C7FD012000E7F3B12000E122F0CAE
:102B44007FD112000EE4FC122E7D90007FE0FBA3E7
:102B5400E0FAA3E0F98C82758300EF120CFFC2B592
:102B6400122F360CECB40DDF122E7D90007FE0FBAB
:102B7400A3E0FAA3E0F9AE048E82758300EF120C91
:092B8400FFD2B5122F36022F42D8
:081C130090007FEEF0A3EFF05A
:101C1B00AE04AF059000AFE0FCA3E0FD900081ECBB
:101C2B00F0A3EDF0900081ECF0A3EDF09000B2E0AA
:101C3B002FFF9000B1E03EFE3395E0FDFC90008756
:101C4B00120E7F900087E0FCA3E0FDA3E0FEA3E073
:101C5B00FF780F120E0F90008D120E7FAE02AF03A6
:101C6B00EE3395E0FDFC900087E0F8A3E0F9A3E0EC
:101C7B00FAA3E02FFBEA3EFAE93DF9E83CF89000C5
:101C8B008DE0FCA3E0FDA3E0FEA3E0FF122D489046
:101C9B00008BEEF0A3EFF0900081E0FEA3E0FFC31A
:101CAB00900080E09FFF90007FE09EAB07FA33959A
:101CBB00E0F9F890008BE0FEA3E0FFEE3395E0FD3A
:101CCB00FC120D9E780F120DFBA804A905AA06ABFA
:101CDB0007900081E0FEA3E0FFEE3395E0FDFCEB07
:101CEB002FFFEA3EFEE93DFDE83CFCA3120E7F9080
:101CFB00008BE0FEA3E0FBAA06EA3395E0F9F8C3FC
:101D0B00E49BFF74809AFEE499FDE498FC900087B5
:101D1B00E0F8A3E0F9A3E0FAA3E0FB120D9E780F25
:101D2B00120DFB9000B1EEF0A3EFF0900083A3A394
:0D1D3B00E0FEA3E0FF9000AFEEF0A3EFF09C
:011D48002278
:081D490090007FEEF0A3EFF023
:101D5100AE04AF059000B3E0FCA3E0FD900081EC80
:101D6100F0A3EDF0900081ECF0A3EDF09000B6E06F
:101D71002FFF9000B5E03EFE3395E0FDFC9000871B
:101D8100120E7F900087E0FCA3E0FDA3E0FEA3E03C
:101D9100FF780F120E0F90008D120E7FAE02AF036F
:101DA100EE3395E0FDFC900087E0F8A3E0F9A3E0B5
:101DB100FAA3E02FFBEA3EFAE93DF9E83CF890008E
:101DC1008DE0FCA3E0FDA3E0FEA3E0FF122D48900F
:101DD100008BEEF0A3EFF0900081E0FEA3E0FFC3E3
:101DE100900080E09FFF90007FE09EAB07FA339563
:101DF100E0F9F890008BE0FEA3E0FFEE3395E0FD03
:101E0100FC120D9E780F120DFBA804A905AA06ABC2
:101E110007900081E0FEA3E0FFEE3395E0FDFCEBCF
:101E21002FFFEA3EFEE93DFDE83CFCA3120E7F9048
:101E3100008BE0FEA3E0FBAA06EA3395E0F9F8C3C4
:101E4100E49BFF74809AFEE499FDE498FC9000877E
:101E5100E0F8A3E0F9A3E0FAA3E0FB120D9E780FEE
:101E6100120DFB9000B5EEF0A3EFF0900083A3A359
:0D1E7100E0FEA3E0FF9000B3EEF0A3EFF061
:011E7E002241
:081E7F0090007FEEF0A3EFF0EC
:101E8700AE04AF059000B7E0FCA3E0FD900081EC45
:101E9700F0A3EDF0900081ECF0A3EDF09000BAE034
:101EA7002FFF9000B9E03EFE3395E0FDFC900087E0
:101EB700120E7F900087E0FCA3E0FDA3E0FEA3E005
:101EC700FF780F120E0F90008D120E7FAE02AF0338
:101ED700EE3395E0FDFC900087E0F8A3E0F9A3E07E
:101EE700FAA3E02FFBEA3EFAE93DF9E83CF8900057
:101EF7008DE0FCA3E0FDA3E0FEA3E0FF122D4890D8
:101F0700008BEEF0A3EFF0900081E0FEA3E0FFC3AB
:101F1700900080E09FFF90007FE09EAB07FA33952B
:101F2700E0F9F890008BE0FEA3E0FFEE3395E0FDCB
:101F3700FC120D9E780F120DFBA804A905AA06AB8B
:101F470007900081E0FEA3E0FFEE3395E0FDFCEB98
:101F57002FFFEA3EFEE93DFDE83CFCA3120E7F9011
:101F6700008BE0FEA3E0FBAA06EA3395E0F9F8C38D
:101F7700E49BFF74809AFEE499FDE498FC90008747
:101F8700E0F8A3E0F9A3E0FAA3E0FB120D9E780FB7
:101F9700120DFB9000B9EEF0A3EFF0900083A3A31E
:0D1FA700E0FEA3E0FF9000B7EEF0A3EFF026
:011FB400220A
:081FB50090007FEEF0A3EFF0B5
:101FBD00AE04AF059000BBE0FCA3E0FD900081EC0A
:101FCD00F0A3EDF0900081ECF0A3EDF09000BEE0F9
:101FDD002FFF9000BDE03EFE3395E0FDFC900087A5
:101FED00120E7F900087E0FCA3E0FDA3E0FEA3E0CE
:101FFD00FF780F120E0F90008D120E7FAE02AF0301
:10200D00EE3395E0FDFC900087E0F8A3E0F9A3E046
:10201D00FAA3E02FFBEA3EFAE93DF9E83CF890001F
:10202D008DE0FCA3E0FDA3E0FEA3E0FF122D4890A0
:10203D00008BEEF0A3EFF0900081E0FEA3E0FFC374
:10204D00900080E09FFF90007FE09EAB07FA3395F4
:10205D00E0F9F890008BE0FEA3E0FFEE3395E0FD94
:10206D00FC120D9E780F120DFBA804A905AA06AB54
:10207D0007900081E0FEA3E0FFEE3395E0FDFCEB61
:10208D002FFFEA3EFEE93DFDE83CFCA3120E7F90DA
:10209D00008BE0FEA3E0FBAA06EA3395E0F9F8C356
:1020AD00E49BFF74809AFEE499FDE498FC90008710
:1020BD00E0F8A3E0F9A3E0FAA3E0FB120D9E780F80
:1020CD00120DFB9000BDEEF0A3EFF0900083A3A3E3
:0D20DD00E0FEA3E0FF9000BBEEF0A3EFF0EB
:0120EA0022D3
:10225C00420000000042002C000042002E00004210
:10226C000030000042003200004200160000420024
:10227C001A000042001C000042001E000041004DEC
:10228C00004100520041005700440077000000005C
:10229C004400730000000044007B0000000042007A
:1022AC001200004200140000420018000002160048
:1022BC00000214000002180000023100000233007A
:1022CC000044000A0000000044000E00000000441E
:1022DC00006B0000000044005D0000000044006F33
:1022EC000000000044006300000000440067000090
:1022FC0000004400280000000044004900000000D9
:10230C0044004E0000000044005300000000440054
:10231C005800000000440034000000004400380065
:10232C0000000044003E0000000042003C0000425F
:10233C00004200004200040000420006000042007F
:03234C0008000086
:10139600900044E0FCA3E0FDE4120BDFE4FBFAF965
:1013A60078C31208B9E4FBFAF978401209AA120CBC
:1013B60018900004EEF0A3EFF0C3E49532FDE49537
:1013C60031FCC3ED9FFBEC9EFA90004DE0FF339598
:1013D600E0FE7C007D05120D21EF2BFDEE3AFC129E
:1013E6000BDF900034120E7FD3900001E09414902E
:1013F6000000E0940090005D4024E0FCA3E0FDA323
:10140600E0FEA3E0FF900034E0F8A3E0F9A3E0FAE1
:10141600A3E0FB1208B990005D120E7F8007120E42
:101426008B00000000E4FFFE7D487C4490005DE0F8
:10143600F8A3E0F9A3E0FAA3E0FB120B50600E401C
:101446000C90005D120E8B444800008024E4FFFEE1
:101456007D487CC490005DE0F8A3E0F9A3E0FAA320
:10146600E0FB120B50500A90005D120E8BC4480030
:1014760000900034E0FCA3E0FDA3E0FEA3E0FF1231
:101486000C18EC120BDAE4FBFA794078411209AA3F
:10149600120C187810120E7390005DE0FCA3E0FDAC
:1014A600A3E0FEA3E0FF120C18E47B5C7A0FF9F8C8
:1014B600120D9E780F120DFB780C120E737816E63D
:1014C600FC08E6FDEC120BDF90000EE0F8A3E0F955
:1014D600A3E0FAA3E0FB1208B9E4FBFAF97840129C
:1014E6000AB37B667A6679A678401209AA120C18A6
:1014F6007808120E73780C120E227810120E4AEB30
:101506002FFFEA3EFEE93DFDE83CFC7808120E4A54
:10151600EF2BFFEE3AFEED39FDEC38FCEF2405FF2C
:10152600E43EFEE43DFDE43CFCE47B0AFAF9F812F5
:101536002D48EC120BDA8F388E378D368C359000AD
:1015460034E0FCA3E0FDA3E0FEA3E0FF9000491217
:101556000E7F7816E6FC08E6FDEC120BDFA804A960
:1015660005AA06AB07AF38AE37AD36AC351208B5AF
:10157600120C1890003CEEF0A3EFF0D3900001E0BF
:101586009414900000E0940090006B4032E0F8A3C1
:10159600E0F9A3E0FAA3E0FBC000C001C002C0036B
:1015A60090003CE0FCA3E0FDEC120BDFD003D00280
:1015B600D001D0001208B990006B120E7F8007127E
:1015C6000E8B00000000E4FFFE7D487C4490006B1B
:1015D600E0F8A3E0F9A3E0FAA3E0FB120B50600EDB
:1015E600400C90006B120E8B444800008024E4FFF0
:1015F600FE7D487CC490006BE0F8A3E0F9A3E0FA16
:10160600A3E0FB120B50500A90006B120E8BC448DD
:10161600000090003CE0FEA3E0FFEE3395E0FDFC09
:10162600E47BAE7A27F9F8120D9E780F120DFB783F
:1016360010120E7390006BE0FCA3E0FDA3E0FEA386
:10164600E0FF120C18E47B897A01F9F8120D9E78F6
:101656000F120DFB780C120E7390003CE0FEA3E017
:10166600FFEE3395E0FDFC120BDA900053E0F8A391
:10167600E0F9A3E0FAA3E0FB1208B57B9A7A997920
:101686008978401209AA120C187808120E73780C81
:10169600120E227810120E4AEB2FFFEA3EFEE93DAB
:1016A600FDE83CFC7808120E4AEF2BFFEE3AFEED01
:1016B60039FDEC38FC120BDA8F388E378D368C35C7
:1016C60090003CE0FCA3E0FDEC120BDF900053120F
:1016D6000E7FE4FFFE7D7A7C44AB38AA37A936A894
:1016E60035120B50600D400BE4F538F53775367A38
:1016F600753544E4FFFE7D7A7CC4AB38AA37A9363B
:10170600A835120B50500BE4F538F53775367A7557
:1017160035C4AF38AE37AD36AC35120C1890002C48
:10172600EEF0A3EFF0AF38AE37AD36AC35120BC9DD
:10173600120C1890002EEEF0A3EFF0AF38AE37ADD6
:1017460036AC35120C18900032EEF0A3EFF0AF383D
:10175600AE37AD36AC35120BC9120C18900030EE10
:05176600F0A3EFF022EA
:100F8A00900024E0FCA3E0FDE4120BDFE4FBFAF995
:100F9A0078C31208B9E4FBFAF978401209AA120CCC
:100FAA0018900006EEF0A3EFF0C3E49534FDE49543
:100FBA0033FCC3ED9FFBEC9EFA900052E0FF3395A1
:100FCA00E0FE7C007D05120D21C3EB9FFDEA9EFC2D
:100FDA00120BDF900038120E7FD3900001E09414B8
:100FEA00900000E094009000634024E0FCA3E0FD40
:100FFA00A3E0FEA3E0FF900038E0F8A3E0F9A3E045
:10100A00FAA3E0FB1208B9900063120E7F80071260
:10101A000E8B00000000E4FFFE7D487C44900063D4
:10102A00E0F8A3E0F9A3E0FAA3E0FB120B50600E8C
:10103A00400C900063120E8B444800008024E4FFA9
:10104A00FE7D487CC4900063E0F8A3E0F9A3E0FACF
:10105A00A3E0FB120B50500A900063120E8BC44897
:10106A000000900038E0FCA3E0FDA3E0FEA3E0FF4F
:10107A00120C18EC120BDAE4FBFA794078411209E7
:10108A00AA120C187810120E73900063E0FCA3E009
:10109A00FDA3E0FEA3E0FF120C18E47B5C7A0FF9D3
:1010AA00F8120D9E780F120DFB780C120E7378143D
:1010BA00E6FC08E6FDEC120BDF90000AE0F8A3E07C
:1010CA00F9A3E0FAA3E0FB1208B9E4FBFAF97840C5
:1010DA00120AB37B667A6679A678401209AA120CBC
:1010EA00187808120E73780C120E227810120E4A13
:1010FA00EB2FFFEA3EFEE93DFDE83CFC7808120EC4
:10110A004AEF2BFFEE3AFEED39FDEC38FCEF2405F1
:10111A00FFE43EFEE43DFDE43CFCE47B0AFAF9F818
:10112A00122D48EC120BDA8F388E378D368C3590AB
:10113A000038E0FCA3E0FDA3E0FEA3E0FF90004E30
:10114A00120E7F7814E6FC08E6FDEC120BDFA80409
:10115A00A905AA06AB07AF38AE37AD36AC351208CB
:10116A00B5120C18900042EEF0A3EFF0D3900001F4
:10117A00E09414900000E0940090006F4032E0F890
:10118A00A3E0F9A3E0FAA3E0FBC000C001C002C0DB
:10119A0003900042E0FCA3E0FDEC120BDFD003D089
:1011AA0002D001D0001208B990006F120E7F80079A
:1011BA00120E8B00000000E4FFFE7D487C44900084
:1011CA006FE0F8A3E0F9A3E0FAA3E0FB120B50608A
:1011DA000E400C90006F120E8B444800008024E4ED
:1011EA00FFFE7D487CC490006FE0F8A3E0F9A3E01D
:1011FA00FAA3E0FB120B50500A90006F120E8BC438
:10120A00480000900042E0FEA3E0FFEE3395E0FDC7
:10121A00FCE47BAE7A27F9F8120D9E780F120DFBCB
:10122A007810120E7390006FE0FCA3E0FDA3E0FEBD
:10123A00A3E0FF120C18E47B897A01F9F8120D9EDB
:10124A00780F120DFB780C120E73900042E0FEA389
:10125A00E0FFEE3395E0FDFC120BDA900058E0F85F
:10126A00A3E0F9A3E0FAA3E0FB1208B57B9A7A9906
:10127A00798978401209AA120C187808120E737824
:10128A000C120E227810120E4AEB2FFFEA3EFEE9EC
:10129A003DFDE83CFC7808120E4AEF2BFFEE3AFEC1
:1012AA00ED39FDEC38FC120BDA8F388E378D368C1F
:1012BA0035900042E0FCA3E0FDEC120BDF900058F1
:1012CA00120E7FE4FFFE7D7A7C44AB38AA37A9363A
:1012DA00A835120B50600D400BE4F538F53775361A
:1012EA007A753544E4FFFE7D7A7CC4AB38AA37A907
:1012FA0036A835120B50500BE4F538F53775367AA7
:10130A007535C490002CE0FCA3E0FDEC120BDFABBA
:10131A0038AA37A936A8351208B9120C1890002C29
:10132A00EEF0A3EFF090002EE0FCA3E0FDEC120B30
:10133A00DFAB38AA37A936A8351208B9120C1890AB
:10134A00002EEEF0A3EFF0900032E0FCA3E0FDECFB
:10135A00120BDFAB38AA37A936A8351208B5120C1A
:10136A0018900032EEF0A3EFF0900030E0FCA3E01A
:10137A00FDEC120BDFAB38AA37A936A8351208B52F
:0C138A00120C18900030EEF0A3EFF022DF
:10176B00900061E0FCA3E0FDE4120BDFE4FBFAF96F
:10177B0078C31208B9E4FBFA798278421209AAC03D
:10178B0004C005C006C0077818E6FE08E6FFC3E4F0
:10179B009FFDE49EFC120BDFD003D002D001D000E2
:1017AB001208B9C004C005C006C007900057E0FF7F
:1017BB003395E0FE7C007D14120D21AC06AD07ECD9
:1017CB00120BDFD003D002D001D0001208B9120CDB
:1017DB0018900008EEF0A3EFF0D3900001E0941402
:1017EB00900000E094009000674032E0F8A3E0F92D
:1017FB00A3E0FAA3E0FBC000C001C002C00390004D
:10180B0008E0FCA3E0FDEC120BDFD003D002D0010B
:10181B00D0001208B9900067120E7F8007120E8B52
:10182B00000000007F007E507D437C47900067E006
:10183B00F8A3E0F9A3E0FAA3E0FB120B50600E4013
:10184B000C900067120E8B4743500080257F007E63
:10185B00507D437CC7900067E0F8A3E0F9A3E0FA62
:10186B00A3E0FB120B50500A900067120E8BC7437C
:10187B005000900008E0FEA3E0FFEE3395E0FDFC86
:10188B00120BDAE4FBFA79A078401209AA120C18B1
:10189B007810120E73900067E0FCA3E0FDA3E0FE4E
:1018AB00A3E0FF120C18E47BB87A1EF9F8120D9E18
:1018BB00780F120DFB780C120E73900008E0FEA34C
:1018CB00E0FFEE3395E0FDFC120BDA900028E0F818
:1018DB00A3E0F9A3E0FAA3E0FB1208B5E4FBFA7965
:1018EB008078401209AA120C187808120E73780C23
:1018FB00120E227810120E4AEB2FFFEA3EFEE93D44
:10190B00FDE83CFC7808120E4AEF2BFFEE3AFEED99
:10191B0039FDEC38FC7806120DFBEC120BDA8F3824
:10192B008E378D368C35900008E0FCA3E0FDEC1271
:10193B000BDF900028120E7F90002CE0FCA3E0FD43
:10194B00EC120BDFAB38AA37A936A8351208B9123F
:10195B000C1890002CEEF0A3EFF090002EE0FCA3FF
:10196B00E0FDEC120BDFAB38AA37A936A83512080D
:10197B00B5120C1890002EEEF0A3EFF0900032E0B1
:10198B00FCA3E0FDEC120BDFAB38AA37A936A83568
:10199B001208B5120C18900032EEF0A3EFF0900085
:1019AB0030E0FCA3E0FDEC120BDFAB38AA37A93615
:1019BB00A8351208B9120C18900030EEF0A3EFF016
:0119CB0022F9
:102CA700E5322484FFE5313403FED3EF94B0EE64BC
:102CB7008094844002802FC3EF94F4EE6480948163
:102CC70050028022E5342484FFE5333403FED3EF3A
:102CD70094B0EE648094844002800BC3EF94F4EECA
:102CE70064809481500AC281E4900000F0A3F0222E
:032CF700D2812265
:1025930090002CE0FEA3E0FF900000E0FCA3E0FD30
:1025A3002FFFEC3EFE900016F0A3EFF0D394E8EE7D
:1025B30064809483400C9000167403F0A374E8F0D5
:1025C300800FC3900016E0648094805004E4F0A36D
:1025D300F090002EE0FEA3E02DFFEC3EFE90001AEB
:1025E300F0A3EFF0D394E8EE64809483400C900062
:1025F3001A7403F0A374E8F0800FC390001AE06428
:102603008094805004E4F0A3F0900030E0FEA3E057
:10261300FF900000E0FCA3E0FD2FFFEC3EFE9000E6
:102623001CF0A3EFF0D394E8EE64809483400C9005
:10263300001C7403F0A374E8F0800FC390001CE047
:10264300648094805004E4F0A3F0900032E0FEA391
:10265300E02DFFEC3EFE90001EF0A3EFF0D394E8D4
:10266300EE64809483400B90001E7403F0A374E81F
:10267300F022C390001EE0648094805004E4F0A331
:02268300F02243
:10277400900003E0FF90005CE0B50749900046E05C
:1027840004F0C3941450030228287413F0900061D9
:10279400E4F0A37480F0900044E4F0A37480F0901B
:1027A4000024E4F0A37480F0D3900001E09414902A
:1027B4000000E09400406DA3E024FFF0900000E0EE
:1027C40034FFF0805FE4900046F0900026E0FEA322
:1027D400E0FFC394E9EE9403400C9000267403F0E8
:1027E400A374E8F0803ED3EF9432EE940040269038
:1027F4000027E0242CFD900026E03401FCE4120BB9
:10280400DF7B667A6679A6783F120AB3120C1890B9
:102814000000EE800B900026E0FFA3E0900000CFC4
:10282400F0A3EFF090005CE0900003F0900026E04D
:0C283400FFA3E0900000CFF0A3EFF02223
:102CFA009000A7EEF0A3EFF0AB05AA04759850EB8D
:102D0A00AE027802CEC313CE13D8F9FF9000A7E023
:102D1A00FCA3E0FD120D33EFF404F5D7AB07AA06C6
:102D2A00E4C39BFFE49AFE74019400FDE49400FC62
:0E2D3A007808120DFB8FD6438E14438E0122B3
:092F4E002002FDEFD202F59922E8
:102E01009000A7EBF0A3EAF0A3E9F09000A7E0FBA4
:102E1100A3E0FAA3E0F9120CE660179000A7A3E47F
:102E210075F001120D88A9F0FA120CE6FF122F4E6F
:032E310080D92223
:1008B200020C84E86480F8E933E83360110460F0E4
:1008C200ED33EC337009E8FCE9FDEAFEEBFF2204AC
:1008D20060DED3EB9FEA9EE99DE8C2E78CF0C2F7A7
:1008E20095F0400CE8CCF8E9CDF9EACEFAEBCFFB73
:1008F200120C4F85D0F05804700320D5B3E8047071
:10090200075002B2D5020C8E92D5EC0460F7E4CC0B
:10091200C0E0C398F8603B94186008400DD0E0FB3B
:10092200020C66E4FBFAC9FC8028E830E406E4C95C
:10093200FBE4CAFCE830E305E4C9CACBFCE854078F
:100942006010F8C3E913F9EA13FAEB13FBEC13FC9A
:10095200D8F130F52FC3E49CFCEF9BFFEE9AFEED3D
:1009620099FDD0E0FBEF4E4D4C701222DB03020CDE
:100972008BEC2CFCEF33FFEE33FEED33FDED30E775
:10098200EB020C66EF2BFFEE3AFEED39FDD0E0FBF9
:1009920050130BBB0003020C8EED13FDEE13FEEFA2
:0809A20013FFEC13FC020C66CC
:1009AA00EC4D6011E8497017ED33EC3304600DE447
:1009BA00FCFFFEFD22E933E8330470F8020C8412CE
:1009CA000C4F58046009E4CC2481500628500902CF
:1009DA000C8E284003020C8BC0E0EB4A7044B980AD
:1009EA0006D0E0FB020C7AEF4E701CBD8008EBFFCC
:1009FA00EAFEE9FD80EBE98DF0A4FEE5F0020A9338
:100A0A00E9CDF9EAFEEBFFEF89F0A4FCE5F0CE8927
:100A1A00F0A42EFFE435F0CD89F0A42DFEE435F0E4
:100A2A008067EF4E7005BD80D780C3EF8BF0A4AC12
:100A3A00F0EE8BF0A42CFCE435F0F8EF8AF0A42C4D
:100A4A00E5F038FCE433CB8DF0A42CFCE5F03BF860
:100A5A00EE8AF0A42CFCE5F038F8E433CF89F0A450
:100A6A002CFCE5F038CF3400CE89F0A42FFFE5F056
:100A7A003EFEE433C98DF0A42EFEE5F039CD8AF0AE
:100A8A00A42FFFE5F03EFEE43DFD33D0E0FB500726
:100A9A000BBB000F020C8EEC2CFCEF33FFEE33FE87
:060AAA00ED33FD020C66B5
:100AB000020C8EEC5D046005E859047003020C849E
:100AC000120C4F580460F6EC4860F2EC7004FDFE26
:100AD000FF22C860DB2481C85009C3986002500619
:100AE000020C8B9850CAF582E9294B4A7005AB82FB
:100AF000020C7A75F0007C1A7880C3EF9BEE9AEDB9
:100B000099400DC3EF9BFFEE9AFEED99FDE842F090
:100B1000DC23ACF0D0E0FFD0E0FED0E0FDAB8220E3
:100B2000E7101BEB60BAEC2CFCEF33FFEE33FEED6D
:100B300033FD020C66E803F830E705C0F075F000FD
:100B4000EF2FFFEE33FEED33FD40B830E7C280AA51
:100B500074F8CC6480CCC86480C8F58204604FC34C
:100B6000EB9FF5F0EA9E42F0E99D42F0E89C45F0EB
:100B7000603C501DE5825FFFE582D313CB5BCBF475
:100B80002B5582FB50280ABA002409B9002008809E
:100B90001DE5825BFBE582D313CF5FCFF4C3132F38
:100BA0005582FF50090EBE00050DBD00010CC3EBC0
:100BB0009FF5F0EA9E42F0E99D42F0E89C45F06026
:090BC00007CC4820E701B3EC2248
:100BC900ED33EC33600A047003BD8004ECB2E7FC3A
:010BD90022F9
:100BDA0075F020800E75F010800575F0087D007E96
:100BEA00007F003392D530D503120DEDEC3340105F
:100BFA00EF33FFEE33FEED33FDEC33FCD5F0ED229F
:0E0C0A00E5F0247EA2D513CC92E7CDCEFF22DA
:100C1800EDD2E7CD33EC3392D524814006E4FFFED4
:100C2800FDFC22FCE4CFCECDCC24E0501174FF8033
:100C3800EDC3CC13CCCD13CDCE13CECF13CF0470D0
:070C4800F030D5DE020DEDD6
:10299400900097120E7F90009BE0F8A3E0F9A3E06B
:1029A400FAA3E0FB900097E0FCA3E0FDA3E0FEA304
:1029B400E0FF120AB3122370900097120E7F90006A
:1029C4009BE030E759900097E0FCA3E0FDA3E0FE14
:1029D400A3E0FFECC0E0EDC0E0EEC0E0EFC0E0E457
:1029E400FFFEFDFC900097E0F8A3E0F9A3E0FAA352
:1029F400E0FB120B507BDB600250087A0F794978B8
:102A04004080067A0F794978C0D0E0FFD0E0FED04C
:102A1400E0FDD0E0FC1208B9900097120E7F900000
:0D2A240097E0FCA3E0FDA3E0FEA3E0FF228D
:102D8C00ECC0E0F8EDC0E0F9EEC0E0FAEFC0E0FB1B
:102D9C001209AAEC6480FC7B007A007980783F12DF
:102DAC0008B9122844D0E0CFFBD0E0CEFAD0E0CD69
:0B2DBC00F9D0E0CCF8120AB30223703B
:100C4F00E9D2E7C933E833F892D5EDD2E7CD33ECEB
:070C5F0033FC5002B2D52264
:100C6600EC30E7100FBF000C0EBE00080DBD0004EF
:100C76000BEB6014A2D5EB13FCED92E7FD2274FF9B
:100C8600FCFDFEFF22E480F8A2D574FF13FC7D80F4
:030C9600E480EF08
:10284000020C8422EDA2E7D2E7F9EC3340F260F308
:10285000B4FF08ED547F70E8020C8EF82481C2E0CA
:10286000C0E0F40428FAC313FCED92E7FD90009752
:10287000120E7FEEA2E7E9BA7F02C3133400940080
:10288000FA75F091A4E5F013F494FE8AF0A433E510
:10289000F033248CD313FDE492E7FE7F007C3F7578
:1028A0008302ECC0E0F8EDC0E0F9EEC0E0FAEFC062
:1028B000E0FB8583F0900097120E2E85F083120ABC
:1028C000B3D0E0FBD0E0FAD0E0F9D0E0F81208B9DC
:1028D000ED6480FD30E7011CD583C7ED33CC33F8C0
:0C28E000D0E0A2E71328C313CC13FD22A4
:10235000BE1249253E4CCCCDBEAAAAAB3F800000A0
:102360003E7ADBB03EED63383F24BC7D3F490FDB56
:10237000ED33ECC2E7CC339200B4FF13ED547F6031
:1023800003020C847FDB7E0F7DC97C3F022465C283
:1023900001C3947F401E7007EDD2E794904015EF83
:1023A000FBEEFAEDF9ECF87F007E007D807C3F12B9
:1023B0000AB3D201ED33EC33248430E705E4C0E006
:1023C000806B04FAEDD2E754F0C333DAFD540734DE
:1023D000002323C0E0CCC0E0F8EDC0E0F9EEC0E09F
:1023E000FAEFC0E0FBE4120BE4EC24FEFC90009F4B
:1023F000120E7F1209AA7B007A007980783F1208BA
:10240000B990009FE0B2E7CCF0A3E0CDF0A3E0CE1E
:10241000F0A3E0CFF0D0E0FBD0E0FAD0E0F9D0E0DC
:10242000F81208B990009F120E57120AB390009F3D
:10243000120E7F9023507403120C9990009F120E7D
:10244000571209AAD0E0600F245CF582E43423F52A
:1024500083120E631208B930010B7BDB7A0F79C946
:1024600078BF1208B9ED33EC336006ECA20092E7B6
:02247000FC224C
:100C9900C0E0EFFBEEFAEDF9ECF81209AAD0E0F5A5
:100CA900F0EFFBEEFAEDF9ECF8120E3AA3A3A3A3C9
:100CB900E8C0E0E9C0E0EAC0E0EBC0E0C0F012093A
:100CC900AA120E63A3A3A3A31208B9D0F0D0E0FB24
:0D0CD900D0E0FAD0E0F9D0E0F8D5F0D42258
:03000000022A31A0
:0C2A3100787FE4F6D8FD75819C022A78BD
:100CE600BB010689828A83E0225002E722BBFE020C
:090CF600E32289828A83E493223F
:100CFF00F8BB010DE58229F582E5833AF583E8F02B
:100D0F00225006E92582C8F622BBFE05E92582C8D6
:020D1F00F222BE
:100D2100EF8DF0A4A8F0CF8CF0A428CE8DF0A42EE6
:020D3100FE22A0
:100D3300BC000BBE0029EF8DF084FFADF022E4CCA4
:100D4300F875F008EF2FFFEE33FEEC33FCEE9DEC6D
:100D5300984005FCEE9DFE0FD5F0E9E4CEFD22EDB3
:100D6300F8F5F0EE8420D21CFEADF075F008EF2FFD
:100D7300FFED33FD4007985006D5F0F222C398FDEE
:050D83000FD5F0EA228B
:100D8800A3F8E0C5F025F0F0E5821582700215831E
:060D9800E0C838F0E8227B
:100D9E00E88FF0A4CC8BF0A42CFCE98EF0A42CFCF4
:100DAE008AF0EDA42CFCEA8EF0A4CDA8F08BF0A472
:100DBE002DCC3825F0FDE98FF0A42CCD35F0FCEBD1
:100DCE008EF0A4FEA9F0EB8FF0A4CFC5F02ECD3996
:0F0DDE00FEE43CFCEAA42DCE35F0FDE43CFC2203
:102D4800C2D5E830E70FB2D5E4C39BFBE49AFAE4B6
:102D580099F9E498F8EC30E717B2D5122D7E120EE7
:102D6800F8E4C39BFBE49AFAE499F9E498F8800341
:102D7800120EF830D50DE4C39FFFE49EFEE49DFDDE
:042D8800E49CFC22A9
:0E0DED00C3E49FFFE49EFEE49DFDE49CFC2217
:100DFB00E86010ECA2E713FCED13FDEE13FEEF130E
:040E0B00FFD8F022FA
:100E0F00E8600FEFC333FFEE33FEED33FDEC33FC41
:030E1F00D8F122E5
:0C0E2200E6FC08E6FD08E6FE08E6FF22FC
:0C0E2E00E0FCA3E0FDA3E0FEA3E0FF2237
:100E3A00E493FC740193FD740293FE740393FF22FE
:0D0E4A00E6FB08E6F908E6FA08E6CBF82218
:0C0E5700E0F8A3E0F9A3E0FAA3E0FB221E
:100E6300E493F8740193F9740293FA740393FB22E5
:0C0E7300ECF608EDF608EEF608EFF622AB
:0C0E7F00ECF0A3EDF0A3EEF0A3EFF022E6
:100E8B00A8828583F0D083D082120EA2120EA212FA
:100E9B000EA2120EA2E473E493A3C583C5F0C5831F
:100EAB00C8C582C8F0A3C583C5F0C583C8C582C8B1
:010EBB002214
:102A3D000220EBE493A3F8E493A34003F68001F2A4
:102A4D0008DFF48029E493A3F85407240CC8C3339A
:102A5D00C4540F4420C8834004F456800146F6DF69
:102A6D00E4800B0102040810204080902220E47EB7
:102A7D00019360BCA3FF543F30E509541FFEE4935E
:102A8D00A360010ECF54C025E060A840B8E493A325
:102A9D00FAE493A3F8E493A3C8C582C8CAC583CA50
:102AAD00F0A3C8C582C8CAC583CADFE9DEE780BE08
:01234F00008D
:100EBC0075F008758200EF2FFFEE33FECD33CDCCED
:100ECC0033CCC58233C5829BED9AEC99E582984070
:100EDC000CF582EE9BFEED9AFDEC99FC0FD5F0D64D
:100EEC00E4CEFBE4CDFAE4CCF9A88222B800C1B977
:100EFC000059BA002DEC8BF084CFCECDFCE5F0CBB5
:100F0C00F97818EF2FFFEE33FEED33FDEC33FCEBED
:100F1C0033FB10D703994004EB99FB0FD8E5E4F9A8
:100F2C00FA227818EF2FFFEE33FEED33FDEC33FC95
:100F3C00C933C910D7059BE99A4007EC9BFCE99A89
:100F4C00F90FD8E0E4C9FAE4CCFB2275F010EF2FCE
:100F5C00FFEE33FEED33FDCC33CCC833C810D707CE
:100F6C009BEC9AE899400AED9BFDEC9AFCE899F809
:0E0F7C000FD5F0DAE4CDFBE4CCFAE4C8F9229C
:00000001FF
