:0E2E3C0055617274205465737420210D0A00D4
:101E4F00E490009DF01227BF9000A47403F0A374D8
:101E5F00E8F0FB7A03FD7C03FF7E03122CC6C281E0
:101E6F00D282122D35D281C282122D35D281D282E9
:101E7F00C283122D37D281D282D2837F0A7E001283
:101E8F002D3B7F0A7E00122D3B122D5B7F0A7E00B9
:101E9F00122D3B12223B7F647E00122D3B122E0926
:101EAF009000A2120F36016E36007F007EC27D01B8
:101EBF007C001229907F647E00122D3BE490002C51
:101ECF00F0A3F0900063F0A37480F0900046E4F06C
:101EDF00A37480F090002AE4F0A37480F0C283E42E
:101EEF0090004FF0900054F0900059F0D2ACD2AF68
:101EFF007BFF7A2E793C122D007B007A0079399086
:101F0F0000A3E543F07D0A7C00122A0AEF4E60031E
:101F1F00021FC790005EE065396045E490009DF0B8
:101F2F0090009DE0FFC3940A502874392FF8E654AF
:101F3F00F0C4540FFF7D01122DBB90009DE024399A
:101F4F00F8E6540FFF7D01122DBB90009DE004F0C9
:101F5F0080CEE4FD7F0D122DBBE4FD7F0A122DBB59
:101F6F0090005EE539F0900002E53AF0E53B75F040
:101F7F00FFA47C00253CFEEC35F090002CF0A3CEA6
:101F8F00F0900063E4F0A3E53DF0900046E4F0A389
:101F9F00E53EF090002AE4F0A3E53FF0E540248011
:101FAF0090004FF0E5412480900054F0E5422480EA
:101FBF00900059F0D2828002C282900002E0FFB4FA
:101FCF000102D283EFB40502C2837F037E00122D7C
:041FDF003B021F089A
:102E0900538E7F5389F0758A40758CA2C28DD28CFE
:032E1900D2A92219
:062D3500D2837FF47E0151
:102D3B00E4FDFCC3ED9FEC9E5015E4FBFA0BBB00CE
:0F2D4B00010AEB64FA4A70F50DBD00010C80E43B
:012D5A002256
:03000B0002174891
:10174800C0E0C0F0C083C082C0D075D000C000C067
:1017580001C002C003C004C005C006C007122DD7CF
:101768007B007A0079397D0F122B9F7B007A0079F4
:1017780021122A76900040E4F0A3F07B017A0079E8
:101788002090007A7419F0A37499F0A37466F0A3FA
:10179800F0A3E4F0AD22AC21121C3EEE900040F024
:1017A800EFA3F07B017A00792290007A7419F0A3F4
:1017B8007499F0A37466F0A3F0A37401F0AD24AC9F
:1017C80023121C3E900040E04EF0A3E04FF07B0156
:1017D8007A00792490007A7419F0A37499F0A374AC
:1017E80066F0A3F0A37402F0AD26AC25121C3E905F
:1017F8000040E04EFEA3E04FFF900040EEF0A3EF64
:10180800F04E60030219C2AC29AD2AEC120BDFE4DA
:10181800FBFA79837842120AB3120C187814A606D8
:1018280008A607AC2BAD2CEC120BDFE4FBFA79838E
:101838007842120AB3120C187816A60608A607747E
:1018480066FBFA7D997C19AF2EAE2D121FE378182E
:10185800EEF608EFF6FDAC06EC120BDFE4FBFA79C6
:10186800837842120AB3900026120F2A7814E6FCF5
:1018780008E6FDEC120BDF900010120F2A7816E62E
:10188800FC08E6FDEC120BDF900014120F2A781406
:10189800E6FC08E6FDEC120BDF7B397AFA798E78E4
:1018A8003C1209AAC004C005C006C0077816E6FCA9
:1018B80008E6FDEC120BDF7B397AFA798E783C1258
:1018C80009AA900079120F2A7F397EFA7D8E7C3C16
:1018D800900026E0F8A3E0F9A3E0FAA3E0FB1209E0
:1018E800AA90007D120F2A900020E0FCA3E0FDECF6
:1018F800120BDF900081120F2A900022E0FCA3E077
:10190800FDEC120BDF900085120F2A900024E0FCFA
:10191800A3E0FDEC120BDF900089120F2AD007D04C
:1019280006D005D004120026122647122BF41213F3
:1019380073120F671219DD122466900002E0640525
:101948007062C3900001E09432900000E09400407F
:101958005390001AE0FEA3E0FF74E89FFF74039E13
:10196800FEC006C00790001CE0FEA3E0FFC374E8B9
:101978009FFD74039EFC90001EE0FEA3E0FFC3746D
:10198800E89FFB74039EFA900018E0FEA3E0FFC3F3
:1019980074E89F9000A5F074039E9000A4F0D0070F
:1019A800D00680139000A47403F0A374E8F0FB7AC7
:1019B80003FD7C03FF7E03122CC6D007D006D0059A
:1019C800D004D003D002D001D000D0D0D082D083B0
:0519D800D0F0D0E03268
:03002300022D9F0C
:102D9F00C0D030980BC298859980A29A92A280F2E7
:0C2DAF00309906C299C20280F7D0D032E1
:1027BF00E4F594F593F592F591F596F595F5B2F557
:1027CF00B1F5B4F5B3F5CAF5C9F5CCF5CBF5E2F52E
:1027DF00E175960EF59575B280F5B175BA8075F104
:1027EF00B090FFF27410F0E4F5F6F5F790FFF07487
:1027FF0003F0A374E9F090FF04E4F090FF14F0905D
:10280F00FF24F090FF34F090FF007403F0A374E8FE
:10281F00F0A37403F0A374E9F090FF107403F0A316
:10282F0074E8F0A37403F0A374E9F090FF2074032D
:10283F00F0A374E8F0A37403F0A374E9F090FF30F1
:10284F007403F0A374E8F0A37403F0A374E9F075B4
:08285F00F58F90FFF2E4F02276
:102CC60090009EEEF0A3EFF090009EE090FF00F0E3
:102CD60090009EA3E090FF01F0EC90FF10F0A3EDB2
:102CE600F0EA90FF20F0A3EBF09000A4E0FCA3E054
:0A2CF600FDEC90FF30F0A3EDF0229A
:102E1C00D3EF9400EE94004007EF1F70F31E80F088
:012E2C002283
:042B3D007B01E4FD37
:072B410090009EEFF0A905D2
:102B4800C291E4FFFE90009EE0FD339293D295C2BD
:102B580095ED25E0F00FBF00010EEF64084E70E51B
:102B6800E4FEFFE9339293D295C295E925E0F90F87
:102B7800BF00010EEF64084E70E9E4FEFFEB3392EC
:102B880093D295C295EB25E0FB0FBF00010EEF64D1
:062B9800084E70E9D29125
:012B9E002214
:102ADA00C29174802FFFE4FBFAEF339293D295C22E
:102AEA0095EF25E0FF0BBB00010AEB64084A70E989
:102AFA00E4FAFBD295C2959000B6E025E0FFF0A279
:102B0A0094E4334FF00BBB00010AEB64084A70E30C
:102B1A00E4FAFBD295C2959000B7E025E0FFF0A257
:102B2A0094E4334FF00BBB00010AEB64084A70E3EC
:022B3A00D29136
:012B3C002276
:10223B00C2927FF47E01122E1CD2927FF47E011289
:10224B002E1CD2B27BEF7D6FE4FF122B417B817D85
:10225B00567F01122B417B177D667F02122B417B30
:10226B00C97D9C7F04122B417B377D667F05122B2A
:10227B0041E4FBFD7F07122B417B907D6C7F0812A5
:10228B002B41E4FB7D487F09122B417BFD7D7F7F3A
:10229B000A122B417B08E4FD7F0B122B41E4FBFD63
:1022AB007F0C122B417BBD7D487F0D122B417BFF99
:1022BB00E4FD7F16122B417B057D807F17122B418E
:1022CB007B67E4FD7F18122B417B597D167F19121A
:1022DB002B417BE07D197F1A122B41E4FB7D137F91
:1022EB001B122B41E4FB7D187F1C122B41E4FB7D61
:1022FB00587F20122B417BC77D3F7F21122B41E45E
:10230B00FB7D207F22122B41E4FB7D0A7F23122BC6
:10231B00417F24122B3D7F25122B3D7B01E4FD7F5A
:10232B0026122B417B01E4FD7F27122B417B027D83
:10233B00447F28122B41E4FB7DB87F29122B417B74
:10234B00FF7DFD7F2A122B417B0FE4FD7F2B022BA0
:01235B004140
:102DD7007B807D807F34122B417BA0E4FD7F07122F
:092DE7002B417FC87E00022E1C66
:0B2B9F00900075EBF0A3EAF0A3E9F052
:102BAA00E4FE7F32122ADA9000B6E06D703BA3E0B1
:102BBA007037EEC39D50327F32122ADA9000B6E0A7
:102BCA00FF900075E0FBA3E0FAA3E0F9AC060E8CD7
:102BDA0082758300EF120CFF9000B7E0AC060E8CF2
:092BEA0082758300120CFF80C902
:012BF30022BF
:102A0A0090009EEBF0A3EAF0A3E9F0A3ECF0A3EDAB
:012A1A00F0CB
:102A1B00E4FFFE9000A4F0D39000A2E09FEE648050
:102A2B00F89000A1E0648098402190009EE0FBA309
:102A3B00E475F001120D33A9F0FA120CE6FD9000CB
:102A4B00A4E02DF00FBF00010E80CC9000A4E0FDA0
:102A5B009000A3E0B50504E4FEFF22ED60089000B2
:0A2A6B00A4E0FF7E00227EFF7FFF43
:012A7500223E
:10235C0004653F800000046900000000046D00006B
:10236C000000047100000000045900000000045D2E
:10237C000000000004610000000004750000000073
:0C238C00047900000000047D0000000047
:06002600900075120F2A84
:10002C00900085E0FCA3E0FDA3E0FEA3E0FF9000C0
:10003C0085E0F8A3E0F9A3E0FAA3E0FB1209AAC05B
:10004C0004C005C006C007900081E0FCA3E0FDA33E
:10005C00E0FEA3E0FFA804A905AA06FB1209AAD09A
:10006C0003D002D001D0001208B9C004C005C006EC
:10007C00C007900089E0FCA3E0FDA3E0FEA3E0FF35
:10008C00A804A905AA06FB1209AAD003D002D00124
:10009C00D0001208B91225587881120F1E900081D9
:1000AC00E0FCA3E0FDA3E0FEA3E0FF7881120EF5D7
:1000BC001209AA900081120F2A900085E0FCA3E09F
:1000CC00FDA3E0FEA3E0FF7881120EF51209AA90C1
:1000DC000085120F2A900089E0FCA3E0FDA3E0FE4E
:1000EC00A3E0FF7881120EF51209AA900089120F75
:1000FC002A786D120ECD7865120EF51209AAC0047D
:10010C00C005C006C0077871120ECD7869120EF5C5
:10011C001209AAD003D002D001D0001208B5E4FB1A
:10012C00FAF978401209AA7885120F1E7871120E0E
:10013C00CD786D120EF51209AAC004C005C006C018
:10014C00077869120ECD7865120EF51209AAD00344
:10015C00D002D001D0001208B9E4FBFAF9784012B1
:10016C0009AA7889120F1E7869120ECD7869120EC1
:10017C00F51209AAC004C005C006C0077865120EA6
:10018C00CD7865120EF51209AAD003D002D001D099
:10019C00001208B5C004C005C006C007786D120E69
:1001AC00CD786D120EF51209AAA804A905AA06AB02
:1001BC0007D007D006D005D0041208B5C004C0057E
:1001CC00C006C0077871120ECD7871120EF51209A7
:1001DC00AAD003D002D001D0001208B9788D120F2A
:1001EC001E7889120ECD900089E0F8A3E0F9A3E007
:1001FC00FAA3E0FB1209AAC004C005C006C0077828
:10020C008D120ECD900085E0F8A3E0F9A3E0FAA3DF
:10021C00E0FB1209AAD003D002D001D0001208B51D
:10022C007891120F1E788D120ECD900081E0F8A3FC
:10023C00E0F9A3E0FAA3E0FB1209AAC004C005C0D0
:10024C0006C0077885120ECD900089E0F8A3E0F97E
:10025C00A3E0FAA3E0FB1209AAD003D002D001D08C
:10026C00001208B57895120F1E7885120ECD9000ED
:10027C0085E0F8A3E0F9A3E0FAA3E0FB1209AAC019
:10028C0004C005C006C0077889120ECD900081E02D
:10029C00F8A3E0F9A3E0FAA3E0FB1209AAD003D07B
:1002AC0002D001D0001208B57899120F1E7859129D
:1002BC000EF5C000C001C002C0037F6F7E127D83AB
:1002CC007C3A7891120EF51209AAD003D002D00113
:1002DC00D0001208B97859120F1E785D120EF5C0B5
:1002EC0000C001C002C0037F6F7E127D837C3A7810
:1002FC0095120EF51209AAD003D002D001D000122B
:10030C0008B9785D120F1E7861120EF5C000C0019D
:10031C00C002C0037F6F7E127D837C3A7899120EE7
:10032C00F51209AAD003D002D001D0001208B97876
:10033C0061120F1E784D120EF5C0007891120ECD81
:10034C00D0001208B57875120F1E7851120EF5C038
:10035C00007895120ECDD0001208B57879120F1EC8
:10036C007855120EF5C0007899120ECDD0001208F7
:10037C00B5787D120F1E7891120ECD784D120F1E8E
:10038C007895120ECD7851120F1E7899120ECD78E9
:10039C0055120F1EE4FFFEFD7C407891120EF512F3
:1003AC0009AA900075E0F8A3E0F9A3E0FAA3E0FB3A
:1003BC001208B97859120EF51208B9C004C005C05C
:1003CC0006C0077F6F7E127D837C3A7875120EF51E
:1003DC001209AAD003D002D001D0001208B99000A3
:1003EC0075120F2AE4FFFEFD7C407895120EF51273
:1003FC0009AA900079E0F8A3E0F9A3E0FAA3E0FBE6
:10040C001208B9785D120EF51208B9C004C005C007
:10041C0006C0077F6F7E127D837C3A7879120EF5C9
:10042C001209AAD003D002D001D0001208B9900052
:10043C0079120F2AE4FFFEFD7C407899120EF5121A
:10044C0009AA90007DE0F8A3E0F9A3E0FAA3E0FB91
:10045C001208B97861120EF51208B9C004C005C0B3
:10046C0006C0077F6F7E127D837C3A787D120EF575
:10047C001209AAD003D002D001D0001208B9900002
:10048C007D120F2A7865120EF5C000C001C002C0A3
:10049C00037869120ECD120BC9900075E0F8A3E039
:1004AC00F9A3E0FAA3E0FB1209AAC004C005C00638
:1004BC00C007900079E0FCA3E0FDA3E0FEA3E0FF01
:1004CC00786D120EF51209AAA804A905AA06AB07A5
:1004DC00D007D006D005D0041208B5C004C005C0A2
:1004EC0006C00790007DE0FCA3E0FDA3E0FEA3E0C6
:1004FC00FF7871120EF51209AAA804A905AA06AB79
:10050C0007D007D006D005D0041208B57B0A7AD7DD
:10051C0079A3783B1209AAD003D002D001D00012E3
:10052C0008B97865120F1E7869120EF5C000C0016B
:10053C00C002C00390007DE0FCA3E0FDA3E0FEA39D
:10054C00E0FF786D120EF51209AAC004C005C006B2
:10055C00C007900075E0FCA3E0FDA3E0FEA3E0FF64
:10056C007865120EF51209AAD003D002D001D00082
:10057C001208B9C004C005C006C007900079E0FCA1
:10058C00A3E0FDA3E0FEA3E0FF7871120EF51209C3
:10059C00AAA804A905AA06AB07D007D006D005D097
:1005AC00041208B57B0A7AD779A3783B1209AAD032
:1005BC0003D002D001D0001208B97869120F1E784E
:1005CC006D120EF5C000C001C002C00390007DE0AA
:1005DC00FCA3E0FDA3E0FEA3E0FF7869120EF51288
:1005EC0009AAC004C005C006C007900079E0FCA3AE
:1005FC00E0FDA3E0FEA3E0FF7865120EF51209AA58
:10060C00D003D002D001D0001208B5C004C005C080
:10061C0006C007900075E0FCA3E0FDA3E0FEA3E09C
:10062C00FF7871120EF51209AAD003D002D001D0B6
:10063C00001208B97B0A7AD779A3783B1209AAD0A1
:10064C0003D002D001D0001208B9786D120F1E78B9
:10065C0071120EF5C000C001C002C003900079E019
:10066C00FCA3E0FDA3E0FEA3E0FF7869120EF512F7
:10067C0009AAC004C005C006C00790007DE0FCA319
:10068C00E0FDA3E0FEA3E0FF7865120EF51209AAC7
:10069C00D003D002D001D0001208B9C004C005C0EC
:1006AC0006C007900075E0FCA3E0FDA3E0FEA3E00C
:1006BC00FF786D120EF51209AAA804A905AA06ABBB
:1006CC0007D007D006D005D0041208B57B0A7AD71C
:1006DC0079A3783B1209AAD003D002D001D0001222
:1006EC0008B97871120F1E7869120ECD7869120E46
:1006FC00F51209AAC004C005C006C0077865120E21
:10070C00CD7865120EF51209AAD003D002D001D013
:10071C00001208B9C004C005C006C007786D120EDF
:10072C00CD786D120EF51209AAD003D002D001D0EB
:10073C00001208B9C004C005C006C0077871120EBB
:10074C00CDA804A905AA06AB071209AAD003D002AA
:10075C00D001D0001208B91225587881120F1E78DA
:10076C0065120ECD7881120EF51209AA7865120F5A
:10077C001E7869120ECD7881120EF51209AA7869CD
:10078C00120F1E786D120ECD7881120EF51209AA79
:10079C00786D120F1E7871120ECD7881120EF51233
:1007AC0009AA7871120F1EE4FFFEFD7C40786512D9
:1007BC000EF51209AA7869120EF51209AAC004C026
:1007CC0005C006C007E4FFFEFD7C40786D120EF5F7
:1007DC001209AA7871120EF51209AAD003D002D010
:1007EC0001D0001208B9C004C005C006C007E4FF60
:1007FC00FEFD7C40786D120EF51209AA786D120E72
:10080C00F51209AAC004C005C006C007E4FFFEFD2E
:10081C007CC07869120EF51209AA7869120EF512CD
:10082C0009AAD003D002D001D0001208B5E4FBFA1B
:10083C007980783F1208B9900091120F2AD007D016
:10084C0006D005D0041228677B4D7A3D790F784489
:10085C001209AA120C188E338F347871120ECD78BF
:10086C0069120EF51209AAC004C005C006C00778AB
:10087C006D120ECD7865120EF51209AAD003D002B6
:10088C00D001D0001208B5E4FBFAF978401209AA9D
:10089C00122C8B7B4D7A3D790F78441209AA120CDD
:0508AC00188E318F32AF
:0108B1002224
:0625580090008D120F2A15
:10255E00E4FFFEFD7C3F90008DE0F8A3E0F9A3E0E0
:10256E00FAA3E0FB1209AA900091120F2A90008D97
:10257E00E0FCA3E0FDA3E0FEA3E0FF900095120FA8
:10258E002A900095E0FCA3E0FDA3E0FEA3E0FFA3EC
:10259E00120F2A900099E0FCA3E0FDA3E0FEA3E059
:1025AE00FF7801120EA6C374DF9FFF74599EFE744E
:1025BE00379DFD745F9CFC900099120F2A90009934
:1025CE00E0FCA3E0FDA3E0FEA3E0FF900095120F58
:1025DE002A900095E0FCA3E0FDA3E0FEA3E0FF90AF
:1025EE000091E0F8A3E0F9A3E0FAA3E0FB1209AA38
:1025FE00900095E0F8A3E0F9A3E0FAA3E0FB12093E
:10260E00AAA804A905AA06AB07E4FFFE7DC07C3F7D
:10261E001208B5900095E0F8A3E0F9A3E0FAA3E064
:10262E00FB1209AA900095120F2A900095E0FCA3C8
:08263E00E0FDA3E0FEA3E0FFB4
:012646002271
:072E5700D2B4122E5EC2B4DA
:042E5E007F02DFFE12
:012E6200224D
:0F2E2D00D2B5D2B4122E5EC2B5122E5EC2B4223E
:0C2E6300C2B5D2B4122E5ED2B5022E5EB3
:0D2E4A00D2B4122E5EA2B5C2B4122E5E22CA
:02000E00AE073B
:10001000E4FDEE25E0FE92B5122E570DEDB408F288
:03002000022E4A63
:102D7E00E4FED2B5FDEE25E0FED2B4122E5EA2B573
:102D8E00E4334EFEC2B4122E5E0DEDB408E7AF066C
:012D9E002212
:102DF000AC05AB07122E2D7FD012000EAF031200D0
:092E00000EAF0412000E022E6355
:102D5B00E4FD7F6B122DF07D077F19122DF07D04A2
:102D6B007F1A122DF07D087F1B122DF07D187F1C12
:032D7B00022DF036
:0B2A7600900075EBF0A3EAF0A3E9F07C
:102A8100122E2D7FD012000E7F3B12000E122E2D22
:102A91007FD112000EE4FC122D7E900075E0FBA3A5
:102AA100E0FAA3E0F98C82758300EF120CFFC2B546
:102AB100122E570CECB40DDF122D7E900075E0FB49
:102AC100A3E0FAA3E0F9AE048E82758300EF120C45
:092AD100FFD2B5122E57022E634C
:101C3E00900075EBF0A3EAF0A3E9F0A3ECF0A3EDAE
:011C4E00F0A5
:101C4F0090007EE014602C14604B24026003021E8F
:101C5F002C9000A6E0FFA3E090007FCFF0A3EFF061
:101C6F0090007AE0FEA3E0FF9000A9E02FFF900024
:101C7F00A880429000AAE0FFA3E090007FCFF0A3DE
:101C8F00EFF090007AE0FEA3E0FF9000ADE02FFFB1
:101C9F009000AC80209000AEE0FFA3E090007FCFDB
:101CAF00F0A3EFF090007AE0FEA3E0FF9000B1E028
:101CBF002FFF9000B0E03EFE3395E0FDFC900085D5
:101CCF00120F2A900085E0FCA3E0FDA3E0FEA3E045
:101CDF00FF780F120EBA90008F120F2A90007CE03F
:101CEF00FEA3E0FFEE3395E0FDFC900085E0F8A346
:101CFF00E0F9A3E0FAA3E02FFBEA3EFAE93DF9E8A9
:101D0F003CF890008FE0FCA3E0FDA3E0FEA3E0FF12
:101D1F00122C4790008DEEF0A3EFF090007FE0FEC5
:101D2F00A3E0FFC3900079E09FFF900078E09EABA7
:101D3F0007FA3395E0F9F890008DE0FEA3E0FFEE8F
:101D4F003395E0FDFC120D68780F120EA6A804A9BA
:101D5F0005AA06AB0790007FE0FEA3E0FFEE3395E8
:101D6F00E0FDFCEB2FFFEA3EFEE93DFDE83CFCA366
:101D7F00120F2A90008DE0FEA3E0FBAA06EA33952E
:101D8F00E0F9F8C3E49BFF74809AFEE499FDE498B0
:101D9F00FC900085E0F8A3E0F9A3E0FAA3E0FB12C2
:101DAF000D68780F120EA6900089120F2A90007EF0
:101DBF00E014602614604224027062900089A3A38D
:101DCF00E0FFA3E09000A8CFF0A3EFF0900081A375
:101DDF00A3E0FFA3E09000A6803C900089A3A3E0BE
:101DEF00FFA3E09000ACCFF0A3EFF0900081A3A38E
:101DFF00E0FFA3E09000AA801D900089A3A3E0FF5D
:101E0F00A3E09000B0CFF0A3EFF0900081A3A3E088
:101E1F00FFA3E09000AECFF0A3EFF080057EFF7F31
:101E2F00FF22900081A3A3E0F9A3E0FF900075E0EB
:0F1E3F00FBA3E0FAA3E0C98FF0120D49E4FEFF08
:011E4E002271
:081FE300900075EEF0A3EFF091
:101FEB00AE04AF059000B2E0FCA3E0FD900077ECEF
:101FFB00F0A3EDF0900077ECF0A3EDF09000B5E0DE
:10200B002FFF9000B4E03EFE3395E0FDFC90007D89
:10201B00120F2A90007DE0FCA3E0FDA3E0FEA3E0FD
:10202B00FF780F120EBA900083120F2AAE02AF0385
:10203B00EE3395E0FDFC90007DE0F8A3E0F9A3E022
:10204B00FAA3E02FFBEA3EFAE93DF9E83CF89000F1
:10205B0083E0FCA3E0FDA3E0FEA3E0FF122C47907E
:10206B000081EEF0A3EFF0900077E0FEA3E0FFC35A
:10207B00900076E09FFF900075E09EAB07FA3395DA
:10208B00E0F9F8900081E0FEA3E0FFEE3395E0FD70
:10209B00FC120D68780F120EA6A804A905AA06ABB0
:1020AB0007900077E0FEA3E0FFEE3395E0FDFCEB3D
:1020BB002FFFEA3EFEE93DFDE83CFCA3120F2A9000
:1020CB000081E0FEA3E0FBAA06EA3395E0F9F8C332
:1020DB00E49BFF74809AFEE499FDE498FC90007DEC
:1020EB00E0F8A3E0F9A3E0FAA3E0FB120D68780F88
:1020FB00120EA69000B4EEF0A3EFF0900079A3A31C
:0D210B00E0FEA3E0FF9000B2EEF0A3EFF0C5
:0121180022A4
:1023980042004000004200000000420038000042B5
:1023A800003A000042003C000042003E00004200AB
:1023B80018000042001A000042001C000042001EE3
:1023C800000041004F004100540041005900460000
:1023D80020000000000000061400000000000002B9
:1023E80031000002330000440010000000004400E7
:1023F800140000000044006D0000000044005F006D
:102408000000004400710000000044006500000066
:10241800004400690000000044002E000000004451
:10242800004B00000000440050000000004400552C
:102438000000000044005A000000004C00040000A6
:1024480000000000000000000000420042000042BE
:0D24580000440000460032000000000000BB
:10137300900046E0FCA3E0FDE4120BDFE4FBFAF986
:1013830078C31208B9E4FBFAF978401209AA120CDF
:1013930018900032EEF0A3EFF0C3E49532FDE4952C
:1013A30031FCC3ED9FFBEC9EFA90004FE0FF3395B9
:1013B300E0FE7C007D05120D21EF2BFDEE3AFC12C1
:1013C3000BDF900004120F2AD3900001E0941490D5
:1013D3000000E0940090005F4024E0FCA3E0FDA344
:1013E300E0FEA3E0FF900004E0F8A3E0F9A3E0FA35
:1013F300A3E0FB1208B990005F120F2A8007120FB7
:101403003600000000E4FFFE7D487C4490005FE06E
:10141300F8A3E0F9A3E0FAA3E0FB120B50600E403F
:101423000C90005F120F36444800008024E4FFFE56
:101433007D487CC490005FE0F8A3E0F9A3E0FAA341
:10144300E0FB120B50500A90005F120F36C44800A5
:1014530000900004E0FCA3E0FDA3E0FEA3E0FF1284
:101463000C18EC120BDAE4FBFA794078411209AA62
:10147300120C187810120F1E90005FE0FCA3E0FD21
:10148300A3E0FEA3E0FF120C18E47B5C7A0FF9F8EB
:10149300120D68780F120EA6780C120F1E7816E63E
:1014A300FC08E6FDEC120BDF900014E0F8A3E0F972
:1014B300A3E0FAA3E0FB1208B9E4FBFAF9784012BF
:1014C3000AB37B667A6679A678401209AA120C18C9
:1014D3007808120F1E780C120ECD7810120EF5EB51
:1014E3002FFFEA3EFEE93DFDE83CFC7808120EF5CD
:1014F300EF2BFFEE3AFEED39FDEC38FCEF2405FF50
:10150300E43EFEE43DFDE43CFCE47B0AFAF9F81218
:101513002C47EC120BDA8F388E378D368C359000D2
:1015230004E0FCA3E0FDA3E0FEA3E0FF90004B1268
:101533000F2A7816E6FC08E6FDEC120BDFA804A9D7
:1015430005AA06AB07AF38AE37AD36AC351208B5D2
:10155300120C18900042EEF0A3EFF0D3900001E0DC
:101563009414900000E0940090006D4032E0F8A3E2
:10157300E0F9A3E0FAA3E0FBC000C001C002C0038E
:10158300900042E0FCA3E0FDEC120BDFD003D0029D
:10159300D001D0001208B990006D120F2A800712F3
:1015A3000F3600000000E4FFFE7D487C4490006D90
:1015B300E0F8A3E0F9A3E0FAA3E0FB120B50600EFE
:1015C300400C90006D120F36444800008024E4FF65
:1015D300FE7D487CC490006DE0F8A3E0F9A3E0FA37
:1015E300A3E0FB120B50500A90006D120F36C44853
:1015F3000000900042E0FEA3E0FFEE3395E0FDFC27
:10160300E47BAE7A27F9F8120D68780F120EA678EC
:1016130010120F1E90006DE0FCA3E0FDA3E0FEA3FB
:10162300E0FF120C18E47B897A01F9F8120D68784F
:101633000F120EA6780C120F1E900042E0FEA3E0DC
:10164300FFEE3395E0FDFC120BDA900055E0F8A3B2
:10165300E0F9A3E0FAA3E0FB1208B57B9A7A997943
:101663008978401209AA120C187808120F1E780CF8
:10167300120ECD7810120EF5EB2FFFEA3EFEE93D78
:10168300FDE83CFC7808120EF5EF2BFFEE3AFEED79
:1016930039FDEC38FC120BDA8F388E378D368C35EA
:1016A300900042E0FCA3E0FDEC120BDF900055122A
:1016B3000F2AE4FFFE7D7A7C44AB38AA37A936A80B
:1016C30035120B50600D400BE4F538F53775367A5B
:1016D300753544E4FFFE7D7A7CC4AB38AA37A9365E
:1016E300A835120B50500BE4F538F53775367A757B
:1016F30035C4AF38AE37AD36AC35120C1890003860
:10170300EEF0A3EFF0AF38AE37AD36AC35120BC900
:10171300120C1890003AEEF0A3EFF0AF38AE37ADED
:1017230036AC35120C1890003EEEF0A3EFF0AF3854
:10173300AE37AD36AC35120BC9120C1890003CEE27
:05174300F0A3EFF0220D
:100F670090002AE0FCA3E0FDE4120BDFE4FBFAF9B2
:100F770078C31208B9E4FBFAF978401209AA120CEF
:100F870018900034EEF0A3EFF0C3E49534FDE49538
:100F970033FCC3ED9FFBEC9EFA900054E0FF3395C2
:100FA700E0FE7C007D05120D21C3EB9FFDEA9EFC50
:100FB700120BDF900008120F2AD3900001E094145F
:100FC700900000E094009000654024E0FCA3E0FD61
:100FD700A3E0FEA3E0FF900008E0F8A3E0F9A3E098
:100FE700FAA3E0FB1208B9900065120F2A800712D6
:100FF7000F3600000000E4FFFE7D487C449000654A
:10100700E0F8A3E0F9A3E0FAA3E0FB120B50600EAF
:10101700400C900065120F36444800008024E4FF1E
:10102700FE7D487CC4900065E0F8A3E0F9A3E0FAF0
:10103700A3E0FB120B50500A900065120F36C4480C
:101047000000900008E0FCA3E0FDA3E0FEA3E0FFA2
:10105700120C18EC120BDAE4FBFA7940784112090A
:10106700AA120C187810120F1E900065E0FCA3E07E
:10107700FDA3E0FEA3E0FF120C18E47B5C7A0FF9F6
:10108700F8120D68780F120EA6780C120F1E78143E
:10109700E6FC08E6FDEC120BDF900010E0F8A3E099
:1010A700F9A3E0FAA3E0FB1208B9E4FBFAF97840E8
:1010B700120AB37B667A6679A678401209AA120CDF
:1010C700187808120F1E780C120ECD7810120EF534
:1010D700EB2FFFEA3EFEE93DFDE83CFC7808120EE7
:1010E700F5EF2BFFEE3AFEED39FDEC38FCEF24056A
:1010F700FFE43EFEE43DFDE43CFCE47B0AFAF9F83C
:10110700122C47EC120BDA8F388E378D368C3590D0
:101117000008E0FCA3E0FDA3E0FEA3E0FF90005081
:10112700120F2A7814E6FC08E6FDEC120BDFA80480
:10113700A905AA06AB07AF38AE37AD36AC351208EE
:10114700B5120C18900044EEF0A3EFF0D390000115
:10115700E09414900000E094009000714032E0F8B1
:10116700A3E0F9A3E0FAA3E0FBC000C001C002C0FE
:1011770003900044E0FCA3E0FDEC120BDFD003D0AA
:1011870002D001D0001208B9900071120F2A80070F
:10119700120F3600000000E4FFFE7D487C449000FB
:1011A70071E0F8A3E0F9A3E0FAA3E0FB120B5060AB
:1011B7000E400C900071120F36444800008024E462
:1011C700FFFE7D487CC4900071E0F8A3E0F9A3E03E
:1011D700FAA3E0FB120B50500A900071120F36C4AD
:1011E700480000900044E0FEA3E0FFEE3395E0FDE9
:1011F700FCE47BAE7A27F9F8120D68780F120EA679
:101207007810120F1E900071E0FCA3E0FDA3E0FE32
:10121700A3E0FF120C18E47B897A01F9F8120D6834
:10122700780F120EA6780C120F1E900044E0FEA352
:10123700E0FFEE3395E0FDFC120BDA90005AE0F880
:10124700A3E0F9A3E0FAA3E0FB1208B57B9A7A9929
:10125700798978401209AA120C187808120F1E789B
:101267000C120ECD7810120EF5EB2FFFEA3EFEE9B9
:101277003DFDE83CFC7808120EF5EF2BFFEE3AFE39
:10128700ED39FDEC38FC120BDA8F388E378D368C42
:1012970035900044E0FCA3E0FDEC120BDF90005A10
:1012A700120F2AE4FFFE7D7A7C44AB38AA37A936B1
:1012B700A835120B50600D400BE4F538F53775363D
:1012C7007A753544E4FFFE7D7A7CC4AB38AA37A92A
:1012D70036A835120B50500BE4F538F53775367ACA
:1012E7007535C4900038E0FCA3E0FDEC120BDFABD2
:1012F70038AA37A936A8351208B9120C1890003841
:10130700EEF0A3EFF090003AE0FCA3E0FDEC120B47
:10131700DFAB38AA37A936A8351208B9120C1890CE
:10132700003AEEF0A3EFF090003EE0FCA3E0FDEC06
:10133700120BDFAB38AA37A936A8351208B5120C3D
:101347001890003EEEF0A3EFF090003CE0FCA3E025
:10135700FDEC120BDFAB38AA37A936A8351208B552
:0C136700120C1890003CEEF0A3EFF022F6
:1019DD00900063E0FCA3E0FDE4120BDFE4FBFAF9F9
:1019ED0078C31208B9E4FBFA798278421209AAC0C9
:1019FD0004C005C006C0077818E6FE08E6FFC3E47C
:101A0D009FFDE49EFC120BDFD003D002D001D0006D
:101A1D001208B9C004C005C006C007900059E0FF08
:101A2D003395E0FE7C007D14120D21AC06AD07EC64
:101A3D00120BDFD003D002D001D0001208B9120C66
:101A4D0018900036EEF0A3EFF0D3900001E094145F
:101A5D00900000E094009000694032E0F8A3E0F9B6
:101A6D00A3E0FAA3E0FBC000C001C002C0039000D8
:101A7D0036E0FCA3E0FDEC120BDFD003D002D00169
:101A8D00D0001208B9900069120F2A8007120F3684
:101A9D00000000007F007E507D437C47900069E090
:101AAD00F8A3E0F9A3E0FAA3E0FB120B50600E409F
:101ABD000C900069120F364743500080257F007E41
:101ACD00507D437CC7900069E0F8A3E0F9A3E0FAEC
:101ADD00A3E0FB120B50500A900069120F36C7435A
:101AED005000900036E0FEA3E0FFEE3395E0FDFCE4
:101AFD00120BDAE4FBFA79A078401209AA120C183D
:101B0D007810120F1E900069E0FCA3E0FDA3E0FE2B
:101B1D00A3E0FF120C18E47BB87A1EF9F8120D68D9
:101B2D00780F120EA6780C120F1E900036E0FEA351
:101B3D00E0FFEE3395E0FDFC120BDA90002EE0F89D
:101B4D00A3E0F9A3E0FAA3E0FB1208B5E4FBFA79F0
:101B5D008078401209AA120C187808120F1E780C02
:101B6D00120ECD7810120EF5EB2FFFEA3EFEE93D79
:101B7D00FDE83CFC7808120EF5EF2BFFEE3AFEED7A
:101B8D0039FDEC38FC7806120EA6EC120BDA8F3804
:101B9D008E378D368C35900036E0FCA3E0FDEC12CF
:101BAD000BDF90002E120F2A900038E0FCA3E0FD11
:101BBD00EC120BDFAB38AA37A936A8351208B912CB
:101BCD000C18900038EEF0A3EFF090003AE0FCA373
:101BDD00E0FDEC120BDFAB38AA37A936A835120899
:101BED00B5120C1890003AEEF0A3EFF090003EE025
:101BFD00FCA3E0FDEC120BDFAB38AA37A936A835F4
:101C0D001208B5120C1890003EEEF0A3EFF0900004
:101C1D003CE0FCA3E0FDEC120BDFAB38AA37A93694
:101C2D00A8351208B9120C1890003CEEF0A3EFF095
:011C3D002284
:102BF400E5322484FFE5313403FED3EF94B0EE6470
:102C04008094844002802FC3EF94F4EE6480948116
:102C140050028022E5342484FFE5333403FED3EFED
:102C240094B0EE648094844002800BC3EF94F4EE7D
:102C340064809481500AC281E4900000F0A3F022E1
:032C4400D2812218
:10246600900038E0FEA3E0FF900000E0FCA3E0FD52
:102476002FFFEC3EFE900018F0A3EFF0D394E8EEA9
:1024860064809483400C9000187403F0A374E8F001
:10249600800FC3900018E0648094805004E4F0A399
:1024A600F090003AE0FEA3E02DFFEC3EFE90001A0D
:1024B600F0A3EFF0D394E8EE64809483400C900090
:1024C6001A7403F0A374E8F0800FC390001AE06456
:1024D6008094805004E4F0A3F090003CE0FEA3E07A
:1024E600FF900000E0FCA3E0FD2FFFEC3EFE900015
:1024F6001CF0A3EFF0D394E8EE64809483400C9034
:10250600001C7403F0A374E8F0800FC390001CE075
:10251600648094805004E4F0A3F090003EE0FEA3B3
:10252600E02DFFEC3EFE90001EF0A3EFF0D394E802
:10253600EE64809483400B90001E7403F0A374E84D
:10254600F022C390001EE0648094805004E4F0A35F
:02255600F02271
:10264700900003E0FF90005EE0B50749900048E086
:1026570004F0C3941450030226FB7413F090006334
:10266700E4F0A37480F0900046E4F0A37480F09047
:10267700002AE4F0A37480F0D3900001E094149052
:102687000000E09400406DA3E024FFF0900000E01C
:1026970034FFF0805FE4900048F090002CE0FEA348
:1026A700E0FFC394E9EE9403400C90002C7403F010
:1026B700A374E8F0803ED3EF9432EE940040269066
:1026C700002DE0242CFD90002CE03401FCE4120BDB
:1026D700DF7B667A6679A6783F120AB3120C1890E8
:1026E7000000EE800B90002CE0FFA3E0900000CFED
:1026F700F0A3EFF090005EE0900003F090002CE074
:0C270700FFA3E0900000CFF0A3EFF02251
:1029900090009E120F2A759850E47B04FAF9F89083
:1029A00000A2E0FCA3E0FDA3E0FEA3E0FF120DF314
:1029B00090009EE0F8A3E0F9A3E0FAA3E0FB120D7B
:1029C000F3EFF404F5D7E47B04FAF9F89000A2E001
:1029D000FCA3E0FDA3E0FEA3E0FF120DF390009E38
:1029E000E0F8A3E0F9A3E0FAA3E0FB120DF3C3E4DF
:1029F0009FFFE49EFE74019DFDE49CFC7808120E8E
:0A2A0000938FD6438E14438E0122FB
:102DBB002002FDEDB4010FEFD39409EF400424374B
:0C2DCB00800524308001EFD202F599222F
:102D000090009EEBF0A3EAF0A3E9F090009EE0FBB8
:102D1000A3E0FAA3E0F9120CE6601990009EA3E488
:102D200075F001120D33A9F0FA120CE6FFE4FD1262
:052D30002DBB80D7223D
:1008B200020C84E86480F8E933E83360110460F0E4
:1008C200ED33EC337009E8FCE9FDEAFEEBFF2204AC
:1008D20060DED3EB9FEA9EE99DE8C2E78CF0C2F7A7
:1008E20095F0400CE8CCF8E9CDF9EACEFAEBCFFB73
:1008F200120C4F85D0F05804700320D5B3E8047071
:10090200075002B2D5020C8E92D5EC0460F7E4CC0B
:10091200C0E0C398F8603B94186008400DD0E0FB3B
:10092200020C66E4FBFAC9FC8028E830E406E4C95C
:10093200FBE4CAFCE830E305E4C9CACBFCE854078F
:100942006010F8C3E913F9EA13FAEB13FBEC13FC9A
:10095200D8F130F52FC3E49CFCEF9BFFEE9AFEED3D
:1009620099FDD0E0FBEF4E4D4C701222DB03020CDE
:100972008BEC2CFCEF33FFEE33FEED33FDED30E775
:10098200EB020C66EF2BFFEE3AFEED39FDD0E0FBF9
:1009920050130BBB0003020C8EED13FDEE13FEEFA2
:0809A20013FFEC13FC020C66CC
:1009AA00EC4D6011E8497017ED33EC3304600DE447
:1009BA00FCFFFEFD22E933E8330470F8020C8412CE
:1009CA000C4F58046009E4CC2481500628500902CF
:1009DA000C8E284003020C8BC0E0EB4A7044B980AD
:1009EA0006D0E0FB020C7AEF4E701CBD8008EBFFCC
:1009FA00EAFEE9FD80EBE98DF0A4FEE5F0020A9338
:100A0A00E9CDF9EAFEEBFFEF89F0A4FCE5F0CE8927
:100A1A00F0A42EFFE435F0CD89F0A42DFEE435F0E4
:100A2A008067EF4E7005BD80D780C3EF8BF0A4AC12
:100A3A00F0EE8BF0A42CFCE435F0F8EF8AF0A42C4D
:100A4A00E5F038FCE433CB8DF0A42CFCE5F03BF860
:100A5A00EE8AF0A42CFCE5F038F8E433CF89F0A450
:100A6A002CFCE5F038CF3400CE89F0A42FFFE5F056
:100A7A003EFEE433C98DF0A42EFEE5F039CD8AF0AE
:100A8A00A42FFFE5F03EFEE43DFD33D0E0FB500726
:100A9A000BBB000F020C8EEC2CFCEF33FFEE33FE87
:060AAA00ED33FD020C66B5
:100AB000020C8EEC5D046005E859047003020C849E
:100AC000120C4F580460F6EC4860F2EC7004FDFE26
:100AD000FF22C860DB2481C85009C3986002500619
:100AE000020C8B9850CAF582E9294B4A7005AB82FB
:100AF000020C7A75F0007C1A7880C3EF9BEE9AEDB9
:100B000099400DC3EF9BFFEE9AFEED99FDE842F090
:100B1000DC23ACF0D0E0FFD0E0FED0E0FDAB8220E3
:100B2000E7101BEB60BAEC2CFCEF33FFEE33FEED6D
:100B300033FD020C66E803F830E705C0F075F000FD
:100B4000EF2FFFEE33FEED33FD40B830E7C280AA51
:100B500074F8CC6480CCC86480C8F58204604FC34C
:100B6000EB9FF5F0EA9E42F0E99D42F0E89C45F0EB
:100B7000603C501DE5825FFFE582D313CB5BCBF475
:100B80002B5582FB50280ABA002409B9002008809E
:100B90001DE5825BFBE582D313CF5FCFF4C3132F38
:100BA0005582FF50090EBE00050DBD00010CC3EBC0
:100BB0009FF5F0EA9E42F0E99D42F0E89C45F06026
:090BC00007CC4820E701B3EC2248
:100BC900ED33EC33600A047003BD8004ECB2E7FC3A
:010BD90022F9
:100BDA0075F020800E75F010800575F0087D007E96
:100BEA00007F003392D530D503120E85EC334010C6
:100BFA00EF33FFEE33FEED33FDEC33FCD5F0ED229F
:0E0C0A00E5F0247EA2D513CC92E7CDCEFF22DA
:100C1800EDD2E7CD33EC3392D524814006E4FFFED4
:100C2800FDFC22FCE4CFCECDCC24E0501174FF8033
:100C3800EDC3CC13CCCD13CDCE13CECF13CF0470D0
:070C4800F030D5DE020E853D
:1028670090008D120F2A900091E0F8A3E0F9A3E001
:10287700FAA3E0FB90008DE0FCA3E0FDA3E0FEA33C
:10288700E0FF120AB312213990008D120F2A90002F
:1028970091E030E75990008DE0FCA3E0FDA3E0FE56
:1028A700A3E0FFECC0E0EDC0E0EEC0E0EFC0E0E485
:1028B700FFFEFDFC90008DE0F8A3E0F9A3E0FAA38A
:1028C700E0FB120B507BDB600250087A0F794978E6
:1028D7004080067A0F794978C0D0E0FFD0E0FED07B
:1028E700E0FDD0E0FC1208B990008D120F2A90008D
:0D28F7008DE0FCA3E0FDA3E0FEA3E0FF22C6
:102C8B00ECC0E0F8EDC0E0F9EEC0E0FAEFC0E0FB1D
:102C9B001209AAEC6480FC7B007A007980783F12E1
:102CAB0008B9122717D0E0CFFBD0E0CEFAD0E0CD99
:0B2CBB00F9D0E0CCF8120AB302213976
:100C4F00E9D2E7C933E833F892D5EDD2E7CD33ECEB
:070C5F0033FC5002B2D52264
:100C6600EC30E7100FBF000C0EBE00080DBD0004EF
:100C76000BEB6014A2D5EB13FCED92E7FD2274FF9B
:100C8600FCFDFEFF22E480F8A2D574FF13FC7D80F4
:030C9600E480EF08
:10271300020C8422EDA2E7D2E7F9EC3340F260F336
:10272300B4FF08ED547F70E8020C8EF82481C2E0F8
:10273300C0E0F40428FAC313FCED92E7FD90008D8A
:10274300120F2AEEA2E7E9BA7F02C3133400940002
:10275300FA75F091A4E5F013F494FE8AF0A433E53E
:10276300F033248CD313FDE492E7FE7F007C3F75A6
:102773008302ECC0E0F8EDC0E0F9EEC0E0FAEFC090
:10278300E0FB8583F090008D120ED985F083120A49
:10279300B3D0E0FBD0E0FAD0E0F9D0E0F81208B90A
:1027A300ED6480FD30E7011CD583C7ED33CC33F8EE
:0C27B300D0E0A2E71328C313CC13FD22D2
:10211900BE1249253E4CCCCDBEAAAAAB3F800000D9
:102129003E7ADBB03EED63383F24BC7D3F490FDB8F
:10213900ED33ECC2E7CC339200B4FF13ED547F606A
:1021490003020C847FDB7E0F7DC97C3F02222EC2F5
:1021590001C3947F401E7007EDD2E794904015EFBC
:10216900FBEEFAEDF9ECF87F007E007D807C3F12F2
:102179000AB3D201ED33EC33248430E705E4C0E03F
:10218900806B04FAEDD2E754F0C333DAFD54073417
:10219900002323C0E0CCC0E0F8EDC0E0F9EEC0E0D8
:1021A900FAEFC0E0FBE4120BE4EC24FEFC9000958E
:1021B900120F2A1209AA7B007A007980783F120847
:1021C900B9900095E0B2E7CCF0A3E0CDF0A3E0CE62
:1021D900F0A3E0CFF0D0E0FBD0E0FAD0E0F9D0E016
:1021E900F81208B9900095120F02120AB3900095DF
:1021F900120F2A9021197403120C99900095120F4D
:10220900021209AAD0E0600F2425F582E43421F5F1
:1022190083120F0E1208B930010B7BDB7A0F79C9D3
:1022290078BF1208B9ED33EC336006ECA20092E7EF
:02223900FC2285
:100C9900C0E0EFFBEEFAEDF9ECF81209AAD0E0F5A5
:100CA900F0EFFBEEFAEDF9ECF8120EE5A3A3A3A31E
:100CB900E8C0E0E9C0E0EAC0E0EBC0E0C0F012093A
:100CC900AA120F0EA3A3A3A31208B9D0F0D0E0FB78
:0D0CD900D0E0FAD0E0F9D0E0F8D5F0D42258
:03000000022904CE
:0C290400787FE4F6D8FD75819C02294B19
:100CE600BB010689828A83E0225002E722BBFE020C
:090CF600E32289828A83E493223F
:100CFF00F8BB010DE58229F582E5833AF583E8F02B
:100D0F00225006E92582C8F622BBFE05E92582C8D6
:020D1F00F222BE
:100D2100EF8DF0A4A8F0CF8CF0A428CE8DF0A42EE6
:020D3100FE22A0
:100D3300A3F8E0C5F025F0F0E58215827002158373
:060D4300E0C838F0E822D0
:100D4900BB010A89828A83F0E5F0A3F0225006F7F5
:0F0D590009A7F01922BBFE06F3E5F009F31922F2
:100D6800E88FF0A4CC8BF0A42CFCE98EF0A42CFC2A
:100D78008AF0EDA42CFCEA8EF0A4CDA8F08BF0A4A8
:100D88002DCC3825F0FDE98FF0A42CCD35F0FCEB07
:100D98008EF0A4FEA9F0EB8FF0A4CFC5F02ECD39CC
:0F0DA800FEE43CFCEAA42DCE35F0FDE43CFC2239
:100DB70075F008758200EF2FFFEE33FECD33CDCCF3
:100DC70033CCC58233C5829BED9AEC99E582984076
:100DD7000CF582EE9BFEED9AFDEC99FC0FD5F0D653
:100DE700E4CEFBE4CDFAE4CCF9A88222B800C1B97D
:100DF7000059BA002DEC8BF084CFCECDFCE5F0CBBB
:100E0700F97818EF2FFFEE33FEED33FDEC33FCEBF3
:100E170033FB10D703994004EB99FB0FD8E5E4F9AE
:100E2700FA227818EF2FFFEE33FEED33FDEC33FC9B
:100E3700C933C910D7059BE99A4007EC9BFCE99A8F
:100E4700F90FD8E0E4C9FAE4CCFB2275F010EF2FD4
:100E5700FFEE33FEED33FDCC33CCC833C810D707D4
:100E67009BEC9AE899400AED9BFDEC9AFCE899F80F
:0E0E77000FD5F0DAE4CDFBE4CCFAE4C8F922A2
:102C4700C2D5E830E70FB2D5E4C39BFBE49AFAE4B8
:102C570099F9E498F8EC30E717B2D5122C7D120DEC
:102C6700F3E4C39BFBE49AFAE499F9E498F8800348
:102C7700120DF330D50DE4C39FFFE49EFEE49DFDE6
:042C8700E49CFC22AB
:0E0E8500C3E49FFFE49EFEE49DFDE49CFC227E
:100E9300E8600FECC313FCED13FDEE13FEEF13FF3D
:030EA300D8F12261
:100EA600E86010ECA2E713FCED13FDEE13FEEF1362
:040EB600FFD8F0224F
:100EBA00E8600FEFC333FFEE33FEED33FDEC33FC96
:030ECA00D8F1223A
:0C0ECD00E6FC08E6FD08E6FE08E6FF2251
:0C0ED900E0FCA3E0FDA3E0FEA3E0FF228C
:100EE500E493FC740193FD740293FE740393FF2253
:0D0EF500E6FB08E6F908E6FA08E6CBF8226D
:0C0F0200E0F8A3E0F9A3E0FAA3E0FB2272
:100F0E00E493F8740193F9740293FA740393FB2239
:0C0F1E00ECF608EDF608EEF608EFF622FF
:0C0F2A00ECF0A3EDF0A3EEF0A3EFF0223A
:100F3600A8828583F0D083D082120F4D120F4D12F6
:100F46000F4D120F4DE473E493A3C583C5F0C5831B
:100F5600C8C582C8F0A3C583C5F0C583C8C582C805
:010F66002268
:10291000021E4FE493A3F8E493A34003F68001F270
:1029200008DFF48029E493A3F85407240CC8C333C8
:10293000C4540F4420C8834004F456800146F6DF97
:10294000E4800B010204081020408090235CE47EA8
:10295000019360BCA3FF543F30E509541FFEE4938C
:10296000A360010ECF54C025E060A840B8E493A353
:10297000FAE493A3F8E493A3C8C582C8CAC583CA7E
:10298000F0A3C8C582C8CAC583CADFE9DEE780BE36
:012465000076
:00000001FF
