:0E2E800055617274205465737420210D0A0090
:1021C60012288F9000AD7403F0A374E8F0FB7A0335
:1021D600FD7C03FF7E03122D1CC281D282122D8943
:1021E600D281C282122D89D281D282C283122D8BD4
:1021F600D281D282D2837F0A7E00122D8F7F0A7E01
:1022060000122D8F122DAF7F0A7E00122D8F122401
:10221600157F647E00122D8F122E3D122E617F6473
:102226007E00122D8FE4900026F0A3F0900061F05E
:10223600A37480F0900044E4F0A37480F09000242E
:10224600E4F0A37480F0C283E490004DF090005255
:10225600F0900057F0D2ACD2AF7BFF7A2E79801285
:102266002D567B007A0079399000ACE543F07D0A63
:102276007C00122A60EF4E705890005CE539F090B1
:102286000002E53AF0E53B75F0FFA47C00253CFE34
:10229600EC35F0900026F0A3CEF0900061E4F0A3B8
:1022A600E53DF0900044E4F0A3E53EF0900024E420
:1022B600F0A3E53FF0E540248090004DF0E5412491
:1022C60080900052F0E5422480900057F0D2828040
:1022D60002C282900002E0FFB40102D283EFB4058D
:0D22E60002C2837F037E00122D8F0222684A
:102E3D00538E7F5389F0758A40758CA2C28DD28CCA
:032E4D00D2A922E5
:062D8900D2837FF47E01FD
:102D8F00E4FDFCC3ED9FEC9E5015E4FBFA0BBB007A
:0F2D9F00010AEB64FA4A70F50DBD00010C80E4E7
:012DAE002202
:03000B0002197760
:10197700C0E0C0F0C083C082C0D075D000C000C036
:1019870001C002C003C004C005C006C007122DF382
:101997007B007A0079397D0F122BF57B007A00796D
:1019A70021122ACC7466FBFA7D997C19AF22AE21ED
:1019B700121BBE900012EEF0A3EFF07466FBFA7DE7
:1019C700997C19AF24AE23121CF4900014EEF0A3F7
:1019D700EFF07466FBFA7D997C19AF26AE25121ECF
:1019E7002A900018EEF0A3EFF0AC29AD2AEC120B09
:1019F700DFE4FBFA79837842120AB3120C187814E1
:101A0700A60608A607AC2BAD2CEC120BDFE4FBFAFD
:101A170079837842120AB3120C187816A60608A61C
:101A2700077466FBFA7D997C19AF2EAE2D121F60E5
:101A37007818EEF608EFF6FDAC06EC120BDFE4FBC8
:101A4700FA79837842120AB3900020120E2A78148A
:101A5700E6FC08E6FDEC120BDF90000A120E2A786E
:101A670016E6FC08E6FDEC120BDF90000E120E2ABC
:101A77007814E6FC08E6FDEC120BDF7B397AFA797D
:101A87008E783C1209AAC004C005C006C0077816A4
:101A9700E6FC08E6FDEC120BDF7B397AFA798E78E3
:101AA7003C1209AA900083120E2A7F397EFA7D8E96
:101AB7007C3C900020E0F8A3E0F9A3E0FAA3E0FB68
:101AC7001209AA900087120E2A900012E0FCA3E0E8
:101AD700FDEC120BDF90008B120E2A900014E0FC35
:101AE700A3E0FDEC120BDF90008F120E2A90001876
:101AF700E0FCA3E0FDEC120BDF900093120E2AD05E
:101B070007D006D005D004120026122717122C4A38
:101B1700121341120F35121716122536900002E0E4
:101B270064057062C3900001E09432900000E09475
:101B370000405390001AE0FEA3E0FF74E89FFF7493
:101B4700039EFEC006C00790001CE0FEA3E0FFC393
:101B570074E89FFD74039EFC90001EE0FEA3E0FF67
:101B6700C374E89FFB74039EFA900016E0FEA3E09F
:101B7700FFC374E89F9000AEF074039E9000ADF031
:101B8700D007D00680139000AD7403F0A374E8F07B
:101B9700FB7A03FD7C03FF7E03122D1CD007D006C2
:101BA700D005D004D003D002D001D000D0D0D0824D
:071BB700D083D0F0D0E03232
:03002300022E2585
:102E2500C0D0309809C298859980A29A92A230990B
:082E350004C299C202D0D032A0
:10288F00E4F594F593F592F591F596F595F5B2F586
:10289F00B1F5B4F5B3F5CAF5C9F5CCF5CBF5E2F55D
:1028AF00E175960EF59575B280F5B175BA8075F133
:1028BF00B090FFF27410F0E4F5F6F5F790FFF074B6
:1028CF0003F0A374E9F090FF04E4F090FF14F0908C
:1028DF00FF24F090FF34F090FF007403F0A374E82E
:1028EF00F0A37403F0A374E9F090FF107403F0A346
:1028FF0074E8F0A37403F0A374E9F090FF2074035D
:10290F00F0A374E8F0A37403F0A374E9F090FF3020
:10291F007403F0A374E8F0A37403F0A374E9F075E3
:08292F00F58F90FFF2E4F022A5
:102D1C009000A7EEF0A3EFF09000A7E090FF00F07A
:102D2C009000A7A3E090FF01F0EC90FF10F0A3ED52
:102D3C00F0EA90FF20F0A3EBF09000ADE0FCA3E0F4
:0A2D4C00FDEC90FF30F0A3EDF02243
:102E5000D3EF9400EE94004007EF1F70F31E80F054
:012E6000224F
:042B93007B01E4FDE1
:072B97009000A7EFF0A90573
:102B9E00C291E4FFFE9000A7E0FD339293D295C25E
:102BAE0095ED25E0F00FBF00010EEF64084E70E5C5
:102BBE00E4FEFFE9339293D295C295E925E0F90F31
:102BCE00BF00010EEF64084E70E9E4FEFFEB339296
:102BDE0093D295C295EB25E0FB0FBF00010EEF647B
:062BEE00084E70E9D291CF
:012BF40022BE
:102B3000C29174802FFFE4FBFAEF339293D295C2D7
:102B400095EF25E0FF0BBB00010AEB64084A70E932
:102B5000E4FAFBD295C2959000BFE025E0FFF0A219
:102B600094E4334FF00BBB00010AEB64084A70E3B6
:102B7000E4FAFBD295C2959000C0E025E0FFF0A2F8
:102B800094E4334FF00BBB00010AEB64084A70E396
:022B9000D291E0
:012B92002220
:10241500C2927FF47E01122E50D2927FF47E011279
:102425002E50D2B27BEF7D6FE4FF122B977B817D1F
:10243500567F01122B977B177D667F02122B977BA8
:10244500C97D9C7F04122B977B377D667F05122BF8
:1024550097E4FBFD7F07122B977B907D6C7F08121D
:102465002B97E4FB7D487F09122B977BFD7D7F7FB2
:102475000A122B977B08E4FD7F0B122B97E4FBFDDB
:102485007F0C122B977BBD7D487F0D122B977BFF11
:10249500E4FD7F16122B977B057D807F17122B9706
:1024A5007B67E4FD7F18122B977B597D167F1912E8
:1024B5002B977BE07D197F1A122B97E4FB7D137F09
:1024C5001B122B97E4FB7D187F1C122B97E4FB7DD9
:1024D500587F20122B977BC77D3F7F21122B97E4D6
:1024E500FB7D207F22122B97E4FB7D0A7F23122B95
:1024F500977F24122B937F25122B937B01E4FD7F7D
:1025050026122B977B01E4FD7F27122B977B027DFB
:10251500447F28122B97E4FB7DB87F29122B977BEC
:10252500FF7DFD7F2A122B977B0FE4FD7F2B022B6E
:01253500970E
:102DF3007B807D807F34122B977BA0E4FD7F0712BD
:092E03002B977FC87E00022E50BF
:0B2BF50090007FEBF0A3EAF0A3E9F0F2
:102C0000E4FE7F32122B309000BFE06D703BA3E0FA
:102C10007037EEC39D50327F32122B309000BFE0F0
:102C2000FF90007FE0FBA3E0FAA3E0F9AC060E8C76
:102C300082758300EF120CFF9000C0E0AC060E8C92
:092C400082758300120CFF80C9AB
:012C49002268
:102A60009000A7EBF0A3EAF0A3E9F0A3ECF0A3ED4C
:012A7000F075
:102A7100E4FFFE9000ADF0D39000ABE09FEE6480E8
:102A8100F89000AAE064809840219000A7E0FBA3A1
:102A9100E475F001120D33A9F0FA120CE6FD900075
:102AA100ADE02DF00FBF00010E80CC9000ADE0FD38
:102AB1009000ACE0B50504E4FEFF22ED6008900053
:0A2AC100ADE0FF7E00227EFF7FFFE4
:012ACB0022E8
:1020960004653F800000046900000000046D000034
:1020A6000000047100000000045900000000045DF7
:1020B600000000000461000000000475000000003C
:0C20C600047900000000047D0000000010
:0600260090007F120E2A7B
:10002C0090008FE0FCA3E0FDA3E0FEA3E0FF9000B6
:10003C008FE0F8A3E0F9A3E0FAA3E0FB1209AAC051
:10004C0004C005C006C00790008BE0FCA3E0FDA334
:10005C00E0FEA3E0FFA804A905AA06FB1209AAD09A
:10006C0003D002D001D0001208B9C004C005C006EC
:10007C00C007900093E0FCA3E0FDA3E0FEA3E0FF2B
:10008C00A804A905AA06FB1209AAD003D002D00124
:10009C00D0001208B91226287881120E1E90008BFF
:1000AC00E0FCA3E0FDA3E0FEA3E0FF7881120DF5D8
:1000BC001209AA90008B120E2A90008FE0FCA3E08C
:1000CC00FDA3E0FEA3E0FF7881120DF51209AA90C2
:1000DC00008F120E2A900093E0FCA3E0FDA3E0FE3B
:1000EC00A3E0FF7881120DF51209AA900093120E6D
:1000FC002A786D120DCD7865120DF51209AAC0047F
:10010C00C005C006C0077871120DCD7869120DF5C7
:10011C001209AAD003D002D001D0001208B5E4FB1A
:10012C00FAF978401209AA7885120E1E7871120D10
:10013C00CD786D120DF51209AAC004C005C006C019
:10014C00077869120DCD7865120DF51209AAD00346
:10015C00D002D001D0001208B9E4FBFAF9784012B1
:10016C0009AA7889120E1E7869120DCD7869120DC4
:10017C00F51209AAC004C005C006C0077865120DA7
:10018C00CD7865120DF51209AAD003D002D001D09A
:10019C00001208B5C004C005C006C007786D120D6A
:1001AC00CD786D120DF51209AAA804A905AA06AB03
:1001BC0007D007D006D005D0041208B5C004C0057E
:1001CC00C006C0077871120DCD7871120DF51209A9
:1001DC00AAD003D002D001D0001208B9788D120E2B
:1001EC001E7889120DCD900093E0F8A3E0F9A3E0FE
:1001FC00FAA3E0FB1209AAC004C005C006C0077828
:10020C008D120DCD90008FE0F8A3E0F9A3E0FAA3D6
:10021C00E0FB1209AAD003D002D001D0001208B51D
:10022C007891120E1E788D120DCD90008BE0F8A3F4
:10023C00E0F9A3E0FAA3E0FB1209AAC004C005C0D0
:10024C0006C0077885120DCD900093E0F8A3E0F975
:10025C00A3E0FAA3E0FB1209AAD003D002D001D08C
:10026C00001208B57895120E1E7885120DCD9000EF
:10027C008FE0F8A3E0F9A3E0FAA3E0FB1209AAC00F
:10028C0004C005C006C0077889120DCD90008BE024
:10029C00F8A3E0F9A3E0FAA3E0FB1209AAD003D07B
:1002AC0002D001D0001208B57899120E1E7859129E
:1002BC000DF5C000C001C002C0037F6F7E127D83AC
:1002CC007C3A7891120DF51209AAD003D002D00114
:1002DC00D0001208B97859120E1E785D120DF5C0B7
:1002EC0000C001C002C0037F6F7E127D837C3A7810
:1002FC0095120DF51209AAD003D002D001D000122C
:10030C0008B9785D120E1E7861120DF5C000C0019F
:10031C00C002C0037F6F7E127D837C3A7899120DE8
:10032C00F51209AAD003D002D001D0001208B97876
:10033C0061120E1E784D120DF5C0007891120DCD84
:10034C00D0001208B57875120E1E7851120DF5C03A
:10035C00007895120DCDD0001208B57879120E1ECA
:10036C007855120DF5C0007899120DCDD0001208F9
:10037C00B5787D120E1E7891120DCD784D120E1E91
:10038C007895120DCD7851120E1E7899120DCD78EC
:10039C0055120E1EE4FFFEFD7C407891120DF512F5
:1003AC0009AA90007FE0F8A3E0F9A3E0FAA3E0FB30
:1003BC001208B97859120DF51208B9C004C005C05D
:1003CC0006C0077F6F7E127D837C3A7875120DF51F
:1003DC001209AAD003D002D001D0001208B99000A3
:1003EC007F120E2AE4FFFEFD7C407895120DF5126B
:1003FC0009AA900083E0F8A3E0F9A3E0FAA3E0FBDC
:10040C001208B9785D120DF51208B9C004C005C008
:10041C0006C0077F6F7E127D837C3A7879120DF5CA
:10042C001209AAD003D002D001D0001208B9900052
:10043C0083120E2AE4FFFEFD7C407899120DF51212
:10044C0009AA900087E0F8A3E0F9A3E0FAA3E0FB87
:10045C001208B97861120DF51208B9C004C005C0B4
:10046C0006C0077F6F7E127D837C3A787D120DF576
:10047C001209AAD003D002D001D0001208B9900002
:10048C0087120E2A7865120DF5C000C001C002C09B
:10049C00037869120DCD120BC990007FE0F8A3E030
:1004AC00F9A3E0FAA3E0FB1209AAC004C005C00638
:1004BC00C007900083E0FCA3E0FDA3E0FEA3E0FFF7
:1004CC00786D120DF51209AAA804A905AA06AB07A6
:1004DC00D007D006D005D0041208B5C004C005C0A2
:1004EC0006C007900087E0FCA3E0FDA3E0FEA3E0BC
:1004FC00FF7871120DF51209AAA804A905AA06AB7A
:10050C0007D007D006D005D0041208B57B0A7AD7DD
:10051C0079A3783B1209AAD003D002D001D00012E3
:10052C0008B97865120E1E7869120DF5C000C0016D
:10053C00C002C003900087E0FCA3E0FDA3E0FEA393
:10054C00E0FF786D120DF51209AAC004C005C006B3
:10055C00C00790007FE0FCA3E0FDA3E0FEA3E0FF5A
:10056C007865120DF51209AAD003D002D001D00083
:10057C001208B9C004C005C006C007900083E0FC97
:10058C00A3E0FDA3E0FEA3E0FF7871120DF51209C4
:10059C00AAA804A905AA06AB07D007D006D005D097
:1005AC00041208B57B0A7AD779A3783B1209AAD032
:1005BC0003D002D001D0001208B97869120E1E784F
:1005CC006D120DF5C000C001C002C003900087E0A1
:1005DC00FCA3E0FDA3E0FEA3E0FF7869120DF51289
:1005EC0009AAC004C005C006C007900083E0FCA3A4
:1005FC00E0FDA3E0FEA3E0FF7865120DF51209AA59
:10060C00D003D002D001D0001208B5C004C005C080
:10061C0006C00790007FE0FCA3E0FDA3E0FEA3E092
:10062C00FF7871120DF51209AAD003D002D001D0B7
:10063C00001208B97B0A7AD779A3783B1209AAD0A1
:10064C0003D002D001D0001208B9786D120E1E78BA
:10065C0071120DF5C000C001C002C003900083E010
:10066C00FCA3E0FDA3E0FEA3E0FF7869120DF512F8
:10067C0009AAC004C005C006C007900087E0FCA30F
:10068C00E0FDA3E0FEA3E0FF7865120DF51209AAC8
:10069C00D003D002D001D0001208B9C004C005C0EC
:1006AC0006C00790007FE0FCA3E0FDA3E0FEA3E002
:1006BC00FF786D120DF51209AAA804A905AA06ABBC
:1006CC0007D007D006D005D0041208B57B0A7AD71C
:1006DC0079A3783B1209AAD003D002D001D0001222
:1006EC0008B97871120E1E7869120DCD7869120D49
:1006FC00F51209AAC004C005C006C0077865120D22
:10070C00CD7865120DF51209AAD003D002D001D014
:10071C00001208B9C004C005C006C007786D120DE0
:10072C00CD786D120DF51209AAD003D002D001D0EC
:10073C00001208B9C004C005C006C0077871120DBC
:10074C00CDA804A905AA06AB071209AAD003D002AA
:10075C00D001D0001208B91226287881120E1E780A
:10076C0065120DCD7881120DF51209AA7865120E5D
:10077C001E7869120DCD7881120DF51209AA7869CF
:10078C00120E1E786D120DCD7881120DF51209AA7C
:10079C00786D120E1E7871120DCD7881120DF51236
:1007AC0009AA7871120E1EE4FFFEFD7C40786512DA
:1007BC000DF51209AA7869120DF51209AAC004C028
:1007CC0005C006C007E4FFFEFD7C40786D120DF5F8
:1007DC001209AA7871120DF51209AAD003D002D011
:1007EC0001D0001208B9C004C005C006C007E4FF60
:1007FC00FEFD7C40786D120DF51209AA786D120D74
:10080C00F51209AAC004C005C006C007E4FFFEFD2E
:10081C007CC07869120DF51209AA7869120DF512CF
:10082C0009AAD003D002D001D0001208B5E4FBFA1B
:10083C007980783F1208B990009B120E2AD007D00D
:10084C0006D005D0041229377B4D7A3D790F7844B8
:10085C001209AA120C188E338F347871120DCD78C0
:10086C0069120DF51209AAC004C005C006C00778AC
:10087C006D120DCD7865120DF51209AAD003D002B8
:10088C00D001D0001208B5E4FBFAF978401209AA9D
:10089C00122CE17B4D7A3D790F78441209AA120C87
:0508AC00188E318F32AF
:0108B1002224
:06262800900097120E2A3B
:10262E00E4FFFEFD7C3F900097E0F8A3E0F9A3E005
:10263E00FAA3E0FB1209AA90009B120E2A900097B3
:10264E00E0FCA3E0FDA3E0FEA3E0FF90009F120ECE
:10265E002A90009FE0FCA3E0FDA3E0FEA3E0FFA311
:10266E00120E2A9000A3E0FCA3E0FDA3E0FEA3E07F
:10267E00FF7801120DA6C374DF9FFF74599EFE747E
:10268E00379DFD745F9CFC9000A3120E2A9000A350
:10269E00E0FCA3E0FDA3E0FEA3E0FF90009F120E7E
:1026AE002A90009FE0FCA3E0FDA3E0FEA3E0FF90D4
:1026BE00009BE0F8A3E0F9A3E0FAA3E0FB1209AA5D
:1026CE0090009FE0F8A3E0F9A3E0FAA3E0FB120963
:1026DE00AAA804A905AA06AB07E4FFFE7DC07C3FAD
:1026EE001208B590009FE0F8A3E0F9A3E0FAA3E08A
:1026FE00FB1209AA90009F120E2A90009FE0FCA3E5
:08270E00E0FDA3E0FEA3E0FFE3
:0127160022A0
:072E9B00D2B4122EA2C2B452
:042EA2007F02DFFECE
:012EA6002209
:0F2E7100D2B5D2B4122EA2C2B5122EA2C2B42272
:0C2EA700C2B5D2B4122EA2D2B5022EA2E7
:0D2E8E00D2B4122EA2A2B5C2B4122EA222FE
:02000E00AE073B
:10001000E4FDEE25E0FE92B5122E9B0DEDB408F244
:03002000022E8E1F
:102DD200E4FED2B5FDEE25E0FED2B4122EA2A2B5DB
:102DE200E4334EFEC2B4122EA20DEDB408E7AF06D4
:012DF20022BE
:102E0C00AC05AB07122E717FD012000EAF0312006F
:092E1C000EAF0412000E022EA7F5
:102DAF00E4FD7F6B122E0C7D077F19122E0C7D0414
:102DBF007F1A122E0C7D087F1B122E0C7D187F1C84
:032DCF00022E0CC5
:0B2ACC0090007FEBF0A3EAF0A3E9F01C
:102AD700122E717FD012000E7F3B12000E122E7144
:102AE7007FD112000EE4FC122DD290007FE0FBA3F1
:102AF700E0FAA3E0F98C82758300EF120CFFC2B5F0
:102B0700122E9B0CECB40DDF122DD290007FE0FB50
:102B1700A3E0FAA3E0F9AE048E82758300EF120CEE
:092B2700FFD2B5122E9B022EA76D
:081BBE0090007FEEF0A3EFF0B0
:101BC600AE04AF059000AFE0FCA3E0FD900081EC11
:101BD600F0A3EDF0900081ECF0A3EDF09000B2E000
:101BE6002FFF9000B1E03EFE3395E0FDFC900087AC
:101BF600120E2A900087E0FCA3E0FDA3E0FEA3E01E
:101C0600FF780F120DBA90008D120E2AAE02AF03A6
:101C1600EE3395E0FDFC900087E0F8A3E0F9A3E041
:101C2600FAA3E02FFBEA3EFAE93DF9E83CF890001A
:101C36008DE0FCA3E0FDA3E0FEA3E0FF122C9D9047
:101C4600008BEEF0A3EFF0900081E0FEA3E0FFC36F
:101C5600900080E09FFF90007FE09EAB07FA3395EF
:101C6600E0F9F890008BE0FEA3E0FFEE3395E0FD8F
:101C7600FC120D49780F120DA6A804A905AA06ABF9
:101C860007900081E0FEA3E0FFEE3395E0FDFCEB5C
:101C96002FFFEA3EFEE93DFDE83CFCA3120E2A902A
:101CA600008BE0FEA3E0FBAA06EA3395E0F9F8C351
:101CB600E49BFF74809AFEE499FDE498FC9000870B
:101CC600E0F8A3E0F9A3E0FAA3E0FB120D49780FD0
:101CD600120DA69000B1EEF0A3EFF0900083A3A33F
:0D1CE600E0FEA3E0FF9000AFEEF0A3EFF0F2
:011CF30022CE
:081CF40090007FEEF0A3EFF079
:101CFC00AE04AF059000B3E0FCA3E0FD900081ECD6
:101D0C00F0A3EDF0900081ECF0A3EDF09000B6E0C4
:101D1C002FFF9000B5E03EFE3395E0FDFC90008770
:101D2C00120E2A900087E0FCA3E0FDA3E0FEA3E0E6
:101D3C00FF780F120DBA90008D120E2AAE02AF036F
:101D4C00EE3395E0FDFC900087E0F8A3E0F9A3E00A
:101D5C00FAA3E02FFBEA3EFAE93DF9E83CF89000E3
:101D6C008DE0FCA3E0FDA3E0FEA3E0FF122C9D9010
:101D7C00008BEEF0A3EFF0900081E0FEA3E0FFC338
:101D8C00900080E09FFF90007FE09EAB07FA3395B8
:101D9C00E0F9F890008BE0FEA3E0FFEE3395E0FD58
:101DAC00FC120D49780F120DA6A804A905AA06ABC2
:101DBC0007900081E0FEA3E0FFEE3395E0FDFCEB25
:101DCC002FFFEA3EFEE93DFDE83CFCA3120E2A90F3
:101DDC00008BE0FEA3E0FBAA06EA3395E0F9F8C31A
:101DEC00E49BFF74809AFEE499FDE498FC900087D4
:101DFC00E0F8A3E0F9A3E0FAA3E0FB120D49780F99
:101E0C00120DA69000B5EEF0A3EFF0900083A3A303
:0D1E1C00E0FEA3E0FF9000B3EEF0A3EFF0B6
:011E29002296
:081E2A0090007FEEF0A3EFF041
:101E3200AE04AF059000B7E0FCA3E0FD900081EC9A
:101E4200F0A3EDF0900081ECF0A3EDF09000BAE089
:101E52002FFF9000B9E03EFE3395E0FDFC90008735
:101E6200120E2A900087E0FCA3E0FDA3E0FEA3E0AF
:101E7200FF780F120DBA90008D120E2AAE02AF0338
:101E8200EE3395E0FDFC900087E0F8A3E0F9A3E0D3
:101E9200FAA3E02FFBEA3EFAE93DF9E83CF89000AC
:101EA2008DE0FCA3E0FDA3E0FEA3E0FF122C9D90D9
:101EB200008BEEF0A3EFF0900081E0FEA3E0FFC301
:101EC200900080E09FFF90007FE09EAB07FA339581
:101ED200E0F9F890008BE0FEA3E0FFEE3395E0FD21
:101EE200FC120D49780F120DA6A804A905AA06AB8B
:101EF20007900081E0FEA3E0FFEE3395E0FDFCEBEE
:101F02002FFFEA3EFEE93DFDE83CFCA3120E2A90BB
:101F1200008BE0FEA3E0FBAA06EA3395E0F9F8C3E2
:101F2200E49BFF74809AFEE499FDE498FC9000879C
:101F3200E0F8A3E0F9A3E0FAA3E0FB120D49780F61
:101F4200120DA69000B9EEF0A3EFF0900083A3A3C8
:0D1F5200E0FEA3E0FF9000B7EEF0A3EFF07B
:011F5F00225F
:081F600090007FEEF0A3EFF00A
:101F6800AE04AF059000BBE0FCA3E0FD900081EC5F
:101F7800F0A3EDF0900081ECF0A3EDF09000BEE04E
:101F88002FFF9000BDE03EFE3395E0FDFC900087FA
:101F9800120E2A900087E0FCA3E0FDA3E0FEA3E078
:101FA800FF780F120DBA90008D120E2AAE02AF0301
:101FB800EE3395E0FDFC900087E0F8A3E0F9A3E09C
:101FC800FAA3E02FFBEA3EFAE93DF9E83CF8900075
:101FD8008DE0FCA3E0FDA3E0FEA3E0FF122C9D90A2
:101FE800008BEEF0A3EFF0900081E0FEA3E0FFC3CA
:101FF800900080E09FFF90007FE09EAB07FA33954A
:10200800E0F9F890008BE0FEA3E0FFEE3395E0FDE9
:10201800FC120D49780F120DA6A804A905AA06AB53
:1020280007900081E0FEA3E0FFEE3395E0FDFCEBB6
:102038002FFFEA3EFEE93DFDE83CFCA3120E2A9084
:10204800008BE0FEA3E0FBAA06EA3395E0F9F8C3AB
:10205800E49BFF74809AFEE499FDE498FC90008765
:10206800E0F8A3E0F9A3E0FAA3E0FB120D49780F2A
:10207800120DA69000BDEEF0A3EFF0900083A3A38D
:0D208800E0FEA3E0FF9000BBEEF0A3EFF040
:012095002228
:1020D200420000000042002C000042002E0000429C
:1020E20000300000420032000042001600004200B0
:1020F2001A000042001C000042001E000041004D78
:1021020000410052004100570044007700000000E7
:102112004400730000000044007B00000000420005
:1021220012000042001400004200180000021600D3
:102132000002140000021800000231000002330005
:102142000044000A0000000044000E0000000044A9
:10215200006B0000000044005D0000000044006FBE
:10216200000000004400630000000044006700001B
:102172000000440028000000004400490000000064
:1021820044004E00000000440053000000004400E0
:1021920058000000004400340000000044003800F1
:1021A20000000044003E0000000042003C000042EB
:1021B200004200004200040000420006000042000B
:0321C20008000012
:10134100900044E0FCA3E0FDE4120BDFE4FBFAF9BA
:1013510078C31208B9E4FBFAF978401209AA120C11
:1013610018900004EEF0A3EFF0C3E49532FDE4958C
:1013710031FCC3ED9FFBEC9EFA90004DE0FF3395ED
:10138100E0FE7C007D05120D21EF2BFDEE3AFC12F3
:101391000BDF900034120E2AD3900001E0941490D8
:1013A1000000E0940090005D4024E0FCA3E0FDA378
:1013B100E0FEA3E0FF900034E0F8A3E0F9A3E0FA37
:1013C100A3E0FB1208B990005D120E2A8007120EED
:1013D1003600000000E4FFFE7D487C4490005DE0A3
:1013E100F8A3E0F9A3E0FAA3E0FB120B50600E4072
:1013F1000C90005D120E36444800008024E4FFFE8C
:101401007D487CC490005DE0F8A3E0F9A3E0FAA375
:10141100E0FB120B50500A90005D120E36C44800DA
:1014210000900034E0FCA3E0FDA3E0FEA3E0FF1286
:101431000C18EC120BDAE4FBFA794078411209AA94
:10144100120C187810120E1E90005DE0FCA3E0FD56
:10145100A3E0FEA3E0FF120C18E47B5C7A0FF9F81D
:10146100120D49780F120DA6780C120E1E7816E691
:10147100FC08E6FDEC120BDF90000EE0F8A3E0F9AA
:10148100A3E0FAA3E0FB1208B9E4FBFAF9784012F1
:101491000AB37B667A6679A678401209AA120C18FB
:1014A1007808120E1E780C120DCD7810120DF5EB86
:1014B1002FFFEA3EFEE93DFDE83CFC7808120DF500
:1014C100EF2BFFEE3AFEED39FDEC38FCEF2405FF82
:1014D100E43EFEE43DFDE43CFCE47B0AFAF9F8124B
:1014E1002C9DEC120BDA8F388E378D368C359000AF
:1014F10034E0FCA3E0FDA3E0FEA3E0FF900049126D
:101501000E2A7816E6FC08E6FDEC120BDFA804A90A
:1015110005AA06AB07AF38AE37AD36AC351208B504
:10152100120C1890003CEEF0A3EFF0D3900001E014
:101531009414900000E0940090006B4032E0F8A316
:10154100E0F9A3E0FAA3E0FBC000C001C002C003C0
:1015510090003CE0FCA3E0FDEC120BDFD003D002D5
:10156100D001D0001208B990006B120E2A80071228
:101571000E3600000000E4FFFE7D487C4490006BC5
:10158100E0F8A3E0F9A3E0FAA3E0FB120B50600E30
:10159100400C90006B120E36444800008024E4FF9A
:1015A100FE7D487CC490006BE0F8A3E0F9A3E0FA6B
:1015B100A3E0FB120B50500A90006B120E36C44888
:1015C100000090003CE0FEA3E0FFEE3395E0FDFC5F
:1015D100E47BAE7A27F9F8120D49780F120DA6783F
:1015E10010120E1E90006BE0FCA3E0FDA3E0FEA331
:1015F100E0FF120C18E47B897A01F9F8120D4978A1
:101601000F120DA6780C120E1E90003CE0FEA3E016
:10161100FFEE3395E0FDFC120BDA900053E0F8A3E6
:10162100E0F9A3E0FAA3E0FB1208B57B9A7A997975
:101631008978401209AA120C187808120E1E780C2B
:10164100120DCD7810120DF5EB2FFFEA3EFEE93DAC
:10165100FDE83CFC7808120DF5EF2BFFEE3AFEEDAC
:1016610039FDEC38FC120BDA8F388E378D368C351C
:1016710090003CE0FCA3E0FDEC120BDF9000531264
:101681000E2AE4FFFE7D7A7C44AB38AA37A936A83E
:1016910035120B50600D400BE4F538F53775367A8D
:1016A100753544E4FFFE7D7A7CC4AB38AA37A93690
:1016B100A835120B50500BE4F538F53775367A75AD
:1016C10035C4AF38AE37AD36AC35120C1890002C9E
:1016D100EEF0A3EFF0AF38AE37AD36AC35120BC933
:1016E100120C1890002EEEF0A3EFF0AF38AE37AD2C
:1016F10036AC35120C18900032EEF0A3EFF0AF3893
:10170100AE37AD36AC35120BC9120C18900030EE65
:05171100F0A3EFF0223F
:100F3500900024E0FCA3E0FDE4120BDFE4FBFAF9EA
:100F450078C31208B9E4FBFAF978401209AA120C21
:100F550018900006EEF0A3EFF0C3E49534FDE49598
:100F650033FCC3ED9FFBEC9EFA900052E0FF3395F6
:100F7500E0FE7C007D05120D21C3EB9FFDEA9EFC82
:100F8500120BDF900038120E2AD3900001E0941462
:100F9500900000E094009000634024E0FCA3E0FD95
:100FA500A3E0FEA3E0FF900038E0F8A3E0F9A3E09A
:100FB500FAA3E0FB1208B9900063120E2A8007120B
:100FC5000E3600000000E4FFFE7D487C449000637F
:100FD500E0F8A3E0F9A3E0FAA3E0FB120B50600EE2
:100FE500400C900063120E36444800008024E4FF54
:100FF500FE7D487CC4900063E0F8A3E0F9A3E0FA25
:10100500A3E0FB120B50500A900063120E36C44841
:101015000000900038E0FCA3E0FDA3E0FEA3E0FFA4
:10102500120C18EC120BDAE4FBFA7940784112093C
:10103500AA120C187810120E1E900063E0FCA3E0B3
:10104500FDA3E0FEA3E0FF120C18E47B5C7A0FF928
:10105500F8120D49780F120DA6780C120E1E781491
:10106500E6FC08E6FDEC120BDF90000AE0F8A3E0D1
:10107500F9A3E0FAA3E0FB1208B9E4FBFAF978401A
:10108500120AB37B667A6679A678401209AA120C11
:10109500187808120E1E780C120DCD7810120DF569
:1010A500EB2FFFEA3EFEE93DFDE83CFC7808120D1A
:1010B500F5EF2BFFEE3AFEED39FDEC38FCEF24059C
:1010C500FFE43EFEE43DFDE43CFCE47B0AFAF9F86E
:1010D500122C9DEC120BDA8F388E378D368C3590AD
:1010E5000038E0FCA3E0FDA3E0FEA3E0FF90004E86
:1010F500120E2A7814E6FC08E6FDEC120BDFA804B4
:10110500A905AA06AB07AF38AE37AD36AC35120820
:10111500B5120C18900042EEF0A3EFF0D390000149
:10112500E09414900000E0940090006F4032E0F8E5
:10113500A3E0F9A3E0FAA3E0FBC000C001C002C030
:1011450003900042E0FCA3E0FDEC120BDFD003D0DE
:1011550002D001D0001208B990006F120E2A800744
:10116500120E3600000000E4FFFE7D487C4490002E
:101175006FE0F8A3E0F9A3E0FAA3E0FB120B5060DF
:101185000E400C90006F120E36444800008024E497
:10119500FFFE7D487CC490006FE0F8A3E0F9A3E072
:1011A500FAA3E0FB120B50500A90006F120E36C4E2
:1011B500480000900042E0FEA3E0FFEE3395E0FD1D
:1011C500FCE47BAE7A27F9F8120D49780F120DA6CB
:1011D5007810120E1E90006FE0FCA3E0FDA3E0FE68
:1011E500A3E0FF120C18E47B897A01F9F8120D4986
:1011F500780F120DA6780C120E1E900042E0FEA389
:10120500E0FFEE3395E0FDFC120BDA900058E0F8B4
:10121500A3E0F9A3E0FAA3E0FB1208B57B9A7A995B
:10122500798978401209AA120C187808120E1E78CE
:101235000C120DCD7810120DF5EB2FFFEA3EFEE9ED
:101245003DFDE83CFC7808120DF5EF2BFFEE3AFE6C
:10125500ED39FDEC38FC120BDA8F388E378D368C74
:1012650035900042E0FCA3E0FDEC120BDF90005846
:10127500120E2AE4FFFE7D7A7C44AB38AA37A936E4
:10128500A835120B50600D400BE4F538F53775366F
:101295007A753544E4FFFE7D7A7CC4AB38AA37A95C
:1012A50036A835120B50500BE4F538F53775367AFC
:1012B5007535C490002CE0FCA3E0FDEC120BDFAB10
:1012C50038AA37A936A8351208B9120C1890002C7F
:1012D500EEF0A3EFF090002EE0FCA3E0FDEC120B86
:1012E500DFAB38AA37A936A8351208B9120C189001
:1012F500002EEEF0A3EFF0900032E0FCA3E0FDEC51
:10130500120BDFAB38AA37A936A8351208B5120C6F
:1013150018900032EEF0A3EFF0900030E0FCA3E06F
:10132500FDEC120BDFAB38AA37A936A8351208B584
:0C133500120C18900030EEF0A3EFF02234
:10171600900061E0FCA3E0FDE4120BDFE4FBFAF9C4
:1017260078C31208B9E4FBFA798278421209AAC092
:1017360004C005C006C0077818E6FE08E6FFC3E445
:101746009FFDE49EFC120BDFD003D002D001D00037
:101756001208B9C004C005C006C007900057E0FFD4
:101766003395E0FE7C007D14120D21AC06AD07EC2E
:10177600120BDFD003D002D001D0001208B9120C30
:1017860018900008EEF0A3EFF0D3900001E0941457
:10179600900000E094009000674032E0F8A3E0F982
:1017A600A3E0FAA3E0FBC000C001C002C0039000A2
:1017B60008E0FCA3E0FDEC120BDFD003D002D00161
:1017C600D0001208B9900067120E2A8007120E3652
:1017D600000000007F007E507D437C47900067E05C
:1017E600F8A3E0F9A3E0FAA3E0FB120B50600E4069
:1017F6000C900067120E364743500080257F007E0E
:10180600507D437CC7900067E0F8A3E0F9A3E0FAB7
:10181600A3E0FB120B50500A900067120E36C74326
:101826005000900008E0FEA3E0FFEE3395E0FDFCDB
:10183600120BDAE4FBFA79A078401209AA120C1806
:101846007810120E1E900067E0FCA3E0FDA3E0FEF8
:10185600A3E0FF120C18E47BB87A1EF9F8120D49C2
:10186600780F120DA6780C120E1E900008E0FEA34B
:10187600E0FFEE3395E0FDFC120BDA900028E0F86D
:10188600A3E0F9A3E0FAA3E0FB1208B5E4FBFA79BA
:101896008078401209AA120C187808120E1E780CCD
:1018A600120DCD7810120DF5EB2FFFEA3EFEE93D45
:1018B600FDE83CFC7808120DF5EF2BFFEE3AFEED45
:1018C60039FDEC38FC7806120DA6EC120BDA8F38CF
:1018D6008E378D368C35900008E0FCA3E0FDEC12C7
:1018E6000BDF900028120E2A90002CE0FCA3E0FDEE
:1018F600EC120BDFAB38AA37A936A8351208B91295
:101906000C1890002CEEF0A3EFF090002EE0FCA354
:10191600E0FDEC120BDFAB38AA37A936A835120862
:10192600B5120C1890002EEEF0A3EFF0900032E006
:10193600FCA3E0FDEC120BDFAB38AA37A936A835BD
:101946001208B5120C18900032EEF0A3EFF09000DA
:1019560030E0FCA3E0FDEC120BDFAB38AA37A9366A
:10196600A8351208B9120C18900030EEF0A3EFF06B
:01197600224E
:102C4A00E5322484FFE5313403FED3EF94B0EE6419
:102C5A008094844002802FC3EF94F4EE64809481C0
:102C6A0050028022E5342484FFE5333403FED3EF97
:102C7A0094B0EE648094844002800BC3EF94F4EE27
:102C8A0064809481500AC281E4900000F0A3F0228B
:032C9A00D28122C2
:1025360090002CE0FEA3E0FF900000E0FCA3E0FD8D
:102546002FFFEC3EFE900016F0A3EFF0D394E8EEDA
:1025560064809483400C9000167403F0A374E8F032
:10256600800FC3900016E0648094805004E4F0A3CA
:10257600F090002EE0FEA3E02DFFEC3EFE90001A48
:10258600F0A3EFF0D394E8EE64809483400C9000BF
:102596001A7403F0A374E8F0800FC390001AE06485
:1025A6008094805004E4F0A3F0900030E0FEA3E0B5
:1025B600FF900000E0FCA3E0FD2FFFEC3EFE900044
:1025C6001CF0A3EFF0D394E8EE64809483400C9063
:1025D600001C7403F0A374E8F0800FC390001CE0A5
:1025E600648094805004E4F0A3F0900032E0FEA3EF
:1025F600E02DFFEC3EFE90001EF0A3EFF0D394E832
:10260600EE64809483400B90001E7403F0A374E87C
:10261600F022C390001EE0648094805004E4F0A38E
:02262600F022A0
:10271700900003E0FF90005CE0B50749900046E0B9
:1027270004F0C3941450030227CB7413F090006194
:10273700E4F0A37480F0900044E4F0A37480F09078
:102747000024E4F0A37480F0D3900001E094149087
:102757000000E09400406DA3E024FFF0900000E04B
:1027670034FFF0805FE4900046F0900026E0FEA37F
:10277700E0FFC394E9EE9403400C9000267403F045
:10278700A374E8F0803ED3EF9432EE940040269095
:102797000027E0242CFD900026E03401FCE4120B16
:1027A700DF7B667A6679A6783F120AB3120C189017
:1027B7000000EE800B900026E0FFA3E0900000CF22
:1027C700F0A3EFF090005CE0900003F0900026E0AB
:0C27D700FFA3E0900000CFF0A3EFF02281
:092EB3002002FDEFD202F5992284
:102D56009000A7EBF0A3EAF0A3E9F09000A7E0FB50
:102D6600A3E0FAA3E0F9120CE660179000A7A3E42B
:102D760075F001120D33A9F0FA120CE6FF122EB30C
:032D860080D922CF
:102E610075985075D7CC75D6FF438E14438E0122C9
:1008B200020C84E86480F8E933E83360110460F0E4
:1008C200ED33EC337009E8FCE9FDEAFEEBFF2204AC
:1008D20060DED3EB9FEA9EE99DE8C2E78CF0C2F7A7
:1008E20095F0400CE8CCF8E9CDF9EACEFAEBCFFB73
:1008F200120C4F85D0F05804700320D5B3E8047071
:10090200075002B2D5020C8E92D5EC0460F7E4CC0B
:10091200C0E0C398F8603B94186008400DD0E0FB3B
:10092200020C66E4FBFAC9FC8028E830E406E4C95C
:10093200FBE4CAFCE830E305E4C9CACBFCE854078F
:100942006010F8C3E913F9EA13FAEB13FBEC13FC9A
:10095200D8F130F52FC3E49CFCEF9BFFEE9AFEED3D
:1009620099FDD0E0FBEF4E4D4C701222DB03020CDE
:100972008BEC2CFCEF33FFEE33FEED33FDED30E775
:10098200EB020C66EF2BFFEE3AFEED39FDD0E0FBF9
:1009920050130BBB0003020C8EED13FDEE13FEEFA2
:0809A20013FFEC13FC020C66CC
:1009AA00EC4D6011E8497017ED33EC3304600DE447
:1009BA00FCFFFEFD22E933E8330470F8020C8412CE
:1009CA000C4F58046009E4CC2481500628500902CF
:1009DA000C8E284003020C8BC0E0EB4A7044B980AD
:1009EA0006D0E0FB020C7AEF4E701CBD8008EBFFCC
:1009FA00EAFEE9FD80EBE98DF0A4FEE5F0020A9338
:100A0A00E9CDF9EAFEEBFFEF89F0A4FCE5F0CE8927
:100A1A00F0A42EFFE435F0CD89F0A42DFEE435F0E4
:100A2A008067EF4E7005BD80D780C3EF8BF0A4AC12
:100A3A00F0EE8BF0A42CFCE435F0F8EF8AF0A42C4D
:100A4A00E5F038FCE433CB8DF0A42CFCE5F03BF860
:100A5A00EE8AF0A42CFCE5F038F8E433CF89F0A450
:100A6A002CFCE5F038CF3400CE89F0A42FFFE5F056
:100A7A003EFEE433C98DF0A42EFEE5F039CD8AF0AE
:100A8A00A42FFFE5F03EFEE43DFD33D0E0FB500726
:100A9A000BBB000F020C8EEC2CFCEF33FFEE33FE87
:060AAA00ED33FD020C66B5
:100AB000020C8EEC5D046005E859047003020C849E
:100AC000120C4F580460F6EC4860F2EC7004FDFE26
:100AD000FF22C860DB2481C85009C3986002500619
:100AE000020C8B9850CAF582E9294B4A7005AB82FB
:100AF000020C7A75F0007C1A7880C3EF9BEE9AEDB9
:100B000099400DC3EF9BFFEE9AFEED99FDE842F090
:100B1000DC23ACF0D0E0FFD0E0FED0E0FDAB8220E3
:100B2000E7101BEB60BAEC2CFCEF33FFEE33FEED6D
:100B300033FD020C66E803F830E705C0F075F000FD
:100B4000EF2FFFEE33FEED33FD40B830E7C280AA51
:100B500074F8CC6480CCC86480C8F58204604FC34C
:100B6000EB9FF5F0EA9E42F0E99D42F0E89C45F0EB
:100B7000603C501DE5825FFFE582D313CB5BCBF475
:100B80002B5582FB50280ABA002409B9002008809E
:100B90001DE5825BFBE582D313CF5FCFF4C3132F38
:100BA0005582FF50090EBE00050DBD00010CC3EBC0
:100BB0009FF5F0EA9E42F0E99D42F0E89C45F06026
:090BC00007CC4820E701B3EC2248
:100BC900ED33EC33600A047003BD8004ECB2E7FC3A
:010BD90022F9
:100BDA0075F020800E75F010800575F0087D007E96
:100BEA00007F003392D530D503120D98EC334010B4
:100BFA00EF33FFEE33FEED33FDEC33FCD5F0ED229F
:0E0C0A00E5F0247EA2D513CC92E7CDCEFF22DA
:100C1800EDD2E7CD33EC3392D524814006E4FFFED4
:100C2800FDFC22FCE4CFCECDCC24E0501174FF8033
:100C3800EDC3CC13CCCD13CDCE13CECF13CF0470D0
:070C4800F030D5DE020D982B
:10293700900097120E2A90009BE0F8A3E0F9A3E01D
:10294700FAA3E0FB900097E0FCA3E0FDA3E0FEA361
:10295700E0FF120AB3122313900097120E2A900079
:102967009BE030E759900097E0FCA3E0FDA3E0FE71
:10297700A3E0FFECC0E0EDC0E0EEC0E0EFC0E0E4B4
:10298700FFFEFDFC900097E0F8A3E0F9A3E0FAA3AF
:10299700E0FB120B507BDB600250087A0F79497815
:1029A7004080067A0F794978C0D0E0FFD0E0FED0AA
:1029B700E0FDD0E0FC1208B9900097120E2A9000B3
:0D29C70097E0FCA3E0FDA3E0FEA3E0FF22EB
:102CE100ECC0E0F8EDC0E0F9EEC0E0FAEFC0E0FBC7
:102CF1001209AAEC6480FC7B007A007980783F128B
:102D010008B91227E7D0E0CFFBD0E0CEFAD0E0CD72
:0B2D1100F9D0E0CCF8120AB302231343
:100C4F00E9D2E7C933E833F892D5EDD2E7CD33ECEB
:070C5F0033FC5002B2D52264
:100C6600EC30E7100FBF000C0EBE00080DBD0004EF
:100C76000BEB6014A2D5EB13FCED92E7FD2274FF9B
:100C8600FCFDFEFF22E480F8A2D574FF13FC7D80F4
:030C9600E480EF08
:1027E300020C8422EDA2E7D2E7F9EC3340F260F366
:1027F300B4FF08ED547F70E8020C8EF82481C2E028
:10280300C0E0F40428FAC313FCED92E7FD900097AF
:10281300120E2AEEA2E7E9BA7F02C3133400940032
:10282300FA75F091A4E5F013F494FE8AF0A433E56D
:10283300F033248CD313FDE492E7FE7F007C3F75D5
:102843008302ECC0E0F8EDC0E0F9EEC0E0FAEFC0BF
:10285300E0FB8583F0900097120DD985F083120A6F
:10286300B3D0E0FBD0E0FAD0E0F9D0E0F81208B939
:10287300ED6480FD30E7011CD583C7ED33CC33F81D
:0C288300D0E0A2E71328C313CC13FD2201
:1022F300BE1249253E4CCCCDBEAAAAAB3F800000FE
:102303003E7ADBB03EED63383F24BC7D3F490FDBB3
:10231300ED33ECC2E7CC339200B4FF13ED547F608E
:1023230003020C847FDB7E0F7DC97C3F022408C23D
:1023330001C3947F401E7007EDD2E794904015EFE0
:10234300FBEEFAEDF9ECF87F007E007D807C3F1216
:102353000AB3D201ED33EC33248430E705E4C0E063
:10236300806B04FAEDD2E754F0C333DAFD5407343B
:10237300002323C0E0CCC0E0F8EDC0E0F9EEC0E0FC
:10238300FAEFC0E0FBE4120BE4EC24FEFC90009FA8
:10239300120E2A1209AA7B007A007980783F12086C
:1023A300B990009FE0B2E7CCF0A3E0CDF0A3E0CE7C
:1023B300F0A3E0CFF0D0E0FBD0E0FAD0E0F9D0E03A
:1023C300F81208B990009F120E02120AB390009FF0
:1023D300120E2A9022F37403120C9990009F120E8E
:1023E300021209AAD0E0600F24FFF582E43422F53B
:1023F30083120E0E1208B930010B7BDB7A0F79C9F9
:1024030078BF1208B9ED33EC336006ECA20092E713
:02241300FC22A9
:100C9900C0E0EFFBEEFAEDF9ECF81209AAD0E0F5A5
:100CA900F0EFFBEEFAEDF9ECF8120DE5A3A3A3A31F
:100CB900E8C0E0E9C0E0EAC0E0EBC0E0C0F012093A
:100CC900AA120E0EA3A3A3A31208B9D0F0D0E0FB79
:0D0CD900D0E0FAD0E0F9D0E0F8D5F0D42258
:030000000229D4FE
:0C29D400787FE4F6D8FD75819C022A1B78
:100CE600BB010689828A83E0225002E722BBFE020C
:090CF600E32289828A83E493223F
:100CFF00F8BB010DE58229F582E5833AF583E8F02B
:100D0F00225006E92582C8F622BBFE05E92582C8D6
:020D1F00F222BE
:100D2100EF8DF0A4A8F0CF8CF0A428CE8DF0A42EE6
:020D3100FE22A0
:100D3300A3F8E0C5F025F0F0E58215827002158373
:060D4300E0C838F0E822D0
:100D4900E88FF0A4CC8BF0A42CFCE98EF0A42CFC49
:100D59008AF0EDA42CFCEA8EF0A4CDA8F08BF0A4C7
:100D69002DCC3825F0FDE98FF0A42CCD35F0FCEB26
:100D79008EF0A4FEA9F0EB8FF0A4CFC5F02ECD39EB
:0F0D8900FEE43CFCEAA42DCE35F0FDE43CFC2258
:102C9D00C2D5E830E70FB2D5E4C39BFBE49AFAE462
:102CAD0099F9E498F8EC30E717B2D5122CD3120E3F
:102CBD00A3E4C39BFBE49AFAE499F9E498F8800342
:102CCD00120EA330D50DE4C39FFFE49EFEE49DFDDF
:042CDD00E49CFC2255
:0E0D9800C3E49FFFE49EFEE49DFDE49CFC226C
:100DA600E86010ECA2E713FCED13FDEE13FEEF1363
:040DB600FFD8F02250
:100DBA00E8600FEFC333FFEE33FEED33FDEC33FC97
:030DCA00D8F1223B
:0C0DCD00E6FC08E6FD08E6FE08E6FF2252
:0C0DD900E0FCA3E0FDA3E0FEA3E0FF228D
:100DE500E493FC740193FD740293FE740393FF2254
:0D0DF500E6FB08E6F908E6FA08E6CBF8226E
:0C0E0200E0F8A3E0F9A3E0FAA3E0FB2273
:100E0E00E493F8740193F9740293FA740393FB223A
:0C0E1E00ECF608EDF608EEF608EFF62200
:0C0E2A00ECF0A3EDF0A3EEF0A3EFF0223B
:100E3600A8828583F0D083D082120E4D120E4D12F9
:100E46000E4D120E4DE473E493A3C583C5F0C5831E
:100E5600C8C582C8F0A3C583C5F0C583C8C582C806
:010E66002269
:1029E0000221C6E493A3F8E493A34003F68001F226
:1029F00008DFF48029E493A3F85407240CC8C333F8
:102A0000C4540F4420C8834004F456800146F6DFC6
:102A1000E4800B0102040810204080902096E47EA0
:102A2000019360BCA3FF543F30E509541FFEE493BB
:102A3000A360010ECF54C025E060A840B8E493A382
:102A4000FAE493A3F8E493A3C8C582C8CAC583CAAD
:102A5000F0A3C8C582C8CAC583CADFE9DEE780BE65
:0121C5000019
:100E670075F008758200EF2FFFEE33FECD33CDCC42
:100E770033CCC58233C5829BED9AEC99E5829840C5
:100E87000CF582EE9BFEED9AFDEC99FC0FD5F0D6A2
:100E9700E4CEFBE4CDFAE4CCF9A88222B800C1B9CC
:100EA7000059BA002DEC8BF084CFCECDFCE5F0CB0A
:100EB700F97818EF2FFFEE33FEED33FDEC33FCEB43
:100EC70033FB10D703994004EB99FB0FD8E5E4F9FE
:100ED700FA227818EF2FFFEE33FEED33FDEC33FCEB
:100EE700C933C910D7059BE99A4007EC9BFCE99ADF
:100EF700F90FD8E0E4C9FAE4CCFB2275F010EF2F24
:100F0700FFEE33FEED33FDCC33CCC833C810D70723
:100F17009BEC9AE899400AED9BFDEC9AFCE899F85E
:0E0F27000FD5F0DAE4CDFBE4CCFAE4C8F922F1
:00000001FF
