:0E42D60055617274205465737420210D0A0026
:102B8A00E490025DF0123A5C9002647403F0A3745C
:102B9A00E8F0FB7A03FD7C03FF7E03124160C281E9
:102BAA00D2821241CFD281C2821241CFD281D28245
:102BBA00C2831241D1D281D282D2837F0A7E00128D
:102BCA0041D57F0A7E001241D51241F57F0A7E0067
:102BDA001241D51234CF7F647E001241D51242A32E
:102BEA0090026212081D016E36007F007EC27D01CE
:102BFA007C00123D4E7F647E001241D5E49001ECC8
:102C0A00F0A3F0900223F0A37480F0900206E4F09F
:102C1A00A37480F09001EAE4F0A37480F0C283E424
:102C2A0090020FF0900214F0900219F0D2ACD2AFD9
:102C3A007BFF7A4279D612419A7B007A00793990E1
:102C4A000263E543F07D0A7C00123EA4EF4E600366
:102C5A00022D0290021EE065396045E490025DF0A3
:102C6A0090025DE0FFC3940A502874392FF8E654A5
:102C7A00F0C4540FFF7D0112425590025DE02439E1
:102C8A00F8E6540FFF7D0112425590025DE004F010
:102C9A0080CEE4FD7F0D124255E4FD7F0A124255B3
:102CAA0090021EE539F09001C2E53AF0E53B75F075
:102CBA00FFA47C00253CFEEC35F09001ECF0A3CE9D
:102CCA00F0900223E4F0A3E53DF0900206E4F0A3BD
:102CDA00E53EF09001EAE4F0A3E53FF0E540248008
:102CEA0090020FF0E5412480900214F0E54224801E
:102CFA00900219F0D2828002C2829001C2E0FFB42F
:102D0A000102D283EFB40502C2837F037E0012411F
:042D1A00D5022C436F
:1042A300538E7F5389F0758A40758CA2C28DD28C50
:0342B300D2A9226B
:0641CF00D2837FF47E01A3
:1041D500E4FDFCC3ED9FEC9E5015E4FBFA0BBB0020
:0F41E500010AEB64FA4A70F50DBD00010C80E48D
:0141F40022A8
:03000B000222B519
:1022B500C0E0C0F0C083C082C0D075D000C000C0EF
:1022C50001C002C003C004C005C006C007124271A8
:1022D5007B007A0079397D0F1240397B007A0079CD
:1022E50021123F10900200E4F0A3F07B017A0179FE
:1022F500E090023A7419F0A37499F0A37466F0A300
:10230500F0A3E4F0AD22AC211227ABEE900200F071
:10231500EFA3F07B017A0179E290023A7419F0A3F8
:102325007499F0A37466F0A3F0A37401F0AD24AC26
:10233500231227AB900200E04EF0A3E04FF07B01A3
:102345007A0179E490023A7419F0A37499F0A374B0
:1023550066F0A3F0A37402F0AD26AC251227AB906E
:102365000200E04EFEA3E04FFF900200EEF0A3EF67
:10237500F04E600302252FAC29AD2AEC120353E47D
:10238500FBFA7983784212022712038C7814A60689
:1023950008A607AC2BAD2CEC120353E4FBFA7983AA
:1023A500784212022712038C7816A60608A607742F
:1023B50066FBFA7D997C19AF2EAE2D12314E781839
:1023C500EEF608EFF6FDAC06EC120353E4FBFA79E2
:1023D5008378421202279001E61208117814E6FC70
:1023E50008E6FDEC1203539001D01208117816E6A9
:1023F500FC08E6FDEC1203539001D4120811781481
:10240500E6FC08E6FDEC1203537B397AFA798E78FF
:102415003C12011EC004C005C006C0077816E6FCC4
:1024250008E6FDEC1203537B397AFA798E783C1273
:10243500011E9002391208117F397EFA7D8E7C3C8F
:102445009001E6E0F8A3E0F9A3E0FAA3E0FB1201AE
:102455001E90023D1208119001E0E0FCA3E0FDECA6
:102465001203539002411208119001E2E0FCA3E02F
:10247500FDEC1203539002451208119001E4E0FCB3
:10248500A3E0FDEC120353900249120811D007D0C6
:1024950006D005D0041208C81238E412408E12196D
:1024A5005512115412254A1237039001C2E06405F2
:1024B5007062C39001C1E094329001C0E094004085
:1024C500539001DAE0FEA3E0FF74E89FFF74039EDA
:1024D500FEC006C0079001DCE0FEA3E0FFC374E880
:1024E5009FFD74039EFC9001DEE0FEA3E0FFC37434
:1024F500E89FFB74039EFA9001D8E0FEA3E0FFC3BA
:1025050074E89F900265F074039E900264F0D00712
:10251500D00680139002647403F0A374E8F0FB7A8C
:1025250003FD7C03FF7E03124160D007D006D00572
:10253500D004D003D002D001D000D0D0D082D08337
:05254500D0F0D0E032EF
:030023000242395D
:10423900C0D030980BC298859980A29A92A280F238
:0C424900309906C299C20280F7D0D03232
:103A5C00E4F594F593F592F591F596F595F5B2F5A7
:103A6C00B1F5B4F5B3F5CAF5C9F5CCF5CBF5E2F57E
:103A7C00E175960EF59575B280F5B175BA8075F154
:103A8C00B090FFF27410F0E4F5F6F5F790FFF074D7
:103A9C0003F0A374E9F090FF04E4F090FF14F090AD
:103AAC00FF24F090FF34F090FF007403F0A374E84F
:103ABC00F0A37403F0A374E9F090FF107403F0A367
:103ACC0074E8F0A37403F0A374E9F090FF2074037E
:103ADC00F0A374E8F0A37403F0A374E9F090FF3042
:103AEC007403F0A374E8F0A37403F0A374E9F07505
:083AFC00F58F90FFF2E4F022C7
:1041600090025EEEF0A3EFF090025EE090FF00F0B0
:1041700090025EA3E090FF01F0EC90FF10F0A3ED41
:10418000F0EA90FF20F0A3EBF0900264E0FCA3E0E3
:0A419000FDEC90FF30F0A3EDF022EB
:1042B600D3EF9400EE94004007EF1F70F31E80F0DA
:0142C60022D5
:043FD7007B01E4FD89
:073FDB0090025EEFF0A90562
:103FE200C291E4FFFE90025EE0FD339293D295C24D
:103FF20095ED25E0F00FBF00010EEF64084E70E56D
:10400200E4FEFFE9339293D295C295E925E0F90FD8
:10401200BF00010EEF64084E70E9E4FEFFEB33923D
:1040220093D295C295EB25E0FB0FBF00010EEF6422
:06403200084E70E9D29176
:014038002265
:103F7400C29174802FFFE4FBFAEF339293D295C27F
:103F840095EF25E0FF0BBB00010AEB64084A70E9DA
:103F9400E4FAFBD295C2959002EAE025E0FFF0A294
:103FA40094E4334FF00BBB00010AEB64084A70E35E
:103FB400E4FAFBD295C2959002EBE025E0FFF0A273
:103FC40094E4334FF00BBB00010AEB64084A70E33E
:023FD400D29188
:013FD60022C8
:1034CF00C2927FF47E011242B6D2927FF47E011235
:1034DF0042B6D2B27BEF7D6FE4FF123FDB7B817D83
:1034EF00567F01123FDB7B177D667F02123FDB7B2E
:1034FF00C97D9C7F04123FDB7B377D667F05123FC2
:10350F00DBE4FBFD7F07123FDB7B907D6C7F0812B6
:10351F003FDBE4FB7D487F09123FDB7BFD7D7F7F37
:10352F000A123FDB7B08E4FD7F0B123FDBE4FBFD60
:10353F007F0C123FDB7BBD7D487F0D123FDB7BFF96
:10354F00E4FD7F16123FDB7B057D807F17123FDB8B
:10355F007B67E4FD7F18123FDB7B597D167F1912C5
:10356F003FDB7BE07D197F1A123FDBE4FB7D137F8E
:10357F001B123FDBE4FB7D187F1C123FDBE4FB7D5E
:10358F00587F20123FDB7BC77D3F7F21123FDBE45B
:10359F00FB7D207F22123FDBE4FB7D0A7F23123F5E
:1035AF00DB7F24123FD77F25123FD77B01E4FD7FBE
:1035BF0026123FDB7B01E4FD7F27123FDB7B027D81
:1035CF00447F28123FDBE4FB7DB87F29123FDB7B72
:1035DF00FF7DFD7F2A123FDB7B0FE4FD7F2B023F38
:0135EF00DB00
:104271007B807D807F34123FDB7BA0E4FD7F0712D2
:094281003FDB7FC87E000242B65B
:0B403900900235EBF0A3EAF0A3E9F0E1
:10404400E4FE7F32123F749002EAE06D703BA3E01D
:104054007037EEC39D50327F32123F749002EAE013
:10406400FF900235E0FBA3E0FAA3E0F9AC060E8C66
:1040740082758300EF12048D9002EBE0AC060E8C87
:094084008275830012048D80C9CD
:01408D002210
:103EA40090025EEBF0A3EAF0A3E9F0A3ECF0A3ED3B
:013EB400F01D
:103EB500E4FFFE900264F0D3900262E09FEE64801E
:103EC500F8900261E0648098402190025EE0FBA3D7
:103ED500E475F0011204F7A9F0FA120474FD9002DA
:103EE50064E02DF00FBF00010E80CC900264E0FD70
:103EF500900263E0B50504E4FEFF22ED6008900240
:0A3F050064E0FF7E00227EFF7FFFD4
:013F0F00228F
:1029BC0004653F800000046900000000046D000005
:1029CC000000047100000000045900000000045DC8
:1029DC00000000000461000000000475000000000D
:0C29EC00047900000000047D00000000E1
:0608C80090023512081138
:1008CE00900245E0FCA3E0FDA3E0FEA3E0FF900252
:1008DE0045E0F8A3E0F9A3E0FAA3E0FB12011EC085
:1008EE0004C005C006C007900241E0FCA3E0FDA3D2
:1008FE00E0FEA3E0FFA804A905AA06FB12011ED084
:10090E0003D002D001D00012002DC004C005C006D5
:10091E00C007900249E0FCA3E0FDA3E0FEA3E0FFC8
:10092E00A804A905AA06FB12011ED003D002D0010D
:10093E00D00012002D1237F5788112080590024171
:10094E00E0FCA3E0FDA3E0FEA3E0FF78811207AC7C
:10095E0012011E900241120811900245E0FCA3E024
:10096E00FDA3E0FEA3E0FF78811207AC12011E90FA
:10097E000245120811900249E0FCA3E0FDA3E0FE3F
:10098E00A3E0FF78811207AC12011E9002491208F3
:10099E0011786D12078478651207AC12011EC0041F
:1009AE00C005C006C007787112078478691207ACBB
:1009BE0012011ED003D002D001D000120029E4FB98
:1009CE00FAF9784012011E7885120805787112071F
:1009DE0084786D1207AC12011EC004C005C006C09B
:1009EE0007786912078478651207AC12011ED003CE
:1009FE00D002D001D00012002DE4FBFAF97840129B
:100A0E00011E788912080578691207847869120721
:100A1E00AC12011EC004C005C006C00778651207DF
:100A2E008478651207AC12011ED003D002D001D01B
:100A3E0000120029C004C005C006C007786D120759
:100A4E0084786D1207AC12011EA804A905AA06AB84
:100A5E0007D007D006D005D004120029C004C00567
:100A6E00C006C007787112078478711207AC1201A4
:100A7E001ED003D002D001D00012002D788D1208A6
:100A8E00057889120784900249E0F8A3E0F9A3E003
:100A9E00FAA3E0FB12011EC004C005C006C0077811
:100AAE008D120784900245E0F8A3E0F9A3E0FAA3C3
:100ABE00E0FB12011ED003D002D001D0001200299B
:100ACE007891120805788D120784900241E0F8A300
:100ADE00E0F9A3E0FAA3E0FB12011EC004C005C0BA
:100AEE0006C0077885120784900249E0F8A3E0F962
:100AFE00A3E0FAA3E0FB12011ED003D002D001D076
:100B0E000012002978951208057885120784900244
:100B1E0045E0F8A3E0F9A3E0FAA3E0FB12011EC042
:100B2E0004C005C006C0077889120784900241E010
:100B3E00F8A3E0F9A3E0FAA3E0FB12011ED003D064
:100B4E0002D001D0001200297899120805785912A6
:100B5E0007ACC000C001C002C0037F6F7E127D8350
:100B6E007C3A78911207AC12011ED003D002D0014C
:100B7E00D00012002D7859120805785D1207ACC00E
:100B8E0000C001C002C0037F6F7E127D837C3A7865
:100B9E00951207AC12011ED003D002D001D0001264
:100BAE00002D785D12080578611207ACC000C001F7
:100BBE00C002C0037F6F7E127D837C3A7899120744
:100BCE00AC12011ED003D002D001D00012002D783D
:100BDE0061120805784D1207ACC000789112078497
:100BEE00D000120029787512080578511207ACC092
:100BFE00007895120784D000120029787912080522
:100C0E0078551207ACC0007899120784D0001200F4
:100C1E0029787D1208057891120784784D120805FF
:100C2E0078951207847851120805789912078478FE
:100C3E0055120805E4FFFEFD7C4078911207AC12B8
:100C4E00011E900235E0F8A3E0F9A3E0FAA3E0FB61
:100C5E0012002D78591207AC12002DC004C005C029
:100C6E0006C0077F6F7E127D837C3A78751207ACC3
:100C7E0012011ED003D002D001D00012002D90021E
:100C8E0035120811E4FFFEFD7C4078951207AC1278
:100C9E00011E900239E0F8A3E0F9A3E0FAA3E0FB0D
:100CAE0012002D785D1207AC12002DC004C005C0D5
:100CBE0006C0077F6F7E127D837C3A78791207AC6F
:100CCE0012011ED003D002D001D00012002D9002CE
:100CDE0039120811E4FFFEFD7C4078991207AC1220
:100CEE00011E90023DE0F8A3E0F9A3E0FAA3E0FBB9
:100CFE0012002D78611207AC12002DC004C005C081
:100D0E0006C0077F6F7E127D837C3A787D1207AC1A
:100D1E0012011ED003D002D001D00012002D90027D
:100D2E003D12081178651207ACC000C001C002C0A8
:100D3E0003786912078412033D900235E0F8A3E0B0
:100D4E00F9A3E0FAA3E0FB12011EC004C005C00621
:100D5E00C007900239E0FCA3E0FDA3E0FEA3E0FF94
:100D6E00786D1207AC12011EA804A905AA06AB07DE
:100D7E00D007D006D005D004120029C004C005C08B
:100D8E0006C00790023DE0FCA3E0FDA3E0FEA3E059
:100D9E00FF78711207AC12011EA804A905AA06ABB2
:100DAE0007D007D006D005D0041200297B0A7AD7C7
:100DBE0079A3783B12011ED003D002D001D00012CD
:100DCE00002D786512080578691207ACC000C001C5
:100DDE00C002C00390023DE0FCA3E0FDA3E0FEA331
:100DEE00E0FF786D1207AC12011EC004C005C006EC
:100DFE00C007900235E0FCA3E0FDA3E0FEA3E0FFF8
:100E0E0078651207AC12011ED003D002D001D000BB
:100E1E0012002DC004C005C006C007900239E0FCC8
:100E2E00A3E0FDA3E0FEA3E0FF78711207AC120170
:100E3E001EA804A905AA06AB07D007D006D005D078
:100E4E00041200297B0A7AD779A3783B12011ED0AF
:100E5E0003D002D001D00012002D78691208057857
:100E6E006D1207ACC000C001C002C00390023DE08D
:100E7E00FCA3E0FDA3E0FEA3E0FF78691207AC122D
:100E8E00011EC004C005C006C007900239E0FCA3D5
:100E9E00E0FDA3E0FEA3E0FF78651207AC12011E91
:100EAE00D003D002D001D000120029C004C005C06A
:100EBE0006C007900235E0FCA3E0FDA3E0FEA3E030
:100ECE00FF78711207AC12011ED003D002D001D0F0
:100EDE000012002D7B0A7AD779A3783B12011ED01F
:100EEE0003D002D001D00012002D786D12080578C3
:100EFE00711207ACC000C001C002C003900239E0FD
:100F0E00FCA3E0FDA3E0FEA3E0FF78691207AC129C
:100F1E00011EC004C005C006C00790023DE0FCA340
:100F2E00E0FDA3E0FEA3E0FF78651207AC12011E00
:100F3E00D003D002D001D00012002DC004C005C0D5
:100F4E0006C007900235E0FCA3E0FDA3E0FEA3E09F
:100F5E00FF786D1207AC12011EA804A905AA06ABF4
:100F6E0007D007D006D005D0041200297B0A7AD705
:100F7E0079A3783B12011ED003D002D001D000120B
:100F8E00002D7871120805786912078478691207A6
:100F9E00AC12011EC004C005C006C007786512075A
:100FAE008478651207AC12011ED003D002D001D096
:100FBE000012002DC004C005C006C007786D1207D0
:100FCE0084786D1207AC12011ED003D002D001D06E
:100FDE000012002DC004C005C006C00778711207AC
:100FEE0084A804A905AA06AB0712011ED003D002DD
:100FFE00D001D00012002D1237F578811208057835
:10100E006512078478811207AC12011E78651208EA
:10101E0005786912078478811207AC12011E78696F
:10102E00120805786D12078478811207AC12011E22
:10103E00786D120805787112078478811207AC1248
:10104E00011E7871120805E4FFFEFD7C40786512E2
:10105E0007AC12011E78691207AC12011EC004C043
:10106E0005C006C007E4FFFEFD7C40786D1207AC9C
:10107E0012011E78711207AC12011ED003D002D0DD
:10108E0001D00012002DC004C005C006C007E4FF49
:10109E00FEFD7C40786D1207AC12011E786D1207B2
:1010AE00AC12011EC004C005C006C007E4FFFEFD61
:1010BE007CC078691207AC12011E78691207AC1257
:1010CE00011ED003D002D001D000120029E4FBFA99
:1010DE007980783F12002D900251120811D007D05E
:1010EE0006D005D004123B047B4D7A3D790F78442F
:1010FE0012011E12038C8E338F347871120784788E
:10110E00691207AC12011EC004C005C006C00778E4
:10111E006D12078478651207AC12011ED003D0023F
:10112E00D001D000120029E4FBFAF9784012011E1A
:10113E001241257B4D7A3D790F784412011E120320
:05114E008C8E318F3290
:011153002279
:0637F50090024D120811C4
:1037FB00E4FFFEFD7C3F90024DE0F8A3E0F9A3E06F
:10380B00FAA3E0FB12011E90025112081190024D17
:10381B00E0FCA3E0FDA3E0FEA3E0FF90025512083D
:10382B0011900255E0FCA3E0FDA3E0FEA3E0FFA393
:10383B00120811900259E0FCA3E0FDA3E0FEA3E007
:10384B00FF78011206CFC374DF9FFF74599EFE747D
:10385B00379DFD745F9CFC90025912081190025920
:10386B00E0FCA3E0FDA3E0FEA3E0FF9002551208ED
:10387B0011900255E0FCA3E0FDA3E0FEA3E0FF9056
:10388B000251E0F8A3E0F9A3E0FAA3E0FB12011E5A
:10389B00900255E0F8A3E0F9A3E0FAA3E0FB1201D4
:1038AB001EA804A905AA06AB07E4FFFE7DC07C3F5A
:1038BB00120029900255E0F8A3E0F9A3E0FAA3E087
:1038CB00FB12011E900255120811900255E0FCA349
:0838DB00E0FDA3E0FEA3E0FF05
:0138E30022C2
:0742F100D2B41242F8C2B47E
:0442F8007F02DFFE64
:0142FC00229F
:0F42C700D2B5D2B41242F8C2B51242F8C2B42234
:0C42FD00C2B5D2B41242F8D2B50242F8A9
:0D42E400D2B41242F8A2B5C2B41242F822C0
:02000E00AE073B
:10001000E4FDEE25E0FE92B51242F10DEDB408F2DA
:030020000242E4B5
:10421800E4FED2B5FDEE25E0FED2B41242F8A2B516
:10422800E4334EFEC2B41242F80DEDB408E7AF060F
:014238002263
:10428A00AC05AB071242C77FD012000EAF03120073
:09429A000EAF0412000E0242FDF9
:1041F500E4FD7F6B12428A7D077F1912428A7D0496
:104205007F1A12428A7D087F1B12428A7D187F1C05
:0342150002428AD8
:0B3F1000900235EBF0A3EAF0A3E9F00B
:103F1B001242C77FD012000E7F3B12000E1242C717
:103F2B007FD112000EE4FC124218900235E0FBA385
:103F3B00E0FAA3E0F98C82758300EF12048DC2B511
:103F4B001242F10CECB40DDF124218900235E0FB7B
:103F5B00A3E0FAA3E0F9AE048E82758300EF12049E
:093F6B008DD2B51242F10242FDB3
:1027AB00900235EBF0A3EAF0A3E9F0A3ECF0A3ED74
:0127BB00F02D
:1027BC0090023EE014602C14604B2402600302294A
:1027CC0099900289E0FFA3E090023FCFF0A3EFF0D5
:1027DC0090023AE0FEA3E0FF90028CE02FFF900203
:1027EC008B804290028DE0FFA3E090023FCFF0A3DC
:1027FC00EFF090023AE0FEA3E0FF900290E02FFF92
:10280C0090028F8020900291E0FFA3E090023FCFD6
:10281C00F0A3EFF090023AE0FEA3E0FF900294E008
:10282C002FFF900293E03EFE3395E0FDFC900245B5
:10283C00120811900245E0FCA3E0FDA3E0FEA3E02A
:10284C00FF780F1206E390024F12081190023CE041
:10285C00FEA3E0FFEE3395E0FDFC900245E0F8A30B
:10286C00E0F9A3E0FAA3E02FFBEA3EFAE93DF9E830
:10287C003CF890024FE0FCA3E0FDA3E0FEA3E0FFD8
:10288C001240E190024DEEF0A3EFF090023FE0FE1B
:10289C00A3E0FFC3900239E09FFF900238E09EABAB
:1028AC0007FA3395E0F9F890024DE0FEA3E0FFEE55
:1028BC003395E0FDFC120591780F1206CFA804A900
:1028CC0005AA06AB0790023FE0FEA3E0FFEE3395AE
:1028DC00E0FDFCEB2FFFEA3EFEE93DFDE83CFCA3EE
:1028EC0012081190024DE0FEA3E0FBAA06EA339514
:1028FC00E0F9F8C3E49BFF74809AFEE499FDE49838
:10290C00FC900245E0F8A3E0F9A3E0FAA3E0FB1287
:10291C000591780F1206CF90024912081190023ED1
:10292C00E014602614604224027062900249A3A352
:10293C00E0FFA3E090028BCFF0A3EFF0900241A355
:10294C00A3E0FFA3E0900289803C900249A3A3E09E
:10295C00FFA3E090028FCFF0A3EFF0900241A3A36E
:10296C00E0FFA3E090028D801D900249A3A3E0FF3D
:10297C00A3E0900293CFF0A3EFF0900241A3A3E069
:10298C00FFA3E0900291CFF0A3EFF080057EFF7FD4
:10299C00FF22900241A3A3E0F9A3E0FF900235E0EF
:0F29AC00FBA3E0FAA3E0C98FF0120545E4FEFF9C
:0129BB0022F9
:08314E00900235EEF0A3EFF052
:10315600AE04AF05900295E0FCA3E0FD900237ECCB
:10316600F0A3EDF0900237ECF0A3EDF0900298E0BA
:103176002FFF900297E03EFE3395E0FDFC90023D66
:1031860012081190023DE0FCA3E0FDA3E0FEA3E0DF
:10319600FF780F1206E3900243120811AE02AF0346
:1031A600EE3395E0FDFC90023DE0F8A3E0F9A3E0E4
:1031B600FAA3E02FFBEA3EFAE93DF9E83CF8900273
:1031C60043E0FCA3E0FDA3E0FEA3E0FF1240E19094
:1031D6000241EEF0A3EFF0900237E0FEA3E0FFC35A
:1031E600900236E09FFF900235E09EAB07FA3395DA
:1031F600E0F9F8900241E0FEA3E0FFEE3395E0FD32
:10320600FC120591780F1206CFA804A905AA06ABF1
:1032160007900237E0FEA3E0FFEE3395E0FDFCEBFE
:103226002FFFEA3EFEE93DFDE83CFCA312081190A3
:103236000241E0FEA3E0FBAA06EA3395E0F9F8C3F3
:10324600E49BFF74809AFEE499FDE498FC90023DAD
:10325600E0F8A3E0F9A3E0FAA3E0FB120591780FEA
:103266001206CF900297EEF0A3EFF0900239A3A3D7
:0D327600E0FEA3E0FF900295EEF0A3EFF064
:013283002228
:1029F80042020000004201C000004201F80000420B
:102A080001FA00004201FC00004201FE0000420100
:102A1800D800004201DA00004201DC00004201DE79
:102A2800000041020F004102140041021900460152
:102A3800E000000000000006140000000000000292
:102A4800310000023300004401D0000000004401BE
:102A5800D40000000044022D0000000044021F00C2
:102A6800000000440231000000004402250000007C
:102A780000440229000000004401EE000000004468
:102A8800020B000000004402100000000044021580
:102A98000000000044021A000000004C01C40000BD
:102AA8000000000000000000000042020200004296
:0D2AB800020400004601F2000000000000D2
:10195500900206E0FCA3E0FDE4120353E4FBFAF970
:1019650078C312002DE4FBFAF9784012011E120328
:101975008C9001F2EEF0A3EFF0C3E49532FDE4950F
:1019850031FCC3ED9FFBEC9EFA90020FE0FF33950F
:10199500E0FE7C007D051204AFEF2BFDEE3AFC1254
:1019A50003539001C4120811D39001C1E09414901F
:1019B50001C0E0940090021F4024E0FCA3E0FDA3D9
:1019C500E0FEA3E0FF9001C4E0F8A3E0F9A3E0FA8C
:1019D500A3E0FB12002D90021F12081180071208C8
:1019E5001D00000000E4FFFE7D487C4490021FE0DE
:1019F500F8A3E0F9A3E0FAA3E0FB1202C4600E40ED
:101A05000C90021F12081D444800008024E4FFFECC
:101A15007D487CC490021FE0F8A3E0F9A3E0FAA397
:101A2500E0FB1202C4500A90021F12081DC44800B0
:101A3500009001C4E0FCA3E0FDA3E0FEA3E0FF12DB
:101A4500038CEC12034EE4FBFA7940784112011E37
:101A550012038C781012080590021FE0FCA3E0FD2C
:101A6500A3E0FEA3E0FF12038CE47B5C7A0FF9F898
:101A7500120591780F1206CF780C1208057816E634
:101A8500FC08E6FDEC1203539001D4E0F8A3E0F95D
:101A9500A3E0FAA3E0FB12002DE4FBFAF97840126B
:101AA50002277B667A6679A6784012011E12038C9E
:101AB5007808120805780C12078478101207ACEB29
:101AC5002FFFEA3EFEE93DFDE83CFC78081207AC35
:101AD500EF2BFFEE3AFEED39FDEC38FCEF2405FF68
:101AE500E43EFEE43DFDE43CFCE47B0AFAF9F81231
:101AF50040E1EC12034E8F388E378D368C359001D0
:101B0500C4E0FCA3E0FDA3E0FEA3E0FF90020B12FE
:101B150008117816E6FC08E6FDEC120353A804A9A3
:101B250005AA06AB07AF38AE37AD36AC351200297E
:101B350012038C900202EEF0A3EFF0D39001C1E006
:101B450094149001C0E0940090022D4032E0F8A377
:101B5500E0F9A3E0FAA3E0FBC000C001C002C003A6
:101B6500900202E0FCA3E0FDEC120353D003D00287
:101B7500D001D00012002D90022D120811800712FD
:101B8500081D00000000E4FFFE7D487C4490022D06
:101B9500E0F8A3E0F9A3E0FAA3E0FB1202C4600EAB
:101BA500400C90022D12081D444800008024E4FFDB
:101BB500FE7D487CC490022DE0F8A3E0F9A3E0FA8D
:101BC500A3E0FB1202C4500A90022D12081DC4485E
:101BD5000000900202E0FEA3E0FFEE3395E0FDFC7D
:101BE500E47BAE7A27F9F8120591780F1206CF78C3
:101BF5001012080590022DE0FCA3E0FDA3E0FEA372
:101C0500E0FF12038CE47B897A01F9F812059178DB
:101C15000F1206CF780C120805900202E0FEA3E031
:101C2500FFEE3395E0FDFC12034E900215E0F8A39C
:101C3500E0F9A3E0FAA3E0FB1200297B9A7A9979EF
:101C450089784012011E12038C7808120805780C59
:101C550012078478101207ACEB2FFFEA3EFEE93D30
:101C6500FDE83CFC78081207ACEF2BFFEE3AFEEDE1
:101C750039FDEC38FC12034E8F388E378D368C3596
:101C8500900202E0FCA3E0FDEC1203539002151252
:101C95000811E4FFFE7D7A7C44AB38AA37A936A843
:101CA500351202C4600D400BE4F538F53775367A08
:101CB500753544E4FFFE7D7A7CC4AB38AA37A93676
:101CC500A8351202C4500BE4F538F53775367A7528
:101CD50035C4AF38AE37AD36AC3512038C9001F84C
:101CE500EEF0A3EFF0AF38AE37AD36AC3512033DAD
:101CF50012038C9001FAEEF0A3EFF0AF38AE37ADDA
:101D050036AC3512038C9001FEEEF0A3EFF0AF3840
:101D1500AE37AD36AC3512033D12038C9001FCEEA7
:051D2500F0A3EFF02225
:101154009001EAE0FCA3E0FDE4120353E4FBFAF996
:1011640078C312002DE4FBFAF9784012011E120331
:101174008C9001F4EEF0A3EFF0C3E49534FDE49514
:1011840033FCC3ED9FFBEC9EFA900214E0FF339511
:10119400E0FE7C007D051204AFC3EB9FFDEA9EFCDC
:1011A4001203539001C8120811D39001C1E09414A2
:1011B4009001C0E094009002254024E0FCA3E0FDEF
:1011C400A3E0FEA3E0FF9001C8E0F8A3E0F9A3E0E8
:1011D400FAA3E0FB12002D900225120811800712D9
:1011E400081D00000000E4FFFE7D487C44900225B9
:1011F400E0F8A3E0F9A3E0FAA3E0FB1202C4600E56
:10120400400C90022512081D444800008024E4FF8D
:10121400FE7D487CC4900225E0F8A3E0F9A3E0FA3F
:10122400A3E0FB1202C4500A90022512081DC44810
:1012340000009001C8E0FCA3E0FDA3E0FEA3E0FFF2
:1012440012038CEC12034EE4FBFA7940784112014C
:101254001E12038C7810120805900225E0FCA3E00E
:10126400FDA3E0FEA3E0FF12038CE47B5C7A0FF99C
:10127400F8120591780F1206CF780C12080578142D
:10128400E6FC08E6FDEC1203539001D0E0F8A3E07D
:10129400F9A3E0FAA3E0FB12002DE4FBFAF978408D
:1012A4001202277B667A6679A6784012011E120321
:1012B4008C7808120805780C12078478101207AC91
:1012C400EB2FFFEA3EFEE93DFDE83CFC78081207FF
:1012D400ACEF2BFFEE3AFEED39FDEC38FCEF2405C4
:1012E400FFE43EFEE43DFDE43CFCE47B0AFAF9F84D
:1012F4001240E1EC12034E8F388E378D368C3590C8
:1013040001C8E0FCA3E0FDA3E0FEA3E0FF9002100F
:101314001208117814E6FC08E6FDEC120353A80445
:10132400A905AA06AB07AF38AE37AD36AC35120007
:101334002912038C900204EEF0A3EFF0D39001C1C4
:10134400E094149001C0E094009002314032E0F83F
:10135400A3E0F9A3E0FAA3E0FBC000C001C002C00F
:1013640003900204E0FCA3E0FDEC120353D003D08D
:1013740002D001D00012002D900231120811800712
:1013840012081D00000000E4FFFE7D487C4490022A
:1013940031E0F8A3E0F9A3E0FAA3E0FB1202C46091
:1013A4000E400C90023112081D444800008024E4D1
:1013B400FFFE7D487CC4900231E0F8A3E0F9A3E08D
:1013C400FAA3E0FB1202C4500A90023112081DC4B1
:1013D400480000900204E0FEA3E0FFEE3395E0FD38
:1013E400FCE47BAE7A27F9F8120591780F1206CF48
:1013F4007810120805900231E0FCA3E0FDA3E0FEA2
:10140400A3E0FF12038CE47B897A01F9F8120591B9
:10141400780F1206CF780C120805900204E0FEA3A0
:10142400E0FFEE3395E0FDFC12034E90021AE0F863
:10143400A3E0F9A3E0FAA3E0FB1200297B9A7A99CE
:101444007989784012011E12038C780812080578F5
:101454000C12078478101207ACEB2FFFEA3EFEE96A
:101464003DFDE83CFC78081207ACEF2BFFEE3AFE9A
:10147400ED39FDEC38FC12034E8F388E378D368CE7
:1014840035900204E0FCA3E0FDEC12035390021A31
:10149400120811E4FFFE7D7A7C44AB38AA37A936E2
:1014A400A8351202C4600D400BE4F538F5377536E3
:1014B4007A753544E4FFFE7D7A7CC4AB38AA37A93B
:1014C40036A8351202C4500BE4F538F53775367A70
:1014D4007535C49001F8E0FCA3E0FDEC120353ABB6
:1014E40038AA37A936A83512002D12038C9001F8BA
:1014F400EEF0A3EFF09001FAE0FCA3E0FDEC1203A0
:1015040053AB38AA37A936A83512002D12038C9094
:1015140001FAEEF0A3EFF09001FEE0FCA3E0FDEC95
:10152400120353AB38AA37A936A83512002912037F
:101534008C9001FEEEF0A3EFF09001FCE0FCA3E040
:10154400FDEC120353AB38AA37A936A8351200298B
:0C15540012038C9001FCEEF0A3EFF022DB
:10254A00900223E0FCA3E0FDE4120353E4FBFAF952
:10255A0078C312002DE4FBFA7982784212011EC078
:10256A0004C005C006C0077818E6FE08E6FFC3E403
:10257A009FFDE49EFC120353D003D002D001D00089
:10258A0012002DC004C005C006C007900219E0FF62
:10259A003395E0FE7C007D141204AFAC06AD07EC67
:1025AA00120353D003D002D001D00012002D12031F
:1025BA008C9001F6EEF0A3EFF0D39001C1E09414F1
:1025CA009001C0E094009002294032E0F8A3E0F9BB
:1025DA00A3E0FAA3E0FBC000C001C002C00390015F
:1025EA00F6E0FCA3E0FDEC120353D003D002D001C5
:1025FA00D00012002D900229120811800712081D1E
:10260A00000000007F007E507D437C47900229E055
:10261A00F8A3E0F9A3E0FAA3E0FB1202C4600E40BB
:10262A000C90022912081D4743500080257F007E26
:10263A00507D437CC7900229E0F8A3E0F9A3E0FAB1
:10264A00A3E0FB1202C4500A90022912081DC743D4
:10265A0050009001F6E0FEA3E0FFEE3395E0FDFCAA
:10266A0012034EE4FBFA79A0784012011E12038C81
:10267A007810120805900229E0FCA3E0FDA3E0FE11
:10268A00A3E0FF12038CE47BB87A1EF9F8120591D5
:10269A00780F1206CF780C1208059001F6E0FEA317
:1026AA00E0FFEE3395E0FDFC12034E9001EEE0F8F8
:1026BA00A3E0F9A3E0FAA3E0FB120029E4FBFA790C
:1026CA0080784012011E12038C7808120805780CD3
:1026DA0012078478101207ACEB2FFFEA3EFEE93DA1
:1026EA00FDE83CFC78081207ACEF2BFFEE3AFEED52
:1026FA0039FDEC38FC78061206CFEC12034E8F38FF
:10270A008E378D368C359001F6E0FCA3E0FDEC1295
:10271A0003539001EE1208119001F8E0FCA3E0FDCA
:10272A00EC120353AB38AA37A936A83512002D127A
:10273A00038C9001F8EEF0A3EFF09001FAE0FCA30D
:10274A00E0FDEC120353AB38AA37A936A8351200BC
:10275A002912038C9001FAEEF0A3EFF09001FEE04B
:10276A00FCA3E0FDEC120353AB38AA37A936A8350F
:10277A0012002912038C9001FEEEF0A3EFF09001F3
:10278A00FCE0FCA3E0FDEC120353AB38AA37A936F0
:10279A00A83512002D12038C9001FCEEF0A3EFF085
:0127AA00220C
:10408E00E5322484FFE5313403FED3EF94B0EE64C1
:10409E008094844002802FC3EF94F4EE6480948168
:1040AE0050028022E5342484FFE5333403FED3EF3F
:1040BE0094B0EE648094844002800BC3EF94F4EECF
:1040CE0064809481500AC281E49001C0F0A3F02272
:0340DE00D281226A
:103703009001F8E0FEA3E0FF9001C0E0FCA3E0FD20
:103713002FFFEC3EFE9001D8F0A3EFF0D394E8EE38
:1037230064809483400C9001D87403F0A374E8F090
:10373300800FC39001D8E0648094805004E4F0A328
:10374300F09001FAE0FEA3E02DFFEC3EFE9001DADB
:10375300F0A3EFF0D394E8EE64809483400C9001DF
:10376300DA7403F0A374E8F0800FC39001DAE06425
:103773008094805004E4F0A3F09001FCE0FEA3E009
:10378300FF9001C0E0FCA3E0FD2FFFEC3EFE9001A3
:10379300DCF0A3EFF0D394E8EE64809483400C90C4
:1037A30001DC7403F0A374E8F0800FC39001DCE044
:1037B300648094805004E4F0A3F09001FEE0FEA343
:1037C300E02DFFEC3EFE9001DEF0A3EFF0D394E892
:1037D300EE64809483400B9001DE7403F0A374E8DD
:1037E300F022C39001DEE0648094805004E4F0A3EF
:0237F300F022C2
:1038E4009001C3E0FF90021EE0B50749900208E092
:1038F40004F0C3941450030239987413F090022313
:10390400E4F0A37480F0900206E4F0A37480F090D5
:1039140001EAE4F0A37480F0D39001C1E094149020
:1039240001C0E09400406DA3E024FFF09001C0E0EA
:1039340034FFF0805FE4900208F09001ECE0FEA315
:10394400E0FFC394E9EE9403400C9001EC7403F09F
:10395400A374E8F0803ED3EF9432EE9400402690B6
:1039640001EDE0242CFD9001ECE03401FCE41203B1
:10397400537B667A6679A6783F12022712038C90ED
:1039840001C0EE800B9001ECE0FFA3E09001C0CFFA
:10399400F0A3EFF090021EE09001C3F09001ECE080
:0C39A400FFA3E09001C0CFF0A3EFF022E1
:103D4E0090025E120811759850E47B04FAF9F8900F
:103D5E000262E0FCA3E0FDA3E0FEA3E0FF12061C5E
:103D6E0090025EE0F8A3E0F9A3E0FAA3E0FB1206EE
:103D7E001CEFF404F5D7E47B04FAF9F8900262E044
:103D8E00FCA3E0FDA3E0FEA3E0FF12061C90025E82
:103D9E00E0F8A3E0F9A3E0FAA3E0FB12061CC3E4EB
:103DAE009FFFE49EFE74019DFDE49CFC78081206C4
:0A3DBE00BC8FD6438E14438E012201
:104255002002FDEDB4010FEFD39409EF400424379C
:0C426500800524308001EFD202F5992280
:10419A0090025EEBF0A3EAF0A3E9F090025EE0FB86
:1041AA00A3E0FAA3E0F9120474601990025EA3E492
:1041BA0075F0011204F7A9F0FA120474FFE4FD1273
:0541CA00425580D722E0
:102AC50060C0008048927C003BA3D70A40400000CC
:102AD50043960000457A0000461C40003A83126F79
:102AE5003B03126F400000003A83126F40A00000C4
:102AF50040A000003F4CCCCD3FC000004248000044
:102B05000000000048927C003BA3D70A404000002B
:102B150043960000457A0000461C40003A83126F38
:102B25003B03126F400000003A83126F40A0000083
:102B350040A000003F4CCCCD3FC000004248000003
:102B45000000000048927C003BA3D70A40400000EB
:102B550043960000457A0000461C40003A83126FF8
:102B65003B03126F3F99999A3A03126F40A00000F8
:102B750040A000003F4CCCCD3FC0000042480000C3
:042B8500000000004C
:103DC8009002A71208119002ABE0FCA3E0FDA3E06B
:103DD800FEA3E0FF9002A7E0F8A3E0F9A3E0FAA3AE
:103DE800E0FB1202C450109002ABE0FCA3E0FDA37C
:103DF800E0FEA3E0FF80369002AFE0FCA3E0FDA365
:103E0800E0FEA3E0FF9002A7E0F8A3E0F9A3E0FA40
:103E1800A3E0FB1202C4600740059002AF80039044
:0E3E280002A7E0FCA3E0FDA3E0FEA3E0FF2262
:0B3E3600E0FCA3E0FDA3E0FEA3E0FF22
:063E41009002D7120811E7
:103E4700E49002DBF0A3F07FBD7E377D867C359062
:103E570002D7E0F8A3E0F9A3E0FAA3E0FB1202C45B
:103E6700600C400A9002DBE4F0A304F080267FBDDB
:103E77007E377D867CB59002D7E0F8A3E0F9A3E012
:103E8700FAA3E0FB1202C4500474FF8001E490021D
:0C3E9700DBF0A3F09002DBE0FEA3E0FFF4
:013EA30022FC
:103CC70090026DE0FCA3E0FDA3E0FEA3E0FF9002FD
:103CD700CC120811900275E0FCA3E0FDA3E0FEA35F
:023CE700E0FFFC
:063CE9009002C812081150
:103CEF009002CCE0F8A3E0F9A3E0FAA3E0FB900286
:103CFF00C8E0FCA3E0FDA3E0FEA3E0FF1200291241
:103D0F003E41C006C0079002CCE0FCA3E0FDA3E05B
:103D1F00FEA3E0FF9002C8E0F8A3E0F9A3E0FAA346
:103D2F00E0FB12002D123E41AC06AD07D007D006C6
:0E3D3F00C3ED9FFFEC9EFE7C007D021204C1CE
:013D4D002253
:101D2A009002DDEBF0A3EAF0A3E9F0900080E0FC7A
:101D3A00A3E0FDA3E0FEA3E0FF9002DDE0FBA3E049
:101D4A00FAA3E0F9900008120760900084E0FCA36F
:101D5A00E0FDA3E0FEA3E0FF90000C1207609000F4
:101D6A0088E0FCA3E0FDA3E0FEA3E0FF12038C9051
:101D7A0002DDE0FBA3E0FAA3E0F9900010EE8FF099
:101D8A0012056490008CE0FCA3E0FDA3E0FEA3E052
:101D9A00FF900036120760900090E0FCA3E0FDA3DC
:101DAA00E0FEA3E0FF90003A120760900094E0FC86
:101DBA00A3E0FDA3E0FEA3E0FF90003E12076090BF
:101DCA000098E0FCA3E0FDA3E0FEA3E0FF90005A28
:101DDA0012076090009CE0FCA3E0FDA3E0FEA3E0F4
:101DEA00FF90005E1207609000A0E0FCA3E0FDA354
:101DFA00E0FEA3E0FF9000621207609000A4E0FCFE
:101E0A00A3E0FDA3E0FEA3E0FF9000661207609046
:101E1A0000A8E0FCA3E0FDA3E0FEA3E0FF12038C10
:101E2A009002DDE0FBA3E0FAA3E0F990007AEE8FDE
:101E3A00F01205649000ACE0FCA3E0FDA3E0FEA371
:101E4A00E0FF90007C1207609000B0E0FCA3E0FD88
:101E5A00A3E0FEA3E0FF90006A1207609000B4E0DE
:101E6A00FCA3E0FDA3E0FEA3E0FF90006E12076072
:101E7A009000B8E0FCA3E0FDA3E0FEA3E0FF900021
:101E8A00721207609000BCE0FCA3E0FDA3E0FEA391
:101E9A00E0FF9000421207609000C0E0FCA3E0FD62
:101EAA00A3E0FEA3E0FF9002E0E0FBA3E0FAA3E0D8
:101EBA00F99000081207609000C4E0FCA3E0FDA3BB
:101ECA00E0FEA3E0FF90000C1207609000C8E0FC5F
:101EDA00A3E0FDA3E0FEA3E0FF12038C9002E0E082
:101EEA00FBA3E0FAA3E0F9900010EE8FF01205646C
:101EFA009000CCE0FCA3E0FDA3E0FEA3E0FF90008D
:101F0A00361207609000D0E0FCA3E0FDA3E0FEA338
:101F1A00E0FF90003A1207609000D4E0FCA3E0FDD5
:101F2A00A3E0FEA3E0FF90003E1207609000D8E015
:101F3A00FCA3E0FDA3E0FEA3E0FF90005A120760B5
:101F4A009000DCE0FCA3E0FDA3E0FEA3E0FF90002C
:101F5A005E1207609000E0E0FCA3E0FDA3E0FEA3B0
:101F6A00E0FF9000621207609000E4E0FCA3E0FD4D
:101F7A00A3E0FEA3E0FF9000661207609000E8E08D
:101F8A00FCA3E0FDA3E0FEA3E0FF12038C9002E0B5
:101F9A00E0FBA3E0FAA3E0F990007AEE8FF01205D5
:101FAA00649000ECE0FCA3E0FDA3E0FEA3E0FF9058
:101FBA00007C1207609000F0E0FCA3E0FDA3E0FEC5
:101FCA00A3E0FF90006A1207609000F4E0FCA3E02F
:101FDA00FDA3E0FEA3E0FF90006E1207609000F8F8
:101FEA00E0FCA3E0FDA3E0FEA3E0FF90007212076D
:101FFA00609000FCE0FCA3E0FDA3E0FEA3E0FF90FC
:05200A00004202076026
:0F156000900266EBF0A3EAF0A3E9F0A3120811E2
:10156F0090026D12081D0000000090027112081DFC
:10157F000000000090027512081D0000000090028C
:10158F007912081D0000000090027D12081D000056
:10159F00000090028112081D0000000090028512C9
:1015AF00081D00000000900266E0FBA3E0FAA3E034
:1015BF00F91206F6900269E0F8A3E0F9A3E0FAA3A6
:1015CF00E0FB120029900285120811900266E0FBE1
:1015DF00A3E0FAA3E0F990001012050DFDACF0ECBA
:1015EF00120353900266E0FBA3E0FAA3E0F9900028
:1015FF000C1207D512011E900266E0FBA3E0FAA3BE
:10160F00E0F9900012120760900012120716900076
:10161F00081207D512011E900266E0FBA3E0FAA3A1
:10162F00E0F99000121207D512011E90026D1208F8
:10163F0011900266E0FBA3E0FAA3E0F99000041218
:10164F0007169000121207D512011E900271120890
:10165F0011900271E0FCA3E0FDA3E0FEA3E0FF9078
:10166F000285E0F8A3E0F9A3E0FAA3E0FB12002D56
:10167F00900275120811900275E0FCA3E0FDA3E043
:10168F00FEA3E0FF12038C124309EF7803C333CE9E
:10169F0033CED8F9FDAC06EC12035390026DE0F88F
:1016AF00A3E0F9A3E0FAA3E0FB12002D90026DE096
:1016BF00F8A3E0F9A3E0FAA3E0FB12011E1239B47C
:1016CF00900279120811900275123E36AC06AD07E2
:1016DF00EC120353C004C005C006C00790026DE0B2
:1016EF00F8A3E0F9A3E0FAA3E0FB900279E0FCA3F2
:1016FF00E0FDA3E0FEA3E0FF120029D003D002D04B
:10170F0001D00012011EE4FBFAF978401202279073
:10171F000271E0F8A3E0F9A3E0FAA3E0FB12002DB9
:10172F0090027D120811123CC7AC06AD07EC1203F4
:10173F0053C004C005C006C007900275E0FCA3E0CB
:10174F00FDA3E0FEA3E0FF900271E0F8A3E0F9A390
:10175F00E0FAA3E0FB12002DD003D002D001D0009D
:10176F0012011EC004C005C006C007123CC7C374D7
:10177F00019FFDE49EFC12035390027DE0F8A3E06D
:10178F00F9A3E0FAA3E0FB12011ED003D002D001AF
:10179F00D00012002D900281120811900281123E8A
:1017AF0036AC06AD07EC120353900266E0FBA3E0E4
:1017BF00FAA3E0F99000081207D512011EC004C069
:1017CF0005C006C00790026DE0FCA3E0FDA3E0FE9C
:1017DF00A3E0FF9002CC120811900281123CDEC3ED
:1017EF0074019FFDE49EFC120353D003D002D0017D
:1017FF00D00012011EC004C005C006C00790026DC4
:10180F00E0FCA3E0FDA3E0FEA3E0FF9002CC1208F2
:10181F0011900281123CDEAC06AD07EC120353C0EF
:10182F0004C005C006C007900266E0FBA3E0FAA360
:10183F00E0F990000812071612033DC004C005C05E
:10184F0006C00790026DE0F8A3E0F9A3E0FAA3E069
:10185F00FB900281E0FCA3E0FDA3E0FEA3E0FF12FA
:10186F000227A804A905AA06AB07D007D006D00502
:10187F00D00412011EA804A905AA06AB07D007D0F1
:10188F0006D005D00412011ED003D002D001D00023
:10189F00120029900266E0FBA3E0FAA3E0F99000A2
:1018AF0016120760900266E0FBA3E0FAA3E0F9C00E
:1018BF0003C002C0011206F6C004C005C006C0076F
:1018CF00900266A3A3E090000412071690000C127A
:1018DF0007D512011EA804A905AA06AB07D007D089
:1018EF0006D005D00412002DD001D002D00312076C
:1018FF0046900266E0FBA3E0FAA3E02404F9E43A81
:10190F00FAC003C002C0011206F6C004C005C0062B
:10191F00C007900266A3E0FAA3E0F9900016120741
:10192F001690000C1207D512011EA804A905AA06CD
:10193F00AB07D007D006D005D00412002DD001D0B0
:06194F0002D0030207466E
:062D1E0090029912081159
:102D2400E49002A5F0A3F09002A1E0F8A3E0F9A3D7
:102D3400E0FAA3E0FB900299E0FCA3E0FDA3E0FE2F
:102D4400A3E0FF120029123E41C006C0079002A171
:102D5400E0FCA3E0FDA3E0FEA3E0FF900299E0F80D
:102D6400A3E0F9A3E0FAA3E0FB12002D123E41AC6C
:102D740006AD07D007D006C3ED9FFFEC9EFE7C0096
:102D84007D021204C19002A5EEF0A3EFF090029927
:102D9400E0FCA3E0FDA3E0FEA3E0FF12038C1243DA
:102DA40009AC06AD07EC120353C004C005C006C04D
:102DB4000790029DE0FCA3E0FDA3E0FEA3E0FF90EA
:102DC40002C2120811D007D006D005D004122E8EEC
:102DD400C004C005C006C007900299123E36AC0676
:102DE400AD07EC120353D003D002D001D00012017E
:102DF4001EC004C005C006C0079002A5E0FEA3E003
:102E0400FFC374019FFDE49EFC120353D003D00260
:102E1400D001D00012011EC004C005C006C0079036
:102E2400029DE0F8A3E0F9A3E0FAA3E0FBE4FFFECF
:102E34007D807C3F1200299002C21208119002A1E9
:102E4400E0FCA3E0FDA3E0FEA3E0FF122E8EC0048D
:102E5400C005C006C0079002A5E0FCA3E0FDEC128B
:102E64000353900299E0F8A3E0F9A3E0FAA3E0FB8E
:102E740012011ED003D002D001D000120227D003C9
:092E8400D002D001D00012002D93
:012E8D002222
:10200F009002E7EBF0A3EAF0A3E9F09002E7E0FB20
:10201F00A3E0FAA3E0F990002A1207D5C000C0018F
:10202F00C002C0039002E7E0FBA3E0FAA3E0F9903F
:10203F00001A120716D003D002D001D000120029C7
:10204F009002E7E0FBA3E0FAA3E0F9900026120765
:10205F0060900026120716C004C005C006C0079086
:10206F00029D12081D3F0000009002E7E0FBA3E075
:10207F00FAA3E0F990000C1207169002A1120811B2
:10208F00D007D006D005D004122D1E9002E7E0FB3A
:10209F00A3E0FAA3E0F990002E1207609000261239
:1020AF000716C004C005C006C00790029D12081D88
:1020BF003E8000009002E7E0FBA3E0FAA3E0F99076
:1020CF00000C1207169002A1120811D007D006D0EB
:1020DF0005D004122D1E9002E7E0FBA3E0FAA3E067
:1020EF00F9900032120760E9241AF9E43AFAC003B2
:1020FF00C002C0011206F6C004C005C006C007909A
:10210F0002E7E0FBA3E0FAA3E0F99000261207161E
:10211F009000361207D512011EC004C005C006C0BC
:10212F00079002E7E0FBA3E0FAA3E0F990001E128C
:10213F000716D003D002D001D0001200299002E779
:10214F00E0FBA3E0FAA3E0F990000C1207D512010F
:10215F001EA804A905AA06AB07D007D006D005D044
:10216F000412002DD001D002D0031207469002E7CF
:10217F00E0FBA3E0FAA3E0241EF9E43AFAC003C09F
:10218F0002C0011206F6C004C005C006C0079002C7
:10219F00E7A3E0FAA3E0F990002E12071690003A99
:1021AF001207D512011EC004C005C006C007900259
:1021BF00E7E0FBA3E0FAA3E0F9900022120716D0A4
:1021CF0003D002D001D000120029C004C005C00600
:1021DF00C0079002E7E0FBA3E0FAA3E0F9900056F6
:1021EF001207169000421207D512011EA804A90566
:1021FF00AA06AB07D007D006D005D00412002D9049
:10220F0002E7E0FBA3E0FAA3E0F990000C1207D578
:10221F0012011EA804A905AA06AB07D007D006D045
:10222F0005D00412002DD001D002D0031207469022
:10223F0002E7E0FBA3E0FAA3E02422F9E43AFAC0B4
:10224F0003C002C0011206F6C004C005C006C007D5
:10225F009002E7A3E0FAA3E0F990003E12071612EE
:10226F00033D9002E7E0FBA3E0FAA3E0F990003210
:10227F001207D512011E9002E7E0FBA3E0FAA3E0DC
:10228F00F990000C1207D512011EA804A905AA0681
:10229F00AB07D007D006D005D00412002DD001D047
:0622AF0002D00302074605
:0B35F0009002D0EBF0A3EAF0A3E9F09A
:1035FB00A312081D000000009002D0E0FBA3E0FA2C
:10360B00A3E0F990004E120716C004C005C006C017
:10361B00079002AB12081DC53B80009002AF120849
:10362B001D453B8000D007D006D005D004123DC805
:10363B009002D31208119002D0E0FBA3E0FAA3E0B2
:10364B00F990004A120716C004C005C006C00790C7
:10365B0002D0A3A3E090006A12071690029D1208F5
:10366B00119000721207169002A1120811D007D008
:10367B0006D005D004122D1E9002D0E0FBA3E0FA79
:10368B00A3E0F99000621207D512011EC004C00519
:10369B00C006C0079002D0E0FBA3E0FAA3E0F990CC
:1036AB00006E12071690029D1208119000721207FD
:1036BB00169002A11208119002D3E0FCA3E0FDA327
:1036CB00E0FEA3E0FF122D1E9002D0E0FBA3E0FA78
:1036DB00A3E0F99000661207D512011ED003D002A9
:1036EB00D001D00012002D9002D0E0FBA3E0FAA392
:0836FB00E0F9900052020760A3
:102FF4009002B3EBF0A3EAF0A3E9F09002B3E0FB94
:10300400A3E0FAA3E0F91215609002BAE0FCA3E091
:10301400FDA3E0FEA3E0FF9002B3E0FBA3E0FAA36C
:10302400E0F990002A12076012200F9002B3E0FB2F
:10303400A3E0FAA3E02446F9E43AFAC003C002C0CC
:10304400011206F6C004C005C006C0079002B3A36F
:10305400E0FAA3E0F990000C12071690004A120758
:10306400D512011EA804A905AA06AB07D007D006ED
:10307400D005D00412002DD001D002D0031207468F
:103084009002B3E0FBA3E0FAA3E0F990001A120760
:10309400D5C000C001C002C0039002B3E0FBA3E0AE
:1030A400FAA3E0F91206F6D003D002D001D0001240
:1030B40000299002B3E0FBA3E0FAA3E0F990004AF0
:1030C40012076090001E1207D5C000C001C002C0E4
:1030D400039002B3E0FBA3E0FAA3E0F9900004122A
:1030E4000716D003D002D001D0001200299002B3F9
:1030F400E0FBA3E0FAA3E0F990004E12076012355A
:10310400F09002B3E0FBA3E0FAA3E0F990005212BE
:103114000716C004C005C006C0079002AB12081D04
:10312400C34800009002AF12081D43480000D007B6
:10313400D006D005D004123DC89002B3E0FBA3E052
:0A314400FAA3E0F9900056020760BC
:100026000203F8E86480F8E933E83360110460F00D
:10003600ED33EC337009E8FCE9FDEAFEEBFF220440
:1000460060DED3EB9FEA9EE99DE8C2E78CF0C2F73B
:1000560095F0400CE8CCF8E9CDF9EACEFAEBCFFB07
:100066001203C385D0F05804700320D5B3E804709A
:10007600075002B2D502040292D5EC0460F7E4CC34
:10008600C0E0C398F8603B94186008400DD0E0FBD0
:100096000203DAE4FBFAC9FC8028E830E406E4C986
:1000A600FBE4CAFCE830E305E4C9CACBFCE8540724
:1000B6006010F8C3E913F9EA13FAEB13FBEC13FC2F
:1000C600D8F130F52FC3E49CFCEF9BFFEE9AFEEDD2
:1000D60099FDD0E0FBEF4E4D4C701222DB0302037C
:1000E600FFEC2CFCEF33FFEE33FEED33FDED30E796
:1000F600EB0203DAEF2BFFEE3AFEED39FDD0E0FB23
:1001060050130BBB0003020402ED13FDEE13FEEFCA
:0801160013FFEC13FC0203DAF5
:10011E00EC4D6011E8497017ED33EC3304600DE4DB
:10012E00FCFFFEFD22E933E8330470F80203F812F7
:10013E0003C358046009E4CC2481500628500902F8
:10014E0004022840030203FFC0E0EB4A7044B9806A
:10015E0006D0E0FB0203EEEF4E701CBD8008EBFFF5
:10016E00EAFEE9FD80EBE98DF0A4FEE5F002020760
:10017E00E9CDF9EAFEEBFFEF89F0A4FCE5F0CE89BC
:10018E00F0A42EFFE435F0CD89F0A42DFEE435F079
:10019E008067EF4E7005BD80D780C3EF8BF0A4ACA7
:1001AE00F0EE8BF0A42CFCE435F0F8EF8AF0A42CE2
:1001BE00E5F038FCE433CB8DF0A42CFCE5F03BF8F5
:1001CE00EE8AF0A42CFCE5F038F8E433CF89F0A4E5
:1001DE002CFCE5F038CF3400CE89F0A42FFFE5F0EB
:1001EE003EFEE433C98DF0A42EFEE5F039CD8AF043
:1001FE00A42FFFE5F03EFEE43DFD33D0E0FB5007BB
:10020E000BBB000F020402EC2CFCEF33FFEE33FEAF
:06021E00ED33FD0203DADE
:10022400020402EC5D046005E8590470030203F85B
:100234001203C3580460F6EC4860F2EC7004FDFE4F
:10024400FF22C860DB2481C85009C39860025006AD
:100254000203FF9850CAF582E9294B4A7005AB8224
:100264000203EE75F0007C1A7880C3EF9BEE9AEDE2
:1002740099400DC3EF9BFFEE9AFEED99FDE842F025
:10028400DC23ACF0D0E0FFD0E0FED0E0FDAB822078
:10029400E7101BEB60BAEC2CFCEF33FFEE33FEED02
:1002A40033FD0203DAE803F830E705C0F075F00027
:1002B400EF2FFFEE33FEED33FD40B830E7C280AAE6
:1002C40074F8CC6480CCC86480C8F58204604FC3E1
:1002D400EB9FF5F0EA9E42F0E99D42F0E89C45F080
:1002E400603C501DE5825FFFE582D313CB5BCBF40A
:1002F4002B5582FB50280ABA002409B90020088033
:100304001DE5825BFBE582D313CF5FCFF4C3132FCC
:100314005582FF50090EBE00050DBD00010CC3EB54
:100324009FF5F0EA9E42F0E99D42F0E89C45F060BA
:0903340007CC4820E701B3EC22DC
:10033D00ED33EC33600A047003BD8004ECB2E7FCCE
:01034D00228D
:10034E0075F020800E75F010800575F0087D007E2A
:10035E00007F003392D530D5031206AEEC33401039
:10036E00EF33FFEE33FEED33FDEC33FCD5F0ED2233
:0E037E00E5F0247EA2D513CC92E7CDCEFF226F
:10038C00EDD2E7CD33EC3392D524814006E4FFFE69
:10039C00FDFC22FCE4CFCECDCC24E0501174FF80C8
:1003AC00EDC3CC13CCCD13CDCE13CECF13CF047065
:0703BC00F030D5DE0206AEB1
:1039B0000203F822EDA2E7D2E7F9EC3340F260F31C
:1039C000B4FF08ED547F70E8020402F82481C2E0DD
:1039D000C0E0F40428FAC313FCED92E7FD90024D19
:1039E000120811EEA2E7E9BA7F02C3133400940073
:1039F000FA75F091A4E5F013F494FE8AF0A433E58F
:103A0000F033248CD313FDE492E7FE7F007C3F75F6
:103A10008302ECC0E0F8EDC0E0F9EEC0E0FAEFC0E0
:103A2000E0FB8583F090024D12079085F08312022F
:103A300027D0E0FBD0E0FAD0E0F9D0E0F812002D7A
:103A4000ED6480FD30E7011CD583C7ED33CC33F83E
:0C3A5000D0E0A2E71328C313CC13FD2222
:103B040090024D120811900251E0F8A3E0F9A3E0ED
:103B1400FAA3E0FB90024DE0FCA3E0FDA3E0FEA3CA
:103B2400E0FF1202271233CD90024D1208119002C9
:103B340051E030E75990024DE0FCA3E0FDA3E0FE24
:103B4400A3E0FFECC0E0EDC0E0EEC0E0EFC0E0E4D5
:103B5400FFFEFDFC90024DE0F8A3E0F9A3E0FAA318
:103B6400E0FB1202C47BDB600250087A0F794978CB
:103B74004080067A0F794978C0D0E0FFD0E0FED0CB
:103B8400E0FDD0E0FC12002D90024D1208119002CD
:0D3B94004DE0FCA3E0FDA3E0FEA3E0FF2256
:10412500ECC0E0F8EDC0E0F9EEC0E0FAEFC0E0FB6E
:1041350012011EEC6480FC7B007A007980783F12C6
:10414500002D1239B4D0E0CFFBD0E0CEFAD0E0CDCF
:0B415500F9D0E0CCF81202270233CDB5
:102E8E009002BE120811E4FFFE7D807C3F9002BED0
:102E9E00E0F8A3E0F9A3E0FAA3E0FB1202C4700687
:102EAE009002BE022FE89002BEE0FCA3E0FDA3E07C
:102EBE00FEA3E0FF12040DFBA3E0FCA3E0FDA3E0E4
:102ECE00FEA3E0FF12040DFFB40108E4FFFE7D80B7
:102EDE007C3F22EF64046029EB64046024EBB401B0
:102EEE0030E4FFFEFDFC9002C2E0F8A3E0F9A3E09F
:102EFE00FAA3E0FB1202C460084006E4FFFEFDFCEC
:102F0E00229002C212081DFFFFFFFF9002C2022F85
:102F1E00E8E49002C6F0A3F0FFFEFDFC9002BEE0D6
:102F2E00F8A3E0F9A3E0FAA3E0FB1202C4505F900D
:102F3E0002C2E0FCA3E0FDA3E0FEA3E0FF12038CBF
:102F4E009002C6EEF0A3EFF0FDCCEECCEC120353E4
:102F5E00C8ECC8C9EDC9CAEECACBEFCB9002C2E02D
:102F6E00FCA3E0FDA3E0FEA3E0FF120029E4FBFAC0
:102F7E00F9F81202C4708A9002BEE0FCA3E0FDA331
:102F8E00E0FEA3E0FF12033D9002BE120811900274
:102F9E00BEE0FCA3E0FDA3E0FEA3E0FF1232B8907A
:102FAE0002C2E0F8A3E0F9A3E0FAA3E0FB12011ECF
:102FBE00123BD99002C21208119002C7E030E017FE
:102FCE009002C2E0FCA3E0FDA3E0FEA3E0FF12032B
:102FDE003D9002C21208119002C2E0FCA3E0FDA3D4
:062FEE00E0FEA3E0FF225B
:1003C300E9D2E7C933E833F892D5EDD2E7CD33EC80
:0703D30033FC5002B2D522F9
:1003DA00EC30E7100FBF000C0EBE00080DBD000484
:1003EA000BEB6014A2D5EB13FCED92E7FD2274FF30
:1003FA00FCFDFEFF22E480F8A2D574FF13FC7D8089
:03040A00E480EF9C
:10040D00ED33EC33601004700FED547F7005740202
:0A041D0092E0227404220422E4227B
:103BA10033DA929E35B16011377FE5FE3921848980
:103BB1003AAEC3FF3C1D955B3D6358473E75FDF032
:103BC1003F3172183F800000C2D50204020203F89F
:103BD100BD80FA50F30203FFED33EC330460F17B57
:103BE1003B7AAA79B8783F12011EED33EC3392D5B6
:103BF100247B5011A2D570DB500BED44802404507E
:103C010004A2D580CEEFFBEEFAEDF9ECF812038CAD
:103C1100EFF582F404FC12035812002DC082903B90
:103C2100A17409120436ED33CC33D0F092D525F0CE
:0A3C3100A2D57001C313CC13FD22CD
:103284003E9248DA3ECCCCCD3F2AAAAB40000000A7
:103294003F8000003F9837F03FB504F33FD744FC2C
:1032A4003E3172173EB172173F0515913EDE5BD970
:1032B400D2038002C203EDD2E7F8CD33EC330470BD
:1032C4000BBD800592D50204020203F840FBD3141F
:1032D40060F2F5F07C3FEE7A00C39496C8948B407C
:1032E400230AC89469C8941A401A0AC89468C894EE
:1032F4001F40110AC8945AC89425400805F07A0062
:10330400CDC2E7CDC0F09002E3120811EA2323C036
:10331400E02494F582E43432F5831207C512002DBB
:10332400ECC0E0EDC0E0EEC0E0EFC0E012079C901E
:1033340002E31207B9120029D0E0FBD0E0FAD0E092
:10334400F9D0E0B2E7F81202279002E312081190D4
:10335400328474031204279002E31207B912011E87
:10336400D0E0600F24A0F582E43432F5831207C55F
:1033740012002D9002E3120811D0E0C3947FFDE403
:103384009400FC1203537B187A727931783F12014E
:103394001E9002E31207B912002D30030B7BD97A79
:0933A4005B79DE783E12011E2265
:1033AD00BE1249253E4CCCCDBEAAAAAB3F80000033
:1033BD003E7ADBB03EED63383F24BC7D3F490FDBE9
:1033CD00ED33ECC2E7CC339200B4FF13ED547F60C4
:1033DD00030203F87FDB7E0F7DC97C3F0234C2C23E
:1033ED0001C3947F401E7007EDD2E794904015EF16
:1033FD00FBEEFAEDF9ECF87F007E007D807C3F124C
:10340D000227D201ED33EC33248430E705E4C0E02C
:10341D00806B04FAEDD2E754F0C333DAFD54073470
:10342D00002323C0E0CCC0E0F8EDC0E0F9EEC0E031
:10343D00FAEFC0E0FBE4120358EC24FEFC900255B9
:10344D0012081112011E7B007A007980783F12005C
:10345D002D900255E0B2E7CCF0A3E0CDF0A3E0CE85
:10346D00F0A3E0CFF0D0E0FBD0E0FAD0E0F9D0E06F
:10347D00F812002D9002551207B91202279002552D
:10348D001208119033AD74031204279002551207E0
:10349D00B912011ED0E0600F24B9F582E43433F582
:1034AD00831207C512002D30010B7BDB7A0F79C912
:1034BD0078BF12002DED33EC336006ECA20092E7DD
:0234CD00FC22DF
:10042700C0E0EFFBEEFAEDF9ECF812011ED0E0F5B3
:10043700F0EFFBEEFAEDF9ECF812079CA3A3A3A3E8
:10044700E8C0E0E9C0E0EAC0E0EBC0E0C0F01201BC
:100457001E1207C5A3A3A3A312002DD0F0D0E0FB63
:0D046700D0E0FAD0E0F9D0E0F8D5F0D422D2
:03000000023C3B84
:0C3C3B00787FE4F6D8FD75819C023C8285
:10047400BB010689828A83E0225002E722BBFE0286
:09048400E32289828A83E49322B9
:10048D00F8BB010DE58229F582E5833AF583E8F0A5
:10049D00225006E92582C8F622BBFE05E92582C851
:0204AD00F22239
:1004AF00EF8DF0A4A8F0CF8CF0A428CE8DF0A42E61
:0204BF00FE221B
:1004C100C2D5EC30E709B2D5E4C39DFDE49CFCEE56
:1004D10030E715B2D5E4C39FFFE49EFE12084EC378
:1004E100E49DFDE49CFC800312084E30D507C3E473
:0604F1009FFFE49EFE22C5
:1004F700A3F8E0C5F025F0F0E582158270021583B8
:06050700E0C838F0E82214
:10050D00BB0110E58229F582E5833AF583E0F5F02C
:10051D00A3E0225009E92582F886F008E622BBFE09
:10052D000AE92582F8E2F5F008E222E5832AF5834F
:08053D00E993F5F0A3E9932214
:10054500BB010A89828A83F0E5F0A3F0225006F701
:0F05550009A7F01922BBFE06F3E5F009F31922FE
:10056400F8BB0111E58229F582E5833AF583E8F0C9
:10057400E5F0A3F0225009E92582C8F608A6F02286
:0D058400BBFE09E92582C8F2E5F008F2226D
:10059100E88FF0A4CC8BF0A42CFCE98EF0A42CFC09
:1005A1008AF0EDA42CFCEA8EF0A4CDA8F08BF0A487
:1005B1002DCC3825F0FDE98FF0A42CCD35F0FCEBE6
:1005C1008EF0A4FEA9F0EB8FF0A4CFC5F02ECD39AB
:0F05D100FEE43CFCEAA42DCE35F0FDE43CFC2218
:1005E00075F008758200EF2FFFEE33FECD33CDCCD2
:1005F00033CCC58233C5829BED9AEC99E582984055
:100600000CF582EE9BFEED9AFDEC99FC0FD5F0D631
:10061000E4CEFBE4CDFAE4CCF9A88222B800C1B95B
:100620000059BA002DEC8BF084CFCECDFCE5F0CB99
:10063000F97818EF2FFFEE33FEED33FDEC33FCEBD2
:1006400033FB10D703994004EB99FB0FD8E5E4F98D
:10065000FA227818EF2FFFEE33FEED33FDEC33FC7A
:10066000C933C910D7059BE99A4007EC9BFCE99A6E
:10067000F90FD8E0E4C9FAE4CCFB2275F010EF2FB3
:10068000FFEE33FEED33FDCC33CCC833C810D707B3
:100690009BEC9AE899400AED9BFDEC9AFCE899F8EE
:0E06A0000FD5F0DAE4CDFBE4CCFAE4C8F92281
:1040E100C2D5E830E70FB2D5E4C39BFBE49AFAE40A
:1040F10099F9E498F8EC30E717B2D5124117120696
:104101001CE4C39BFBE49AFAE499F9E498F8800370
:1041110012061C30D50DE4C39FFFE49EFEE49DFD15
:04412100E49CFC22FC
:0E06AE00C3E49FFFE49EFEE49DFDE49CFC225D
:1006BC00E8600FECC313FCED13FDEE13FEEF13FF1C
:0306CC00D8F12240
:1006CF00E86010ECA2E713FCED13FDEE13FEEF1341
:0406DF00FFD8F0222E
:1006E300E8600FEFC333FFEE33FEED33FDEC33FC75
:0306F300D8F12219
:1006F600BB010789828A830207905005E9F8020741
:1007060084BBFE05E9F80208A389828A8302079C56
:10071600BB010DE58229F582E5833AF58302079050
:100726005007E92582F8020784BBFE07E92582F80F
:100736000208A3E58229F582E5833AF58302079C40
:10074600BB010789828A830208115005E9F802086D
:0A07560005BBFE05E9F80208BC220D
:10076000BB010DE58229F582E5833AF58302081184
:100770005007E92582F8020805BBFE07E92582F843
:040780000208BC228D
:0C078400E6FC08E6FD08E6FE08E6FF22A1
:0C079000E0FCA3E0FDA3E0FEA3E0FF22DC
:10079C00E493FC740193FD740293FE740393FF22A3
:0D07AC00E6FB08E6F908E6FA08E6CBF822BD
:0C07B900E0F8A3E0F9A3E0FAA3E0FB22C3
:1007C500E493F8740193F9740293FA740393FB228A
:1007D500BB010DE58229F582E5833AF5830207B968
:1007E5005007E92582F80207ACBBFE07E92582F828
:1007F5000208AFE58229F582E5833AF5830207C54C
:0C080500ECF608EDF608EEF608EFF6221F
:0C081100ECF0A3EDF0A3EEF0A3EFF0225A
:10081D00A8828583F0D083D0821208341208341256
:10082D000834120834E473E493A3C583C5F0C5837B
:10083D00C8C582C8F0A3C583C5F0C583C8C582C825
:01084D002288
:0C430900EE30E707C3E49FFFE49EFE22B5
:103C4700022B8AE493A3F8E493A34003F68001F2DE
:103C570008DFF48029E493A3F85407240CC8C3337E
:103C6700C4540F4420C8834004F456800146F6DF4D
:103C7700E4800B01020408102040809029BCE47EF8
:103C8700019360BCA3FF543F30E509541FFEE49342
:103C9700A360010ECF54C025E060A840B8E493A309
:103CA700FAE493A3F8E493A3C8C582C8CAC583CA34
:103CB700F0A3C8C582C8CAC583CADFE9DEE780BEEC
:012B8900004B
:10084E00BC000BBE0029EF8DF084FFADF022E4CC8E
:10085E00F875F008EF2FFFEE33FEEC33FCEE9DEC57
:10086E00984005FCEE9DFE0FD5F0E9E4CEFD22ED9D
:10087E00F8F5F0EE8420D21CFEADF075F008EF2FE7
:10088E00FFED33FD4007985006D5F0F222C398FDD8
:05089E000FD5F0EA2275
:0C08A300E2FC08E2FD08E2FE08E2FF2291
:0D08AF00E2FB08E2F908E2FA08E2CBF822C9
:0C08BC00ECF208EDF208EEF208EFF22278
:00000001FF
