:1023F1001228699000AD7403F0A374E8F0FB7A032E
:10240100FD7C03FF7E03122CF6C281D282122D3095
:10241100D281C282122D30D281D282C283122D3258
:10242100D281D282D2837F0A7E00122D367F0A7E2C
:1024310000122D36122D567F0A7E00122D361222E1
:10244100D07F647E00122D36122DE17F647E001252
:102451002D36E4900024F0A3F0900061F0A3748085
:10246100F0900046E4F0A37480F0900022E4F0A321
:102471007480F0C283E490004EF0900053F090001D
:1024810058F0D2AF7B007A0079399000ACE543F087
:102491007D0A7C00122A3AEF4E705890002FE539E0
:1024A100F0900000E53AF0E53B75F0FFA47C0025D3
:1024B1003CFEEC35F0900024F0A3CEF0900061E4F6
:1024C100F0A3E53DF0900046E4F0A3E53EF0900076
:1024D10022E4F0A3E53FF0E540248090004EF0E5D2
:1024E100412480900053F0E5422480900058F0D2BE
:1024F100828002C282900000E0FFB40102D283EF29
:0F250100B40502C2837F037E00122D36022485AB
:102DE100538E7F5389F0758A40758CA2C28DD28C27
:032DF100D2A92242
:062D3000D2837FF47E0156
:102D3600E4FDFCC3ED9FEC9E5015E4FBFA0BBB00D3
:0F2D4600010AEB64FA4A70F50DBD00010C80E440
:012D5500225B
:03000B0002195F78
:10195F00C0E0C0F0C083C082C0D075D000C000C04E
:10196F0001C002C003C004C005C006C007122D9AF3
:10197F007B007A0079397D0F122BCF7B007A0079AB
:10198F0021122AA67466FBFA7D997C19AF22AE212B
:10199F00121BA690000FEEF0A3EFF07466FBFA7D1A
:1019AF00997C19AF24AE23121CDC900011EEF0A32A
:1019BF00EFF07466FBFA7D997C19AF26AE25121EE7
:1019CF0012900015EEF0A3EFF0AC29AD2AEC120B3C
:1019DF00C7E4FBFA79837842120A9B120C00781441
:1019EF00A60608A607AC2BAD2CEC120BC7E4FBFA2E
:1019FF0079837842120A9B120C007816A60608A665
:101A0F00077466FBFA7D997C19AF2EAE2D121F4815
:101A1F007818EEF608EFF6FDAC06EC120BC7E4FBF8
:101A2F00FA79837842120A9B90001E120E127814D4
:101A3F00E6FC08E6FDEC120BC7900007120E1278B9
:101A4F0016E6FC08E6FDEC120BC790000B120E1207
:101A5F007814E6FC08E6FDEC120BC77B397AFA79AD
:101A6F008E783C120992C004C005C006C0077816D4
:101A7F00E6FC08E6FDEC120BC77B397AFA798E7813
:101A8F003C120992900083120E127F397EFA7D8EDE
:101A9F007C3C90001EE0F8A3E0F9A3E0FAA3E0FB82
:101AAF00120992900087120E1290000FE0FCA3E033
:101ABF00FDEC120BC790008B120E12900011E0FC80
:101ACF00A3E0FDEC120BC790008F120E12900015C1
:101ADF00E0FCA3E0FDEC120BC7900093120E12D0A6
:101AEF0007D006D005D00412000E1226F1122C24B6
:101AFF00121329120F1D1216FE122510900000E06E
:101B0F0064057062C390002CE0943290002BE09437
:101B1F00004053900017E0FEA3E0FF74E89FFF74AE
:101B2F00039EFEC006C007900019E0FEA3E0FFC3AE
:101B3F0074E89FFD74039EFC90001BE0FEA3E0FF82
:101B4F00C374E89FFB74039EFA900013E0FEA3E0BA
:101B5F00FFC374E89F9000AEF074039E9000ADF049
:101B6F00D007D00680139000AD7403F0A374E8F093
:101B7F00FB7A03FD7C03FF7E03122CF6D007D00601
:101B8F00D005D004D003D002D001D000D0D0D08265
:071B9F00D083D0F0D0E0324A
:10286900E4F594F593F592F591F596F595F5B2F5AC
:10287900B1F5B4F5B3F5CAF5C9F5CCF5CBF5E2F583
:10288900E175960EF59575B280F5B175BA8075F159
:10289900B090FFF27410F0E4F5F6F5F790FFF074DC
:1028A90003F0A374E9F090FF04E4F090FF14F090B2
:1028B900FF24F090FF34F090FF007403F0A374E854
:1028C900F0A37403F0A374E9F090FF107403F0A36C
:1028D90074E8F0A37403F0A374E9F090FF20740383
:1028E900F0A374E8F0A37403F0A374E9F090FF3047
:1028F9007403F0A374E8F0A37403F0A374E9F0750A
:08290900F58F90FFF2E4F022CB
:102CF6009000A7EEF0A3EFF09000A7E090FF00F0A1
:102D06009000A7A3E090FF01F0EC90FF10F0A3ED78
:102D1600F0EA90FF20F0A3EBF09000ADE0FCA3E01A
:0A2D2600FDEC90FF30F0A3EDF02269
:102DF400D3EF9400EE94004007EF1F70F31E80F0B1
:012E040022AB
:042B6D007B01E4FD07
:072B71009000A7EFF0A90599
:102B7800C291E4FFFE9000A7E0FD339293D295C284
:102B880095ED25E0F00FBF00010EEF64084E70E5EB
:102B9800E4FEFFE9339293D295C295E925E0F90F57
:102BA800BF00010EEF64084E70E9E4FEFFEB3392BC
:102BB80093D295C295EB25E0FB0FBF00010EEF64A1
:062BC800084E70E9D291F5
:012BCE0022E4
:102B0A00C29174802FFFE4FBFAEF339293D295C2FD
:102B1A0095EF25E0FF0BBB00010AEB64084A70E958
:102B2A00E4FAFBD295C2959000BFE025E0FFF0A23F
:102B3A0094E4334FF00BBB00010AEB64084A70E3DC
:102B4A00E4FAFBD295C2959000C0E025E0FFF0A21E
:102B5A0094E4334FF00BBB00010AEB64084A70E3BC
:022B6A00D29106
:012B6C002246
:1022D000C2927FF47E01122DF4D2927FF47E01121D
:1022E0002DF4D2B27BEF7D6FE4FF122B717B817DE9
:1022F000567F01122B717B177D667F02122B717B3B
:10230000C97D9C7F04122B717B377D667F05122B64
:1023100071E4FBFD7F07122B717B907D6C7F0812AF
:102320002B71E4FB7D487F09122B717BFD7D7F7F44
:102330000A122B717B08E4FD7F0B122B71E4FBFD6D
:102340007F0C122B717BBD7D487F0D122B717BFFA3
:10235000E4FD7F16122B717B057D807F17122B7198
:102360007B67E4FD7F18122B717B597D167F191254
:102370002B717BE07D197F1A122B71E4FB7D137F9B
:102380001B122B71E4FB7D187F1C122B71E4FB7D6B
:10239000587F20122B717BC77D3F7F21122B71E468
:1023A000FB7D207F22122B71E4FB7D0A7F23122B01
:1023B000717F24122B6D7F25122B6D7B01E4FD7F35
:1023C00026122B717B01E4FD7F27122B717B027D8E
:1023D000447F28122B71E4FB7DB87F29122B717B7F
:1023E000FF7DFD7F2A122B717B0FE4FD7F2B022BDB
:0123F000717B
:102D9A007B807D807F34122B717BA0E4FD7F07123C
:092DAA002B717FC87E00022DF49C
:0B2BCF0090007FEBF0A3EAF0A3E9F018
:102BDA00E4FE7F32122B0A9000BFE06D703BA3E047
:102BEA007037EEC39D50327F32122B0A9000BFE03D
:102BFA00FF90007FE0FBA3E0FAA3E0F9AC060E8C9D
:102C0A0082758300EF120CE79000C0E0AC060E8CD0
:092C1A0082758300120CE780C9E9
:012C2300228E
:102A3A009000A7EBF0A3EAF0A3E9F0A3ECF0A3ED72
:012A4A00F09B
:102A4B00E4FFFE9000ADF0D39000ABE09FEE64800E
:102A5B00F89000AAE064809840219000A7E0FBA3C7
:102A6B00E475F001120D1BA9F0FA120CCEFD9000CB
:102A7B00ADE02DF00FBF00010E80CC9000ADE0FD5E
:102A8B009000ACE0B50504E4FEFF22ED6008900079
:0A2A9B00ADE0FF7E00227EFF7FFF0A
:012AA500220E
:10207E0004653F800000046900000000046D00004C
:10208E000000047100000000045900000000045D0F
:10209E000000000004610000000004750000000054
:0C20AE00047900000000047D0000000028
:06000E0090007F120E12AB
:1000140090008FE0FCA3E0FDA3E0FEA3E0FF9000CE
:100024008FE0F8A3E0F9A3E0FAA3E0FB120992C081
:1000340004C005C006C00790008BE0FCA3E0FDA34C
:10004400E0FEA3E0FFA804A905AA06FB120992D0CA
:1000540003D002D001D0001208A1C004C005C0061C
:10006400C007900093E0FCA3E0FDA3E0FEA3E0FF43
:10007400A804A905AA06FB120992D003D002D00154
:10008400D0001208A11226027881120E0690008B6D
:10009400E0FCA3E0FDA3E0FEA3E0FF7881120DDD08
:1000A40012099290008B120E1290008FE0FCA3E0D4
:1000B400FDA3E0FEA3E0FF7881120DDD120992900A
:1000C400008F120E12900093E0FCA3E0FDA3E0FE6B
:1000D400A3E0FF7881120DDD120992900093120EB5
:1000E40012786D120DB57865120DDD120992C004F7
:1000F400C005C006C0077871120DB57869120DDD10
:10010400120992D003D002D001D00012089DE4FB62
:10011400FAF978401209927885120E067871120D58
:10012400B5786D120DDD120992C004C005C006C079
:10013400077869120DB57865120DDD120992D003A6
:10014400D002D001D0001208A1E4FBFAF9784012E1
:1001540009927889120E067869120DB57869120D24
:10016400DD120992C004C005C006C0077865120DEF
:10017400B57865120DDD120992D003D002D001D0FA
:100184000012089DC004C005C006C007786D120D9A
:10019400B5786D120DDD120992A804A905AA06AB63
:1001A40007D007D006D005D00412089DC004C005AE
:1001B400C006C0077871120DB57871120DDD1209F1
:1001C40092D003D002D001D0001208A1788D120E73
:1001D400067889120DB5900093E0F8A3E0F9A3E046
:1001E400FAA3E0FB120992C004C005C006C0077858
:1001F4008D120DB590008FE0F8A3E0F9A3E0FAA307
:10020400E0FB120992D003D002D001D00012089D65
:100214007891120E06788D120DB590008BE0F8A33C
:10022400E0F9A3E0FAA3E0FB120992C004C005C000
:1002340006C0077885120DB5900093E0F8A3E0F9A5
:10024400A3E0FAA3E0FB120992D003D002D001D0BC
:100254000012089D7895120E067885120DB590004F
:100264008FE0F8A3E0F9A3E0FAA3E0FB120992C03F
:1002740004C005C006C0077889120DB590008BE054
:10028400F8A3E0F9A3E0FAA3E0FB120992D003D0AB
:1002940002D001D00012089D7899120E06785912E6
:1002A4000DDDC000C001C002C0037F6F7E127D83DC
:1002B4007C3A7891120DDD120992D003D002D0015C
:1002C400D0001208A17859120E06785D120DDDC017
:1002D40000C001C002C0037F6F7E127D837C3A7828
:1002E40095120DDD120992D003D002D001D0001274
:1002F40008A1785D120E067861120DDDC000C00100
:10030400C002C0037F6F7E127D837C3A7899120D00
:10031400DD120992D003D002D001D0001208A178D6
:1003240061120E06784D120DDDC0007891120DB5E4
:10033400D00012089D7875120E067851120DDDC09A
:10034400007895120DB5D00012089D7879120E062A
:100354007855120DDDC0007899120DB5D000120841
:100364009D787D120E067891120DB5784D120E0609
:100374007895120DB57851120E067899120DB5784C
:1003840055120E06E4FFFEFD7C407891120DDD123D
:10039400099290007FE0F8A3E0F9A3E0FAA3E0FB60
:1003A4001208A17859120DDD1208A1C004C005C0BD
:1003B40006C0077F6F7E127D837C3A7875120DDD4F
:1003C400120992D003D002D001D0001208A19000EB
:1003D4007F120E12E4FFFEFD7C407895120DDD12B3
:1003E4000992900083E0F8A3E0F9A3E0FAA3E0FB0C
:1003F4001208A1785D120DDD1208A1C004C005C069
:1004040006C0077F6F7E127D837C3A7879120DDDFA
:10041400120992D003D002D001D0001208A190009A
:1004240083120E12E4FFFEFD7C407899120DDD125A
:100434000992900087E0F8A3E0F9A3E0FAA3E0FBB7
:100444001208A17861120DDD1208A1C004C005C014
:1004540006C0077F6F7E127D837C3A787D120DDDA6
:10046400120992D003D002D001D0001208A190004A
:1004740087120E127865120DDDC000C001C002C0E3
:10048400037869120DB5120BB190007FE0F8A3E078
:10049400F9A3E0FAA3E0FB120992C004C005C00668
:1004A400C007900083E0FCA3E0FDA3E0FEA3E0FF0F
:1004B400786D120DDD120992A804A905AA06AB07EE
:1004C400D007D006D005D00412089DC004C005C0D2
:1004D40006C007900087E0FCA3E0FDA3E0FEA3E0D4
:1004E400FF7871120DDD120992A804A905AA06ABC2
:1004F40007D007D006D005D00412089D7B0A7AD70E
:1005040079A3783B120992D003D002D001D0001213
:1005140008A17865120E067869120DDDC000C001CD
:10052400C002C003900087E0FCA3E0FDA3E0FEA3AB
:10053400E0FF786D120DDD120992C004C005C006FB
:10054400C00790007FE0FCA3E0FDA3E0FEA3E0FF72
:100554007865120DDD120992D003D002D001D000CB
:100564001208A1C004C005C006C007900083E0FCC7
:10057400A3E0FDA3E0FEA3E0FF7871120DDD1209F4
:1005840092A804A905AA06AB07D007D006D005D0C7
:100594000412089D7B0A7AD779A3783B120992D07A
:1005A40003D002D001D0001208A17869120E067897
:1005B4006D120DDDC000C001C002C003900087E0D1
:1005C400FCA3E0FDA3E0FEA3E0FF7869120DDD12B9
:1005D4000992C004C005C006C007900083E0FCA3D4
:1005E400E0FDA3E0FEA3E0FF7865120DDD120992A1
:1005F400D003D002D001D00012089DC004C005C0B1
:1006040006C00790007FE0FCA3E0FDA3E0FEA3E0AA
:10061400FF7871120DDD120992D003D002D001D0FF
:10062400001208A17B0A7AD779A3783B120992D0E9
:1006340003D002D001D0001208A1786D120E067802
:1006440071120DDDC000C001C002C003900083E040
:10065400FCA3E0FDA3E0FEA3E0FF7869120DDD1228
:100664000992C004C005C006C007900087E0FCA33F
:10067400E0FDA3E0FEA3E0FF7865120DDD12099210
:10068400D003D002D001D0001208A1C004C005C01C
:1006940006C00790007FE0FCA3E0FDA3E0FEA3E01A
:1006A400FF786D120DDD120992A804A905AA06AB04
:1006B40007D007D006D005D00412089D7B0A7AD74C
:1006C40079A3783B120992D003D002D001D0001252
:1006D40008A17871120E067869120DB57869120DA9
:1006E400DD120992C004C005C006C0077865120D6A
:1006F400B57865120DDD120992D003D002D001D075
:10070400001208A1C004C005C006C007786D120D10
:10071400B5786D120DDD120992D003D002D001D04C
:10072400001208A1C004C005C006C0077871120DEC
:10073400B5A804A905AA06AB07120992D003D002F2
:10074400D001D0001208A11226027881120E067878
:1007540065120DB57881120DDD1209927865120EBD
:10076400067869120DB57881120DDD120992786947
:10077400120E06786D120DB57881120DDD120992F4
:10078400786D120E067871120DB57881120DDD1296
:1007940009927871120E06E4FFFEFD7C4078651222
:1007A4000DDD1209927869120DDD120992C004C0A0
:1007B40005C006C007E4FFFEFD7C40786D120DDD28
:1007C4001209927871120DDD120992D003D002D071
:1007D40001D0001208A1C004C005C006C007E4FF90
:1007E400FEFD7C40786D120DDD120992786D120DBC
:1007F400DD120992C004C005C006C007E4FFFEFD77
:100804007CC07869120DDD1209927869120DDD122F
:100814000992D003D002D001D00012089DE4FBFA63
:100824007980783F1208A190009B120E12D007D055
:1008340006D005D0041229117B4D7A3D790F7844F6
:10084400120992120C008E338F347871120DB57820
:1008540069120DDD120992C004C005C006C00778F4
:100864006D120DB57865120DDD120992D003D00218
:10087400D001D00012089DE4FBFAF97840120992E5
:10088400122CBB7B4D7A3D790F7844120992120CDD
:05089400008E318F32DF
:01089900223C
:06260200900097120E1279
:10260800E4FFFEFD7C3F900097E0F8A3E0F9A3E02B
:10261800FAA3E0FB12099290009B120E1290009709
:10262800E0FCA3E0FDA3E0FEA3E0FF90009F120EF4
:102638001290009FE0FCA3E0FDA3E0FEA3E0FFA34F
:10264800120E129000A3E0FCA3E0FDA3E0FEA3E0BD
:10265800FF7801120D8EC374DF9FFF74599EFE74BC
:10266800379DFD745F9CFC9000A3120E129000A38E
:10267800E0FCA3E0FDA3E0FEA3E0FF90009F120EA4
:102688001290009FE0FCA3E0FDA3E0FEA3E0FF9012
:10269800009BE0F8A3E0F9A3E0FAA3E0FB1209929B
:1026A80090009FE0F8A3E0F9A3E0FAA3E0FB120989
:1026B80092A804A905AA06AB07E4FFFE7DC07C3FEB
:1026C80012089D90009FE0F8A3E0F9A3E0FAA3E0C8
:1026D800FB12099290009F120E1290009FE0FCA33B
:0826E800E0FDA3E0FEA3E0FF0A
:0126F00022C7
:072E2100D2B4122E28C2B446
:042E28007F02DFFE48
:012E2C002283
:0F2E0500D2B5D2B4122E28C2B5122E28C2B422D2
:0C2E2D00C2B5D2B4122E28D2B5022E2855
:0D2E1400D2B4122E28A2B5C2B4122E28226C
:022DCC00AE0750
:102DCE00E4FDEE25E0FE92B5122E210DEDB408F2D3
:032DDE00022E14AE
:102D7900E4FED2B5FDEE25E0FED2B4122E28A2B5AE
:102D8900E4334EFEC2B4122E280DEDB408E7AF06A7
:012D99002217
:102DB300AC05AB07122E057FD0122DCCAF03122D1D
:092DC300CCAF04122DCC022E2D20
:102D5600E4FD7F6B122DB37D077F19122DB37D0421
:102D66007F1A122DB37D087F1B122DB37D187F1C91
:032D7600022DB378
:0B2AA60090007FEBF0A3EAF0A3E9F042
:102AB100122E057FD0122DCC7F3B122DCC122E056C
:102AC1007FD1122DCCE4FC122D7990007FE0FBA385
:102AD100E0FAA3E0F98C82758300EF120CE7C2B52E
:102AE100122E210CECB40DDF122D7990007FE0FB4A
:102AF100A3E0FAA3E0F9AE048E82758300EF120C15
:092B0100E7D2B5122E21022E2D9F
:081BA60090007FEEF0A3EFF0C8
:101BAE00AE04AF059000AFE0FCA3E0FD900081EC29
:101BBE00F0A3EDF0900081ECF0A3EDF09000B2E018
:101BCE002FFF9000B1E03EFE3395E0FDFC900087C4
:101BDE00120E12900087E0FCA3E0FDA3E0FEA3E04E
:101BEE00FF780F120DA290008D120E12AE02AF03EF
:101BFE00EE3395E0FDFC900087E0F8A3E0F9A3E05A
:101C0E00FAA3E02FFBEA3EFAE93DF9E83CF8900032
:101C1E008DE0FCA3E0FDA3E0FEA3E0FF122C779085
:101C2E00008BEEF0A3EFF0900081E0FEA3E0FFC387
:101C3E00900080E09FFF90007FE09EAB07FA339507
:101C4E00E0F9F890008BE0FEA3E0FFEE3395E0FDA7
:101C5E00FC120D31780F120D8EA804A905AA06AB41
:101C6E0007900081E0FEA3E0FFEE3395E0FDFCEB74
:101C7E002FFFEA3EFEE93DFDE83CFCA3120E12905A
:101C8E00008BE0FEA3E0FBAA06EA3395E0F9F8C369
:101C9E00E49BFF74809AFEE499FDE498FC90008723
:101CAE00E0F8A3E0F9A3E0FAA3E0FB120D31780F00
:101CBE00120D8E9000B1EEF0A3EFF0900083A3A36F
:0D1CCE00E0FEA3E0FF9000AFEEF0A3EFF00A
:011CDB0022E6
:081CDC0090007FEEF0A3EFF091
:101CE400AE04AF059000B3E0FCA3E0FD900081ECEE
:101CF400F0A3EDF0900081ECF0A3EDF09000B6E0DD
:101D04002FFF9000B5E03EFE3395E0FDFC90008788
:101D1400120E12900087E0FCA3E0FDA3E0FEA3E016
:101D2400FF780F120DA290008D120E12AE02AF03B7
:101D3400EE3395E0FDFC900087E0F8A3E0F9A3E022
:101D4400FAA3E02FFBEA3EFAE93DF9E83CF89000FB
:101D54008DE0FCA3E0FDA3E0FEA3E0FF122C77904E
:101D6400008BEEF0A3EFF0900081E0FEA3E0FFC350
:101D7400900080E09FFF90007FE09EAB07FA3395D0
:101D8400E0F9F890008BE0FEA3E0FFEE3395E0FD70
:101D9400FC120D31780F120D8EA804A905AA06AB0A
:101DA40007900081E0FEA3E0FFEE3395E0FDFCEB3D
:101DB4002FFFEA3EFEE93DFDE83CFCA3120E129023
:101DC400008BE0FEA3E0FBAA06EA3395E0F9F8C332
:101DD400E49BFF74809AFEE499FDE498FC900087EC
:101DE400E0F8A3E0F9A3E0FAA3E0FB120D31780FC9
:101DF400120D8E9000B5EEF0A3EFF0900083A3A334
:0D1E0400E0FEA3E0FF9000B3EEF0A3EFF0CE
:011E110022AE
:081E120090007FEEF0A3EFF059
:101E1A00AE04AF059000B7E0FCA3E0FD900081ECB2
:101E2A00F0A3EDF0900081ECF0A3EDF09000BAE0A1
:101E3A002FFF9000B9E03EFE3395E0FDFC9000874D
:101E4A00120E12900087E0FCA3E0FDA3E0FEA3E0DF
:101E5A00FF780F120DA290008D120E12AE02AF0380
:101E6A00EE3395E0FDFC900087E0F8A3E0F9A3E0EB
:101E7A00FAA3E02FFBEA3EFAE93DF9E83CF89000C4
:101E8A008DE0FCA3E0FDA3E0FEA3E0FF122C779017
:101E9A00008BEEF0A3EFF0900081E0FEA3E0FFC319
:101EAA00900080E09FFF90007FE09EAB07FA339599
:101EBA00E0F9F890008BE0FEA3E0FFEE3395E0FD39
:101ECA00FC120D31780F120D8EA804A905AA06ABD3
:101EDA0007900081E0FEA3E0FFEE3395E0FDFCEB06
:101EEA002FFFEA3EFEE93DFDE83CFCA3120E1290EC
:101EFA00008BE0FEA3E0FBAA06EA3395E0F9F8C3FB
:101F0A00E49BFF74809AFEE499FDE498FC900087B4
:101F1A00E0F8A3E0F9A3E0FAA3E0FB120D31780F91
:101F2A00120D8E9000B9EEF0A3EFF0900083A3A3F8
:0D1F3A00E0FEA3E0FF9000B7EEF0A3EFF093
:011F47002277
:081F480090007FEEF0A3EFF022
:101F5000AE04AF059000BBE0FCA3E0FD900081EC77
:101F6000F0A3EDF0900081ECF0A3EDF09000BEE066
:101F70002FFF9000BDE03EFE3395E0FDFC90008712
:101F8000120E12900087E0FCA3E0FDA3E0FEA3E0A8
:101F9000FF780F120DA290008D120E12AE02AF0349
:101FA000EE3395E0FDFC900087E0F8A3E0F9A3E0B4
:101FB000FAA3E02FFBEA3EFAE93DF9E83CF890008D
:101FC0008DE0FCA3E0FDA3E0FEA3E0FF122C7790E0
:101FD000008BEEF0A3EFF0900081E0FEA3E0FFC3E2
:101FE000900080E09FFF90007FE09EAB07FA339562
:101FF000E0F9F890008BE0FEA3E0FFEE3395E0FD02
:10200000FC120D31780F120D8EA804A905AA06AB9B
:1020100007900081E0FEA3E0FFEE3395E0FDFCEBCE
:102020002FFFEA3EFEE93DFDE83CFCA3120E1290B4
:10203000008BE0FEA3E0FBAA06EA3395E0F9F8C3C3
:10204000E49BFF74809AFEE499FDE498FC9000877D
:10205000E0F8A3E0F9A3E0FAA3E0FB120D31780F5A
:10206000120D8E9000BDEEF0A3EFF0900083A3A3BD
:0D207000E0FEA3E0FF9000BBEEF0A3EFF058
:01207D002240
:1020BA0042002B000042002D000042003000004286
:1020CA0000320000420034000042001300004200C7
:1020DA00170000420019000042001B000041004E98
:1020EA0000410053004100580044007700000000FE
:1020FA004400730000000044007B0000000042001E
:10210A000F000042001100004200150000021600F4
:10211A00000214000002180000023100000233001D
:10212A00004400070000000044000B0000000044C7
:10213A00006B0000000044005D0000000044006FD6
:10214A000000000044006300000000440067000033
:10215A0000004400270000000044004A000000007C
:10216A0044004F00000000440054000000004400F6
:10217A0059000000004400360000000044003A0004
:10218A000000004400400000000042003E000042FF
:10219A000044000042000100004200030000420027
:0321AA000500002D
:10132900900046E0FCA3E0FDE4120BC7E4FBFAF9E8
:1013390078C31208A1E4FBFAF97840120992120C59
:1013490000900001EEF0A3EFF0C3E49532FDE495BF
:1013590031FCC3ED9FFBEC9EFA90004EE0FF339504
:10136900E0FE7C007D05120D09EF2BFDEE3AFC1223
:101379000BC7900036120E12D390002CE0941490F3
:10138900002BE0940090005D4024E0FCA3E0FDA365
:10139900E0FEA3E0FF900036E0F8A3E0F9A3E0FA4D
:1013A900A3E0FB1208A190005D120E128007120E35
:1013B9001E00000000E4FFFE7D487C4490005DE0D3
:1013C900F8A3E0F9A3E0FAA3E0FB120B38600E40A2
:1013D9000C90005D120E1E444800008024E4FFFEBC
:1013E9007D487CC490005DE0F8A3E0F9A3E0FAA38E
:1013F900E0FB120B38500A90005D120E1EC4480023
:1014090000900036E0FCA3E0FDA3E0FEA3E0FF129C
:101419000C00EC120BC2E4FBFA79407841120992F4
:10142900120C007810120E0690005DE0FCA3E0FD9E
:10143900A3E0FEA3E0FF120C00E47B5C7A0FF9F84D
:10144900120D31780F120D8E780C120E067816E6F1
:10145900FC08E6FDEC120BC790000BE0F8A3E0F9DD
:10146900A3E0FAA3E0FB1208A1E4FBFAF978401221
:101479000A9B7B667A6679A67840120992120C005B
:101489007808120E06780C120DB57810120DDDEBE6
:101499002FFFEA3EFEE93DFDE83CFC7808120DDD30
:1014A900EF2BFFEE3AFEED39FDEC38FCEF2405FF9A
:1014B900E43EFEE43DFDE43CFCE47B0AFAF9F81263
:1014C9002C77EC120BC28F388E378D368C35900005
:1014D90036E0FCA3E0FDA3E0FEA3E0FF90004A1282
:1014E9000E127816E6FC08E6FDEC120BC7A804A953
:1014F90005AA06AB07AF38AE37AD36AC3512089D35
:10150900120C0090003EEEF0A3EFF0D390002CE017
:10151900941490002BE0940090006B4032E0F8A303
:10152900E0F9A3E0FAA3E0FBC000C001C002C003D8
:1015390090003EE0FCA3E0FDEC120BC7D003D00203
:10154900D001D0001208A190006B120E1280071270
:101559000E1E00000000E4FFFE7D487C4490006BF5
:10156900E0F8A3E0F9A3E0FAA3E0FB120B38600E60
:10157900400C90006B120E1E444800008024E4FFCA
:10158900FE7D487CC490006BE0F8A3E0F9A3E0FA83
:10159900A3E0FB120B38500A90006B120E1EC448D0
:1015A900000090003EE0FEA3E0FFEE3395E0FDFC75
:1015B900E47BAE7A27F9F8120D31780F120D8E7887
:1015C90010120E0690006BE0FCA3E0FDA3E0FEA361
:1015D900E0FF120C00E47B897A01F9F8120D3178E9
:1015E9000F120D8E780C120E0690003EE0FEA3E05D
:1015F900FFEE3395E0FDFC120BC2900054E0F8A316
:10160900E0F9A3E0FAA3E0FB12089D7B9A7A9979A5
:10161900897840120992120C007808120E06780C8B
:10162900120DB57810120DDDEB2FFFEA3EFEE93DF4
:10163900FDE83CFC7808120DDDEF2BFFEE3AFEEDDC
:1016490039FDEC38FC120BC28F388E378D368C354C
:1016590090003EE0FCA3E0FDEC120BC79000541291
:101669000E12E4FFFE7D7A7C44AB38AA37A936A86E
:1016790035120B38600D400BE4F538F53775367ABD
:10168900753544E4FFFE7D7A7CC4AB38AA37A936A8
:10169900A835120B38500BE4F538F53775367A75DD
:1016A90035C4AF38AE37AD36AC35120C0090002DCD
:1016B900EEF0A3EFF0AF38AE37AD36AC35120BB163
:1016C900120C00900030EEF0A3EFF0AF38AE37AD5A
:1016D90036AC35120C00900034EEF0A3EFF0AF38C1
:1016E900AE37AD36AC35120BB1120C00900032EEAC
:0516F900F0A3EFF02258
:100F1D00900022E0FCA3E0FDE4120BC7E4FBFAF91C
:100F2D0078C31208A1E4FBFAF97840120992120C69
:100F3D0000900003EEF0A3EFF0C3E49534FDE495CB
:100F4D0033FCC3ED9FFBEC9EFA900053E0FF33950D
:100F5D00E0FE7C007D05120D09C3EB9FFDEA9EFCB2
:100F6D00120BC790003A120E12D390002CE094147D
:100F7D0090002BE094009000634024E0FCA3E0FD82
:100F8D00A3E0FEA3E0FF90003AE0F8A3E0F9A3E0B0
:100F9D00FAA3E0FB1208A1900063120E1280071253
:100FAD000E1E00000000E4FFFE7D487C44900063AF
:100FBD00E0F8A3E0F9A3E0FAA3E0FB120B38600E12
:100FCD00400C900063120E1E444800008024E4FF84
:100FDD00FE7D487CC4900063E0F8A3E0F9A3E0FA3D
:100FED00A3E0FB120B38500A900063120E1EC4488A
:100FFD00000090003AE0FCA3E0FDA3E0FEA3E0FFBB
:10100D00120C00EC120BC2E4FBFA79407841120984
:10101D0092120C007810120E06900063E0FCA3E013
:10102D00FDA3E0FEA3E0FF120C00E47B5C7A0FF958
:10103D00F8120D31780F120D8E780C120E067814F1
:10104D00E6FC08E6FDEC120BC7900007E0F8A3E004
:10105D00F9A3E0FAA3E0FB1208A1E4FBFAF978404A
:10106D00120A9B7B667A6679A67840120992120C59
:10107D00007808120E06780C120DB57810120DDDE1
:10108D00EB2FFFEA3EFEE93DFDE83CFC7808120D32
:10109D00DDEF2BFFEE3AFEED39FDEC38FCEF2405CC
:1010AD00FFE43EFEE43DFDE43CFCE47B0AFAF9F886
:1010BD00122C77EC120BC28F388E378D368C359003
:1010CD00003AE0FCA3E0FDA3E0FEA3E0FF90004F9B
:1010DD00120E127814E6FC08E6FDEC120BC7A804FC
:1010ED00A905AA06AB07AF38AE37AD36AC35120839
:1010FD009D120C00900044EEF0A3EFF0D390002C65
:10110D00E0941490002BE0940090006F4032E0F8D2
:10111D00A3E0F9A3E0FAA3E0FBC000C001C002C048
:10112D0003900044E0FCA3E0FDEC120BC7D003D00C
:10113D0002D001D0001208A190006F120E1280078C
:10114D00120E1E00000000E4FFFE7D487C4490005E
:10115D006FE0F8A3E0F9A3E0FAA3E0FB120B38600F
:10116D000E400C90006F120E1E444800008024E4C7
:10117D00FFFE7D487CC490006FE0F8A3E0F9A3E08A
:10118D00FAA3E0FB120B38500A90006F120E1EC42A
:10119D00480000900044E0FEA3E0FFEE3395E0FD33
:1011AD00FCE47BAE7A27F9F8120D31780F120D8E13
:1011BD007810120E0690006FE0FCA3E0FDA3E0FE98
:1011CD00A3E0FF120C00E47B897A01F9F8120D31CE
:1011DD00780F120D8E780C120E06900044E0FEA3CF
:1011ED00E0FFEE3395E0FDFC120BC2900059E0F8E4
:1011FD00A3E0F9A3E0FAA3E0FB12089D7B9A7A998C
:10120D0079897840120992120C007808120E06782E
:10121D000C120DB57810120DDDEB2FFFEA3EFEE935
:10122D003DFDE83CFC7808120DDDEF2BFFEE3AFE9C
:10123D00ED39FDEC38FC120BC28F388E378D368CA4
:10124D0035900044E0FCA3E0FDEC120BC790005973
:10125D00120E12E4FFFE7D7A7C44AB38AA37A93614
:10126D00A835120B38600D400BE4F538F53775369F
:10127D007A753544E4FFFE7D7A7CC4AB38AA37A974
:10128D0036A835120B38500BE4F538F53775367A2C
:10129D007535C490002DE0FCA3E0FDEC120BC7AB3F
:1012AD0038AA37A936A8351208A1120C0090002DC6
:1012BD00EEF0A3EFF0900030E0FCA3E0FDEC120B9C
:1012CD00C7AB38AA37A936A8351208A1120C009061
:1012DD000030EEF0A3EFF0900034E0FCA3E0FDEC65
:1012ED00120BC7AB38AA37A936A83512089D120CB8
:1012FD0000900034EEF0A3EFF0900032E0FCA3E09C
:10130D00FDEC120BC7AB38AA37A936A83512089DCC
:0C131D00120C00900032EEF0A3EFF02262
:1016FE00900061E0FCA3E0FDE4120BC7E4FBFAF9F5
:10170E0078C31208A1E4FBFA79827842120992C0DA
:10171E0004C005C006C0077818E6FE08E6FFC3E45D
:10172E009FFDE49EFC120BC7D003D002D001D00067
:10173E001208A1C004C005C006C007900058E0FF03
:10174E003395E0FE7C007D14120D09AC06AD07EC5E
:10175E00120BC7D003D002D001D0001208A1120C78
:10176E0000900005EEF0A3EFF0D390002CE094145F
:10177E0090002BE094009000674032E0F8A3E0F96F
:10178E00A3E0FAA3E0FBC000C001C002C0039000BA
:10179E0005E0FCA3E0FDEC120BC7D003D002D00194
:1017AE00D0001208A1900067120E128007120E1EB2
:1017BE00000000007F007E507D437C47900067E074
:1017CE00F8A3E0F9A3E0FAA3E0FB120B38600E4099
:1017DE000C900067120E1E4743500080257F007E3E
:1017EE00507D437CC7900067E0F8A3E0F9A3E0FAD0
:1017FE00A3E0FB120B38500A900067120E1EC7436F
:10180E005000900005E0FEA3E0FFEE3395E0FDFCF6
:10181E00120BC2E4FBFA79A07840120992120C0066
:10182E007810120E06900067E0FCA3E0FDA3E0FE28
:10183E00A3E0FF120C00E47BB87A1EF9F8120D310A
:10184E00780F120D8E780C120E06900005E0FEA396
:10185E00E0FFEE3395E0FDFC120BC2900027E0F89E
:10186E00A3E0F9A3E0FAA3E0FB12089DE4FBFA79EA
:10187E00807840120992120C007808120E06780C2D
:10188E00120DB57810120DDDEB2FFFEA3EFEE93D8D
:10189E00FDE83CFC7808120DDDEF2BFFEE3AFEED75
:1018AE0039FDEC38FC7806120D8EEC120BC28F3817
:1018BE008E378D368C35900005E0FCA3E0FDEC12E2
:1018CE000BC7900027120E1290002DE0FCA3E0FD36
:1018DE00EC120BC7AB38AA37A936A8351208A112DD
:1018EE000C0090002DEEF0A3EFF0900030E0FCA382
:1018FE00E0FDEC120BC7AB38AA37A936A835120893
:10190E009D120C00900030EEF0A3EFF0900034E04A
:10191E00FCA3E0FDEC120BC7AB38AA37A936A835ED
:10192E0012089D120C00900034EEF0A3EFF0900020
:10193E0032E0FCA3E0FDEC120BC7AB38AA37A93698
:10194E00A8351208A1120C00900032EEF0A3EFF0B1
:01195E002266
:102C2400E5322484FFE5313403FED3EF94B0EE643F
:102C34008094844002802FC3EF94F4EE64809481E6
:102C440050028022E5342484FFE5333403FED3EFBD
:102C540094B0EE648094844002800BC3EF94F4EE4D
:102C640064809481500AC281E490002BF0A3F02286
:032C7400D28122E8
:1025100090002DE0FEA3E0FF90002BE0FCA3E0FD87
:102520002FFFEC3EFE900013F0A3EFF0D394E8EE03
:1025300064809483400C9000137403F0A374E8F05B
:10254000800FC3900013E0648094805004E4F0A3F3
:10255000F0900030E0FEA3E02DFFEC3EFE9000176F
:10256000F0A3EFF0D394E8EE64809483400C9000E5
:10257000177403F0A374E8F0800FC3900017E064B1
:102580008094805004E4F0A3F0900032E0FEA3E0D9
:10259000FF90002BE0FCA3E0FD2FFFEC3EFE90003F
:1025A00019F0A3EFF0D394E8EE64809483400C908C
:1025B00000197403F0A374E8F0800FC3900019E0D1
:1025C000648094805004E4F0A3F0900034E0FEA313
:1025D000E02DFFEC3EFE90001BF0A3EFF0D394E85B
:1025E000EE64809483400B90001B7403F0A374E8A6
:1025F000F022C390001BE0648094805004E4F0A3B8
:02260000F022C6
:1026F10090001DE0FF90002FE0B50749900026E013
:1027010004F0C3941450030227A57413F0900061E0
:10271100E4F0A37480F0900046E4F0A37480F0909C
:102721000022E4F0A37480F0D390002CE094149084
:10273100002BE09400406DA3E024FFF090002BE01B
:1027410034FFF0805FE4900026F0900024E0FEA3C7
:10275100E0FFD394E9EE9403400C9000247403F05D
:10276100A374E8F0803ED3EF9432EE9400402690BB
:102771000025E0242CFD900024E03401FCE4120B40
:10278100C77B667A6679A6783F120A9B120C009085
:10279100002BEE800B900024E0FFA3E090002BCFF4
:1027A100F0A3EFF090002FE090001DF0900024E0E6
:0C27B100FFA3E090002BCFF0A3EFF0227C
:10089A00020C6CE86480F8E933E83360110460F014
:1008AA00ED33EC337009E8FCE9FDEAFEEBFF2204C4
:1008BA0060DED3EB9FEA9EE99DE8C2E78CF0C2F7BF
:1008CA0095F0400CE8CCF8E9CDF9EACEFAEBCFFB8B
:1008DA00120C3785D0F05804700320D5B3E80470A1
:1008EA00075002B2D5020C7692D5EC0460F7E4CC3C
:1008FA00C0E0C398F8603B94186008400DD0E0FB54
:10090A00020C4EE4FBFAC9FC8028E830E406E4C98C
:10091A00FBE4CAFCE830E305E4C9CACBFCE85407A7
:10092A006010F8C3E913F9EA13FAEB13FBEC13FCB2
:10093A00D8F130F52FC3E49CFCEF9BFFEE9AFEED55
:10094A0099FDD0E0FBEF4E4D4C701222DB03020CF6
:10095A0073EC2CFCEF33FFEE33FEED33FDED30E7A5
:10096A00EB020C4EEF2BFFEE3AFEED39FDD0E0FB29
:10097A0050130BBB0003020C76ED13FDEE13FEEFD2
:08098A0013FFEC13FC020C4EFC
:10099200EC4D6011E8497017ED33EC3304600DE45F
:1009A200FCFFFEFD22E933E8330470F8020C6C12FE
:1009B2000C3758046009E4CC2481500628500902FF
:1009C2000C76284003020C73C0E0EB4A7044B980F5
:1009D20006D0E0FB020C62EF4E701CBD8008EBFFFC
:1009E200EAFEE9FD80EBE98DF0A4FEE5F0020A7B68
:1009F200E9CDF9EAFEEBFFEF89F0A4FCE5F0CE8940
:100A0200F0A42EFFE435F0CD89F0A42DFEE435F0FC
:100A12008067EF4E7005BD80D780C3EF8BF0A4AC2A
:100A2200F0EE8BF0A42CFCE435F0F8EF8AF0A42C65
:100A3200E5F038FCE433CB8DF0A42CFCE5F03BF878
:100A4200EE8AF0A42CFCE5F038F8E433CF89F0A468
:100A52002CFCE5F038CF3400CE89F0A42FFFE5F06E
:100A62003EFEE433C98DF0A42EFEE5F039CD8AF0C6
:100A7200A42FFFE5F03EFEE43DFD33D0E0FB50073E
:100A82000BBB000F020C76EC2CFCEF33FFEE33FEB7
:060A9200ED33FD020C4EE5
:100A9800020C76EC5D046005E859047003020C6CE6
:100AA800120C37580460F6EC4860F2EC7004FDFE56
:100AB800FF22C860DB2481C85009C3986002500631
:100AC800020C739850CAF582E9294B4A7005AB822B
:100AD800020C6275F0007C1A7880C3EF9BEE9AEDE9
:100AE80099400DC3EF9BFFEE9AFEED99FDE842F0A9
:100AF800DC23ACF0D0E0FFD0E0FED0E0FDAB8220FC
:100B0800E7101BEB60BAEC2CFCEF33FFEE33FEED85
:100B180033FD020C4EE803F830E705C0F075F0002D
:100B2800EF2FFFEE33FEED33FD40B830E7C280AA69
:100B380074F8CC6480CCC86480C8F58204604FC364
:100B4800EB9FF5F0EA9E42F0E99D42F0E89C45F003
:100B5800603C501DE5825FFFE582D313CB5BCBF48D
:100B68002B5582FB50280ABA002409B900200880B6
:100B78001DE5825BFBE582D313CF5FCFF4C3132F50
:100B88005582FF50090EBE00050DBD00010CC3EBD8
:100B98009FF5F0EA9E42F0E99D42F0E89C45F0603E
:090BA80007CC4820E701B3EC2260
:100BB100ED33EC33600A047003BD8004ECB2E7FC52
:010BC1002211
:100BC20075F020800E75F010800575F0087D007EAE
:100BD200007F003392D530D503120D80EC334010E4
:100BE200EF33FFEE33FEED33FDEC33FCD5F0ED22B7
:0E0BF200E5F0247EA2D513CC92E7CDCEFF22F3
:100C0000EDD2E7CD33EC3392D524814006E4FFFEEC
:100C1000FDFC22FCE4CFCECDCC24E0501174FF804B
:100C2000EDC3CC13CCCD13CDCE13CECF13CF0470E8
:070C3000F030D5DE020D805B
:10291100900097120E1290009BE0F8A3E0F9A3E05B
:10292100FAA3E0FB900097E0FCA3E0FDA3E0FEA387
:10293100E0FF120A9B1221CE900097120E12900016
:102941009BE030E759900097E0FCA3E0FDA3E0FE97
:10295100A3E0FFECC0E0EDC0E0EEC0E0EFC0E0E4DA
:10296100FFFEFDFC900097E0F8A3E0F9A3E0FAA3D5
:10297100E0FB120B387BDB600250087A0F79497853
:102981004080067A0F794978C0D0E0FFD0E0FED0D0
:10299100E0FDD0E0FC1208A1900097120E12900009
:0D29A10097E0FCA3E0FDA3E0FEA3E0FF2211
:102CBB00ECC0E0F8EDC0E0F9EEC0E0FAEFC0E0FBED
:102CCB00120992EC6480FC7B007A007980783F12C9
:102CDB0008A11227C1D0E0CFFBD0E0CEFAD0E0CDD7
:0B2CEB00F9D0E0CCF8120A9B0221CEC9
:100C3700E9D2E7C933E833F892D5EDD2E7CD33EC03
:070C470033FC5002B2D5227C
:100C4E00EC30E7100FBF000C0EBE00080DBD000407
:100C5E000BEB6014A2D5EB13FCED92E7FD2274FFB3
:100C6E00FCFDFEFF22E480F8A2D574FF13FC7D800C
:030C7E00E480EF20
:1027BD00020C6C22EDA2E7D2E7F9EC3340F260F3A4
:1027CD00B4FF08ED547F70E8020C76F82481C2E066
:1027DD00C0E0F40428FAC313FCED92E7FD900097D6
:1027ED00120E12EEA2E7E9BA7F02C3133400940071
:1027FD00FA75F091A4E5F013F494FE8AF0A433E594
:10280D00F033248CD313FDE492E7FE7F007C3F75FB
:10281D008302ECC0E0F8EDC0E0F9EEC0E0FAEFC0E5
:10282D00E0FB8583F0900097120DC185F083120AAD
:10283D009BD0E0FBD0E0FAD0E0F9D0E0F81208A18F
:10284D00ED6480FD30E7011CD583C7ED33CC33F843
:0C285D00D0E0A2E71328C313CC13FD2227
:1021AE00BE1249253E4CCCCDBEAAAAAB3F80000044
:1021BE003E7ADBB03EED63383F24BC7D3F490FDBFA
:1021CE00ED33ECC2E7CC339200B4FF13ED547F60D5
:1021DE0003020C6C7FDB7E0F7DC97C3F0222C3C2E3
:1021EE0001C3947F401E7007EDD2E794904015EF27
:1021FE00FBEEFAEDF9ECF87F007E007D807C3F125D
:10220E000A9BD201ED33EC33248430E705E4C0E0C1
:10221E00806B04FAEDD2E754F0C333DAFD54073481
:10222E00002323C0E0CCC0E0F8EDC0E0F9EEC0E042
:10223E00FAEFC0E0FBE4120BCCEC24FEFC90009F06
:10224E00120E121209927B007A007980783F1208E2
:10225E00A190009FE0B2E7CCF0A3E0CDF0A3E0CEDA
:10226E00F0A3E0CFF0D0E0FBD0E0FAD0E0F9D0E080
:10227E00F81208A190009F120DEA120A9B90009F7F
:10228E00120E129021AE7403120C8190009F120D4B
:10229E00EA120992D0E0600F24BAF582E43421F5F7
:1022AE0083120DF61208A130010B7BDB7A0F79C970
:1022BE0078BF1208A1ED33EC336006ECA20092E772
:0222CE00FC22F0
:100C8100C0E0EFFBEEFAEDF9ECF8120992D0E0F5D5
:100C9100F0EFFBEEFAEDF9ECF8120DCDA3A3A3A34F
:100CA100E8C0E0E9C0E0EAC0E0EBC0E0C0F0120952
:100CB10092120DF6A3A3A3A31208A1D0F0D0E0FBDA
:0D0CC100D0E0FAD0E0F9D0E0F8D5F0D42270
:030000000229AE24
:0C29AE00787FE4F6D8FD75819C0229F5C5
:100CCE00BB010689828A83E0225002E722BBFE0224
:090CDE00E32289828A83E4932257
:100CE700F8BB010DE58229F582E5833AF583E8F043
:100CF700225006E92582C8F622BBFE05E92582C8EF
:020D0700F222D6
:100D0900EF8DF0A4A8F0CF8CF0A428CE8DF0A42EFE
:020D1900FE22B8
:100D1B00A3F8E0C5F025F0F0E5821582700215838B
:060D2B00E0C838F0E822E8
:100D3100E88FF0A4CC8BF0A42CFCE98EF0A42CFC61
:100D41008AF0EDA42CFCEA8EF0A4CDA8F08BF0A4DF
:100D51002DCC3825F0FDE98FF0A42CCD35F0FCEB3E
:100D61008EF0A4FEA9F0EB8FF0A4CFC5F02ECD3903
:0F0D7100FEE43CFCEAA42DCE35F0FDE43CFC2270
:102C7700C2D5E830E70FB2D5E4C39BFBE49AFAE488
:102C870099F9E498F8EC30E717B2D5122CAD120E8B
:102C97008BE4C39BFBE49AFAE499F9E498F8800380
:102CA700120E8B30D50DE4C39FFFE49EFEE49DFD1D
:042CB700E49CFC227B
:0E0D8000C3E49FFFE49EFEE49DFDE49CFC2284
:100D8E00E86010ECA2E713FCED13FDEE13FEEF137B
:040D9E00FFD8F02268
:100DA200E8600FEFC333FFEE33FEED33FDEC33FCAF
:030DB200D8F12253
:0C0DB500E6FC08E6FD08E6FE08E6FF226A
:0C0DC100E0FCA3E0FDA3E0FEA3E0FF22A5
:100DCD00E493FC740193FD740293FE740393FF226C
:0D0DDD00E6FB08E6F908E6FA08E6CBF82286
:0C0DEA00E0F8A3E0F9A3E0FAA3E0FB228C
:100DF600E493F8740193F9740293FA740393FB2253
:0C0E0600ECF608EDF608EEF608EFF62218
:0C0E1200ECF0A3EDF0A3EEF0A3EFF02253
:100E1E00A8828583F0D083D082120E35120E351241
:100E2E000E35120E35E473E493A3C583C5F0C58366
:100E3E00C8C582C8F0A3C583C5F0C583C8C582C81E
:010E4E002281
:1029BA000223F1E493A3F8E493A34003F68001F21F
:1029CA0008DFF48029E493A3F85407240CC8C3331E
:1029DA00C4540F4420C8834004F456800146F6DFED
:1029EA00E4800B010204081020408090207EE47EDF
:1029FA00019360BCA3FF543F30E509541FFEE493E2
:102A0A00A360010ECF54C025E060A840B8E493A3A8
:102A1A00FAE493A3F8E493A3C8C582C8CAC583CAD3
:102A2A00F0A3C8C582C8CAC583CADFE9DEE780BE8B
:0121AD000031
:100E4F0075F008758200EF2FFFEE33FECD33CDCC5A
:100E5F0033CCC58233C5829BED9AEC99E5829840DD
:100E6F000CF582EE9BFEED9AFDEC99FC0FD5F0D6BA
:100E7F00E4CEFBE4CDFAE4CCF9A88222B800C1B9E4
:100E8F000059BA002DEC8BF084CFCECDFCE5F0CB22
:100E9F00F97818EF2FFFEE33FEED33FDEC33FCEB5B
:100EAF0033FB10D703994004EB99FB0FD8E5E4F916
:100EBF00FA227818EF2FFFEE33FEED33FDEC33FC03
:100ECF00C933C910D7059BE99A4007EC9BFCE99AF7
:100EDF00F90FD8E0E4C9FAE4CCFB2275F010EF2F3C
:100EEF00FFEE33FEED33FDCC33CCC833C810D7073C
:100EFF009BEC9AE899400AED9BFDEC9AFCE899F877
:0E0F0F000FD5F0DAE4CDFBE4CCFAE4C8F92209
:00000001FF
