:0E2F700055617274205465737420210D0A009F
:101BD100E49000A7F01228F39000AE7403F0A37410
:101BE100E8F0FB7A03FD7C03FF7E03122DFAC2812C
:101BF100D282122E69D281C282122E69D281D28200
:101C0100C283122E6BD281D282D2837F0A7E0012CE
:101C11002E6F7F0A7E00122E6F122E8F7F0A7E009A
:101C2100122E6F12235F7F647E00122E6F122F3DE2
:101C31009000AC120F17016E36007F007EC27D014D
:101C41007C00122AC47F647E00122E6FE490002C67
:101C5100F0A3F0900061F0A37480F0900044E4F0F0
:101C6100A37480F090002AE4F0A37480F0C283E4AE
:101C710090004DF0900052F0900057F0D2ACD2AFEE
:101C81007BFF7A2F7970122E347B007A007939909C
:101C910000ADE543F07D0A7C00122B3EEF4E600360
:101CA100021D4990005CE065396045E49000A7F0B1
:101CB1009000A7E0FFC3940A502874392FF8E65426
:101CC100F0C4540FFF7D01122EEF9000A7E02439DC
:101CD100F8E6540FFF7D01122EEF9000A7E004F00B
:101CE10080CEE4FD7F0D122EEFE4FD7F0A122EEF70
:101CF10090005CE539F0900002E53AF0E53B75F0C3
:101D0100FFA47C00253CFEEC35F090002CF0A3CE26
:101D1100F0900061E4F0A3E53DF0900044E4F0A30D
:101D2100E53EF090002AE4F0A3E53FF0E540248091
:101D310090004DF0E5412480900052F0E54224806E
:101D4100900057F0D2828002C282900002E0FFB47C
:101D51000102D283EFB40502C2837F037E00122EFB
:041D61006F021C8A67
:102F3D00538E7F5389F0758A40758CA2C28DD28CC9
:032F4D00D2A922E4
:062E6900D2837FF47E011C
:102E6F00E4FDFCC3ED9FEC9E5015E4FBFA0BBB0099
:0F2E7F00010AEB64FA4A70F50DBD00010C80E406
:012E8E002221
:03000B0002198A4D
:10198A00C0E0C0F0C083C082C0D075D000C000C023
:10199A0001C002C003C004C005C006C007122F0B55
:1019AA007B007A0079397D0F122CD37B007A00797B
:1019BA0021122BAA7466FBFA7D997C19AF22AE21FB
:1019CA00121D65900020EEF0A3EFF07466FBFA7D1D
:1019DA00997C19AF24AE23121E9B900022EEF0A32D
:1019EA00EFF07466FBFA7D997C19AF26AE25121FBB
:1019FA00D1900024EEF0A3EFF0AC29AD2AEC120B43
:101A0A00DFE4FBFA79837842120AB3120C187814CD
:101A1A00A60608A607AC2BAD2CEC120BDFE4FBFAEA
:101A2A0079837842120AB3120C187816A60608A609
:101A3A00077466FBFA7D997C19AF2EAE2D12210729
:101A4A007818EEF608EFF6FDAC06EC120BDFE4FBB5
:101A5A00FA79837842120AB3900026120F0B78148F
:101A6A00E6FC08E6FDEC120BDF900010120F0B7873
:101A7A0016E6FC08E6FDEC120BDF900014120F0BC1
:101A8A007814E6FC08E6FDEC120BDF7B397AFA796A
:101A9A008E783C1209AAC004C005C006C007781691
:101AAA00E6FC08E6FDEC120BDF7B397AFA798E78D0
:101ABA003C1209AA900083120F0B7F397EFA7D8EA1
:101ACA007C3C900026E0F8A3E0F9A3E0FAA3E0FB4F
:101ADA001209AA900087120F0B900020E0FCA3E0E5
:101AEA00FDEC120BDF90008B120F0B900022E0FC32
:101AFA00A3E0FDEC120BDF90008F120F0B90002475
:101B0A00E0FCA3E0FDEC120BDF900093120F0BD068
:101B1A0007D006D005D00412002612277B122D28E2
:101B2A00121354120F4812172912259A900002E034
:101B3A0064057062C3900001E09432900000E09462
:101B4A0000405390001AE0FEA3E0FF74E89FFF7480
:101B5A00039EFEC006C00790001CE0FEA3E0FFC380
:101B6A0074E89FFD74039EFC90001EE0FEA3E0FF54
:101B7A00C374E89FFB74039EFA900018E0FEA3E08A
:101B8A00FFC374E89F9000AFF074039E9000AEF01C
:101B9A00D007D00680139000AE7403F0A374E8F067
:101BAA00FB7A03FD7C03FF7E03122DFAD007D006D1
:101BBA00D005D004D003D002D001D000D0D0D0823A
:071BCA00D083D0F0D0E0321F
:03002300022ED3D7
:102ED300C0D030980BC298859980A29A92A280F2B2
:0C2EE300309906C299C20280F7D0D032AC
:1028F300E4F594F593F592F591F596F595F5B2F522
:10290300B1F5B4F5B3F5CAF5C9F5CCF5CBF5E2F5F8
:10291300E175960EF59575B280F5B175BA8075F1CE
:10292300B090FFF27410F0E4F5F6F5F790FFF07451
:1029330003F0A374E9F090FF04E4F090FF14F09027
:10294300FF24F090FF34F090FF007403F0A374E8C9
:10295300F0A37403F0A374E9F090FF107403F0A3E1
:1029630074E8F0A37403F0A374E9F090FF207403F8
:10297300F0A374E8F0A37403F0A374E9F090FF30BC
:102983007403F0A374E8F0A37403F0A374E9F0757F
:08299300F58F90FFF2E4F02241
:102DFA009000A8EEF0A3EFF09000A8E090FF00F09A
:102E0A009000A8A3E090FF01F0EC90FF10F0A3ED72
:102E1A00F0EA90FF20F0A3EBF09000AEE0FCA3E014
:0A2E2A00FDEC90FF30F0A3EDF02264
:102F5000D3EF9400EE94004007EF1F70F31E80F053
:012F6000224E
:042C71007B01E4FD02
:072C75009000A8EFF0A90593
:102C7C00C291E4FFFE9000A8E0FD339293D295C27E
:102C8C0095ED25E0F00FBF00010EEF64084E70E5E6
:102C9C00E4FEFFE9339293D295C295E925E0F90F52
:102CAC00BF00010EEF64084E70E9E4FEFFEB3392B7
:102CBC0093D295C295EB25E0FB0FBF00010EEF649C
:062CCC00084E70E9D291F0
:012CD20022DF
:102C0E00C29174802FFFE4FBFAEF339293D295C2F8
:102C1E0095EF25E0FF0BBB00010AEB64084A70E953
:102C2E00E4FAFBD295C2959000C0E025E0FFF0A239
:102C3E0094E4334FF00BBB00010AEB64084A70E3D7
:102C4E00E4FAFBD295C2959000C1E025E0FFF0A218
:102C5E0094E4334FF00BBB00010AEB64084A70E3B7
:022C6E00D29101
:012C70002241
:10235F00C2927FF47E01122F50D2927FF47E01122F
:10236F002F50D2B27BEF7D6FE4FF122C757B817DF6
:10237F00567F01122C757B177D667F02122C757BA1
:10238F00C97D9C7F04122C757B377D667F05122CCF
:10239F0075E4FBFD7F07122C757B907D6C7F081217
:1023AF002C75E4FB7D487F09122C757BFD7D7F7FAB
:1023BF000A122C757B08E4FD7F0B122C75E4FBFDD4
:1023CF007F0C122C757BBD7D487F0D122C757BFF0A
:1023DF00E4FD7F16122C757B057D807F17122C75FF
:1023EF007B67E4FD7F18122C757B597D167F1912C0
:1023FF002C757BE07D197F1A122C75E4FB7D137F02
:10240F001B122C75E4FB7D187F1C122C75E4FB7DD1
:10241F00587F20122C757BC77D3F7F21122C75E4CE
:10242F00FB7D207F22122C75E4FB7D0A7F23122C6B
:10243F00757F24122C717F25122C717B01E4FD7F97
:10244F0026122C757B01E4FD7F27122C757B027DF4
:10245F00447F28122C75E4FB7DB87F29122C757BE5
:10246F00FF7DFD7F2A122C757B0FE4FD7F2B022C45
:01247F0075E7
:102F0B007B807D807F34122C757BA0E4FD7F0712C4
:092F1B002C757FC87E00022F50C6
:0B2CD30090007FEBF0A3EAF0A3E9F013
:102CDE00E4FE7F32122C0E9000C0E06D703BA3E03C
:102CEE007037EEC39D50327F32122C0E9000C0E032
:102CFE00FF90007FE0FBA3E0FAA3E0F9AC060E8C98
:102D0E0082758300EF120CFF9000C1E0AC060E8CB2
:092D1E0082758300120CFF80C9CC
:012D27002289
:102B3E009000A8EBF0A3EAF0A3E9F0A3ECF0A3ED6C
:012B4E00F096
:102B4F00E4FFFE9000AEF0D39000ACE09FEE648007
:102B5F00F89000ABE064809840219000A8E0FBA3C0
:102B6F00E475F001120D33A9F0FA120CE6FD900096
:102B7F00AEE02DF00FBF00010E80CC9000AEE0FD57
:102B8F009000ADE0B50504E4FEFF22ED6008900073
:0A2B9F00AEE0FF7E00227EFF7FFF04
:012BA9002209
:1024800004653F800000046900000000046D000046
:102490000000047100000000045900000000045D09
:1024A000000000000461000000000475000000004E
:0C24B000047900000000047D0000000022
:0600260090007F120F0B99
:10002C0090008FE0FCA3E0FDA3E0FEA3E0FF9000B6
:10003C008FE0F8A3E0F9A3E0FAA3E0FB1209AAC051
:10004C0004C005C006C00790008BE0FCA3E0FDA334
:10005C00E0FEA3E0FFA804A905AA06FB1209AAD09A
:10006C0003D002D001D0001208B9C004C005C006EC
:10007C00C007900093E0FCA3E0FDA3E0FEA3E0FF2B
:10008C00A804A905AA06FB1209AAD003D002D00124
:10009C00D0001208B912268C7881120EFF90008BBA
:1000AC00E0FCA3E0FDA3E0FEA3E0FF7881120ED6F6
:1000BC001209AA90008B120F0B90008FE0FCA3E0AA
:1000CC00FDA3E0FEA3E0FF7881120ED61209AA90E0
:1000DC00008F120F0B900093E0FCA3E0FDA3E0FE59
:1000EC00A3E0FF7881120ED61209AA900093120F8A
:1000FC000B786D120EAE7865120ED61209AAC004DA
:10010C00C005C006C0077871120EAE7869120ED603
:10011C001209AAD003D002D001D0001208B5E4FB1A
:10012C00FAF978401209AA7885120EFF7871120E2E
:10013C00AE786D120ED61209AAC004C005C006C056
:10014C00077869120EAE7865120ED61209AAD00382
:10015C00D002D001D0001208B9E4FBFAF9784012B1
:10016C0009AA7889120EFF7869120EAE7869120E00
:10017C00D61209AAC004C005C006C0077865120EC5
:10018C00AE7865120ED61209AAD003D002D001D0D7
:10019C00001208B5C004C005C006C007786D120E69
:1001AC00AE786D120ED61209AAA804A905AA06AB40
:1001BC0007D007D006D005D0041208B5C004C0057E
:1001CC00C006C0077871120EAE7871120ED61209E5
:1001DC00AAD003D002D001D0001208B9788D120E2B
:1001EC00FF7889120EAE900093E0F8A3E0F9A3E03B
:1001FC00FAA3E0FB1209AAC004C005C006C0077828
:10020C008D120EAE90008FE0F8A3E0F9A3E0FAA3F4
:10021C00E0FB1209AAD003D002D001D0001208B51D
:10022C007891120EFF788D120EAE90008BE0F8A331
:10023C00E0F9A3E0FAA3E0FB1209AAC004C005C0D0
:10024C0006C0077885120EAE900093E0F8A3E0F993
:10025C00A3E0FAA3E0FB1209AAD003D002D001D08C
:10026C00001208B57895120EFF7885120EAE90002C
:10027C008FE0F8A3E0F9A3E0FAA3E0FB1209AAC00F
:10028C0004C005C006C0077889120EAE90008BE042
:10029C00F8A3E0F9A3E0FAA3E0FB1209AAD003D07B
:1002AC0002D001D0001208B57899120EFF785912BD
:1002BC000ED6C000C001C002C0037F6F7E127D83CA
:1002CC007C3A7891120ED61209AAD003D002D00132
:1002DC00D0001208B97859120EFF785D120ED6C0F4
:1002EC0000C001C002C0037F6F7E127D837C3A7810
:1002FC0095120ED61209AAD003D002D001D000124A
:10030C0008B9785D120EFF7861120ED6C000C001DC
:10031C00C002C0037F6F7E127D837C3A7899120EE7
:10032C00D61209AAD003D002D001D0001208B97895
:10033C0061120EFF784D120ED6C0007891120EAEDF
:10034C00D0001208B57875120EFF7851120ED6C077
:10035C00007895120EAED0001208B57879120EFF07
:10036C007855120ED6C0007899120EAED000120835
:10037C00B5787D120EFF7891120EAE784D120EFFED
:10038C007895120EAE7851120EFF7899120EAE7847
:10039C0055120EFFE4FFFEFD7C407891120ED61232
:1003AC0009AA90007FE0F8A3E0F9A3E0FAA3E0FB30
:1003BC001208B97859120ED61208B9C004C005C07B
:1003CC0006C0077F6F7E127D837C3A7875120ED63D
:1003DC001209AAD003D002D001D0001208B99000A3
:1003EC007F120F0BE4FFFEFD7C407895120ED612A7
:1003FC0009AA900083E0F8A3E0F9A3E0FAA3E0FBDC
:10040C001208B9785D120ED61208B9C004C005C026
:10041C0006C0077F6F7E127D837C3A7879120ED6E8
:10042C001209AAD003D002D001D0001208B9900052
:10043C0083120F0BE4FFFEFD7C407899120ED6124E
:10044C0009AA900087E0F8A3E0F9A3E0FAA3E0FB87
:10045C001208B97861120ED61208B9C004C005C0D2
:10046C0006C0077F6F7E127D837C3A787D120ED694
:10047C001209AAD003D002D001D0001208B9900002
:10048C0087120F0B7865120ED6C000C001C002C0D7
:10049C00037869120EAE120BC990007FE0F8A3E04E
:1004AC00F9A3E0FAA3E0FB1209AAC004C005C00638
:1004BC00C007900083E0FCA3E0FDA3E0FEA3E0FFF7
:1004CC00786D120ED61209AAA804A905AA06AB07C4
:1004DC00D007D006D005D0041208B5C004C005C0A2
:1004EC0006C007900087E0FCA3E0FDA3E0FEA3E0BC
:1004FC00FF7871120ED61209AAA804A905AA06AB98
:10050C0007D007D006D005D0041208B57B0A7AD7DD
:10051C0079A3783B1209AAD003D002D001D00012E3
:10052C0008B97865120EFF7869120ED6C000C001AA
:10053C00C002C003900087E0FCA3E0FDA3E0FEA393
:10054C00E0FF786D120ED61209AAC004C005C006D1
:10055C00C00790007FE0FCA3E0FDA3E0FEA3E0FF5A
:10056C007865120ED61209AAD003D002D001D000A1
:10057C001208B9C004C005C006C007900083E0FC97
:10058C00A3E0FDA3E0FEA3E0FF7871120ED61209E2
:10059C00AAA804A905AA06AB07D007D006D005D097
:1005AC00041208B57B0A7AD779A3783B1209AAD032
:1005BC0003D002D001D0001208B97869120EFF786E
:1005CC006D120ED6C000C001C002C003900087E0BF
:1005DC00FCA3E0FDA3E0FEA3E0FF7869120ED612A7
:1005EC0009AAC004C005C006C007900083E0FCA3A4
:1005FC00E0FDA3E0FEA3E0FF7865120ED61209AA77
:10060C00D003D002D001D0001208B5C004C005C080
:10061C0006C00790007FE0FCA3E0FDA3E0FEA3E092
:10062C00FF7871120ED61209AAD003D002D001D0D5
:10063C00001208B97B0A7AD779A3783B1209AAD0A1
:10064C0003D002D001D0001208B9786D120EFF78D9
:10065C0071120ED6C000C001C002C003900083E02E
:10066C00FCA3E0FDA3E0FEA3E0FF7869120ED61216
:10067C0009AAC004C005C006C007900087E0FCA30F
:10068C00E0FDA3E0FEA3E0FF7865120ED61209AAE6
:10069C00D003D002D001D0001208B9C004C005C0EC
:1006AC0006C00790007FE0FCA3E0FDA3E0FEA3E002
:1006BC00FF786D120ED61209AAA804A905AA06ABDA
:1006CC0007D007D006D005D0041208B57B0A7AD71C
:1006DC0079A3783B1209AAD003D002D001D0001222
:1006EC0008B97871120EFF7869120EAE7869120E85
:1006FC00D61209AAC004C005C006C0077865120E40
:10070C00AE7865120ED61209AAD003D002D001D051
:10071C00001208B9C004C005C006C007786D120EDF
:10072C00AE786D120ED61209AAD003D002D001D029
:10073C00001208B9C004C005C006C0077871120EBB
:10074C00AEA804A905AA06AB071209AAD003D002C9
:10075C00D001D0001208B912268C7881120EFF78C5
:10076C0065120EAE7881120ED61209AA7865120E99
:10077C00FF7869120EAE7881120ED61209AA78692A
:10078C00120EFF786D120EAE7881120ED61209AAD7
:10079C00786D120EFF7871120EAE7881120ED61291
:1007AC0009AA7871120EFFE4FFFEFD7C40786512F9
:1007BC000ED61209AA7869120ED61209AAC004C064
:1007CC0005C006C007E4FFFEFD7C40786D120ED616
:1007DC001209AA7871120ED61209AAD003D002D02F
:1007EC0001D0001208B9C004C005C006C007E4FF60
:1007FC00FEFD7C40786D120ED61209AA786D120E91
:10080C00D61209AAC004C005C006C007E4FFFEFD4D
:10081C007CC07869120ED61209AA7869120ED6120B
:10082C0009AAD003D002D001D0001208B5E4FBFA1B
:10083C007980783F1208B990009B120F0BD007D02B
:10084C0006D005D00412299B7B4D7A3D790F784454
:10085C001209AA120C188E338F347871120EAE78DE
:10086C0069120ED61209AAC004C005C006C00778CA
:10087C006D120EAE7865120ED61209AAD003D002F4
:10088C00D001D0001208B5E4FBFAF978401209AA9D
:10089C00122DBF7B4D7A3D790F78441209AA120CA8
:0508AC00188E318F32AF
:0108B1002224
:06268C00900097120F0BF5
:10269200E4FFFEFD7C3F900097E0F8A3E0F9A3E0A1
:1026A200FAA3E0FB1209AA90009B120F0B9000976D
:1026B200E0FCA3E0FDA3E0FEA3E0FF90009F120F69
:1026C2000B90009FE0FCA3E0FDA3E0FEA3E0FFA3CC
:1026D200120F0B9000A3E0FCA3E0FDA3E0FEA3E039
:1026E200FF7801120E87C374DF9FFF74599EFE7438
:1026F200379DFD745F9CFC9000A3120F0B9000A30A
:10270200E0FCA3E0FDA3E0FEA3E0FF90009F120F18
:102712000B90009FE0FCA3E0FDA3E0FEA3E0FF908E
:10272200009BE0F8A3E0F9A3E0FAA3E0FB1209AAF8
:1027320090009FE0F8A3E0F9A3E0FAA3E0FB1209FE
:10274200AAA804A905AA06AB07E4FFFE7DC07C3F48
:102752001208B590009FE0F8A3E0F9A3E0FAA3E025
:10276200FB1209AA90009F120F0B90009FE0FCA39E
:08277200E0FDA3E0FEA3E0FF7F
:01277A00223C
:072F8B00D2B4122F92C2B470
:042F92007F02DFFEDD
:012F96002218
:0F2F6100D2B5D2B4122F92C2B5122F92C2B4229F
:0C2F9700C2B5D2B4122F92D2B5022F9214
:0D2F7E00D2B4122F92A2B5C2B4122F92222B
:02000E00AE073B
:10001000E4FDEE25E0FE92B5122F8B0DEDB408F253
:03002000022F7E2E
:102EB200E4FED2B5FDEE25E0FED2B4122F92A2B509
:102EC200E4334EFEC2B4122F920DEDB408E7AF0602
:012ED20022DD
:102F2400AC05AB07122F617FD012000EAF03120065
:092F34000EAF0412000E022F97EB
:102E8F00E4FD7F6B122F247D077F19122F247D0401
:102E9F007F1A122F247D087F1B122F247D187F1C71
:032EAF00022F24CB
:0B2BAA0090007FEBF0A3EAF0A3E9F03D
:102BB500122F617FD012000E7F3B12000E122F6183
:102BC5007FD112000EE4FC122EB290007FE0FBA331
:102BD500E0FAA3E0F98C82758300EF120CFFC2B511
:102BE500122F8B0CECB40DDF122EB290007FE0FBA0
:102BF500A3E0FAA3E0F9AE048E82758300EF120C10
:092C0500FFD2B5122F8B022F97AC
:081D650090007FEEF0A3EFF007
:101D6D00AE04AF059000B0E0FCA3E0FD900081EC67
:101D7D00F0A3EDF0900081ECF0A3EDF09000B3E056
:101D8D002FFF9000B2E03EFE3395E0FDFC90008702
:101D9D00120F0B900087E0FCA3E0FDA3E0FEA3E093
:101DAD00FF780F120E9B90008D120F0BAE02AF033A
:101DBD00EE3395E0FDFC900087E0F8A3E0F9A3E099
:101DCD00FAA3E02FFBEA3EFAE93DF9E83CF8900072
:101DDD008DE0FCA3E0FDA3E0FEA3E0FF122D7B90C0
:101DED00008BEEF0A3EFF0900081E0FEA3E0FFC3C7
:101DFD00900080E09FFF90007FE09EAB07FA339547
:101E0D00E0F9F890008BE0FEA3E0FFEE3395E0FDE6
:101E1D00FC120D49780F120E87A804A905AA06AB6E
:101E2D0007900081E0FEA3E0FFEE3395E0FDFCEBB3
:101E3D002FFFEA3EFEE93DFDE83CFCA3120F0B909F
:101E4D00008BE0FEA3E0FBAA06EA3395E0F9F8C3A8
:101E5D00E49BFF74809AFEE499FDE498FC90008762
:101E6D00E0F8A3E0F9A3E0FAA3E0FB120D49780F27
:101E7D00120E879000B2EEF0A3EFF0900083A3A3B3
:0D1E8D00E0FEA3E0FF9000B0EEF0A3EFF048
:011E9A002225
:081E9B0090007FEEF0A3EFF0D0
:101EA300AE04AF059000B4E0FCA3E0FD900081EC2C
:101EB300F0A3EDF0900081ECF0A3EDF09000B7E01B
:101EC3002FFF9000B6E03EFE3395E0FDFC900087C7
:101ED300120F0B900087E0FCA3E0FDA3E0FEA3E05C
:101EE300FF780F120E9B90008D120F0BAE02AF0303
:101EF300EE3395E0FDFC900087E0F8A3E0F9A3E062
:101F0300FAA3E02FFBEA3EFAE93DF9E83CF890003A
:101F13008DE0FCA3E0FDA3E0FEA3E0FF122D7B9088
:101F2300008BEEF0A3EFF0900081E0FEA3E0FFC38F
:101F3300900080E09FFF90007FE09EAB07FA33950F
:101F4300E0F9F890008BE0FEA3E0FFEE3395E0FDAF
:101F5300FC120D49780F120E87A804A905AA06AB37
:101F630007900081E0FEA3E0FFEE3395E0FDFCEB7C
:101F73002FFFEA3EFEE93DFDE83CFCA3120F0B9068
:101F8300008BE0FEA3E0FBAA06EA3395E0F9F8C371
:101F9300E49BFF74809AFEE499FDE498FC9000872B
:101FA300E0F8A3E0F9A3E0FAA3E0FB120D49780FF0
:101FB300120E879000B6EEF0A3EFF0900083A3A378
:0D1FC300E0FEA3E0FF9000B4EEF0A3EFF00D
:011FD00022EE
:081FD10090007FEEF0A3EFF099
:101FD900AE04AF059000B8E0FCA3E0FD900081ECF1
:101FE900F0A3EDF0900081ECF0A3EDF09000BBE0E0
:101FF9002FFF9000BAE03EFE3395E0FDFC9000878C
:10200900120F0B900087E0FCA3E0FDA3E0FEA3E024
:10201900FF780F120E9B90008D120F0BAE02AF03CB
:10202900EE3395E0FDFC900087E0F8A3E0F9A3E02A
:10203900FAA3E02FFBEA3EFAE93DF9E83CF8900003
:102049008DE0FCA3E0FDA3E0FEA3E0FF122D7B9051
:10205900008BEEF0A3EFF0900081E0FEA3E0FFC358
:10206900900080E09FFF90007FE09EAB07FA3395D8
:10207900E0F9F890008BE0FEA3E0FFEE3395E0FD78
:10208900FC120D49780F120E87A804A905AA06AB00
:1020990007900081E0FEA3E0FFEE3395E0FDFCEB45
:1020A9002FFFEA3EFEE93DFDE83CFCA3120F0B9031
:1020B900008BE0FEA3E0FBAA06EA3395E0F9F8C33A
:1020C900E49BFF74809AFEE499FDE498FC900087F4
:1020D900E0F8A3E0F9A3E0FAA3E0FB120D49780FB9
:1020E900120E879000BAEEF0A3EFF0900083A3A33D
:0D20F900E0FEA3E0FF9000B8EEF0A3EFF0D2
:0121060022B6
:0821070090007FEEF0A3EFF061
:10210F00AE04AF059000BCE0FCA3E0FD900081ECB5
:10211F00F0A3EDF0900081ECF0A3EDF09000BFE0A4
:10212F002FFF9000BEE03EFE3395E0FDFC90008750
:10213F00120F0B900087E0FCA3E0FDA3E0FEA3E0ED
:10214F00FF780F120E9B90008D120F0BAE02AF0394
:10215F00EE3395E0FDFC900087E0F8A3E0F9A3E0F3
:10216F00FAA3E02FFBEA3EFAE93DF9E83CF89000CC
:10217F008DE0FCA3E0FDA3E0FEA3E0FF122D7B901A
:10218F00008BEEF0A3EFF0900081E0FEA3E0FFC321
:10219F00900080E09FFF90007FE09EAB07FA3395A1
:1021AF00E0F9F890008BE0FEA3E0FFEE3395E0FD41
:1021BF00FC120D49780F120E87A804A905AA06ABC9
:1021CF0007900081E0FEA3E0FFEE3395E0FDFCEB0E
:1021DF002FFFEA3EFEE93DFDE83CFCA3120F0B90FA
:1021EF00008BE0FEA3E0FBAA06EA3395E0F9F8C303
:1021FF00E49BFF74809AFEE499FDE498FC900087BD
:10220F00E0F8A3E0F9A3E0FAA3E0FB120D49780F81
:10221F00120E879000BEEEF0A3EFF0900083A3A301
:0D222F00E0FEA3E0FF9000BCEEF0A3EFF096
:01223C00227F
:1024BC004200000000420038000042003A00004296
:1024CC00003C000042003E000042001800004200A8
:1024DC001A000042001C000042001E000041004D8A
:1024EC0000410052004100570044007700000000FA
:1024FC004400730000000044007B00000000460014
:10250C002000000000000006140000000000000283
:10251C0031000002330000440010000000004400B1
:10252C00140000000044006B0000000044005D003B
:10253C0000000044006F0000000044006300000035
:10254C00004400670000000044002E00000000441E
:10255C0000490000000044004E00000000440053FD
:10256C0000000000440058000000004C0004000073
:10257C00000000000000000000004200400000428B
:0D258C000042000046003200000000000088
:10135400900044E0FCA3E0FDE4120BDFE4FBFAF9A7
:1013640078C31208B9E4FBFAF978401209AA120CFE
:1013740018900032EEF0A3EFF0C3E49532FDE4954B
:1013840031FCC3ED9FFBEC9EFA90004DE0FF3395DA
:10139400E0FE7C007D05120D21EF2BFDEE3AFC12E0
:1013A4000BDF900004120F0BD3900001E094149013
:1013B4000000E0940090005D4024E0FCA3E0FDA365
:1013C400E0FEA3E0FF900004E0F8A3E0F9A3E0FA54
:1013D400A3E0FB1208B990005D120F0B8007120FF7
:1013E4001700000000E4FFFE7D487C4490005DE0AF
:1013F400F8A3E0F9A3E0FAA3E0FB120B50600E405F
:101404000C90005D120F17444800008024E4FFFE96
:101414007D487CC490005DE0F8A3E0F9A3E0FAA362
:10142400E0FB120B50500A90005D120F17C44800E5
:1014340000900004E0FCA3E0FDA3E0FEA3E0FF12A3
:101444000C18EC120BDAE4FBFA794078411209AA81
:10145400120C187810120EFF90005DE0FCA3E0FD62
:10146400A3E0FEA3E0FF120C18E47B5C7A0FF9F80A
:10147400120D49780F120E87780C120EFF7816E6BB
:10148400FC08E6FDEC120BDF900014E0F8A3E0F991
:10149400A3E0FAA3E0FB1208B9E4FBFAF9784012DE
:1014A4000AB37B667A6679A678401209AA120C18E8
:1014B4007808120EFF780C120EAE7810120ED6EBCE
:1014C4002FFFEA3EFEE93DFDE83CFC7808120ED60B
:1014D400EF2BFFEE3AFEED39FDEC38FCEF2405FF6F
:1014E400E43EFEE43DFDE43CFCE47B0AFAF9F81238
:1014F4002D7BEC120BDA8F388E378D368C359000BD
:1015040004E0FCA3E0FDA3E0FEA3E0FF9000491289
:101514000F0B7816E6FC08E6FDEC120BDFA804A915
:1015240005AA06AB07AF38AE37AD36AC351208B5F1
:10153400120C18900040EEF0A3EFF0D3900001E0FD
:101544009414900000E0940090006B4032E0F8A303
:10155400E0F9A3E0FAA3E0FBC000C001C002C003AD
:10156400900040E0FCA3E0FDEC120BDFD003D002BE
:10157400D001D0001208B990006B120F0B80071233
:101584000F1700000000E4FFFE7D487C4490006BD0
:10159400E0F8A3E0F9A3E0FAA3E0FB120B50600E1D
:1015A400400C90006B120F17444800008024E4FFA5
:1015B400FE7D487CC490006BE0F8A3E0F9A3E0FA58
:1015C400A3E0FB120B50500A90006B120F17C44893
:1015D4000000900040E0FEA3E0FFEE3395E0FDFC48
:1015E400E47BAE7A27F9F8120D49780F120E87784A
:1015F40010120EFF90006BE0FCA3E0FDA3E0FEA33D
:10160400E0FF120C18E47B897A01F9F8120D49788D
:101614000F120E87780C120EFF900040E0FEA3E03C
:10162400FFEE3395E0FDFC120BDA900053E0F8A3D3
:10163400E0F9A3E0FAA3E0FB1208B57B9A7A997962
:101644008978401209AA120C187808120EFF780C37
:10165400120EAE7810120ED6EB2FFFEA3EFEE93DD5
:10166400FDE83CFC7808120ED6EF2BFFEE3AFEEDB7
:1016740039FDEC38FC120BDA8F388E378D368C3509
:10168400900040E0FCA3E0FDEC120BDF900053124D
:101694000F0BE4FFFE7D7A7C44AB38AA37A936A849
:1016A40035120B50600D400BE4F538F53775367A7A
:1016B400753544E4FFFE7D7A7CC4AB38AA37A9367D
:1016C400A835120B50500BE4F538F53775367A759A
:1016D40035C4AF38AE37AD36AC35120C189000387F
:1016E400EEF0A3EFF0AF38AE37AD36AC35120BC920
:1016F400120C1890003AEEF0A3EFF0AF38AE37AD0D
:1017040036AC35120C1890003EEEF0A3EFF0AF3873
:10171400AE37AD36AC35120BC9120C1890003CEE46
:05172400F0A3EFF0222C
:100F480090002AE0FCA3E0FDE4120BDFE4FBFAF9D1
:100F580078C31208B9E4FBFAF978401209AA120C0E
:100F680018900034EEF0A3EFF0C3E49534FDE49557
:100F780033FCC3ED9FFBEC9EFA900052E0FF3395E3
:100F8800E0FE7C007D05120D21C3EB9FFDEA9EFC6F
:100F9800120BDF900008120F0BD3900001E094149D
:100FA800900000E094009000634024E0FCA3E0FD82
:100FB800A3E0FEA3E0FF900008E0F8A3E0F9A3E0B7
:100FC800FAA3E0FB1208B9900063120F0B80071216
:100FD8000F1700000000E4FFFE7D487C449000638A
:100FE800E0F8A3E0F9A3E0FAA3E0FB120B50600ECF
:100FF800400C900063120F17444800008024E4FF5F
:10100800FE7D487CC4900063E0F8A3E0F9A3E0FA11
:10101800A3E0FB120B50500A900063120F17C4484C
:101028000000900008E0FCA3E0FDA3E0FEA3E0FFC1
:10103800120C18EC120BDAE4FBFA79407841120929
:10104800AA120C187810120EFF900063E0FCA3E0BF
:10105800FDA3E0FEA3E0FF120C18E47B5C7A0FF915
:10106800F8120D49780F120E87780C120EFF7814BB
:10107800E6FC08E6FDEC120BDF900010E0F8A3E0B8
:10108800F9A3E0FAA3E0FB1208B9E4FBFAF9784007
:10109800120AB37B667A6679A678401209AA120CFE
:1010A800187808120EFF780C120EAE7810120ED6B1
:1010B800EB2FFFEA3EFEE93DFDE83CFC7808120E06
:1010C800D6EF2BFFEE3AFEED39FDEC38FCEF2405A8
:1010D800FFE43EFEE43DFDE43CFCE47B0AFAF9F85B
:1010E800122D7BEC120BDA8F388E378D368C3590BB
:1010F8000008E0FCA3E0FDA3E0FEA3E0FF90004EA3
:10110800120F0B7814E6FC08E6FDEC120BDFA804BE
:10111800A905AA06AB07AF38AE37AD36AC3512080D
:10112800B5120C18900042EEF0A3EFF0D390000136
:10113800E09414900000E0940090006F4032E0F8D2
:10114800A3E0F9A3E0FAA3E0FBC000C001C002C01D
:1011580003900042E0FCA3E0FDEC120BDFD003D0CB
:1011680002D001D0001208B990006F120F0B80074F
:10117800120F1700000000E4FFFE7D487C44900039
:101188006FE0F8A3E0F9A3E0FAA3E0FB120B5060CC
:101198000E400C90006F120F17444800008024E4A2
:1011A800FFFE7D487CC490006FE0F8A3E0F9A3E05F
:1011B800FAA3E0FB120B50500A90006F120F17C4ED
:1011C800480000900042E0FEA3E0FFEE3395E0FD0A
:1011D800FCE47BAE7A27F9F8120D49780F120E87D6
:1011E8007810120EFF90006FE0FCA3E0FDA3E0FE74
:1011F800A3E0FF120C18E47B897A01F9F8120D4973
:10120800780F120E87780C120EFF900042E0FEA3B2
:10121800E0FFEE3395E0FDFC120BDA900058E0F8A1
:10122800A3E0F9A3E0FAA3E0FB1208B57B9A7A9948
:10123800798978401209AA120C187808120EFF78DA
:101248000C120EAE7810120ED6EB2FFFEA3EFEE916
:101258003DFDE83CFC7808120ED6EF2BFFEE3AFE77
:10126800ED39FDEC38FC120BDA8F388E378D368C61
:1012780035900042E0FCA3E0FDEC120BDF90005833
:10128800120F0BE4FFFE7D7A7C44AB38AA37A936EF
:10129800A835120B50600D400BE4F538F53775365C
:1012A8007A753544E4FFFE7D7A7CC4AB38AA37A949
:1012B80036A835120B50500BE4F538F53775367AE9
:1012C8007535C4900038E0FCA3E0FDEC120BDFABF1
:1012D80038AA37A936A8351208B9120C1890003860
:1012E800EEF0A3EFF090003AE0FCA3E0FDEC120B67
:1012F800DFAB38AA37A936A8351208B9120C1890EE
:10130800003AEEF0A3EFF090003EE0FCA3E0FDEC25
:10131800120BDFAB38AA37A936A8351208B5120C5C
:101328001890003EEEF0A3EFF090003CE0FCA3E044
:10133800FDEC120BDFAB38AA37A936A8351208B571
:0C134800120C1890003CEEF0A3EFF02215
:10172900900061E0FCA3E0FDE4120BDFE4FBFAF9B1
:1017390078C31208B9E4FBFA798278421209AAC07F
:1017490004C005C006C0077818E6FE08E6FFC3E432
:101759009FFDE49EFC120BDFD003D002D001D00024
:101769001208B9C004C005C006C007900057E0FFC1
:101779003395E0FE7C007D14120D21AC06AD07EC1B
:10178900120BDFD003D002D001D0001208B9120C1D
:1017990018900036EEF0A3EFF0D3900001E0941416
:1017A900900000E094009000674032E0F8A3E0F96F
:1017B900A3E0FAA3E0FBC000C001C002C00390008F
:1017C90036E0FCA3E0FDEC120BDFD003D002D00120
:1017D900D0001208B9900067120F0B8007120F177B
:1017E900000000007F007E507D437C47900067E049
:1017F900F8A3E0F9A3E0FAA3E0FB120B50600E4056
:101809000C900067120F174743500080257F007E18
:10181900507D437CC7900067E0F8A3E0F9A3E0FAA4
:10182900A3E0FB120B50500A900067120F17C74331
:101839005000900036E0FEA3E0FFEE3395E0FDFC9A
:10184900120BDAE4FBFA79A078401209AA120C18F3
:101859007810120EFF900067E0FCA3E0FDA3E0FE04
:10186900A3E0FF120C18E47BB87A1EF9F8120D49AF
:10187900780F120E87780C120EFF900036E0FEA347
:10188900E0FFEE3395E0FDFC120BDA90002EE0F854
:10189900A3E0F9A3E0FAA3E0FB1208B5E4FBFA79A7
:1018A9008078401209AA120C187808120EFF780CD9
:1018B900120EAE7810120ED6EB2FFFEA3EFEE93D6E
:1018C900FDE83CFC7808120ED6EF2BFFEE3AFEED50
:1018D90039FDEC38FC7806120E87EC120BDA8F38DA
:1018E9008E378D368C35900036E0FCA3E0FDEC1286
:1018F9000BDF90002E120F0B900038E0FCA3E0FDE7
:10190900EC120BDFAB38AA37A936A8351208B91281
:101919000C18900038EEF0A3EFF090003AE0FCA329
:10192900E0FDEC120BDFAB38AA37A936A83512084F
:10193900B5120C1890003AEEF0A3EFF090003EE0DB
:10194900FCA3E0FDEC120BDFAB38AA37A936A835AA
:101959001208B5120C1890003EEEF0A3EFF09000BB
:101969003CE0FCA3E0FDEC120BDFAB38AA37A9364B
:10197900A8351208B9120C1890003CEEF0A3EFF04C
:01198900223B
:102D2800E5322484FFE5313403FED3EF94B0EE643A
:102D38008094844002802FC3EF94F4EE64809481E1
:102D480050028022E5342484FFE5333403FED3EFB8
:102D580094B0EE648094844002800BC3EF94F4EE48
:102D680064809481500AC281E4900000F0A3F022AC
:032D7800D28122E3
:10259A00900038E0FEA3E0FF900000E0FCA3E0FD1D
:1025AA002FFFEC3EFE900018F0A3EFF0D394E8EE74
:1025BA0064809483400C9000187403F0A374E8F0CC
:1025CA00800FC3900018E0648094805004E4F0A364
:1025DA00F090003AE0FEA3E02DFFEC3EFE90001AD8
:1025EA00F0A3EFF0D394E8EE64809483400C90005B
:1025FA001A7403F0A374E8F0800FC390001AE06421
:10260A008094805004E4F0A3F090003CE0FEA3E044
:10261A00FF900000E0FCA3E0FD2FFFEC3EFE9000DF
:10262A001CF0A3EFF0D394E8EE64809483400C90FE
:10263A00001C7403F0A374E8F0800FC390001CE040
:10264A00648094805004E4F0A3F090003EE0FEA37E
:10265A00E02DFFEC3EFE90001EF0A3EFF0D394E8CD
:10266A00EE64809483400B90001E7403F0A374E818
:10267A00F022C390001EE0648094805004E4F0A32A
:02268A00F0223C
:10277B00900003E0FF90005CE0B50749900046E055
:10278B0004F0C39414500302282F7413F0900061CB
:10279B00E4F0A37480F0900044E4F0A37480F09014
:1027AB00002AE4F0A37480F0D3900001E09414901D
:1027BB000000E09400406DA3E024FFF0900000E0E7
:1027CB0034FFF0805FE4900046F090002CE0FEA315
:1027DB00E0FFC394E9EE9403400C90002C7403F0DB
:1027EB00A374E8F0803ED3EF9432EE940040269031
:1027FB00002DE0242CFD90002CE03401FCE4120BA6
:10280B00DF7B667A6679A6783F120AB3120C1890B2
:10281B000000EE800B90002CE0FFA3E0900000CFB7
:10282B00F0A3EFF090005CE0900003F090002CE040
:0C283B00FFA3E0900000CFF0A3EFF0221C
:102AC4009000A8120F0B759850E47B04FAF9F89063
:102AD40000ACE0FCA3E0FDA3E0FEA3E0FF120DD4F4
:102AE4009000A8E0F8A3E0F9A3E0FAA3E0FB120D3C
:102AF400D4EFF404F5D7E47B04FAF9F89000ACE0E1
:102B0400FCA3E0FDA3E0FEA3E0FF120DD49000A817
:102B1400E0F8A3E0F9A3E0FAA3E0FB120DD4C3E4C8
:102B24009FFFE49EFE74019DFDE49CFC7808120E58
:0A2B3400748FD6438E14438E0122E5
:102EEF002002FDEDB4010FEFD39409EF4004243716
:0C2EFF00800524308001EFD202F59922FA
:102E34009000A8EBF0A3EAF0A3E9F09000A8E0FB6F
:102E4400A3E0FAA3E0F9120CE660199000A8A3E449
:102E540075F001120D33A9F0FA120CE6FFE4FD122D
:052E64002EEF80D722D3
:1008B200020C84E86480F8E933E83360110460F0E4
:1008C200ED33EC337009E8FCE9FDEAFEEBFF2204AC
:1008D20060DED3EB9FEA9EE99DE8C2E78CF0C2F7A7
:1008E20095F0400CE8CCF8E9CDF9EACEFAEBCFFB73
:1008F200120C4F85D0F05804700320D5B3E8047071
:10090200075002B2D5020C8E92D5EC0460F7E4CC0B
:10091200C0E0C398F8603B94186008400DD0E0FB3B
:10092200020C66E4FBFAC9FC8028E830E406E4C95C
:10093200FBE4CAFCE830E305E4C9CACBFCE854078F
:100942006010F8C3E913F9EA13FAEB13FBEC13FC9A
:10095200D8F130F52FC3E49CFCEF9BFFEE9AFEED3D
:1009620099FDD0E0FBEF4E4D4C701222DB03020CDE
:100972008BEC2CFCEF33FFEE33FEED33FDED30E775
:10098200EB020C66EF2BFFEE3AFEED39FDD0E0FBF9
:1009920050130BBB0003020C8EED13FDEE13FEEFA2
:0809A20013FFEC13FC020C66CC
:1009AA00EC4D6011E8497017ED33EC3304600DE447
:1009BA00FCFFFEFD22E933E8330470F8020C8412CE
:1009CA000C4F58046009E4CC2481500628500902CF
:1009DA000C8E284003020C8BC0E0EB4A7044B980AD
:1009EA0006D0E0FB020C7AEF4E701CBD8008EBFFCC
:1009FA00EAFEE9FD80EBE98DF0A4FEE5F0020A9338
:100A0A00E9CDF9EAFEEBFFEF89F0A4FCE5F0CE8927
:100A1A00F0A42EFFE435F0CD89F0A42DFEE435F0E4
:100A2A008067EF4E7005BD80D780C3EF8BF0A4AC12
:100A3A00F0EE8BF0A42CFCE435F0F8EF8AF0A42C4D
:100A4A00E5F038FCE433CB8DF0A42CFCE5F03BF860
:100A5A00EE8AF0A42CFCE5F038F8E433CF89F0A450
:100A6A002CFCE5F038CF3400CE89F0A42FFFE5F056
:100A7A003EFEE433C98DF0A42EFEE5F039CD8AF0AE
:100A8A00A42FFFE5F03EFEE43DFD33D0E0FB500726
:100A9A000BBB000F020C8EEC2CFCEF33FFEE33FE87
:060AAA00ED33FD020C66B5
:100AB000020C8EEC5D046005E859047003020C849E
:100AC000120C4F580460F6EC4860F2EC7004FDFE26
:100AD000FF22C860DB2481C85009C3986002500619
:100AE000020C8B9850CAF582E9294B4A7005AB82FB
:100AF000020C7A75F0007C1A7880C3EF9BEE9AEDB9
:100B000099400DC3EF9BFFEE9AFEED99FDE842F090
:100B1000DC23ACF0D0E0FFD0E0FED0E0FDAB8220E3
:100B2000E7101BEB60BAEC2CFCEF33FFEE33FEED6D
:100B300033FD020C66E803F830E705C0F075F000FD
:100B4000EF2FFFEE33FEED33FD40B830E7C280AA51
:100B500074F8CC6480CCC86480C8F58204604FC34C
:100B6000EB9FF5F0EA9E42F0E99D42F0E89C45F0EB
:100B7000603C501DE5825FFFE582D313CB5BCBF475
:100B80002B5582FB50280ABA002409B9002008809E
:100B90001DE5825BFBE582D313CF5FCFF4C3132F38
:100BA0005582FF50090EBE00050DBD00010CC3EBC0
:100BB0009FF5F0EA9E42F0E99D42F0E89C45F06026
:090BC00007CC4820E701B3EC2248
:100BC900ED33EC33600A047003BD8004ECB2E7FC3A
:010BD90022F9
:100BDA0075F020800E75F010800575F0087D007E96
:100BEA00007F003392D530D503120E66EC334010E5
:100BFA00EF33FFEE33FEED33FDEC33FCD5F0ED229F
:0E0C0A00E5F0247EA2D513CC92E7CDCEFF22DA
:100C1800EDD2E7CD33EC3392D524814006E4FFFED4
:100C2800FDFC22FCE4CFCECDCC24E0501174FF8033
:100C3800EDC3CC13CCCD13CDCE13CECF13CF0470D0
:070C4800F030D5DE020E665C
:10299B00900097120F0B90009BE0F8A3E0F9A3E0D7
:1029AB00FAA3E0FB900097E0FCA3E0FDA3E0FEA3FD
:1029BB00E0FF120AB312225D900097120F0B9000EA
:1029CB009BE030E759900097E0FCA3E0FDA3E0FE0D
:1029DB00A3E0FFECC0E0EDC0E0EEC0E0EFC0E0E450
:1029EB00FFFEFDFC900097E0F8A3E0F9A3E0FAA34B
:1029FB00E0FB120B507BDB600250087A0F794978B1
:102A0B004080067A0F794978C0D0E0FFD0E0FED045
:102A1B00E0FDD0E0FC1208B9900097120F0B90006C
:0D2A2B0097E0FCA3E0FDA3E0FEA3E0FF2286
:102DBF00ECC0E0F8EDC0E0F9EEC0E0FAEFC0E0FBE8
:102DCF001209AAEC6480FC7B007A007980783F12AC
:102DDF0008B912284BD0E0CFFBD0E0CEFAD0E0CD2F
:0B2DEF00F9D0E0CCF8120AB302225D1C
:100C4F00E9D2E7C933E833F892D5EDD2E7CD33ECEB
:070C5F0033FC5002B2D52264
:100C6600EC30E7100FBF000C0EBE00080DBD0004EF
:100C76000BEB6014A2D5EB13FCED92E7FD2274FF9B
:100C8600FCFDFEFF22E480F8A2D574FF13FC7D80F4
:030C9600E480EF08
:10284700020C8422EDA2E7D2E7F9EC3340F260F301
:10285700B4FF08ED547F70E8020C8EF82481C2E0C3
:10286700C0E0F40428FAC313FCED92E7FD9000974B
:10287700120F0BEEA2E7E9BA7F02C31334009400EC
:10288700FA75F091A4E5F013F494FE8AF0A433E509
:10289700F033248CD313FDE492E7FE7F007C3F7571
:1028A7008302ECC0E0F8EDC0E0F9EEC0E0FAEFC05B
:1028B700E0FB8583F0900097120EBA85F083120A29
:1028C700B3D0E0FBD0E0FAD0E0F9D0E0F81208B9D5
:1028D700ED6480FD30E7011CD583C7ED33CC33F8B9
:0C28E700D0E0A2E71328C313CC13FD229D
:10223D00BE1249253E4CCCCDBEAAAAAB3F800000B4
:10224D003E7ADBB03EED63383F24BC7D3F490FDB6A
:10225D00ED33ECC2E7CC339200B4FF13ED547F6045
:10226D0003020C847FDB7E0F7DC97C3F022352C2AB
:10227D0001C3947F401E7007EDD2E794904015EF97
:10228D00FBEEFAEDF9ECF87F007E007D807C3F12CD
:10229D000AB3D201ED33EC33248430E705E4C0E01A
:1022AD00806B04FAEDD2E754F0C333DAFD540734F2
:1022BD00002323C0E0CCC0E0F8EDC0E0F9EEC0E0B3
:1022CD00FAEFC0E0FBE4120BE4EC24FEFC90009F5F
:1022DD00120F0B1209AA7B007A007980783F120841
:1022ED00B990009FE0B2E7CCF0A3E0CDF0A3E0CE33
:1022FD00F0A3E0CFF0D0E0FBD0E0FAD0E0F9D0E0F1
:10230D00F81208B990009F120EE3120AB390009FC5
:10231D00120F0B90223D7403120C9990009F120E18
:10232D00E31209AAD0E0600F2449F582E43422F5C6
:10233D0083120EEF1208B930010B7BDB7A0F79C9CE
:10234D0078BF1208B9ED33EC336006ECA20092E7CA
:02235D00FC2260
:100C9900C0E0EFFBEEFAEDF9ECF81209AAD0E0F5A5
:100CA900F0EFFBEEFAEDF9ECF8120EC6A3A3A3A33D
:100CB900E8C0E0E9C0E0EAC0E0EBC0E0C0F012093A
:100CC900AA120EEFA3A3A3A31208B9D0F0D0E0FB98
:0D0CD900D0E0FAD0E0F9D0E0F8D5F0D42258
:03000000022A3899
:0C2A3800787FE4F6D8FD75819C022A7FAF
:100CE600BB010689828A83E0225002E722BBFE020C
:090CF600E32289828A83E493223F
:100CFF00F8BB010DE58229F582E5833AF583E8F02B
:100D0F00225006E92582C8F622BBFE05E92582C8D6
:020D1F00F222BE
:100D2100EF8DF0A4A8F0CF8CF0A428CE8DF0A42EE6
:020D3100FE22A0
:100D3300A3F8E0C5F025F0F0E58215827002158373
:060D4300E0C838F0E822D0
:100D4900E88FF0A4CC8BF0A42CFCE98EF0A42CFC49
:100D59008AF0EDA42CFCEA8EF0A4CDA8F08BF0A4C7
:100D69002DCC3825F0FDE98FF0A42CCD35F0FCEB26
:100D79008EF0A4FEA9F0EB8FF0A4CFC5F02ECD39EB
:0F0D8900FEE43CFCEAA42DCE35F0FDE43CFC2258
:100D980075F008758200EF2FFFEE33FECD33CDCC12
:100DA80033CCC58233C5829BED9AEC99E582984095
:100DB8000CF582EE9BFEED9AFDEC99FC0FD5F0D672
:100DC800E4CEFBE4CDFAE4CCF9A88222B800C1B99C
:100DD8000059BA002DEC8BF084CFCECDFCE5F0CBDA
:100DE800F97818EF2FFFEE33FEED33FDEC33FCEB13
:100DF80033FB10D703994004EB99FB0FD8E5E4F9CE
:100E0800FA227818EF2FFFEE33FEED33FDEC33FCBA
:100E1800C933C910D7059BE99A4007EC9BFCE99AAE
:100E2800F90FD8E0E4C9FAE4CCFB2275F010EF2FF3
:100E3800FFEE33FEED33FDCC33CCC833C810D707F3
:100E48009BEC9AE899400AED9BFDEC9AFCE899F82E
:0E0E58000FD5F0DAE4CDFBE4CCFAE4C8F922C1
:102D7B00C2D5E830E70FB2D5E4C39BFBE49AFAE483
:102D8B0099F9E498F8EC30E717B2D5122DB1120D82
:102D9B00D4E4C39BFBE49AFAE499F9E498F8800332
:102DAB00120DD430D50DE4C39FFFE49EFEE49DFDD0
:042DBB00E49CFC2276
:0E0E6600C3E49FFFE49EFEE49DFDE49CFC229D
:100E7400E8600FECC313FCED13FDEE13FEEF13FF5C
:030E8400D8F12280
:100E8700E86010ECA2E713FCED13FDEE13FEEF1381
:040E9700FFD8F0226E
:100E9B00E8600FEFC333FFEE33FEED33FDEC33FCB5
:030EAB00D8F12259
:0C0EAE00E6FC08E6FD08E6FE08E6FF2270
:0C0EBA00E0FCA3E0FDA3E0FEA3E0FF22AB
:100EC600E493FC740193FD740293FE740393FF2272
:0D0ED600E6FB08E6F908E6FA08E6CBF8228C
:0C0EE300E0F8A3E0F9A3E0FAA3E0FB2292
:100EEF00E493F8740193F9740293FA740393FB2259
:0C0EFF00ECF608EDF608EEF608EFF6221F
:0C0F0B00ECF0A3EDF0A3EEF0A3EFF02259
:100F1700A8828583F0D083D082120F2E120F2E1253
:100F27000F2E120F2EE473E493A3C583C5F0C58378
:100F3700C8C582C8F0A3C583C5F0C583C8C582C824
:010F47002287
:102A4400021BD1E493A3F8E493A34003F68001F2BC
:102A540008DFF48029E493A3F85407240CC8C33393
:102A6400C4540F4420C8834004F456800146F6DF62
:102A7400E4800B0102040810204080902480E47E4E
:102A8400019360BCA3FF543F30E509541FFEE49357
:102A9400A360010ECF54C025E060A840B8E493A31E
:102AA400FAE493A3F8E493A3C8C582C8CAC583CA49
:102AB400F0A3C8C582C8CAC583CADFE9DEE780BE01
:012599000041
:00000001FF
