:0E2F930055617274205465737420210D0A007C
:101BE700E49000A7F01229169000AE7403F0A374D6
:101BF700E8F0FB7A03FD7C03FF7E03122E1DC281F2
:101C0700D282122E8CD281C282122E8CD281D282A3
:101C1700C283122E8ED281D282D2837F0A7E001295
:101C27002E927F0A7E00122E92122EB27F0A7E001B
:101C3700122E9212249C7F647E00122E92122F6025
:101C47009000AC120F17016E36007F007EC27D0137
:101C57007C00122AE77F647E00122E92E490002611
:101C6700F0A3F0900061F0A37480F0900044E4F0DA
:101C7700A37480F0900024E4F0A37480F0C283E49E
:101C870090004DF0900052F0900057F0D2ACD2AFD8
:101C97007BFF7A2F7993122E577B007A0079399040
:101CA70000ADE543F07D0A7C00122B61EF4E600327
:101CB700021D569000A7F09000A7E0FFC3940A50BA
:101CC7002874392FF8E654F0C4540FFF7D01122F02
:101CD700129000A7E02439F8E6540FFF7D01122F78
:101CE700129000A7E004F080CEE4FD7F0D122F12C2
:101CF700E4FD7F0A122F1290005CE539F090000294
:101D0700E53AF0E53B75F0FFA47C00253CFEEC3599
:101D1700F0900026F0A3CEF0900061E4F0A3E53D3B
:101D2700F0900044E4F0A3E53EF0900024E4F0A333
:101D3700E53FF0E540248090004DF0E54124809098
:101D47000052F0E5422480900057F0D2828002C210
:101D570082900002E0FFB40102D283EFB40502C211
:0B1D6700837F037E00122E92021CA05E
:102F6000538E7F5389F0758A40758CA2C28DD28CA6
:032F7000D2A922C1
:062E8C00D2837FF47E01F9
:102E9200E4FDFCC3ED9FEC9E5015E4FBFA0BBB0076
:0F2EA200010AEB64FA4A70F50DBD00010C80E4E3
:012EB10022FE
:03000B0002198A4D
:10198A00C0E0C0F0C083C082C0D075D000C000C023
:10199A0001C002C003C004C005C006C007122F2E32
:1019AA007B007A0079397D0F122CF67B007A007958
:1019BA0021122BCD7466FBFA7D997C19AF22AE21D8
:1019CA00121D72900012EEF0A3EFF07466FBFA7D1E
:1019DA00997C19AF24AE23121EA8900014EEF0A32E
:1019EA00EFF07466FBFA7D997C19AF26AE25121FBB
:1019FA00DE900018EEF0A3EFF0AC29AD2AEC120B42
:101A0A00DFE4FBFA79837842120AB3120C187814CD
:101A1A00A60608A607AC2BAD2CEC120BDFE4FBFAEA
:101A2A0079837842120AB3120C187816A60608A609
:101A3A00077466FBFA7D997C19AF2EAE2D1221141C
:101A4A007818EEF608EFF6FDAC06EC120BDFE4FBB5
:101A5A00FA79837842120AB3900020120F0B781495
:101A6A00E6FC08E6FDEC120BDF90000A120F0B7879
:101A7A0016E6FC08E6FDEC120BDF90000E120F0BC7
:101A8A007814E6FC08E6FDEC120BDF7B397AFA796A
:101A9A008E783C1209AAC004C005C006C007781691
:101AAA00E6FC08E6FDEC120BDF7B397AFA798E78D0
:101ABA003C1209AA900083120F0B7F397EFA7D8EA1
:101ACA007C3C900020E0F8A3E0F9A3E0FAA3E0FB55
:101ADA001209AA900087120F0B900012E0FCA3E0F3
:101AEA00FDEC120BDF90008B120F0B900014E0FC40
:101AFA00A3E0FDEC120BDF90008F120F0B90001881
:101B0A00E0FCA3E0FDEC120BDF900093120F0BD068
:101B1A0007D006D005D00412002612279E122D4B9C
:101B2A00121354120F481217291225BD900002E011
:101B3A0064057062C3900001E09432900000E09462
:101B4A0000405390001AE0FEA3E0FF74E89FFF7480
:101B5A00039EFEC006C00790001CE0FEA3E0FFC380
:101B6A0074E89FFD74039EFC90001EE0FEA3E0FF54
:101B7A00C374E89FFB74039EFA900016E0FEA3E08C
:101B8A00FFC374E89F9000AFF074039E9000AEF01C
:101B9A00D007D00680139000AE7403F0A374E8F067
:101BAA00FB7A03FD7C03FF7E03122E1D9000AE74A8
:101BBA0003F0A374E8F0FB7A03FD7C03FF7E0312B3
:101BCA002E1DD007D006D005D004D003D002D001F4
:0D1BDA00D000D0D0D082D083D0F0D0E03247
:03002300022EF6B4
:102EF600C0D030980BC298859980A29A92A280F28F
:0C2F0600309906C299C20280F7D0D03288
:10291600E4F594F593F592F591F596F595F5B2F5FE
:10292600B1F5B4F5B3F5CAF5C9F5CCF5CBF5E2F5D5
:10293600E175960EF59575B280F5B175BA8075F1AB
:10294600B090FFF27410F0E4F5F6F5F790FFF0742E
:1029560003F0A374E9F090FF04E4F090FF14F09004
:10296600FF24F090FF34F090FF007403F0A374E8A6
:10297600F0A37403F0A374E9F090FF107403F0A3BE
:1029860074E8F0A37403F0A374E9F090FF207403D5
:10299600F0A374E8F0A37403F0A374E9F090FF3099
:1029A6007403F0A374E8F0A37403F0A374E9F0755C
:0829B600F58F90FFF2E4F0221E
:102E1D009000A8EEF0A3EFF09000A8E090FF00F076
:102E2D009000A8A3E090FF01F0EC90FF10F0A3ED4F
:102E3D00F0EA90FF20F0A3EBF09000AEE0FCA3E0F1
:0A2E4D00FDEC90FF30F0A3EDF02241
:102F7300D3EF9400EE94004007EF1F70F31E80F030
:012F8300222B
:042C94007B01E4FDDF
:072C98009000A8EFF0A90570
:102C9F00C291E4FFFE9000A8E0FD339293D295C25B
:102CAF0095ED25E0F00FBF00010EEF64084E70E5C3
:102CBF00E4FEFFE9339293D295C295E925E0F90F2F
:102CCF00BF00010EEF64084E70E9E4FEFFEB339294
:102CDF0093D295C295EB25E0FB0FBF00010EEF6479
:062CEF00084E70E9D291CD
:012CF50022BC
:102C3100C29174802FFFE4FBFAEF339293D295C2D5
:102C410095EF25E0FF0BBB00010AEB64084A70E930
:102C5100E4FAFBD295C2959000C0E025E0FFF0A216
:102C610094E4334FF00BBB00010AEB64084A70E3B4
:102C7100E4FAFBD295C2959000C1E025E0FFF0A2F5
:102C810094E4334FF00BBB00010AEB64084A70E394
:022C9100D291DE
:012C9300221E
:10249C00C2927FF47E01122F73D2927FF47E0112CE
:1024AC002F73D2B27BEF7D6FE4FF122C987B817D72
:1024BC00567F01122C987B177D667F02122C987B1D
:1024CC00C97D9C7F04122C987B377D667F05122C6E
:1024DC0098E4FBFD7F07122C987B907D6C7F081293
:1024EC002C98E4FB7D487F09122C987BFD7D7F7F27
:1024FC000A122C987B08E4FD7F0B122C98E4FBFD50
:10250C007F0C122C987BBD7D487F0D122C987BFF85
:10251C00E4FD7F16122C987B057D807F17122C987A
:10252C007B67E4FD7F18122C987B597D167F19125E
:10253C002C987BE07D197F1A122C98E4FB7D137F7D
:10254C001B122C98E4FB7D187F1C122C98E4FB7D4D
:10255C00587F20122C987BC77D3F7F21122C98E44A
:10256C00FB7D207F22122C98E4FB7D0A7F23122C0A
:10257C00987F24122C947F25122C947B01E4FD7FF0
:10258C0026122C987B01E4FD7F27122C987B027D70
:10259C00447F28122C98E4FB7DB87F29122C987B61
:1025AC00FF7DFD7F2A122C987B0FE4FD7F2B022CE4
:0125BC009886
:102F2E007B807D807F34122C987BA0E4FD7F07127E
:092F3E002C987FC87E00022F735D
:0B2CF60090007FEBF0A3EAF0A3E9F0F0
:102D0100E4FE7F32122C319000C0E06D703BA3E0F5
:102D11007037EEC39D50327F32122C319000C0E0EB
:102D2100FF90007FE0FBA3E0FAA3E0F9AC060E8C74
:102D310082758300EF120CFF9000C1E0AC060E8C8F
:092D410082758300120CFF80C9A9
:012D4A002266
:102B61009000A8EBF0A3EAF0A3E9F0A3ECF0A3ED49
:012B7100F073
:102B7200E4FFFE9000AEF0D39000ACE09FEE6480E4
:102B8200F89000ABE064809840219000A8E0FBA39D
:102B9200E475F001120D33A9F0FA120CE6FD900073
:102BA200AEE02DF00FBF00010E80CC9000AEE0FD34
:102BB2009000ADE0B50504E4FEFF22ED6008900050
:0A2BC200AEE0FF7E00227EFF7FFFE1
:012BCC0022E6
:10224A0004653F800000046900000000046D00007E
:10225A000000047100000000045900000000045D41
:10226A000000000004610000000004750000000086
:0C227A00047900000000047D000000005A
:0600260090007F120F0B99
:10002C0090008FE0FCA3E0FDA3E0FEA3E0FF9000B6
:10003C008FE0F8A3E0F9A3E0FAA3E0FB1209AAC051
:10004C0004C005C006C00790008BE0FCA3E0FDA334
:10005C00E0FEA3E0FFA804A905AA06FB1209AAD09A
:10006C0003D002D001D0001208B9C004C005C006EC
:10007C00C007900093E0FCA3E0FDA3E0FEA3E0FF2B
:10008C00A804A905AA06FB1209AAD003D002D00124
:10009C00D0001208B91226AF7881120EFF90008B97
:1000AC00E0FCA3E0FDA3E0FEA3E0FF7881120ED6F6
:1000BC001209AA90008B120F0B90008FE0FCA3E0AA
:1000CC00FDA3E0FEA3E0FF7881120ED61209AA90E0
:1000DC00008F120F0B900093E0FCA3E0FDA3E0FE59
:1000EC00A3E0FF7881120ED61209AA900093120F8A
:1000FC000B786D120EAE7865120ED61209AAC004DA
:10010C00C005C006C0077871120EAE7869120ED603
:10011C001209AAD003D002D001D0001208B5E4FB1A
:10012C00FAF978401209AA7885120EFF7871120E2E
:10013C00AE786D120ED61209AAC004C005C006C056
:10014C00077869120EAE7865120ED61209AAD00382
:10015C00D002D001D0001208B9E4FBFAF9784012B1
:10016C0009AA7889120EFF7869120EAE7869120E00
:10017C00D61209AAC004C005C006C0077865120EC5
:10018C00AE7865120ED61209AAD003D002D001D0D7
:10019C00001208B5C004C005C006C007786D120E69
:1001AC00AE786D120ED61209AAA804A905AA06AB40
:1001BC0007D007D006D005D0041208B5C004C0057E
:1001CC00C006C0077871120EAE7871120ED61209E5
:1001DC00AAD003D002D001D0001208B9788D120E2B
:1001EC00FF7889120EAE900093E0F8A3E0F9A3E03B
:1001FC00FAA3E0FB1209AAC004C005C006C0077828
:10020C008D120EAE90008FE0F8A3E0F9A3E0FAA3F4
:10021C00E0FB1209AAD003D002D001D0001208B51D
:10022C007891120EFF788D120EAE90008BE0F8A331
:10023C00E0F9A3E0FAA3E0FB1209AAC004C005C0D0
:10024C0006C0077885120EAE900093E0F8A3E0F993
:10025C00A3E0FAA3E0FB1209AAD003D002D001D08C
:10026C00001208B57895120EFF7885120EAE90002C
:10027C008FE0F8A3E0F9A3E0FAA3E0FB1209AAC00F
:10028C0004C005C006C0077889120EAE90008BE042
:10029C00F8A3E0F9A3E0FAA3E0FB1209AAD003D07B
:1002AC0002D001D0001208B57899120EFF785912BD
:1002BC000ED6C000C001C002C0037F6F7E127D83CA
:1002CC007C3A7891120ED61209AAD003D002D00132
:1002DC00D0001208B97859120EFF785D120ED6C0F4
:1002EC0000C001C002C0037F6F7E127D837C3A7810
:1002FC0095120ED61209AAD003D002D001D000124A
:10030C0008B9785D120EFF7861120ED6C000C001DC
:10031C00C002C0037F6F7E127D837C3A7899120EE7
:10032C00D61209AAD003D002D001D0001208B97895
:10033C0061120EFF784D120ED6C0007891120EAEDF
:10034C00D0001208B57875120EFF7851120ED6C077
:10035C00007895120EAED0001208B57879120EFF07
:10036C007855120ED6C0007899120EAED000120835
:10037C00B5787D120EFF7891120EAE784D120EFFED
:10038C007895120EAE7851120EFF7899120EAE7847
:10039C0055120EFFE4FFFEFD7C407891120ED61232
:1003AC0009AA90007FE0F8A3E0F9A3E0FAA3E0FB30
:1003BC001208B97859120ED61208B9C004C005C07B
:1003CC0006C0077F6F7E127D837C3A7875120ED63D
:1003DC001209AAD003D002D001D0001208B99000A3
:1003EC007F120F0BE4FFFEFD7C407895120ED612A7
:1003FC0009AA900083E0F8A3E0F9A3E0FAA3E0FBDC
:10040C001208B9785D120ED61208B9C004C005C026
:10041C0006C0077F6F7E127D837C3A7879120ED6E8
:10042C001209AAD003D002D001D0001208B9900052
:10043C0083120F0BE4FFFEFD7C407899120ED6124E
:10044C0009AA900087E0F8A3E0F9A3E0FAA3E0FB87
:10045C001208B97861120ED61208B9C004C005C0D2
:10046C0006C0077F6F7E127D837C3A787D120ED694
:10047C001209AAD003D002D001D0001208B9900002
:10048C0087120F0B7865120ED6C000C001C002C0D7
:10049C00037869120EAE120BC990007FE0F8A3E04E
:1004AC00F9A3E0FAA3E0FB1209AAC004C005C00638
:1004BC00C007900083E0FCA3E0FDA3E0FEA3E0FFF7
:1004CC00786D120ED61209AAA804A905AA06AB07C4
:1004DC00D007D006D005D0041208B5C004C005C0A2
:1004EC0006C007900087E0FCA3E0FDA3E0FEA3E0BC
:1004FC00FF7871120ED61209AAA804A905AA06AB98
:10050C0007D007D006D005D0041208B57B0A7AD7DD
:10051C0079A3783B1209AAD003D002D001D00012E3
:10052C0008B97865120EFF7869120ED6C000C001AA
:10053C00C002C003900087E0FCA3E0FDA3E0FEA393
:10054C00E0FF786D120ED61209AAC004C005C006D1
:10055C00C00790007FE0FCA3E0FDA3E0FEA3E0FF5A
:10056C007865120ED61209AAD003D002D001D000A1
:10057C001208B9C004C005C006C007900083E0FC97
:10058C00A3E0FDA3E0FEA3E0FF7871120ED61209E2
:10059C00AAA804A905AA06AB07D007D006D005D097
:1005AC00041208B57B0A7AD779A3783B1209AAD032
:1005BC0003D002D001D0001208B97869120EFF786E
:1005CC006D120ED6C000C001C002C003900087E0BF
:1005DC00FCA3E0FDA3E0FEA3E0FF7869120ED612A7
:1005EC0009AAC004C005C006C007900083E0FCA3A4
:1005FC00E0FDA3E0FEA3E0FF7865120ED61209AA77
:10060C00D003D002D001D0001208B5C004C005C080
:10061C0006C00790007FE0FCA3E0FDA3E0FEA3E092
:10062C00FF7871120ED61209AAD003D002D001D0D5
:10063C00001208B97B0A7AD779A3783B1209AAD0A1
:10064C0003D002D001D0001208B9786D120EFF78D9
:10065C0071120ED6C000C001C002C003900083E02E
:10066C00FCA3E0FDA3E0FEA3E0FF7869120ED61216
:10067C0009AAC004C005C006C007900087E0FCA30F
:10068C00E0FDA3E0FEA3E0FF7865120ED61209AAE6
:10069C00D003D002D001D0001208B9C004C005C0EC
:1006AC0006C00790007FE0FCA3E0FDA3E0FEA3E002
:1006BC00FF786D120ED61209AAA804A905AA06ABDA
:1006CC0007D007D006D005D0041208B57B0A7AD71C
:1006DC0079A3783B1209AAD003D002D001D0001222
:1006EC0008B97871120EFF7869120EAE7869120E85
:1006FC00D61209AAC004C005C006C0077865120E40
:10070C00AE7865120ED61209AAD003D002D001D051
:10071C00001208B9C004C005C006C007786D120EDF
:10072C00AE786D120ED61209AAD003D002D001D029
:10073C00001208B9C004C005C006C0077871120EBB
:10074C00AEA804A905AA06AB071209AAD003D002C9
:10075C00D001D0001208B91226AF7881120EFF78A2
:10076C0065120EAE7881120ED61209AA7865120E99
:10077C00FF7869120EAE7881120ED61209AA78692A
:10078C00120EFF786D120EAE7881120ED61209AAD7
:10079C00786D120EFF7871120EAE7881120ED61291
:1007AC0009AA7871120EFFE4FFFEFD7C40786512F9
:1007BC000ED61209AA7869120ED61209AAC004C064
:1007CC0005C006C007E4FFFEFD7C40786D120ED616
:1007DC001209AA7871120ED61209AAD003D002D02F
:1007EC0001D0001208B9C004C005C006C007E4FF60
:1007FC00FEFD7C40786D120ED61209AA786D120E91
:10080C00D61209AAC004C005C006C007E4FFFEFD4D
:10081C007CC07869120ED61209AA7869120ED6120B
:10082C0009AAD003D002D001D0001208B5E4FBFA1B
:10083C007980783F1208B990009B120F0BD007D02B
:10084C0006D005D0041229BE7B4D7A3D790F784431
:10085C001209AA120C188E338F347871120EAE78DE
:10086C0069120ED61209AAC004C005C006C00778CA
:10087C006D120EAE7865120ED61209AAD003D002F4
:10088C00D001D0001208B5E4FBFAF978401209AA9D
:10089C00122DE27B4D7A3D790F78441209AA120C85
:0508AC00188E318F32AF
:0108B1002224
:0626AF00900097120F0BD2
:1026B500E4FFFEFD7C3F900097E0F8A3E0F9A3E07E
:1026C500FAA3E0FB1209AA90009B120F0B9000974A
:1026D500E0FCA3E0FDA3E0FEA3E0FF90009F120F46
:1026E5000B90009FE0FCA3E0FDA3E0FEA3E0FFA3A9
:1026F500120F0B9000A3E0FCA3E0FDA3E0FEA3E016
:10270500FF7801120E87C374DF9FFF74599EFE7414
:10271500379DFD745F9CFC9000A3120F0B9000A3E6
:10272500E0FCA3E0FDA3E0FEA3E0FF90009F120FF5
:102735000B90009FE0FCA3E0FDA3E0FEA3E0FF906B
:10274500009BE0F8A3E0F9A3E0FAA3E0FB1209AAD5
:1027550090009FE0F8A3E0F9A3E0FAA3E0FB1209DB
:10276500AAA804A905AA06AB07E4FFFE7DC07C3F25
:102775001208B590009FE0F8A3E0F9A3E0FAA3E002
:10278500FB1209AA90009F120F0B90009FE0FCA37B
:08279500E0FDA3E0FEA3E0FF5C
:01279D002219
:072FAE00D2B4122FB5C2B42A
:042FB5007F02DFFEBA
:012FB90022F5
:0F2F8400D2B5D2B4122FB5C2B5122FB5C2B42236
:0C2FBA00C2B5D2B4122FB5D2B5022FB5AB
:0D2FA100D2B4122FB5A2B5C2B4122FB522C2
:02000E00AE073B
:10001000E4FDEE25E0FE92B5122FAE0DEDB408F230
:03002000022FA10B
:102ED500E4FED2B5FDEE25E0FED2B4122FB5A2B5C3
:102EE500E4334EFEC2B4122FB50DEDB408E7AF06BC
:012EF50022BA
:102F4700AC05AB07122F847FD012000EAF0312001F
:092F57000EAF0412000E022FBAA5
:102EB200E4FD7F6B122F477D077F19122F477D0498
:102EC2007F1A122F477D087F1B122F477D187F1C08
:032ED200022F4785
:0B2BCD0090007FEBF0A3EAF0A3E9F01A
:102BD800122F847FD012000E7F3B12000E122F841A
:102BE8007FD112000EE4FC122ED590007FE0FBA3EB
:102BF800E0FAA3E0F98C82758300EF120CFFC2B5EE
:102C0800122FAE0CECB40DDF122ED590007FE0FB36
:102C1800A3E0FAA3E0F9AE048E82758300EF120CEC
:092C2800FFD2B5122FAE022FBA43
:081D720090007FEEF0A3EFF0FA
:101D7A00AE04AF059000B0E0FCA3E0FD900081EC5A
:101D8A00F0A3EDF0900081ECF0A3EDF09000B3E049
:101D9A002FFF9000B2E03EFE3395E0FDFC900087F5
:101DAA00120F0B900087E0FCA3E0FDA3E0FEA3E086
:101DBA00FF780F120E9B90008D120F0BAE02AF032D
:101DCA00EE3395E0FDFC900087E0F8A3E0F9A3E08C
:101DDA00FAA3E02FFBEA3EFAE93DF9E83CF8900065
:101DEA008DE0FCA3E0FDA3E0FEA3E0FF122D9E9090
:101DFA00008BEEF0A3EFF0900081E0FEA3E0FFC3BA
:101E0A00900080E09FFF90007FE09EAB07FA339539
:101E1A00E0F9F890008BE0FEA3E0FFEE3395E0FDD9
:101E2A00FC120D49780F120E87A804A905AA06AB61
:101E3A0007900081E0FEA3E0FFEE3395E0FDFCEBA6
:101E4A002FFFEA3EFEE93DFDE83CFCA3120F0B9092
:101E5A00008BE0FEA3E0FBAA06EA3395E0F9F8C39B
:101E6A00E49BFF74809AFEE499FDE498FC90008755
:101E7A00E0F8A3E0F9A3E0FAA3E0FB120D49780F1A
:101E8A00120E879000B2EEF0A3EFF0900083A3A3A6
:0D1E9A00E0FEA3E0FF9000B0EEF0A3EFF03B
:011EA7002218
:081EA80090007FEEF0A3EFF0C3
:101EB000AE04AF059000B4E0FCA3E0FD900081EC1F
:101EC000F0A3EDF0900081ECF0A3EDF09000B7E00E
:101ED0002FFF9000B6E03EFE3395E0FDFC900087BA
:101EE000120F0B900087E0FCA3E0FDA3E0FEA3E04F
:101EF000FF780F120E9B90008D120F0BAE02AF03F6
:101F0000EE3395E0FDFC900087E0F8A3E0F9A3E054
:101F1000FAA3E02FFBEA3EFAE93DF9E83CF890002D
:101F20008DE0FCA3E0FDA3E0FEA3E0FF122D9E9058
:101F3000008BEEF0A3EFF0900081E0FEA3E0FFC382
:101F4000900080E09FFF90007FE09EAB07FA339502
:101F5000E0F9F890008BE0FEA3E0FFEE3395E0FDA2
:101F6000FC120D49780F120E87A804A905AA06AB2A
:101F700007900081E0FEA3E0FFEE3395E0FDFCEB6F
:101F80002FFFEA3EFEE93DFDE83CFCA3120F0B905B
:101F9000008BE0FEA3E0FBAA06EA3395E0F9F8C364
:101FA000E49BFF74809AFEE499FDE498FC9000871E
:101FB000E0F8A3E0F9A3E0FAA3E0FB120D49780FE3
:101FC000120E879000B6EEF0A3EFF0900083A3A36B
:0D1FD000E0FEA3E0FF9000B4EEF0A3EFF000
:011FDD0022E1
:081FDE0090007FEEF0A3EFF08C
:101FE600AE04AF059000B8E0FCA3E0FD900081ECE4
:101FF600F0A3EDF0900081ECF0A3EDF09000BBE0D3
:102006002FFF9000BAE03EFE3395E0FDFC9000877E
:10201600120F0B900087E0FCA3E0FDA3E0FEA3E017
:10202600FF780F120E9B90008D120F0BAE02AF03BE
:10203600EE3395E0FDFC900087E0F8A3E0F9A3E01D
:10204600FAA3E02FFBEA3EFAE93DF9E83CF89000F6
:102056008DE0FCA3E0FDA3E0FEA3E0FF122D9E9021
:10206600008BEEF0A3EFF0900081E0FEA3E0FFC34B
:10207600900080E09FFF90007FE09EAB07FA3395CB
:10208600E0F9F890008BE0FEA3E0FFEE3395E0FD6B
:10209600FC120D49780F120E87A804A905AA06ABF3
:1020A60007900081E0FEA3E0FFEE3395E0FDFCEB38
:1020B6002FFFEA3EFEE93DFDE83CFCA3120F0B9024
:1020C600008BE0FEA3E0FBAA06EA3395E0F9F8C32D
:1020D600E49BFF74809AFEE499FDE498FC900087E7
:1020E600E0F8A3E0F9A3E0FAA3E0FB120D49780FAC
:1020F600120E879000BAEEF0A3EFF0900083A3A330
:0D210600E0FEA3E0FF9000B8EEF0A3EFF0C4
:0121130022A9
:0821140090007FEEF0A3EFF054
:10211C00AE04AF059000BCE0FCA3E0FD900081ECA8
:10212C00F0A3EDF0900081ECF0A3EDF09000BFE097
:10213C002FFF9000BEE03EFE3395E0FDFC90008743
:10214C00120F0B900087E0FCA3E0FDA3E0FEA3E0E0
:10215C00FF780F120E9B90008D120F0BAE02AF0387
:10216C00EE3395E0FDFC900087E0F8A3E0F9A3E0E6
:10217C00FAA3E02FFBEA3EFAE93DF9E83CF89000BF
:10218C008DE0FCA3E0FDA3E0FEA3E0FF122D9E90EA
:10219C00008BEEF0A3EFF0900081E0FEA3E0FFC314
:1021AC00900080E09FFF90007FE09EAB07FA339594
:1021BC00E0F9F890008BE0FEA3E0FFEE3395E0FD34
:1021CC00FC120D49780F120E87A804A905AA06ABBC
:1021DC0007900081E0FEA3E0FFEE3395E0FDFCEB01
:1021EC002FFFEA3EFEE93DFDE83CFCA3120F0B90ED
:1021FC00008BE0FEA3E0FBAA06EA3395E0F9F8C3F6
:10220C00E49BFF74809AFEE499FDE498FC900087AF
:10221C00E0F8A3E0F9A3E0FAA3E0FB120D49780F74
:10222C00120E879000BEEEF0A3EFF0900083A3A3F4
:0D223C00E0FEA3E0FF9000BCEEF0A3EFF089
:012249002272
:10228600420000000042002C000042002E000042E6
:1022960000300000420032000042001600004200FA
:1022A6001A000042001C000042001E000041004DC2
:1022B6000041005200410057004400770000000032
:1022C6004400730000000044007B00000000420050
:1022D600120000420014000042001800000216001E
:1022E6000002140000021800000231000002330050
:1022F6000044000A0000000044000E0000000044F4
:10230600006B0000000044005D0000000044006F08
:102316000000000044006300000000440067000065
:1023260000004400280000000044004900000000AE
:1023360044004E000000004400530000000044002A
:10234600580000000044003400000000440038003B
:1023560000000044003E0000000042003C00004235
:102366000042000042000400004200060000420055
:032376000800005C
:10135400900044E0FCA3E0FDE4120BDFE4FBFAF9A7
:1013640078C31208B9E4FBFAF978401209AA120CFE
:1013740018900004EEF0A3EFF0C3E49532FDE49579
:1013840031FCC3ED9FFBEC9EFA90004DE0FF3395DA
:10139400E0FE7C007D05120D21EF2BFDEE3AFC12E0
:1013A4000BDF900034120F0BD3900001E0941490E3
:1013B4000000E0940090005D4024E0FCA3E0FDA365
:1013C400E0FEA3E0FF900034E0F8A3E0F9A3E0FA24
:1013D400A3E0FB1208B990005D120F0B8007120FF7
:1013E4001700000000E4FFFE7D487C4490005DE0AF
:1013F400F8A3E0F9A3E0FAA3E0FB120B50600E405F
:101404000C90005D120F17444800008024E4FFFE96
:101414007D487CC490005DE0F8A3E0F9A3E0FAA362
:10142400E0FB120B50500A90005D120F17C44800E5
:1014340000900034E0FCA3E0FDA3E0FEA3E0FF1273
:101444000C18EC120BDAE4FBFA794078411209AA81
:10145400120C187810120EFF90005DE0FCA3E0FD62
:10146400A3E0FEA3E0FF120C18E47B5C7A0FF9F80A
:10147400120D49780F120E87780C120EFF7816E6BB
:10148400FC08E6FDEC120BDF90000EE0F8A3E0F997
:10149400A3E0FAA3E0FB1208B9E4FBFAF9784012DE
:1014A4000AB37B667A6679A678401209AA120C18E8
:1014B4007808120EFF780C120EAE7810120ED6EBCE
:1014C4002FFFEA3EFEE93DFDE83CFC7808120ED60B
:1014D400EF2BFFEE3AFEED39FDEC38FCEF2405FF6F
:1014E400E43EFEE43DFDE43CFCE47B0AFAF9F81238
:1014F4002D9EEC120BDA8F388E378D368C3590009A
:1015040034E0FCA3E0FDA3E0FEA3E0FF9000491259
:101514000F0B7816E6FC08E6FDEC120BDFA804A915
:1015240005AA06AB07AF38AE37AD36AC351208B5F1
:10153400120C1890003CEEF0A3EFF0D3900001E001
:101544009414900000E0940090006B4032E0F8A303
:10155400E0F9A3E0FAA3E0FBC000C001C002C003AD
:1015640090003CE0FCA3E0FDEC120BDFD003D002C2
:10157400D001D0001208B990006B120F0B80071233
:101584000F1700000000E4FFFE7D487C4490006BD0
:10159400E0F8A3E0F9A3E0FAA3E0FB120B50600E1D
:1015A400400C90006B120F17444800008024E4FFA5
:1015B400FE7D487CC490006BE0F8A3E0F9A3E0FA58
:1015C400A3E0FB120B50500A90006B120F17C44893
:1015D400000090003CE0FEA3E0FFEE3395E0FDFC4C
:1015E400E47BAE7A27F9F8120D49780F120E87784A
:1015F40010120EFF90006BE0FCA3E0FDA3E0FEA33D
:10160400E0FF120C18E47B897A01F9F8120D49788D
:101614000F120E87780C120EFF90003CE0FEA3E040
:10162400FFEE3395E0FDFC120BDA900053E0F8A3D3
:10163400E0F9A3E0FAA3E0FB1208B57B9A7A997962
:101644008978401209AA120C187808120EFF780C37
:10165400120EAE7810120ED6EB2FFFEA3EFEE93DD5
:10166400FDE83CFC7808120ED6EF2BFFEE3AFEEDB7
:1016740039FDEC38FC120BDA8F388E378D368C3509
:1016840090003CE0FCA3E0FDEC120BDF9000531251
:101694000F0BE4FFFE7D7A7C44AB38AA37A936A849
:1016A40035120B50600D400BE4F538F53775367A7A
:1016B400753544E4FFFE7D7A7CC4AB38AA37A9367D
:1016C400A835120B50500BE4F538F53775367A759A
:1016D40035C4AF38AE37AD36AC35120C1890002C8B
:1016E400EEF0A3EFF0AF38AE37AD36AC35120BC920
:1016F400120C1890002EEEF0A3EFF0AF38AE37AD19
:1017040036AC35120C18900032EEF0A3EFF0AF387F
:10171400AE37AD36AC35120BC9120C18900030EE52
:05172400F0A3EFF0222C
:100F4800900024E0FCA3E0FDE4120BDFE4FBFAF9D7
:100F580078C31208B9E4FBFAF978401209AA120C0E
:100F680018900006EEF0A3EFF0C3E49534FDE49585
:100F780033FCC3ED9FFBEC9EFA900052E0FF3395E3
:100F8800E0FE7C007D05120D21C3EB9FFDEA9EFC6F
:100F9800120BDF900038120F0BD3900001E094146D
:100FA800900000E094009000634024E0FCA3E0FD82
:100FB800A3E0FEA3E0FF900038E0F8A3E0F9A3E087
:100FC800FAA3E0FB1208B9900063120F0B80071216
:100FD8000F1700000000E4FFFE7D487C449000638A
:100FE800E0F8A3E0F9A3E0FAA3E0FB120B50600ECF
:100FF800400C900063120F17444800008024E4FF5F
:10100800FE7D487CC4900063E0F8A3E0F9A3E0FA11
:10101800A3E0FB120B50500A900063120F17C4484C
:101028000000900038E0FCA3E0FDA3E0FEA3E0FF91
:10103800120C18EC120BDAE4FBFA79407841120929
:10104800AA120C187810120EFF900063E0FCA3E0BF
:10105800FDA3E0FEA3E0FF120C18E47B5C7A0FF915
:10106800F8120D49780F120E87780C120EFF7814BB
:10107800E6FC08E6FDEC120BDF90000AE0F8A3E0BE
:10108800F9A3E0FAA3E0FB1208B9E4FBFAF9784007
:10109800120AB37B667A6679A678401209AA120CFE
:1010A800187808120EFF780C120EAE7810120ED6B1
:1010B800EB2FFFEA3EFEE93DFDE83CFC7808120E06
:1010C800D6EF2BFFEE3AFEED39FDEC38FCEF2405A8
:1010D800FFE43EFEE43DFDE43CFCE47B0AFAF9F85B
:1010E800122D9EEC120BDA8F388E378D368C359098
:1010F8000038E0FCA3E0FDA3E0FEA3E0FF90004E73
:10110800120F0B7814E6FC08E6FDEC120BDFA804BE
:10111800A905AA06AB07AF38AE37AD36AC3512080D
:10112800B5120C18900042EEF0A3EFF0D390000136
:10113800E09414900000E0940090006F4032E0F8D2
:10114800A3E0F9A3E0FAA3E0FBC000C001C002C01D
:1011580003900042E0FCA3E0FDEC120BDFD003D0CB
:1011680002D001D0001208B990006F120F0B80074F
:10117800120F1700000000E4FFFE7D487C44900039
:101188006FE0F8A3E0F9A3E0FAA3E0FB120B5060CC
:101198000E400C90006F120F17444800008024E4A2
:1011A800FFFE7D487CC490006FE0F8A3E0F9A3E05F
:1011B800FAA3E0FB120B50500A90006F120F17C4ED
:1011C800480000900042E0FEA3E0FFEE3395E0FD0A
:1011D800FCE47BAE7A27F9F8120D49780F120E87D6
:1011E8007810120EFF90006FE0FCA3E0FDA3E0FE74
:1011F800A3E0FF120C18E47B897A01F9F8120D4973
:10120800780F120E87780C120EFF900042E0FEA3B2
:10121800E0FFEE3395E0FDFC120BDA900058E0F8A1
:10122800A3E0F9A3E0FAA3E0FB1208B57B9A7A9948
:10123800798978401209AA120C187808120EFF78DA
:101248000C120EAE7810120ED6EB2FFFEA3EFEE916
:101258003DFDE83CFC7808120ED6EF2BFFEE3AFE77
:10126800ED39FDEC38FC120BDA8F388E378D368C61
:1012780035900042E0FCA3E0FDEC120BDF90005833
:10128800120F0BE4FFFE7D7A7C44AB38AA37A936EF
:10129800A835120B50600D400BE4F538F53775365C
:1012A8007A753544E4FFFE7D7A7CC4AB38AA37A949
:1012B80036A835120B50500BE4F538F53775367AE9
:1012C8007535C490002CE0FCA3E0FDEC120BDFABFD
:1012D80038AA37A936A8351208B9120C1890002C6C
:1012E800EEF0A3EFF090002EE0FCA3E0FDEC120B73
:1012F800DFAB38AA37A936A8351208B9120C1890EE
:10130800002EEEF0A3EFF0900032E0FCA3E0FDEC3D
:10131800120BDFAB38AA37A936A8351208B5120C5C
:1013280018900032EEF0A3EFF0900030E0FCA3E05C
:10133800FDEC120BDFAB38AA37A936A8351208B571
:0C134800120C18900030EEF0A3EFF02221
:10172900900061E0FCA3E0FDE4120BDFE4FBFAF9B1
:1017390078C31208B9E4FBFA798278421209AAC07F
:1017490004C005C006C0077818E6FE08E6FFC3E432
:101759009FFDE49EFC120BDFD003D002D001D00024
:101769001208B9C004C005C006C007900057E0FFC1
:101779003395E0FE7C007D14120D21AC06AD07EC1B
:10178900120BDFD003D002D001D0001208B9120C1D
:1017990018900008EEF0A3EFF0D3900001E0941444
:1017A900900000E094009000674032E0F8A3E0F96F
:1017B900A3E0FAA3E0FBC000C001C002C00390008F
:1017C90008E0FCA3E0FDEC120BDFD003D002D0014E
:1017D900D0001208B9900067120F0B8007120F177B
:1017E900000000007F007E507D437C47900067E049
:1017F900F8A3E0F9A3E0FAA3E0FB120B50600E4056
:101809000C900067120F174743500080257F007E18
:10181900507D437CC7900067E0F8A3E0F9A3E0FAA4
:10182900A3E0FB120B50500A900067120F17C74331
:101839005000900008E0FEA3E0FFEE3395E0FDFCC8
:10184900120BDAE4FBFA79A078401209AA120C18F3
:101859007810120EFF900067E0FCA3E0FDA3E0FE04
:10186900A3E0FF120C18E47BB87A1EF9F8120D49AF
:10187900780F120E87780C120EFF900008E0FEA375
:10188900E0FFEE3395E0FDFC120BDA900028E0F85A
:10189900A3E0F9A3E0FAA3E0FB1208B5E4FBFA79A7
:1018A9008078401209AA120C187808120EFF780CD9
:1018B900120EAE7810120ED6EB2FFFEA3EFEE93D6E
:1018C900FDE83CFC7808120ED6EF2BFFEE3AFEED50
:1018D90039FDEC38FC7806120E87EC120BDA8F38DA
:1018E9008E378D368C35900008E0FCA3E0FDEC12B4
:1018F9000BDF900028120F0B90002CE0FCA3E0FDF9
:10190900EC120BDFAB38AA37A936A8351208B91281
:101919000C1890002CEEF0A3EFF090002EE0FCA341
:10192900E0FDEC120BDFAB38AA37A936A83512084F
:10193900B5120C1890002EEEF0A3EFF0900032E0F3
:10194900FCA3E0FDEC120BDFAB38AA37A936A835AA
:101959001208B5120C18900032EEF0A3EFF09000C7
:1019690030E0FCA3E0FDEC120BDFAB38AA37A93657
:10197900A8351208B9120C18900030EEF0A3EFF058
:01198900223B
:102D4B00E5322484FFE5313403FED3EF94B0EE6417
:102D5B008094844002802FC3EF94F4EE64809481BE
:102D6B0050028022E5342484FFE5333403FED3EF95
:102D7B0094B0EE648094844002800BC3EF94F4EE25
:102D8B0064809481500AC281E4900000F0A3F02289
:032D9B00D28122C0
:1025BD0090002CE0FEA3E0FF900000E0FCA3E0FD06
:1025CD002FFFEC3EFE900016F0A3EFF0D394E8EE53
:1025DD0064809483400C9000167403F0A374E8F0AB
:1025ED00800FC3900016E0648094805004E4F0A343
:1025FD00F090002EE0FEA3E02DFFEC3EFE90001AC1
:10260D00F0A3EFF0D394E8EE64809483400C900037
:10261D001A7403F0A374E8F0800FC390001AE064FD
:10262D008094805004E4F0A3F0900030E0FEA3E02D
:10263D00FF900000E0FCA3E0FD2FFFEC3EFE9000BC
:10264D001CF0A3EFF0D394E8EE64809483400C90DB
:10265D00001C7403F0A374E8F0800FC390001CE01D
:10266D00648094805004E4F0A3F0900032E0FEA367
:10267D00E02DFFEC3EFE90001EF0A3EFF0D394E8AA
:10268D00EE64809483400B90001E7403F0A374E8F5
:10269D00F022C390001EE0648094805004E4F0A307
:0226AD00F02219
:10279E00900003E0FF90005CE0B50749900046E032
:1027AE0004F0C3941450030228527413F090006185
:1027BE00E4F0A37480F0900044E4F0A37480F090F1
:1027CE000024E4F0A37480F0D3900001E094149000
:1027DE000000E09400406DA3E024FFF0900000E0C4
:1027EE0034FFF0805FE4900046F0900026E0FEA3F8
:1027FE00E0FFC394E9EE9403400C9000267403F0BE
:10280E00A374E8F0803ED3EF9432EE94004026900D
:10281E000027E0242CFD900026E03401FCE4120B8E
:10282E00DF7B667A6679A6783F120AB3120C18908F
:10283E000000EE800B900026E0FFA3E0900000CF9A
:10284E00F0A3EFF090005CE0900003F0900026E023
:0C285E00FFA3E0900000CFF0A3EFF022F9
:102AE7009000A8120F0B759850E47B04FAF9F89040
:102AF70000ACE0FCA3E0FDA3E0FEA3E0FF120DD4D1
:102B07009000A8E0F8A3E0F9A3E0FAA3E0FB120D18
:102B1700D4EFF404F5D7E47B04FAF9F89000ACE0BD
:102B2700FCA3E0FDA3E0FEA3E0FF120DD49000A8F4
:102B3700E0F8A3E0F9A3E0FAA3E0FB120DD4C3E4A5
:102B47009FFFE49EFE74019DFDE49CFC7808120E35
:0A2B5700748FD6438E14438E0122C2
:102F12002002FDEDB4010FEFD39409EF40042437F2
:0C2F2200800524308001EFD202F59922D6
:102E57009000A8EBF0A3EAF0A3E9F09000A8E0FB4C
:102E6700A3E0FAA3E0F9120CE660199000A8A3E426
:102E770075F001120D33A9F0FA120CE6FFE4FD120A
:052E87002F1280D7228C
:1008B200020C84E86480F8E933E83360110460F0E4
:1008C200ED33EC337009E8FCE9FDEAFEEBFF2204AC
:1008D20060DED3EB9FEA9EE99DE8C2E78CF0C2F7A7
:1008E20095F0400CE8CCF8E9CDF9EACEFAEBCFFB73
:1008F200120C4F85D0F05804700320D5B3E8047071
:10090200075002B2D5020C8E92D5EC0460F7E4CC0B
:10091200C0E0C398F8603B94186008400DD0E0FB3B
:10092200020C66E4FBFAC9FC8028E830E406E4C95C
:10093200FBE4CAFCE830E305E4C9CACBFCE854078F
:100942006010F8C3E913F9EA13FAEB13FBEC13FC9A
:10095200D8F130F52FC3E49CFCEF9BFFEE9AFEED3D
:1009620099FDD0E0FBEF4E4D4C701222DB03020CDE
:100972008BEC2CFCEF33FFEE33FEED33FDED30E775
:10098200EB020C66EF2BFFEE3AFEED39FDD0E0FBF9
:1009920050130BBB0003020C8EED13FDEE13FEEFA2
:0809A20013FFEC13FC020C66CC
:1009AA00EC4D6011E8497017ED33EC3304600DE447
:1009BA00FCFFFEFD22E933E8330470F8020C8412CE
:1009CA000C4F58046009E4CC2481500628500902CF
:1009DA000C8E284003020C8BC0E0EB4A7044B980AD
:1009EA0006D0E0FB020C7AEF4E701CBD8008EBFFCC
:1009FA00EAFEE9FD80EBE98DF0A4FEE5F0020A9338
:100A0A00E9CDF9EAFEEBFFEF89F0A4FCE5F0CE8927
:100A1A00F0A42EFFE435F0CD89F0A42DFEE435F0E4
:100A2A008067EF4E7005BD80D780C3EF8BF0A4AC12
:100A3A00F0EE8BF0A42CFCE435F0F8EF8AF0A42C4D
:100A4A00E5F038FCE433CB8DF0A42CFCE5F03BF860
:100A5A00EE8AF0A42CFCE5F038F8E433CF89F0A450
:100A6A002CFCE5F038CF3400CE89F0A42FFFE5F056
:100A7A003EFEE433C98DF0A42EFEE5F039CD8AF0AE
:100A8A00A42FFFE5F03EFEE43DFD33D0E0FB500726
:100A9A000BBB000F020C8EEC2CFCEF33FFEE33FE87
:060AAA00ED33FD020C66B5
:100AB000020C8EEC5D046005E859047003020C849E
:100AC000120C4F580460F6EC4860F2EC7004FDFE26
:100AD000FF22C860DB2481C85009C3986002500619
:100AE000020C8B9850CAF582E9294B4A7005AB82FB
:100AF000020C7A75F0007C1A7880C3EF9BEE9AEDB9
:100B000099400DC3EF9BFFEE9AFEED99FDE842F090
:100B1000DC23ACF0D0E0FFD0E0FED0E0FDAB8220E3
:100B2000E7101BEB60BAEC2CFCEF33FFEE33FEED6D
:100B300033FD020C66E803F830E705C0F075F000FD
:100B4000EF2FFFEE33FEED33FD40B830E7C280AA51
:100B500074F8CC6480CCC86480C8F58204604FC34C
:100B6000EB9FF5F0EA9E42F0E99D42F0E89C45F0EB
:100B7000603C501DE5825FFFE582D313CB5BCBF475
:100B80002B5582FB50280ABA002409B9002008809E
:100B90001DE5825BFBE582D313CF5FCFF4C3132F38
:100BA0005582FF50090EBE00050DBD00010CC3EBC0
:100BB0009FF5F0EA9E42F0E99D42F0E89C45F06026
:090BC00007CC4820E701B3EC2248
:100BC900ED33EC33600A047003BD8004ECB2E7FC3A
:010BD90022F9
:100BDA0075F020800E75F010800575F0087D007E96
:100BEA00007F003392D530D503120E66EC334010E5
:100BFA00EF33FFEE33FEED33FDEC33FCD5F0ED229F
:0E0C0A00E5F0247EA2D513CC92E7CDCEFF22DA
:100C1800EDD2E7CD33EC3392D524814006E4FFFED4
:100C2800FDFC22FCE4CFCECDCC24E0501174FF8033
:100C3800EDC3CC13CCCD13CDCE13CECF13CF0470D0
:070C4800F030D5DE020E665C
:1029BE00900097120F0B90009BE0F8A3E0F9A3E0B4
:1029CE00FAA3E0FB900097E0FCA3E0FDA3E0FEA3DA
:1029DE00E0FF120AB312239A900097120F0B900089
:1029EE009BE030E759900097E0FCA3E0FDA3E0FEEA
:1029FE00A3E0FFECC0E0EDC0E0EEC0E0EFC0E0E42D
:102A0E00FFFEFDFC900097E0F8A3E0F9A3E0FAA327
:102A1E00E0FB120B507BDB600250087A0F7949788D
:102A2E004080067A0F794978C0D0E0FFD0E0FED022
:102A3E00E0FDD0E0FC1208B9900097120F0B900049
:0D2A4E0097E0FCA3E0FDA3E0FEA3E0FF2263
:102DE200ECC0E0F8EDC0E0F9EEC0E0FAEFC0E0FBC5
:102DF2001209AAEC6480FC7B007A007980783F1289
:102E020008B912286ED0E0CFFBD0E0CEFAD0E0CDE8
:0B2E1200F9D0E0CCF8120AB302239ABA
:100C4F00E9D2E7C933E833F892D5EDD2E7CD33ECEB
:070C5F0033FC5002B2D52264
:100C6600EC30E7100FBF000C0EBE00080DBD0004EF
:100C76000BEB6014A2D5EB13FCED92E7FD2274FF9B
:100C8600FCFDFEFF22E480F8A2D574FF13FC7D80F4
:030C9600E480EF08
:10286A00020C8422EDA2E7D2E7F9EC3340F260F3DE
:10287A00B4FF08ED547F70E8020C8EF82481C2E0A0
:10288A00C0E0F40428FAC313FCED92E7FD90009728
:10289A00120F0BEEA2E7E9BA7F02C31334009400C9
:1028AA00FA75F091A4E5F013F494FE8AF0A433E5E6
:1028BA00F033248CD313FDE492E7FE7F007C3F754E
:1028CA008302ECC0E0F8EDC0E0F9EEC0E0FAEFC038
:1028DA00E0FB8583F0900097120EBA85F083120A06
:1028EA00B3D0E0FBD0E0FAD0E0F9D0E0F81208B9B2
:1028FA00ED6480FD30E7011CD583C7ED33CC33F896
:0C290A00D0E0A2E71328C313CC13FD2279
:10237A00BE1249253E4CCCCDBEAAAAAB3F80000076
:10238A003E7ADBB03EED63383F24BC7D3F490FDB2C
:10239A00ED33ECC2E7CC339200B4FF13ED547F6007
:1023AA0003020C847FDB7E0F7DC97C3F02248FC22F
:1023BA0001C3947F401E7007EDD2E794904015EF59
:1023CA00FBEEFAEDF9ECF87F007E007D807C3F128F
:1023DA000AB3D201ED33EC33248430E705E4C0E0DC
:1023EA00806B04FAEDD2E754F0C333DAFD540734B4
:1023FA00002323C0E0CCC0E0F8EDC0E0F9EEC0E075
:10240A00FAEFC0E0FBE4120BE4EC24FEFC90009F20
:10241A00120F0B1209AA7B007A007980783F120802
:10242A00B990009FE0B2E7CCF0A3E0CDF0A3E0CEF4
:10243A00F0A3E0CFF0D0E0FBD0E0FAD0E0F9D0E0B2
:10244A00F81208B990009F120EE3120AB390009F87
:10245A00120F0B90237A7403120C9990009F120E9C
:10246A00E31209AAD0E0600F2486F582E43423F54A
:10247A0083120EEF1208B930010B7BDB7A0F79C990
:10248A0078BF1208B9ED33EC336006ECA20092E78C
:02249A00FC2222
:100C9900C0E0EFFBEEFAEDF9ECF81209AAD0E0F5A5
:100CA900F0EFFBEEFAEDF9ECF8120EC6A3A3A3A33D
:100CB900E8C0E0E9C0E0EAC0E0EBC0E0C0F012093A
:100CC900AA120EEFA3A3A3A31208B9D0F0D0E0FB98
:0D0CD900D0E0FAD0E0F9D0E0F8D5F0D42258
:03000000022A5B76
:0C2A5B00787FE4F6D8FD75819C022AA269
:100CE600BB010689828A83E0225002E722BBFE020C
:090CF600E32289828A83E493223F
:100CFF00F8BB010DE58229F582E5833AF583E8F02B
:100D0F00225006E92582C8F622BBFE05E92582C8D6
:020D1F00F222BE
:100D2100EF8DF0A4A8F0CF8CF0A428CE8DF0A42EE6
:020D3100FE22A0
:100D3300A3F8E0C5F025F0F0E58215827002158373
:060D4300E0C838F0E822D0
:100D4900E88FF0A4CC8BF0A42CFCE98EF0A42CFC49
:100D59008AF0EDA42CFCEA8EF0A4CDA8F08BF0A4C7
:100D69002DCC3825F0FDE98FF0A42CCD35F0FCEB26
:100D79008EF0A4FEA9F0EB8FF0A4CFC5F02ECD39EB
:0F0D8900FEE43CFCEAA42DCE35F0FDE43CFC2258
:100D980075F008758200EF2FFFEE33FECD33CDCC12
:100DA80033CCC58233C5829BED9AEC99E582984095
:100DB8000CF582EE9BFEED9AFDEC99FC0FD5F0D672
:100DC800E4CEFBE4CDFAE4CCF9A88222B800C1B99C
:100DD8000059BA002DEC8BF084CFCECDFCE5F0CBDA
:100DE800F97818EF2FFFEE33FEED33FDEC33FCEB13
:100DF80033FB10D703994004EB99FB0FD8E5E4F9CE
:100E0800FA227818EF2FFFEE33FEED33FDEC33FCBA
:100E1800C933C910D7059BE99A4007EC9BFCE99AAE
:100E2800F90FD8E0E4C9FAE4CCFB2275F010EF2FF3
:100E3800FFEE33FEED33FDCC33CCC833C810D707F3
:100E48009BEC9AE899400AED9BFDEC9AFCE899F82E
:0E0E58000FD5F0DAE4CDFBE4CCFAE4C8F922C1
:102D9E00C2D5E830E70FB2D5E4C39BFBE49AFAE460
:102DAE0099F9E498F8EC30E717B2D5122DD4120D3C
:102DBE00D4E4C39BFBE49AFAE499F9E498F880030F
:102DCE00120DD430D50DE4C39FFFE49EFEE49DFDAD
:042DDE00E49CFC2253
:0E0E6600C3E49FFFE49EFEE49DFDE49CFC229D
:100E7400E8600FECC313FCED13FDEE13FEEF13FF5C
:030E8400D8F12280
:100E8700E86010ECA2E713FCED13FDEE13FEEF1381
:040E9700FFD8F0226E
:100E9B00E8600FEFC333FFEE33FEED33FDEC33FCB5
:030EAB00D8F12259
:0C0EAE00E6FC08E6FD08E6FE08E6FF2270
:0C0EBA00E0FCA3E0FDA3E0FEA3E0FF22AB
:100EC600E493FC740193FD740293FE740393FF2272
:0D0ED600E6FB08E6F908E6FA08E6CBF8228C
:0C0EE300E0F8A3E0F9A3E0FAA3E0FB2292
:100EEF00E493F8740193F9740293FA740393FB2259
:0C0EFF00ECF608EDF608EEF608EFF6221F
:0C0F0B00ECF0A3EDF0A3EEF0A3EFF02259
:100F1700A8828583F0D083D082120F2E120F2E1253
:100F27000F2E120F2EE473E493A3C583C5F0C58378
:100F3700C8C582C8F0A3C583C5F0C583C8C582C824
:010F47002287
:102A6700021BE7E493A3F8E493A34003F68001F283
:102A770008DFF48029E493A3F85407240CC8C33370
:102A8700C4540F4420C8834004F456800146F6DF3F
:102A9700E4800B010204081020408090224AE47E63
:102AA700019360BCA3FF543F30E509541FFEE49334
:102AB700A360010ECF54C025E060A840B8E493A3FB
:102AC700FAE493A3F8E493A3C8C582C8CAC583CA26
:102AD700F0A3C8C582C8CAC583CADFE9DEE780BEDE
:012379000063
:00000001FF
