:020000040800F2
:1000000058070020910400086502000867020008F4
:100010006B0200086F020008730200080000000075
:10002000000000000000000000000000770200084F
:1000300079020008000000007B0200087D02000831
:10004000AB040008AB040008AB040008AB040008D4
:10005000AB040008AB040008AB040008AB040008C4
:10006000AB040008AB040008AB040008AB040008B4
:10007000AB040008AB040008AB040008AB040008A4
:10008000AB040008AB040008AB040008AB04000894
:10009000AB040008AB040008AB040008AB04000884
:1000A000AB040008AB040008AB040008AB04000874
:1000B000AB040008AB040008AB040008AB04000864
:1000C000AB040008AB040008AB040008AB04000854
:1000D000AB040008BF140008AB040008AB04000820
:1000E000AB040008AB040008AB040008AB04000834
:1000F000AB040008AB040008AB040008AB04000824
:10010000AB040008AB040008AB040008AB04000813
:10011000AB040008AB040008AB040008AB04000803
:10012000AB040008AB040008AB040008AB040008F3
:10013000AB040008AB040008AB040008AB040008E3
:10014000AB040008AB040008AB040008AB040008D3
:10015000AB040008AB040008AB040008AB040008C3
:10016000AB040008AB040008AB040008AB040008B3
:10017000AB040008AB040008AB040008AB040008A3
:10018000AB040008AB04000800F002F800F041F8EE
:100190000AA090E8000C82448344AAF10107DA45E2
:1001A00001D100F036F8AFF2090EBAE80F0013F0F3
:1001B000010F18BFFB1A43F001031847E4260000A3
:1001C00004270000103A24BF78C878C1FAD8520733
:1001D00024BF30C830C144BF04680C6070470000C1
:1001E0000023002400250026103A28BF78C1FBD840
:1001F000520728BF30C148BF0B607047642901F027
:100200000F84002070471FB501F004FD1FBD10B51D
:1002100010BD01F0CDFC1146FFF7F5FF00F008F826
:1002200001F0EBFC03B4FFF7F2FF03BC01F0E4F8CC
:1002300000244FF4E13001F0ECF8542001F05AF8BA
:1002400001F036FA08E0214604A001F0A9FB4FF4C2
:10025000FA7001F0B1F8641CF5E70000743A256407
:100260000D0A0000704700BFFEE700BFFEE700BFB9
:10027000FEE700BFFEE77047704770477047000019
:100280000CB50020019000907648006840F4803062
:100290007449086000BF7348006800F400300090A3
:1002A0000198401C0190009818B90198B0F5A04F32
:1002B000F1D16C48006800F4003010B101200090CA
:1002C00001E0002000900098012846D165484030A8
:1002D000006840F08050634940310860624800681F
:1002E00040F44040604908605E48083000685D495D
:1002F000083108600846006840F40040086008467D
:10030000006840F4A05008605848091F0860081FA2
:10031000006840F08070091F086000BF5148006805
:1003200000F000700028F9D040F2057050490860D4
:100330004C480830006820F003004A490831086042
:100340000846006840F00200086000BF45480830D9
:10035000006800F00C000828F8D10CBD10B5454825
:10036000006840F47000434908603E48006840F06F
:1003700001003C49086000203A49083108603948CA
:1003800000683D490840374908603C48091D08603D
:10039000081F006820F48020091F086000203149F0
:1003A0000C310860FFF76CFF4FF000603149803975
:1003B000086010BD70B50020002202230024022135
:1003C000284D08352D6805F00C0020B1042806D012
:1003D000082834D107E02A4D2A4E356033E02A4DF3
:1003E000284E35602FE01F4D2D1D2D68C5F380541C
:1003F0001C4D2D1D2D6805F03F0154B1224DB5FB5C
:10040000F1F5184E361D3668C6F3881605FB06F260
:1004100009E01B4DB5FBF1F5124E361D3668C6F3EB
:10042000881605FB06F20F4D2D1D2D68C5F30145FD
:100430006D1C6B00B2FBF3F5124E356003E0104DFE
:10044000104E356000BF00BF064D08352D68C5F35E
:1004500003150E4E705D0B4D2D68C540094E35607D
:1004600070BD000000380240007000400854400792
:10047000003C024088ED00E0FFFFF6FE1030002453
:100480000024F4000000002000127A000400002084
:100490000948804709480047FEE7FEE7FEE7FEE718
:1004A000FEE7FEE7FEE7FEE7FEE7FEE70448054954
:1004B000054A064B704700005D03000889010008EB
:1004C000580100205807002058030020580300203E
:1004D00032490143324A1160704770B50021002350
:1004E0000F22C4781CB32E4C246804F4E064C4F5D5
:1004F000E064C4F30721C1F10404E3B20A41447883
:100500009C40E1B28478144021430C07210E254C15
:1005100005786155047804F01F050124AC40057886
:100520006D11AD0005F1E025C5F8004109E0047842
:1005300004F01F050124AC401B4D0678761145F8E8
:10054000264070BD194A0A400243154B1B1F1A6012
:10055000704739B1124A121D12680243104B1B1D1D
:100560001A6006E00E4A121D126882430C4B1B1DD6
:100570001A607047042808D14FF0E021096941F062
:1005800004014FF0E022116107E04FF0E02109691A
:1005900021F004014FF0E022116170470000FA05DC
:1005A0000CED00E000E400E080E100E080FFFF1FD0
:1005B00010B504469848844208D10121084600F04D
:1005C00086FB0021012000F082FB76E09348844204
:1005D00008D10121022000F07AFB0021022000F066
:1005E00076FB6AE08E48844208D10121042000F0A5
:1005F0006EFB0021042000F06AFB5EE08948844223
:1006000008D10121082000F062FB0021082000F041
:100610005EFB52E08448844208D10121102000F0A2
:1006200056FB0021102000F052FB46E07F48844238
:1006300008D10121202000F04AFB0021202000F0F9
:1006400046FB3AE07A48844208D10121402000F07C
:100650003EFB0021402000F03AFB2EE0754884422A
:1006600008D10121802000F032FB0021802000F021
:100670002EFB22E07048844208D10121801500F051
:1006800026FB0021A01500F022FB16E06B488442F7
:1006900008D10121401500F01AFB0021601500F07F
:1006A00016FB0AE06648844207D10121001500F0DC
:1006B0000EFB0021201500F00AFB10BDF0B50A4624
:1006C00000210023002400BF3DE0012505FA01F3CD
:1006D000156805EA03049C4234D105684F000326DF
:1006E000BE40B543056015794E00B54006683543F8
:1006F00005601579012D02D01579022D16D1856876
:100700004F000326BE40B543856055794E00B54085
:10071000866835438560456801268E40B54345604F
:10072000456896798E40B6B235434560C5684F003E
:100730000326BE40B543C560D5794E00B540C668B6
:100740003543C560491C1029BFD3F0BD4FF6FF717A
:1007500001600021017141718171C171704708B55B
:100760004FF480320092009A0A430092009AC261CC
:10077000C161009AC261C2690092C269009208BD5B
:100780000246002013690B400BB1012000E000205D
:1007900070470146086980B27047024600205369DD
:1007A0000B400BB1012000E0002070470146486972
:1007B00080B2704701837047418370470AB101835B
:1007C00000E0418370474161704742694A4042619D
:1007D0007047F0B5002300244D07ED0E02FA05F333
:1007E000CE1000F1200555F826504E07F70E0F26C3
:1007F000BE40B543CF1000F1200646F82750CE107A
:1008000000F1200555F8265045EA0304CE1000F10A
:10081000200545F82640F0BD0000024000040240DB
:1008200000080240000C0240001002400014024088
:1008300000180240001C0240002002400024024038
:1008400000280240F948006840F00100F7490860BC
:100850000020F64908310860F4480068F44908406F
:10086000F2490860F348091D0860F348EF498431F4
:100870000860F0481038091D0860EC48006820F452
:100880008020EA4908600020E8490C310860E74907
:100890008C31086070470021E44A921C11701146A7
:1008A0000870704710B501460022002300204A114D
:1008B000012A02D1DD4C236808E0022A03D1DB4C77
:1008C0007034236802E0D94C7434236801F01F02AD
:1008D000012494401C400CB1012000E0002010BD18
:1008E00038B5002000900024002500BF3120FFF71C
:1008F000D9FF05460098401C00900098B0F5A04F25
:1009000001D0002DF2D03120FFF7CCFF08B1012437
:1009100000E00024204638BD01460020C34A10688C
:1009200020F0F80040EAC10010607047C349086039
:1009300070470021BD4A703211701170012802D039
:1009400004280AD104E00121B84A7032117005E090
:100950000521B64A7032117000E000BF00BF704739
:10096000B7490860704770B5049C41EA82150126BA
:10097000C6EB530645EA0645054345EA0465AB4E1A
:10098000361D356070BDAD4908667047820142EA88
:100990000172A64B84331A607047A8498866704775
:1009A00010B5830143EA016343EA02739F4C883424
:1009B000236010BDA14908677047A049C86470470B
:1009C00002460020994B0833186820F0EC6042EA98
:1009D00001031843954B0833186070470246002006
:1009E000924B0833186820F0784042EA010318431C
:1009F0008E4B083318607047014600208B4A08323E
:100A0000106820F0030008431060704787480830E2
:100A1000006800F00C00704701460020834A08324D
:100A2000106820F0F0000843106070470146002075
:100A30007E4A0832106820F4E05008431060704786
:100A400001460020794A0832106820F4604040EAEC
:100A5000C10010607047F0B500210022002402257B
:100A600000260223714F08373F6807F00C0121B1BF
:100A7000042905D0082937D105E0724F076036E018
:100A8000714F076033E0694F3F1D3F68C7F38056E1
:100A9000664F3F1D3F6807F03F036EB16A4FB7FBDB
:100AA000F3F7DFF888C10CF1040CDCF800C0CCF3DC
:100AB000881C07FB0CF40CE0624FB7FBF3F7DFF880
:100AC0006CC10CF1040CDCF800C0CCF3881C07FBF3
:100AD0000CF4564F3F1D3F68C7F301477F1C7D0054
:100AE000B4FBF5F7076002E0564F076000BF00BF98
:100AF0004E4F08373F6807F0F0010909534F7A5C01
:100B00000768D7404760494F08373F6807F4E0510E
:100B1000890A4E4F7A5C4768D7408760434F083751
:100B20003F6807F46041490B484F7A5C4768D740FB
:100B3000C760F0BD002100F44072B2F5407F0AD1D9
:100B40003A4A0832116821F4F811414A024011432F
:100B5000364A08321160354A70321268C0F30B030E
:100B60001A43324B70331A60704735494439086074
:100B7000704733494039086070473649086070470C
:100B800001460020294A8C32106820F01F004A1EBE
:100B90001043264A8C321060704701460020234AD9
:100BA0008C32106820F4F8504A1E40EA02201F4A96
:100BB0008C3210607047014600201C4A8C3210684D
:100BC00020F4401008431060704701460020174A87
:100BD0008C32106820F440000843106070470146D2
:100BE0000020124A8C32106820F440300843106014
:100BF000704719490860704739B10C4A30321268A1
:100C000002430A4B30331A6006E0084A3032126859
:100C10008243064B30331A607047F9B1034A3432CD
:100C200012680243014B34331A601CE00038024062
:100C3000FFFFF6EA10300024003000200000474299
:100C4000800E47420024F40000127A0014000020B5
:100C5000FFFCFF0F5C014742E01147428F4A1268D8
:100C600082438E4B1A60704739B18C4A121D12684C
:100C700002438A4B1B1D1A6006E0884A121D126847
:100C80008243864B1B1D1A60704739B1834A0C3270
:100C900012680243814B0C331A6006E07F4A0C3223
:100CA000126882437D4B0C331A60704739B17B4A1E
:100CB000103212680243794B10331A6006E0774A0B
:100CC000103212688243754B10331A60704739B185
:100CD000724A243A12680243704B243B1A6006E0C1
:100CE0006E4A243A126882436C4B243B1A60704768
:100CF00039B16A4A203A12680243684B203B1A60B5
:100D000006E0664A203A12688243644B203B1A6030
:100D1000704739B1614A1C3A126802435F4B1C3B71
:100D20001A6006E05D4A1C3A126882435B4B1C3B2A
:100D30001A60704739B1594A143A12680243574B46
:100D4000143B1A6006E0554A143A12688243534B2A
:100D5000143B1A60704739B1504A103A1268024386
:100D60004E4B103B1A6006E04C4A103A1268824320
:100D70004A4B103B1A60704739B1484A1C3212681E
:100D80000243464B1C331A6006E0444A1C32126888
:100D90008243424B1C331A60704739B13F4A2032BC
:100DA000126802433D4B20331A6006E03B4A203272
:100DB00012688243394B20331A60704739B1374A81
:100DC000243212680243354B24331A6006E0334A5A
:100DD000243212688243314B24331A60704739B190
:100DE0002E4A2C32126802432C4B2C331A6006E038
:100DF0002A4A2C3212688243284B2C331A607047DF
:100E000039B1264A303212680243244B30331A601B
:100E100006E0224A303212688243204B30331A6097
:100E20007047012808D11D493C31096841F008018B
:100E30001A4A3C32116007E018493C31096821F038
:100E40000801164A3C321160704739B1134A273AFB
:100E500012780243114B273B1A7006E00F4A273ADB
:100E6000127882430D4B273B1A7070470B48403075
:100E7000006840F0807009494031086070470146C1
:100E80000020064A283A12680A400AB1012000E010
:100E900000207047014926390870704734380240F5
:100EA00010B50446FA48844208D101211020FFF70A
:100EB00052FF00211020FFF74EFF57E0F548844213
:100EC00009D101214804FFF735FF00214FF400301C
:100ED000FFF730FF4AE0F048844209D1012188043D
:100EE000FFF728FF00214FF48020FFF723FF3DE0AC
:100EF000EA48844209D10121C804FFF71BFF002101
:100F00004FF40020FFF716FF30E0E548844209D196
:100F100001210805FFF70EFF00214FF48010FFF7B5
:100F200009FF23E0DF48844208D101212020FFF798
:100F300012FF00212020FFF70EFF17E0DA4884425D
:100F400009D101218807FFF7F5FE00214FF080400D
:100F5000FFF7F0FE0AE0D548844207D101214005A1
:100F6000FFF7E8FE00216005FFF7E4FE10BD2DE964
:100F7000FF4705460E460024A14600BFA046B089A3
:100F800000B100BF2C8A24F44054F08804432C8222
:100F9000AC8941F20C608443B0883189084371897F
:100FA00008430443AC81AC8A24F44074B089044300
:100FB000AC826846FFF74FFDB548854202D0B9487C
:100FC000854202D1DDF80C9001E0DDF80890A88997
:100FD00000F4004040B109EBC90000EB0910316892
:100FE0004900B0FBF1F707E009EBC90000EB09107D
:100FF00031688900B0FBF1F76420B7FBF0F0040121
:101000002009642101FB1078A88900F4004040B158
:10101000322000EBC800B0FBF1F000F00700044301
:1010200008E0322000EB08106421B0FBF1F000F082
:101030000F0004432C81BDE8FF874FF41651016077
:1010400000218180C18001810C21418100218181A9
:10105000704710B502460020108A20F470600B889B
:101060004C8823438C882343CC8823431843108225
:1010700010BD0021018041808180C180704721B175
:10108000828942F40052828104E082894DF6FF7326
:101090001A4082817047028B02F47F420283028BE6
:1010A0000A430283704721B1828942F4004282815F
:1010B00003E08289C2F30E028281704721B1828AE5
:1010C00042F40062828204E0828A4FF2FF731A4087
:1010D00082827047C1F30802828070470146888887
:1010E000C0F308007047028A4FF6F0731A4002827C
:1010F000028A0A430282704721B1828942F00202C9
:10110000828104E082894FF6FD731A408281704724
:1011100082894FF2FF731A40828182890A43828159
:101120007047028A4FF6DF731A400282028A0A432E
:101130000282704721B1028A42F48042028204E0B6
:10114000028A4BF6FF731A4002827047818941F090
:1011500001018181704721B1828A42F008028282B6
:1011600004E0828A4FF6F7731A4082827047028B3E
:10117000D2B20283028B42EA01220283704721B17C
:10118000828A42F02002828204E0828A4FF6DF7374
:101190001A408282704721B1828A42F01002828214
:1011A00004E0828A4FF6EF731A4082827047828A87
:1011B0004FF6FB731A408282828A0A43828270470A
:1011C00021B1828A42F00202828204E0828A4FF6D2
:1011D000FD731A40828270471AB1838A0B4383825F
:1011E00002E0838A8B4383827047F0B50346002474
:1011F00000260025002040F66A17B94200D100BF42
:101200001846C1F3421401F01F06012707FA06F53C
:10121000012C01D10C3004E0022C01D1103000E08F
:1012200014301AB107682F43076002E00768AF4324
:101230000760F0BD02460020B1F5007F00D100BF7D
:1012400013880B400BB1012000E00020704701F42F
:101250000072B2F5007F00D100BFCA430280704720
:1012600070B50246002400230025002040F66A16CF
:10127000B14200D100BFC1F3421501F01F030126A6
:1012800006FA03F3012D13D19689334017E00000CD
:10129000001001400044004000480040004C004065
:1012A000005000400014014000780040007C0040E5
:1012B000022D02D1168A334001E0968A33400C1287
:1012C000012606FA04F41688344013B10CB101204B
:1012D00000E0002070BD10B50022002340F66A1423
:1012E000A14200D100BF0A1201249440A3B2DC4302
:1012F000048010BD10B504466FF00400FFF73AF902
:10130000E11704EB5171C1F3C701394A117010465E
:10131000007800EB4001C1EBC0104FF6FF7101EA0D
:10132000C0003449088010BD0146314A12784A4352
:101330004FF0E0235A6100229A611A46126942F086
:1013400001021A6100BF4FF0E022106900F00102B3
:101350001AB100F48032002AF5D04FF0E022126971
:1013600022F001024FF0E0231A6100229A617047D7
:101370000146204A12884A434FF0E0235A61002276
:101380009A611A46126942F001021A6100BF4FF0D9
:10139000E022106900F001021AB100F48032002A44
:1013A000F5D04FF0E022126922F001024FF0E02365
:1013B0001A6100229A61704770B504464FF40770B5
:1013C00094FBF0F0C6B24FF4077094FBF0F100FB11
:1013D000114085B205E04FF40770FFF7C9FF701E9A
:1013E000C6B2002EF7D115B12846FFF7C1FF70BD78
:1013F000240000202600002000BF704700BF4E4A96
:10140000128802F04002002AF9D0C2B24A4B9A80F8
:10141000704710B588B0044601210846FFF7ECFB81
:1014200001211020FFF742FC072209214348FFF762
:10143000D0F907220A214148FFF7CBF94FF4C060E9
:10144000069002208DF81C008DF81D0000208DF8FC
:101450001E0001208DF81F0006A93848FFF72EF95D
:1014600002940020ADF80C00ADF80E00ADF81000AD
:10147000ADF814000C20ADF8120002A92E48FFF7B9
:1014800076FD01212C48FFF7FAFD40212A48FFF79D
:10149000DEFE012240F225512748FFF7A6FE252057
:1014A0008DF8040003208DF805008DF8060001205A
:1014B0008DF8070001A8FFF710F808B010BD10B5AF
:1014C00040F225511C48FFF7CBFE10B31A48FFF736
:1014D00005FEC4B21A48008800F40040C8B9184894
:1014E000008800F4804060B10A2C03D00020144929
:1014F000088020E01248008840F40040104908802D
:1015000019E00D2C06D10E48008840F480400C49AB
:10151000088010E00A480088C0F30D0009490C5407
:1015200007480088401C0649088008460088C728EC
:1015300001DD0020088010BD0010014000000240C5
:101540002C0000203000002010B5044634B90022E1
:101550004FF48071FB48FFF731F904E001221102DA
:10156000F848FFF72BF910BD10B5044634B9002236
:101570004FF40071F348FFF721F904E00122510212
:10158000F048FFF71BF910BD10B5044634B900222E
:101590004FF48061EB48FFF711F904E0012291025A
:1015A000E848FFF70BF910BD10B504462146E548A1
:1015B000FFF709F910BD70B505460C460020FFF78E
:1015C000C3FF0020FFF7D0FF0020FFF7EDFF002052
:1015D000FFF7DAFF0120FFF7D7FF2846FFF7E4FF08
:1015E0000020FFF7D1FF0120FFF7CEFF0120FFF71A
:1015F000BBFF0020FFF7A8FF0120FFF7A5FF002099
:10160000FFF7B2FFC4F30720FFF7CEFF0020FFF77C
:10161000BBFF0120FFF7B8FF0120FFF7A5FF002067
:10162000FFF792FF0120FFF78FFF0020FFF79CFFDD
:10163000E0B2FFF7B9FF0020FFF7A6FF0120FFF798
:10164000A3FF0120FFF790FF0020FFF77DFF70BD93
:1016500010B5044634B900224FF40061B948FFF7D1
:10166000ADF804E00122D102B648FFF7A7F810BD9B
:1016700010B5044634B900224FF40051B148FFF7C9
:101680009DF804E001225103AE48FFF797F810BD22
:1016900010B5044634B900224FF48051A948FFF731
:1016A0008DF804E001221103A648FFF787F810BD6A
:1016B0001CB501210820FFF79FFA4FF6FF7000903C
:1016C00001208DF8040000208DF8060003208DF81D
:1016D000050001208DF8070069469A48FEF7EEFFE5
:1016E0004FF6FF719748FFF765F80020FFF7B0FF4E
:1016F0000020FFF7CDFFC820FFF75EFE0120FFF7B7
:10170000C7FF0120FFF7B4FF0120FFF7A1FFC820AA
:10171000FFF752FE01210020FFF74DFF4FF47A70D2
:10172000FFF702FE30210320FFF745FF40F21D11B5
:101730000120FFF740FF6420FFF7F6FD4FF48371AF
:101740000A20FFF738FF0120FFF7EEFD40F2077196
:101750000820FFF730FF01210C20FFF72CFF4FF48A
:1017600080610220FFF727FF0120FFF7DDFD40F237
:1017700007110A20FFF71FFF0120FFF7D5FD012108
:101780001220FFF718FF0120FFF7CEFD40F20111F4
:101790000A20FFF710FF0120FFF7C6FD40F20551B8
:1017A0001120FFF708FF42F60F411420FFF703FF57
:1017B0000120FFF7B9FD4FF481710A20FFF7FBFE0E
:1017C0000120FFF7B1FD41F610211020FFF7F3FED5
:1017D0000120FFF7A9FD4FF480710A20FFF7EBFE0F
:1017E0000120FFF7A1FD40F216611320FFF7E3FE91
:1017F0000120FFF799FD40F201110A20FFF7DBFEFF
:101800004FF47A70FFF790FD03213020FFF7D3FEED
:1018100040F204413120FFF7CEFE40F20331322086
:10182000FFF7C9FE40F206413320FFF7C4FE40F245
:1018300004413420FFF7BFFE40F203313520FFF7AB
:10184000BAFE40F207413620FFF7B5FE40F20461D0
:101850003720FFF7B0FE37210720FFF7ACFE01204D
:10186000FFF762FD4FF480710A20FFF7A4FE4FF4EA
:101870007A70FFF759FD41F610211020FFF79BFE0B
:101880000120FFF751FD4FF480710A20FFF793FE0E
:101890006420FFF749FD40F216611320FFF78BFE2D
:1018A0000120FFF741FD40F201110A20FFF783FEFE
:1018B0006420FFF739FD37210720FFF77CFE012068
:1018C000FFF732FD4FF480710A20FFF774FE6420A9
:1018D000FFF72AFD1CBD10B504460020FFF734FEBB
:1018E0000020FFF741FE0020FFF75EFE0020FFF71B
:1018F0004BFE0120FFF748FE2046FFF755FE002073
:10190000FFF742FE0120FFF73FFE0120FFF72CFE0C
:101910000020FFF719FE10BD10B50446C4F30720E0
:10192000FFF742FE0020FFF72FFE0120FFF72CFEFD
:10193000E0B2FFF739FE0020FFF726FE0120FFF797
:1019400023FE10BD000C024070B54FF4BE41442090
:10195000FFF731FE44F610714520FFF72CFE4FF4DF
:1019600080512120FFF727FE2220FFF7B4FF00203F
:10197000FFF7FAFD0120FFF7E7FD074D002403E024
:1019800001CDFFF7C9FF641CB4F5C05FF8D3012097
:10199000FFF7EAFD70BD00001E1C00087047000044
:1019A0000FB4044910B503AA029800F0D3F810BC94
:1019B0005DF814FB280000202DE9F0410E46044696
:1019C000002020622046E168884730B3252805D0F2
:1019D000D4E901219047206A401CF2E7E1682046E3
:1019E00000278847050018D0A5F14100192802D822
:1019F00020354FF400673246294620462760FEF71F
:101A0000FDFB40B1012804D0F61D26F0070608367C
:101A1000D8E7361DD6E72846DAE7206ABDE8F08128
:101A20002DE9F0410646002410687529314616A5B7
:101A300010D0AFF30080002802DA404213A507E07F
:101A400031688A0701D512A502E0490704D511A51E
:101A5000012401E0AFF3008000210A2206F12407EF
:101A600009E0B0FBF2FCB0FBF2F302FB1C003030EB
:101A700078541846491C0028F3D123462A4630469C
:101A8000BDE8F04100F00CB8000000002D0000009F
:101A90002B0000002000000070477047704770471F
:101AA0002DE9F0470D4699469246044600F1240878
:101AB0000168880604D5E06921F01001216000E08A
:101AC0000120A84201DD471B00E00027A1697A1927
:101AD00002EB0900081AA0612078C00602D4204653
:101AE000AFF30080002608E0D4E901211AF80600CF
:101AF0009047206A401C761C20624E45F4DB20781B
:101B0000C0060AD52046AFF3008006E0D4E90121E3
:101B100030209047206A401C2062381EA7F1010740
:101B2000F4DC07E0D4E9012118F805009047206AA9
:101B3000401C2062281EA5F10105F3DC2046AFF30E
:101B400000802078000602D50220BDE8F087012041
:101B5000FBE70000074B70B50D467B4400F011F821
:101B60000446284600F020F810B14FF0FF3070BD59
:101B7000204670BD9FF8FFFF01694A1C026108788A
:101B8000704700B58FB0CDE90131002105910549BD
:101B90007944CDE9031011466846FFF70DFF0FB0F9
:101BA00000BD0000E5FFFFFF007B00F080007047F4
:101BB000754600F02BF8AE4605006946534620F006
:101BC0000700854618B020B5FEF770FCBDE8204040
:101BD0004FF000064FF000074FF000084FF0000BE9
:101BE00021F00701AC46ACE8C009ACE8C009ACE89C
:101BF000C009ACE8C0098D46704710B50446AFF384
:101C000000802046BDE81040FEF70CBB004870473E
:101C1000F80000204FF04070E1EE100A70476CBDF4
:101C200064BD5CBF54BF54BF5CBE649D649D649D35
:101C30005CDF4CBF44BF4CDF54DF649C6C9C643D54
:101C40006C9E74BE6CBD649C64BC5CBD549D5CBFEA
:101C5000549F549F5CBF5CDF5CBE54BD5CBD5C9E0A
:101C60005C9E5C9E5C9E5C9E5C9E5C9E5C9E6CBD75
:101C700064BD5CBF54BF54BF5CBE649D649D649DE5
:101C80005CBE54DF4CBF54DF64FE6CDC749B7CBCD8
:101C9000747B643964596CBA6CFB6CDC64BC5CBDED
:101CA0005CBE5C9E547E547E5CBF5CDE5CBE5C9E13
:101CB0005C9E5C9E5C9E5C9E5C9E5C9E5C9E64BE2C
:101CC00064BE5C9F5C9F5C9F5C9E649D649D6CBEDB
:101CD0005C7D5C9E64FE6CDD645A537542B029CC19
:101CE00021AA198911690949118B32B053D65C18A0
:101CF0006C9C6CFE64BE5C7E5C7F5C9F5C9F5C9EAB
:101D00005C9E5C9E5C9E5C9E5C9E5C9E5C9E64BEDB
:101D100064BE5C9F5C9F5C9E649E649E649D6CDE62
:101D2000645C6C9C749B5BB63A7029AC2149298732
:101D30001925194629C829C91969110809292A4FDD
:101D40004B546C7A74FD64BD5C5E5C7F5C9F5C9FF1
:101D50005CBE5CBE5CBE5CBE5CBE5CBE5CBE64BFAA
:101D6000649F649E649E649E649E649E649E649D63
:101D700074DD747A5313298B2128316941C952AB20
:101D80004A49420941E939C93189318931A910E605
:101D900019893ACF64366CDA64BC5C9D64BE5CBE63
:101DA0005CBE5CBE5CBE5CBE5CBE5CBE5CBE5CBF62
:101DB00064BF649E649D649E649E5C9F5CBE647C04
:101DC00074BB5B74318B290739A84A2A526A39A639
:101DD0004A475A6A524A522A522B41E931872946C8
:101DE000110511673ACE6457751C64DD5C9D64BEB5
:101DF00064BE64BE64BE64BE64BE64BE64BE5CBFDA
:101E00005CBF649E649D649D5C9E5CBF5CBF64BD62
:101E100053D731ED29274A09524962CB8C71CE77CD
:101E20009CF05AC94A498C11C5B89C734A094208AA
:101E300029A6112511893B33649B6CDF547E64BF56
:101E400064BE64BE64BE64BE64BE64BE64BE5CDF69
:101E50005CBE649D649D649D5CBE54BF54DF5CBDEC
:101E60003B14194939A85A8A41C66B6DF7DEFFFD4C
:101E7000BE35636C632CCE19FFDFDE5B62AB39A627
:101E800031C6114500E61A0E54196CFF649F64BFF9
:101E900064BE64BE64BE64BE64BE64BE64BE5CDF19
:101EA0005CBE64BD649C64DE5CDE4C7E54DE545AD1
:101EB000098C21A94A294A275AA98491F7FFB657C4
:101EC00042C9532C7C11B5787370DEBC7BAF4228BD
:101ED00029852186090600E953D86CBE64BF64BE1B
:101EE00064BE64BE64BE64BE64BE64BE64BE5CDECA
:101EF0005CBD64BD64BC64DD5CDE549D5CDD4C187F
:101F000011AC194739E75AA9630A8470F7FF7CB10D
:101F10003A695B2D73D1B5B9A4F6EEFD736E41E756
:101F200039E63228198700E832D25C3A649D64BEF3
:101F300064BE64BE64BE64BE64BE64BE64BE5CDD7A
:101F400064DD5CBD5CBD5CBD5CBD5CBD64BB222F63
:101F500021AB39E952485AA94A676BCDF7FFF7FF21
:101F60009D1473AF6B6FDE9CFFDFFFBF6AEB41C553
:101F700031A42164090300E6222D64586CBB64BDC2
:101F800064BE64BE64BE64BE64BE64BE64BE5CBD4A
:101F900064DD5CBD5CBD5C9D5C9D6CDC645831EDBA
:101FA00031A949E85A2762A85A875AE9AD72EF3930
:101FB000944E524649C4ACD1EED9C5534163522622
:101FC00041E5296419041947198A64156C9A64BD9E
:101FD00064BE64BE64BE64BE64BE64BE64BE649C13
:101FE00064DD5C9D5CDF5C9E649C7CBB6B94398A89
:101FF000414651A659E55A0562666AA773067B02F7
:102000009362AC269BA48B438B047A836A43496119
:1020100049833965312620E7086752F3743A6C9D8D
:1020200064BE64BE64BE64BE64BE64BE64BE649CC2
:1020300064DE549E5CDF5C9E647C849A62D040E5E2
:10204000512469E6722672459369BC8DC4AAE5479E
:10205000DD03E524E545E546D4E6B404AB8582849A
:1020600061C3390330C5208610474A2F73F86C9D31
:1020700064BE64BE64BE64BE64BE64BE64BE6C9C6A
:102080006CDE547E64FF5C9F6C7C8C58620C71E843
:1020900079C571838225AB8AD4EEED90FDACF50451
:1020A000FD41FD62FD41F4E1DC81E4C4DCA7CC89A3
:1020B0008AA55143412538E630E7418A73946C9CE8
:1020C00064BE64BE64BE64BE64BE64BE64BE6C9D19
:1020D0006CDE547E64FF64BF6C7B8C5759898187AA
:1020E000A20791639142A225A245B2C6DC28F485DD
:1020F000FD03FD23FD23FD44E4A3D4249A409A620A
:10210000710060A0612448C44106392873D56C9CD5
:1021100064BE64BE64BE64BE64BE5CBE5CBE5C7E07
:1021200064BF5C9E64BE5CBD6CBA424E59899167C7
:10213000C1A7FB0BD184B96398C0A12288E0A22378
:10214000B325C3E6BBE59B027A006940710180A11B
:10215000804098C288C370C450A530E8637574BDD0
:1021600064BE5C7D64DF64DF5C9E64DF5CBE64DF54
:1021700064DF6CFF6CFD6CDB32B031AA40C5812698
:10218000C1A7D986FA89F268C924B8C2B94498E2CD
:102190009102912189208140812188E288C3A9256B
:1021A000906290A180A25841300218254270645A72
:1021B00064BE5C9D64BF64BF5C9E64DF5CBE647F84
:1021C0005C5D549C5CBA4BB409083147492658A35E
:1021D000D36DB9C7C965D925D904C8C2C8A1D880EB
:1021E000D860C820C820D040C861C861B861984094
:1021F00088E181E4724730E21861100118E84B75FC
:10220000649D64BE64BE64BE5C9E64DF5CBE6CDFC5
:102210006CFF64FC64B9220C1106312551A67A8941
:10222000FF1BFD14A925B883D0A3D0A2C840E0604D
:10223000E880E8A1E881D840D021D062C0C3A103E2
:10224000B30AB48F9CB03A0618E210410024223041
:102250005C3A6CDD649D649E649F64DF5C9E5C3EC2
:10226000647D6D1C435200C5296628E34164942FA8
:10227000FFBDFE79AA08B8E5C883C800E924C923D0
:10228000C164C163C143B943C1A5CA6ACB0DE4D4DB
:10229000F618E698D698634B10C208420044010B2A
:1022A0004BD86CBC649C649E649F64BF5C9E6CFF56
:1022B000649C7D3C19CB08A43185318441E5B594FB
:1022C000FFBDE5F7AAECA926C904C800FAAAFD5685
:1022D000FD76FD53FD72FDB4FE37FE9BFEDEFEFE75
:1022E000EE9CDE59EF1A9CB1108100210065006759
:1022F00043966C9B647C6CBE649E649F649F653F48
:102300005C9C6C79196A10E52144216331E5D6980B
:10231000FF9DD5F7B410A24998E4C8E4FB6FFF3FD6
:10232000FF5FFF7DFFBCFFFDFFFEF79FE73FDE9FE6
:10233000D63CCD97EE99BD54106100220064002672
:1023400043756C9A647B6CBE647E647E64BF54BCCF
:102350006D1D74797C3673B17C106BAD84907BEE0F
:102360008C2F8BEF93AE9B2C4000A905F3D1FF5F20
:10237000FFBFFFFFFFFFF7FFEFFFDFBFDF7FD6BF2E
:10238000E6FFDE5ADE38B5340840006300440046FC
:102390004B746C7A645B6C9E647E647E6CBF6D7EF5
:1023A0005C9A84FB6BB4EFBFF7DFFFFFF7FEFFFE25
:1023B000FFFEFFFEFF9DFFDE200081A7F535FF9F9A
:1023C000FFFFFFFFF7FFF7FFF7FFE77FEF7FDEFD80
:1023D000BE39D71BC6B97C5010E321050002004668
:1023E00032F274BB6CBC647C649E6C9F649F4C59DD
:1023F0006D1B6C588498F7FFF7BFFFFF00000820A3
:1024000000001040FFFEFF7D0800EE59FF9EFFDE3A
:10241000FFFFF7FFF7FFF7FFF7FFE73DDEFBE75CA6
:10242000BE57BEB8BED9536D1125630F18C8116BC6
:1024300043746C9A6C9C647C649E647F647F751C9E
:102440006CFB64995BF5EFBFFFDFF77FFFDF0800F0
:1024500000200020FFDEFFFF0000FFFFF7FEF7FE79
:10246000F7FEEFFEEFFEEFDFEFBFEF7EEF5DC6772B
:10247000D739C71774AF00E342CE63336B974B3441
:1024800064586CBB6C9C6CBE6CBF649F64BF647A08
:102490006CDB6CDA5C35F7FFFFFFFFDF0800000044
:1024A00000000020FFFEFFDE0000F7FEF7FEF7FE53
:1024B000F7FEF7FEF7FEEF9DE73DDEDBD679EF395D
:1024C000C613BE1129803A475B707C7A7CBD6C7A5A
:1024D0006CDB6CDC6CBD6CDE6CBF64BE64DF6CBD41
:1024E0006CDC6CF96455E7BFFFFF0800080008408A
:1024F000FFFF0021FFFFFF7D0840FFFDF7DCFFDF4E
:10250000FF5EFF5DFF5DF71CEEFCEEDCE678DDF3C1
:10251000B46A7A60A3E77B2852CC6C79649D64BC72
:102520006CDC64BC64BD64BE649E5C9E64DF647DE0
:10253000649B6CB96C95EFFFFFFF00000000FFFF8C
:10254000F7BFEF5EFFFFFFFF0800E6D7FFBBFF7E90
:10255000FEFDFF3DFF5DE6DBE69AE678DDB2AB8689
:10256000BB83C3A1F568CD2C62C93AF15C7A64BC27
:102570006CDD64BD64BD64DE64BE5C9E64FE64FFAD
:102580005C5B853B7454F7FFFFFD0020FFFDFFFF00
:10259000FFFFFFDFF79FF75C10207AE7A40BCD94D5
:1025A000BD55BDF8C679A5B6A532AC8D9B44CBE12F
:1025B000FCE2FD00FDC5E5A9C56E29A66C766CBBE5
:1025C0006CDE64DE64BE64FF64FF5CDE64FE5CBDE2
:1025D000753E6C376BD2F7FFFFFDEFDC0020F7BED6
:1025E000FFFFE71EFFFFFFFF0800C552A44F62CBAD
:1025F0003A0A2A2B2A6C2A4B5B4D9C6EB44ADCC8E3
:10260000E4E5FDA7DD47B4C96AE63A276C146C9A85
:102610006CDE64BD5C9D64DE64FE5CBD5CBD7D1CE7
:102620006C997CB863F3F7FFEFFFF7FFF7FEFFFF4E
:10263000F7DFFFFFFFFFF7DF00015ACC39EA322E48
:1026400043125C176C585BF54311426D424B528A42
:102650005A8A5A894A6A4A8C5B506C1574996CBCC8
:1026600064BD649D64BD64DE64DD64BD64BD6C9A5C
:102670007D3C643700A80045002400220022002190
:10268000008300020003000400055B535BB55C1986
:10269000647B74FC7D1D74DB6C796C586C385BD684
:1026A0005BD65BF65BD66418747A7CDB7CFC6CDDF5
:1026B0006CDD64BD6CDD6CDD64BD64BD649C64DF99
:1026C000753F6CFE64BC74FC7D1C7CDA7CFA6C7714
:1026D0007CFA7CB98D3C6C397CFD74BC74BD64BDE6
:1026E00064BD64BC6CDC6CDC74DC74FB74DB74BADD
:1026F00074DB7CFB7D1C855D8D7E855E7D1D74FE9F
:1027000074FE6CFD6CDD6CDD6CDD64BD649C5CDFB7
:10271000549F547E64FF64BE64BD649B6CBC7D1D8D
:102720005C5A647B74DD649D6CDF5C7D6CDF5C9D5A
:102730005CBD64BD64DD6CFD751D74FC74DB751CD3
:102740007D1C7D3D855D857E857F7D3E74DD751EAE
:10275000751E751E74FE6CFD6CFD6CDD64BC653F02
:10276000653F653F549E547D64DE755F64BD64BD06
:1027700064BD751E6CFE6D1F6D3F6D1F545D5CBDAD
:1027800064FE6D1F6D1E6D1E751D751D6CFC753D07
:102790007D3D7D3E7D3E7D5E7D5F7D3E751E751E71
:1027A000753E7D5F753E751E751E751E6CDD5CDEAB
:1027B000443B547C547C755F755F7D7F64BD751FA1
:1027C0007D5F6D1E6CFE5C9C6D1E757F651E5CDE04
:1027D0006D1F6D3F6D1E64FD6CFD6D1D6CFD7D5E9E
:1027E0007D5E753E751D753E7D5F7D5F753F6CFD41
:1027F0007D5E7D7F7D5F7D5E7D5E753E6CFD85DFF0
:102800006D1D753D755E7D3E647B6CDD8D9F74FD39
:102810006CBC7D5E859F7D5E753D753D757F6D3FB2
:10282000757F7D9F753F6D1E755F755E753E7D7F03
:10283000755E751D6D1D755E7D7F7D7F753E6CFDC2
:102840007D5E859F859F7D7F7D7F753E6CFD7D5C78
:1028500085BE857D7D5D7D1D7D1D7CFD853E853E26
:102860006CBB9E1F74FC7D5D751C753C755D6D1E9B
:10287000755F757F753F753F755F753E64DD859F3C
:102880007D5F751E751E7D7F8DDF859F751E6CFDBE
:102890007D7F8DBF859F859F7D7F753E6CFD000090
:1028A000C02800080000002030000000C40100081B
:1028B000F02800083000002028070000E001000890
:1028C000007A030A00000000000000000102030477
:1028D00006070809000000000102030401020304C6
:1028E00006070809000000000000000000000000CA
:040000050800018965
:00000001FF
