:0A07CC00759DC7E4F5BD75BC8022E1
:1006DB00EF4488F5BC00000000E5BC30E4FB53BCE4
:1006EB00EFAFBDEF75F004A4ADBE7C002DFFEC3574
:0206FB00F0FE0F
:0106FD0022DA
:0606B500C2B67FC87E0002
:1006BB00E4FDFCC3ED9FEC9E5015E4FBFA0BBB0075
:0F06CB00010AEB64FA4A70F50DBD00010C80E4E2
:0106DA0022FD
:100743007525807526807527807B007A00792512B0
:0D075300068CC2B67FA07E0F1206BBD2B688
:010760002276
:10072100E4F594F593F592F591F596F595F5B2F515
:10073100B1F5B4F5B3F5CAF5C9F5CCF5CBF5E2F5EC
:02074100E122B3
:10000300E4F5081207217F0A7E001206BB1207CC13
:100013007F641206BB1203F77F647E001206BB20C7
:10002300CC031207437F011206DBEF7802CEC31322
:10003300CE13D8F9F50E7F021206DBEF7802CEC39A
:1000430013CE13D8F9F50F7F061206DBEF7802CE35
:10005300C313CE13D8F9F510850E11850F12F513BE
:10006300E50ED3948040028008E50EC394805009C6
:10007300C37480950EF5178003E4F517E50FD39449
:100083008040028008E50FC394805009C3748095B3
:100093000FF5188003E4F518E510D394804002802F
:1000A30008E510C394805009C374809510F5198036
:1000B30003E4F5197B007A0079091206FE8509200D
:1000C300850A21850B1FE4F523F5227F0AFE12061C
:1000D300BBE4FF1206DB8E0C8F0D7F011206DBEFF4
:1000E3007802CEC313CE13D8F9F50E7F061206DBC2
:1000F300EF7802CEC313CE13D8F9F50F7F021206A1
:10010300DBEF7802CEC313CE13D8F9F5107F0712B5
:1001130006DBEF7802CEC313CE13D8F9FDD3E50D7A
:1001230094E8E50C94034008751A03751BE88006F0
:10013300850C1A850D1BE5112405FFE433FEE50E3E
:10014300D39FEE6480F87480984014E50E9FFFE41B
:100153009EC313EF13FFE51125172FF51C8030E520
:100163001124FBFFE50EC39F5022E51124FBFFE49E
:1001730034FFFEE50EFBC3EF9BFFEE9400C313EFCA
:1001830013FFE5112517C39FF51C8003751C80E53C
:10019300122405FFE433FEE50FD39FEE6480F87469
:1001A30080984014E50F9FFFE49EC313EF13FFE510
:1001B3001225182FF51D8030E51224FBFFE50FC330
:1001C3009F5022E51224FBFFE434FFFEE50FFBC33F
:1001D300EF9BFFEE9400C313EF13FFE5122518C343
:1001E3009FF51D8003751D80E5132405FFE433FE91
:1001F300E510D39FEE6480F87480984014E5109F57
:10020300FFE49EC313EF13FFE51325192FF51E809B
:1002130030E51324FBFFE510C39F5022E51324FBB5
:10022300FFE434FFFEE510FBC3EF9BFFEE9400C336
:1002330013EF13FFE5132519C39FF51E8003751EE6
:1002430080EDD39402406E8D14E514D39423400BB8
:10025300E514942B5005751501805DE514D3944680
:10026300400BE51494505005751502804BE514D3EB
:10027300946C400BE514947550057515038039E5AE
:1002830014D39492400BE514949C50057515048087
:1002930027E514D394C0400BE51494CA5005751593
:1002A300058015E514D394FA400E748094815008A8
:1002B3007515068003E4F515E515606A6516600C8F
:1002C300E515B40107051F1206B5D2B6E516651587
:1002D300600CE515B40207151F1206B5D2B6E51674
:1002E3006515600CE515B4030705211206B5D2B6F2
:1002F300E5166515600CE515B4040715211206B55E
:10030300D2B6E5166515600CE515B406070520128F
:1003130006B5D2B6E5166515600CE515B4050715E7
:10032300201206B5D2B685151620B210752201D259
:10033300B7C2B67F2C7E011206BBD2B6C3E51B94AF
:1003430014E51A9400501720CD14752205C2B71274
:1003530006B5D2B61206BBC2B61206BBD2B620CCC5
:100363001D85200985210A851F0B7B007A007909E9
:1003730012068CC2B67FF47E011206BBD2B6AE1A49
:10038300AF1B7C007DFF120567AB07E52325222BFE
:10039300FAAE1AAF1B7C007DFF120567AF05EA2F8B
:1003A300251C251D251E25202521251FF524AE23CB
:1003B30005238E328522338B348F35851C36851D7C
:1003C30037851E3885203985213A851F3BF53CE466
:1003D300F53CF50874322508F8E6623C0508E508A3
:1003E300B409F17B007A0079327D0F1206151206EB
:0403F300B70200D479
:1007A200D3EF9400EE94004007EF1F70F31E80F029
:0107B2002224
:0405BC007B01E4FDDE
:0205C000AA0788
:1005C200C2B5E4FFFEEA339294D295C295EA25E0E1
:1005D200FA0FBF00010EEF64084E70E9E4FEFFED72
:1005E200339294D295C295ED25E0FD0FBF00010E26
:1005F200EF64084E70E9E4FEFFEB339294D295C2A9
:1006020095EB25E0FB0FBF00010EEF64084E70E989
:02061200D2B55F
:0106140022C3
:1003F700C2B47FF47E011207A2D2B47FF47E011249
:1004070007A2D2B37BEF7D6FE4FF1205C07B817D2E
:10041700567F011205C07B177D667F021205C07BE0
:10042700C97D9C7F041205C07B377D667F05120559
:10043700C0E4FBFD7F071205C07B907D6C7F08122F
:1004470005C0E4FB7D487F091205C07BFD7D7F7FEA
:100457000A1205C07B08E4FD7F0B1205C0E4FBFD13
:100467007F0C1205C07BBD7D487F0D1205C07BFF49
:10047700E4FD7F161205C07B057D807F171205C03E
:100487007B67E4FD7F181205C07B597D167F191223
:1004970005C07BE07D197F1A1205C0E4FB7D137F41
:1004A7001B1205C0E4FB7D187F1C1205C0E4FB7D11
:1004B700587F201205C07BC77D3F7F211205C0E40E
:1004C700FB7D207F221205C0E4FB7D0A7F231205F6
:1004D700C07F241205BC7F251205BC7B01E4FD7F8C
:1004E700261205C07B01E4FD7F271205C07B027D34
:1004F700447F281205C0E4FB7DB87F291205C07B25
:10050700FF7DFD7F2A1205C07B0FE4FD7F2B0205CF
:01051700C023
:10066300C2B5E4FEEF339294D295C295EF25E0FF35
:100673000EBE08F0E4FEED339294D295C295ED25BB
:08068300E0FD0EBE08F0D2B547
:01068B00224C
:080615008B258A2689278D2818
:10061D00E4FC7B807D807F341205C0E4FBFD7F0709
:10062D001205C0E4FBAD287F321205C0ECC395283E
:10063D005017AB25AA26A9278C82758300120518A1
:10064D00FD7F321206630C80E37B207D017F071254
:05065D0005C030B3FDF3
:010662002275
:0D07B300E4F5C7F5C5F5C675C380F5C42291
:1007610075C78075C5018FC48EC375C65A75C6A578
:0607710000AFC21207B345
:01077700225F
:1007780075C78075C5028FC48EC38DC275C65A757C
:06078800C6A5000207B344
:10078E0075C78075C5038FC48EC375C65A75C6A549
:04079E00000207B39B
:06068C008B2F8A3089313A
:10069200E4FFFE12078EE4FCECFF7E00AB2FAA30D3
:1006A200A931F582758300120518FD1207780CBC7A
:0206B20005E65B
:0106B4002223
:0606FE008B258A268927E6
:10070400E4FDEDFF7E00120761AB25AA26A9278D23
:0C07140082758300EF1205450DBD05E65F
:0107200022B6
:030000000207C034
:0C07C000787FE4F6D8FD75814702000345
:10051800BB010CE58229F582E5833AF583E0225098
:1005280006E92582F8E622BBFE06E92582F8E222E2
:0D053800E58229F582E5833AF583E49322FC
:10054500F8BB010DE58229F582E5833AF583E8F0EC
:10055500225006E92582C8F622BBFE05E92582C898
:02056500F22280
:10056700BC000BBE0029EF8DF084FFADF022E4CC78
:10057700F875F008EF2FFFEE33FEEC33FCEE9DEC41
:10058700984005FCEE9DFE0FD5F0E9E4CEFD22ED87
:10059700F8F5F0EE8420D21CFEADF075F008EF2FD1
:1005A700FFED33FD4007985006D5F0F222C398FDC2
:0505B7000FD5F0EA225F
:00000001FF
